:100000000C942A000C9447000C9447000C94470071
:100010000C9447000C9447000C9447000C94470044
:100020000C9447000C9447000C9447000C94470034
:100030000C9447000C9447000C9447000C94470024
:100040000C9447000C9447000C9447000C94470014
:100050000C94470011241FBECFE5D4E0DEBFCDBF16
:1000600010E0A0E6B0E0E4E6F0E302C005900D92F7
:10007000AC3CB107D9F720E0ACECB0E001C01D9278
:10008000AC3CB207E1F70E94BB130C9430180C94FF
:100090000000CF93DF931F92CDB7DEB7898389E24B
:1000A00090E02981FC01208380E490E0FC01208124
:1000B00080E490E02F7BFC01208380E490E0FC0151
:1000C000208180E490E0277FFC01208380E490E0A1
:1000D000FC01208180E490E02260FC01208380E428
:1000E00090E0FC01208180E490E02460FC0120830A
:1000F00080E490E0FC01208180E490E02B7FFC0113
:1001000020838AE290E0FC0120818AE290E028606E
:10011000FC0120838AE290E0FC0120818AE290E0E9
:100120002061FC01208300000F90DF91CF910895A2
:10013000CF93DF9300D0CDB7DEB79A8389830000D9
:100140008BE290E0FC018081829586958770882FF4
:1001500090E081709927892B99F38CE290E02981B6
:10016000FC01208300000F900F90DF91CF91089544
:10017000CF93DF9300D01F92CDB7DEB79B838A83E6
:1001800019828BE290E0FC018081881F8827881FFC
:10019000882F90E081709927892B59F08CE290E0AC
:1001A000FC0120818A819B81FC01208381E089837D
:1001B00001C0198289810F900F900F90DF91CF912C
:1001C0000895CF93DF93CDB7DEB700008BE290E0C8
:1001D000FC018081881F8827881F882F90E081700C
:1001E0009927892B99F38CE290E0FC018081DF91C3
:1001F000CF910895CF93DF93CDB7DEB783E590E03D
:10020000FC01208183E590E02F7BFC01208383E5C6
:1002100090E0FC01208183E590E0277FFC012083B2
:100220000000DF91CF910895CF93DF93CDB7DEB774
:1002300083E590E0FC01208183E590E02260FC01F1
:1002400020830000DF91CF910895CF93DF93CDB746
:10025000DEB783E590E0FC01208183E590E0287F14
:10026000FC0120830000DF91CF910895CF93DF93AD
:100270001F92CDB7DEB7898382E590E02981FC012A
:10028000208300000F90DF91CF910895CF93DF93EB
:100290001F92CDB7DEB789838CE590E02981FC0100
:1002A000208300000F90DF91CF910895CF93DF93CB
:1002B000CDB7DEB78FE590E0FC0120818FE590E0BF
:1002C0002068FC01208389E590E0FC01208189E51C
:1002D00090E02160FC0120830000DF91CF91089520
:1002E000CF93DF93CDB7DEB789E590E0FC012081A5
:1002F00089E590E02E7FFC0120830000DF91CF9103
:100300000895CF93DF93CDB7DEB78FE590E0FC0182
:1003100020818FE590E02068FC01208389E590E052
:10032000FC01208189E590E02260FC01208300002F
:10033000DF91CF910895CF93DF93CDB7DEB789E5F5
:1003400090E0FC01208189E590E02D7FFC01208375
:100350000000DF91CF910895CF93DF9300D0CDB708
:10036000DEB789836A838FE590E0FC0120818FE509
:1003700090E02068FC0120838981882F90E0813003
:100380009105B9F08230910529F1892B09F033C02C
:100390008A810E9401028BE590E0FC0120818BE5BF
:1003A00090E02064FC01208360E08AE10E94050364
:1003B00022C08A810E946A028BE590E0FC012081C4
:1003C0008BE590E02068FC01208360E08BE10E94D7
:1003D000050311C08A810E94D3028BE590E0FC01E5
:1003E00020818BE590E02062FC01208360E08AE0C0
:1003F0000E940503000000000F900F90DF91CF9145
:100400000895CF93DF931F92CDB7DEB7898389819B
:10041000882F90E081309105F9F0823091051CF42D
:10042000892B39F052C08230910549F10397D1F1FF
:100430004CC085E590E0FC01208185E590E02D7FB2
:10044000FC01208385E590E0FC01208185E590E0BA
:100450002E7FFC01208339C085E590E0FC012081DE
:1004600085E590E02D7FFC01208385E590E0FC018F
:10047000208185E590E02160FC01208326C085E590
:1004800090E0FC01208185E590E02260FC01208362
:1004900085E590E0FC01208185E590E02E7FFC0160
:1004A000208313C085E590E0FC01208185E590E084
:1004B0002260FC01208385E590E0FC01208185E538
:1004C00090E02160FC012083000000000F90DF918C
:1004D000CF910895CF93DF931F92CDB7DEB7898375
:1004E0008981882F90E081309105F9F08230910563
:1004F0001CF4892B39F052C08230910549F10397E1
:10050000D1F14CC085E590E0FC01208185E590E0CB
:10051000277FFC01208385E590E0FC01208185E5B3
:1005200090E02B7FFC01208339C085E590E0FC0141
:10053000208185E590E0277FFC01208385E590E020
:10054000FC01208185E590E02460FC01208326C029
:1005500085E590E0FC01208185E590E02860FC01C4
:10056000208385E590E0FC01208185E590E02B7FEC
:10057000FC01208313C085E590E0FC01208185E526
:1005800090E02860FC01208385E590E0FC0120815B
:1005900085E590E02460FC012083000000000F90BE
:1005A000DF91CF910895CF93DF931F92CDB7DEB740
:1005B00089838981882F90E08230910519F0039713
:1005C00059F014C085E590E0FC01208185E590E0BC
:1005D0002F7BFC01208314C085E590E0FC01208185
:1005E00085E590E02064FC0120830AC084E590E06A
:1005F000FC01208184E590E02F7BFC01208300003A
:1006000000000F90DF91CF910895CF93DF9300D03A
:10061000CDB7DEB789836A838A81882F90E00097FF
:1006200019F0019789F15FC0898186958695869535
:10063000882F90E0880F991F805A9F4FFC0180817E
:100640009181FC018081482F8981882F90E09C0155
:100650002770332781E090E002C0880F991F2A9508
:10066000E2F78095242F28238981869586958695A3
:10067000882F90E0880F991F805A9F4FFC0180813E
:100680009181FC0120832FC089818695869586956E
:10069000882F90E0880F991F805A9F4FFC0180811E
:1006A0009181FC018081482F8981882F90E09C01F5
:1006B0002770332781E090E002C0880F991F2A95A8
:1006C000E2F7242F282B8981869586958695882F99
:1006D00090E0880F991F805A9F4FFC018081918183
:1006E000FC012083000000000F900F90DF91CF915C
:1006F0000895CF93DF9300D0CDB7DEB789836A83A7
:100700008A81882F90E081309105B9F1823091057E
:1007100009F462C0892B09F08EC08981869586957F
:100720008695882F90E0880F991F8A589F4FFC016B
:1007300080819181FC018081482F8981882F90E000
:100740009C012770332781E090E002C0880F991F39
:100750002A95E2F78095242F28238981869586950E
:100760008695882F90E0880F991F8A589F4FFC012B
:1007700080819181FC0120835EC089818695869568
:100780008695882F90E0880F991F8A589F4FFC010B
:1007900080819181FC018081482F8981882F90E0A0
:1007A0009C012770332781E090E002C0880F991FD9
:1007B0002A95E2F7242F282B8981869586958695A0
:1007C000882F90E0880F991F8A589F4FFC018081E5
:1007D0009181FC0120832FC089818695869586951D
:1007E000882F90E0880F991F8A589F4FFC018081C5
:1007F0009181FC018081482F8981882F90E09C01A4
:100800002770332781E090E002C0880F991F2A9556
:10081000E2F7242F28278981869586958695882F4B
:1008200090E0880F991F8A589F4FFC018081918129
:10083000FC012083000000000F900F90DF91CF910A
:100840000895CF93DF9300D000D01F92CDB7DEB7CD
:100850009B838A836C834D8319829BC08D81882FF3
:1008600090E0009721F0019709F449C08FC0898179
:10087000882F90E02A813B81820F931FFC018081A9
:10088000869586958695882F90E0880F991F805AC7
:100890009F4FFC0180819181FC018081482F8981DB
:1008A000882F90E02A813B81820F931FFC01808179
:1008B000882F90E09C012770332781E090E002C0F0
:1008C000880F991F2A95E2F7809548238981882F00
:1008D00090E02A813B81820F931FFC0180818695E5
:1008E00086958695882F90E0880F991F805A9F4F94
:1008F000FC0180819181242FFC01208347C08981E4
:10090000882F90E02A813B81820F931FFC01808118
:10091000869586958695882F90E0880F991F805A36
:100920009F4FFC0180819181FC018081482F89814A
:10093000882F90E02A813B81820F931FFC018081E8
:10094000882F90E09C012770332781E090E002C05F
:10095000880F991F2A95E2F7482B8981882F90E00C
:100960002A813B81820F931FFC01808186958695A9
:100970008695882F90E0880F991F805A9F4FFC0121
:1009800080819181242FFC012083000089818F5F69
:10099000898399818C81981708F460CF00000F90AB
:1009A0000F900F900F900F90DF91CF910895CF93FC
:1009B000DF9300D000D01F92CDB7DEB79B838A8330
:1009C0006C834D831982E7C08D81882F90E0813040
:1009D000910509F44FC08230910509F492C0892B2A
:1009E00009F0D6C08981882F90E02A813B81820F4F
:1009F000931FFC018081869586958695882F90E0CF
:100A0000880F991F8A589F4FFC0180819181FC01BA
:100A10008081482F8981882F90E02A813B81820F35
:100A2000931FFC018081882F90E09C012770332761
:100A300081E090E002C0880F991F2A95E2F7809527
:100A400048238981882F90E02A813B81820F931F60
:100A5000FC018081869586958695882F90E0880F89
:100A6000991F8A589F4FFC0180819181242FFC019E
:100A700020838EC08981882F90E02A813B81820F5C
:100A8000931FFC018081869586958695882F90E03E
:100A9000880F991F8A589F4FFC0180819181FC012A
:100AA0008081482F8981882F90E02A813B81820FA5
:100AB000931FFC018081882F90E09C0127703327D1
:100AC00081E090E002C0880F991F2A95E2F7482B39
:100AD0008981882F90E02A813B81820F931FFC013E
:100AE0008081869586958695882F90E0880F991F3E
:100AF0008A589F4FFC0180819181242FFC01208323
:100B000047C08981882F90E02A813B81820F931F03
:100B1000FC018081869586958695882F90E0880FC8
:100B2000991F8A589F4FFC0180819181FC0180812F
:100B3000482F8981882F90E02A813B81820F931F63
:100B4000FC018081882F90E09C012770332781E091
:100B500090E002C0880F991F2A95E2F74827898103
:100B6000882F90E02A813B81820F931FFC018081B6
:100B7000869586958695882F90E0880F991F8A58CC
:100B80009F4FFC0180819181242FFC012083000074
:100B900089818F5F898399818C81981708F414CF9C
:100BA00000000F900F900F900F900F90DF91CF915A
:100BB0000895CF93DF9300D0CDB7DEB78A83198233
:100BC0008A81869586958695882F90E0880F991F53
:100BD00084579F4FFC0180819181FC018081882F87
:100BE00090E02A81222F30E02770332702C09595AC
:100BF00087952A95E2F78170898389810F900F90FC
:100C0000DF91CF910895CF93DF9300D0CDB7DEB7BA
:100C100089836A838981882F90E0880F991F805A81
:100C20009F4FFC01808191812A81FC01208300007B
:100C30000F900F90DF91CF910895CF93DF9300D065
:100C4000CDB7DEB789836A838981882F90E0880FCA
:100C5000991F8A589F4FFC01808191812A81FC0154
:100C6000208300000F900F90DF91CF910895CF93D4
:100C7000DF9300D0CDB7DEB78A8319828A81882FAF
:100C800090E0880F991F84579F4FFC0180819181CC
:100C9000FC018081898389810F900F90DF91CF9132
:100CA0000895CF93DF93CDB7DEB787E290E0FC01E4
:100CB000208187E290E02F77FC01208387E290E09B
:100CC000FC01208187E290E02064FC01208380E524
:100CD00090E0FC01208180E590E02F77FC012083EB
:100CE00080E590E0FC01208180E590E02F7BFC0115
:100CF000208380E590E0FC01208180E590E02F7D5D
:100D0000FC01208386E290E0FC01208186E290E0F5
:100D10002068FC01208326E230E086E290E0F901C1
:100D20002081FC0120830000DF91CF910895CF93B3
:100D3000DF9300D01F92CDB7DEB78B831A82198262
:100D400087E290E0FC01208187E290E0207EFC01B8
:100D5000208387E290E0FC01308187E290E02B81E4
:100D6000232BFC01208386E290E0FC01208186E2B7
:100D700090E02064FC012083000086E290E0FC010A
:100D800080818295869586958370882F90E081700A
:100D90009927892B91F784E290E0FC018081882FCC
:100DA00090E09A83898385E290E0FC018081882F1E
:100DB00090E0982F88279C0189819A81822B932B20
:100DC0009A83898389819A810F900F900F90DF9188
:100DD000CF910895CF93DF93CDB7DEB786E290E051
:100DE000FC01208186E290E02068FC012083000065
:100DF000DF91CF910895CF93DF93CDB7DEB786E231
:100E000090E0FC01208186E290E02F77FC012083B6
:100E10000000DF91CF910895CF93DF93CDB7DEB778
:100E20008FE590E0FC0120818FE590E02068FC01D7
:100E3000208386E290E0FC01208186E290E0286039
:100E4000FC0120830000DF91CF910895CF93DF93C1
:100E5000CDB7DEB786E290E0FC01208186E290E02B
:100E6000277FFC0120830000DF91CF910895CF936D
:100E7000DF93CDB7DEB786E290E0FC01208186E209
:100E800090E02F7EFC0120830000DF91CF91089538
:100E9000CF93DF93CDB7DEB7E1970FB6F894DEBFFF
:100EA0000FBECDBF4CA75DA76EA77FA788AB99AB40
:100EB0008CA561E00E9405038DA561E00E940503F9
:100EC000198210C08981882F90E09E01225D3F4FDA
:100ED000820F931FFC01808161E00E9405038981DC
:100EE0008F5F89838981843068F380E090E0A0EA95
:100EF000B1E48E8F9F8FA8A3B9A320E030E04AE72A
:100F000053E46E8D7F8D88A199A10E94E414DC01C9
:100F1000CB018AA39BA3ACA3BDA320E030E040E8B3
:100F20005FE36AA17BA18CA19DA10E94C4138823C9
:100F30002CF481E090E09FA38EA33FC020E03FEF20
:100F40004FE757E46AA17BA18CA19DA10E94DF1409
:100F500018164CF520E030E040E251E46E8D7F8DB4
:100F600088A199A10E94E414DC01CB01BC01CD0150
:100F70000E943B14DC01CB019FA38EA30FC089E12B
:100F800090E099A788A788A599A50197F1F799A757
:100F900088A78EA19FA101979FA38EA38EA19FA139
:100FA000892B69F714C06AA17BA18CA19DA10E9425
:100FB0003B14DC01CB019FA38EA38EA19FA19BA715
:100FC0008AA78AA59BA50197F1F79BA78AA728E383
:100FD0004CA55DA56EA57FA588A999A90E942609A3
:100FE00080E090E0A0EAB0E4888B998BAA8BBB8B61
:100FF00020E030E04AE753E4688979898A899B894F
:101000000E94E414DC01CB018C8B9D8BAE8BBF8BDB
:1010100020E030E040E85FE36C897D898E899F891C
:101020000E94C41388232CF481E090E0998F888F6C
:101030003FC020E03FEF4FE757E46C897D898E8900
:101040009F890E94DF1418164CF520E030E040E242
:1010500051E4688979898A899B890E94E414DC01BA
:10106000CB01BC01CD010E943B14DC01CB01998F67
:10107000888F0FC089E190E09B8F8A8F8A8D9B8D2E
:101080000197F1F79B8F8A8F888D998D0197998FA2
:10109000888F888D998D892B69F714C06C897D891B
:1010A0008E899F890E943B14DC01CB01998F888F28
:1010B000888D998D9D8F8C8F8C8D9D8D0197F1F7EB
:1010C0009D8F8C8F28E34CA55DA56EA57FA588A973
:1010D00099A90E94260980E090E0A6E1B3E48A8302
:1010E0009B83AC83BD8320E030E04AE753E46A8110
:1010F0007B818C819D810E94E414DC01CB018E8375
:101100009F83A887B98720E030E040E85FE36E81E5
:101110007F81888599850E94C41388232CF481E0FF
:1011200090E09B878A873FC020E03FEF4FE757E47E
:101130006E817F81888599850E94DF1418164CF591
:1011400020E030E040E251E46A817B818C819D8126
:101150000E94E414DC01CB01BC01CD010E943B14D0
:10116000DC01CB019B878A870FC089E190E09D87D6
:101170008C878C859D850197F1F79D878C878A8563
:101180009B8501979B878A878A859B85892B69F731
:1011900014C06E817F81888599850E943B14DC0193
:1011A000CB019B878A878A859B859F878E878E85C3
:1011B0009F850197F1F79F878E8728E34CA55DA552
:1011C0006EA57FA588A999A90E94260921E04CA5B2
:1011D0005DA56EA57FA588A999A90E94260922E090
:1011E0004CA55DA56EA57FA588A999A90E94260991
:1011F00026E04CA55DA56EA57FA588A999A90E94AA
:1012000026092CE04CA55DA56EA57FA588A999A906
:101210000E94260928E24CA55DA56EA57FA588A998
:1012200099A90E94260920E84CA55DA56EA57FA579
:1012300088A999A90E9426090000E1960FB6F894A2
:10124000DEBF0FBECDBFDF91CF910895CF93DF9367
:1012500000D000D000D01F92CDB7DEB749835A83AB
:101260006B837C838D839E832F838A8160E00E94C1
:1012700079038F8182958F70282F49815A816B81E4
:101280007C818D819E810E94A30B4091A200509190
:10129000A3006091A4007091A5008091A600909198
:1012A000A7000E94DE0B2F8149815A816B817C81CE
:1012B0008D819E810E94A30B4091A2005091A300BA
:1012C0006091A4007091A5008091A6009091A70064
:1012D0000E94DE0B000027960FB6F894DEBF0FBE0B
:1012E000CDBFDF91CF910895CF93DF9300D000D091
:1012F00000D01F92CDB7DEB749835A836B837C83BE
:101300008D839E832F838A8161E00E9479038F8180
:1013100082958F70282F49815A816B817C818D81C4
:101320009E810E94A30B4091A2005091A300609166
:10133000A4007091A5008091A6009091A7000E9442
:10134000DE0B2F8149815A816B817C818D819E8149
:101350000E94A30B4091A2005091A3006091A400B1
:101360007091A5008091A6009091A7000E94DE0BCD
:10137000000027960FB6F894DEBF0FBECDBFDF91F9
:10138000CF910895CF93DF93CDB7DEB728970FB6EF
:10139000F894DEBF0FBECDBF49835A836B837C8335
:1013A0008D839E8338872F8312C08F8198859C01FF
:1013B0002F5F3F4F38872F83FC018081282F498181
:1013C0005A816B817C818D819E810E9474098F81FD
:1013D0009885FC018081882341F7000028960FB68C
:1013E000F894DEBF0FBECDBFDF91CF910895CF93AC
:1013F000DF93CDB7DEB72D970FB6F894DEBF0FBEE3
:10140000CDBF4E835F83688779878A879B873D87B7
:101410002C878C859D85282FCE010196BC01822FBB
:101420000E94520DCE0101969C014E815F8168851C
:1014300079858A859B850E94C20900002D960FB68A
:10144000F894DEBF0FBECDBFDF91CF910895CF934B
:10145000DF93CDB7DEB762970FB6F894DEBF0FBE4D
:10146000CDBF4B875C876D877E878F87988B3A8B44
:10147000298B89899A899E012F5F3F4FB9010E946C
:10148000830DCE0101969C014B855C856D857E8523
:101490008F8598890E94C209000062960FB6F89461
:1014A000DEBF0FBECDBFDF91CF910895CF93DF9305
:1014B000CDB7DEB76C970FB6F894DEBF0FBECDBFC9
:1014C0004D8B5E8B6F8B788F898F9A8F3C8F2B8F94
:1014D0008B8D9C8D092E000CAA0BBB0B9E012F5FE0
:1014E0003F4FA901BC01CD010E94B40DCE01019670
:1014F0009C014D895E896F89788D898D9A8D0E94B6
:10150000C20900006C960FB6F894DEBF0FBECDBFC7
:10151000DF91CF910895EF920F93CF93DF93CDB7E3
:10152000DEB729970FB6F894DEBF0FBECDBF498353
:101530005A836B837C838D839E832F830887E98600
:1015400008852F8149815A816B817C818D819E81A3
:101550000E94EF0C298549815A816B817C818D81A4
:101560009E810E947409000029960FB6F894DEBF90
:101570000FBECDBFDF91CF910F91EF900895EF9205
:10158000FF920F93CF93DF93CDB7DEB72A970FB6B5
:10159000F894DEBF0FBECDBF49835A836B837C8333
:1015A0008D839E832F830887FA86E98608852F819D
:1015B00049815A816B817C818D819E810E94EF0CD3
:1015C00089859A859C0149815A816B817C818D81B5
:1015D0009E810E94C20900002A960FB6F894DEBFD1
:1015E0000FBECDBFDF91CF910F91FF90EF90089587
:1015F000EF92FF920F93CF93DF93CDB7DEB72A9789
:101600000FB6F894DEBF0FBECDBF49835A836B83FC
:101610007C838D839E832F830887FA86E9860885DD
:101620002F8149815A816B817C818D819E810E94AD
:10163000EF0C89859A859C0149815A816B817C8157
:101640008D819E810E94F70900002A960FB6F894BA
:10165000DEBF0FBECDBFDF91CF910F91FF90EF9016
:101660000895EF92FF920F93CF93DF93CDB7DEB73C
:101670002A970FB6F894DEBF0FBECDBF49835A83B9
:101680006B837C838D839E832F830887FA86E9860C
:1016900008852F8149815A816B817C818D819E8152
:1016A0000E94EF0C89859A859C0149815A816B8142
:1016B0007C818D819E810E94270A00002A960FB6A8
:1016C000F894DEBF0FBECDBFDF91CF910F91FF9099
:1016D000EF900895EF92FF920F93CF93DF93CDB7E2
:1016E000DEB72A970FB6F894DEBF0FBECDBF498391
:1016F0005A836B837C838D839E832F830887FA862E
:10170000E98608852F8149815A816B817C818D8191
:101710009E810E94EF0C89859A859C0149815A819E
:101720006B817C818D819E810E94560A00002A96E1
:101730000FB6F894DEBF0FBECDBFDF91CF910F91F2
:10174000FF90EF900895CF93DF9300D000D000D0AA
:101750001F92CDB7DEB749835A836B837C838D8319
:101760009E832F838F81982F91708B81692F0E9488
:1017700079038F818695982F91708C81692F0E94B3
:1017800079038F8186958695982F91708D81692F29
:101790000E9479038F81869586958695982F917002
:1017A0008E81692F0E947903000027960FB6F89466
:1017B000DEBF0FBECDBFDF91CF910895CF93DF93F2
:1017C000CDB7DEB7A6970FB6F894DEBF0FBECDBF7C
:1017D00049A35AA36BA37CA38DA39EA389A161E017
:1017E0000E94790380E090E0A0EAB0E489839A83C4
:1017F000AB83BC832BEA3AEA4AEA5EE369817A81E9
:101800008B819C810E94E414DC01CB018D839E833B
:10181000AF83B88720E030E040E85EE369817A81F9
:101820008B819C810E94E414DC01CB0189879A871B
:10183000AB87BC8720E030E040E85FE36D817E81CC
:101840008F8198850E94C41388231CF481E08D87C2
:10185000B2C020E03FEF4FE757E469857A858B857A
:101860009C850E94DF1418160CF07BC020E030E04D
:101870004AE754E469817A818B819C810E94C91373
:10188000DC01CB018E879F87A88BB98B20E030E0ED
:101890004AE753E46E857F85888999890E94E4141C
:1018A000DC01CB018A8B9B8BAC8BBD8B20E030E0C5
:1018B00040E85FE36A897B898C899D890E94C41313
:1018C00088232CF481E090E09F8B8E8B3FC020E03A
:1018D0003FEF4FE757E46A897B898C899D890E9495
:1018E000DF1418164CF520E030E040E251E46E853C
:1018F0007F85888999890E94E414DC01CB01BC01B1
:10190000CD010E943B14DC01CB019F8B8E8B0FC05D
:1019100089E190E0998F888F888D998D0197F1F7F3
:10192000998F888F8E899F8901979F8B8E8B8E8947
:101930009F89892B69F73FC06A897B898C899D893A
:101940000E943B14DC01CB019F8B8E8B8E899F897B
:101950009B8F8A8F8A8D9B8D0197F1F79B8F8A8F42
:101960002AC020E030E04FE753E46D817E818F8113
:1019700098850E94DF141816ACF469857A858B85EA
:101980009C850E943B14DC01CB019D8F8C8F8C8D3C
:101990009D8D9F8F8E8F8E8D9F8D0197F1F79F8FDD
:1019A0008E8F0FC06D817E818F8198850E943B1440
:1019B000DC01CB018D878D8588A388A18A95F1F7FD
:1019C00088A389A160E00E9479030000A6960FB663
:1019D000F894DEBF0FBECDBFDF91CF9108950F9376
:1019E000CF93DF93CDB7DEB728970FB6F894DEBF5D
:1019F0000FBECDBF49835A836B837C838D839E83C7
:101A00002F8308878885815088878F81882F90E071
:101A100081309105C1F0823091051CF4892B39F099
:101A200036C082309105D9F0039729F130C08885FE
:101A30008058282F49815A816B817C818D819E81BC
:101A40000E94260924C088858054282F49815A8104
:101A50006B817C818D819E810E94260918C08885BA
:101A60008C56282F49815A816B817C818D819E8182
:101A70000E9426090CC088858C52282F49815A81E2
:101A80006B817C818D819E810E942609000000006F
:101A900028960FB6F894DEBF0FBECDBFDF91CF9171
:101AA0000F910895CF93DF9300D01F92CDB7DEB78B
:101AB00089837B836A838A819B8144E050E060E074
:101AC00070E00E9451158981882F90E0292F2F9373
:101AD0008F9389EC90E0892F8F9389EC90E08F931E
:101AE0008B818F938A818F930E9458150F900F904E
:101AF0000F900F900F900F9000000F900F900F908D
:101B0000DF91CF910895CF93DF9300D000D0CDB770
:101B1000DEB79A8389837C836B838B819C8146E0CB
:101B200050E060E070E00E9451158A818F938981B6
:101B30008F9389EC90E0892F8F9389EC90E08F93BD
:101B40008C818F938B818F930E9458150F900F90EB
:101B50000F900F900F900F9000000F900F900F902C
:101B60000F90DF91CF910895CF93DF9300D000D0F5
:101B700000D0CDB7DEB769837A838B839C835E8385
:101B80004D838D819E814BE050E060E070E00E94CB
:101B900051158C818F938B818F938A818F9389814B
:101BA0008F9389EC90E0892F8F9389EC90E08F934D
:101BB0008E818F938D818F930E9458158DB79EB71C
:101BC00008960FB6F894DEBF0FBECDBF0000269674
:101BD0000FB6F894DEBF0FBECDBFDF91CF91089551
:101BE000CF93DF9300D000D01F92CDB7DEB79B8399
:101BF0008A837D836C8319821DC08981882F90E040
:101C00009E012E5F3F4F820F931FFC01808161E098
:101C10000E9405038981882F90E09E012C5F3F4F31
:101C2000820F931FFC01808161E00E94050389817E
:101C30008F5F89838981823000F300000F900F90BD
:101C40000F900F900F90DF91CF910895CF93DF9376
:101C500000D000D0CDB7DEB79A8389837C836B83B5
:101C6000898161E00E9479038A8160E00E947903A2
:101C70008B8161E00E9479038C8160E00E9479038E
:101C800000000F900F900F900F90DF91CF9108956B
:101C9000CF93DF9300D000D0CDB7DEB79A8389838E
:101CA0007C836B83898160E00E9479038A8161E093
:101CB0000E9479038B8160E00E9479038C8161E04E
:101CC0000E94790300000F900F900F900F90DF910A
:101CD000CF910895CF93DF9300D000D0CDB7DEB77A
:101CE0009A8389837C836B83898160E00E94790376
:101CF0008A8160E00E9479038B8160E00E94790311
:101D00008C8161E00E94790300000F900F900F908A
:101D10000F90DF91CF910895CF93DF9300D000D043
:101D2000CDB7DEB79A8389837C836B83898160E03A
:101D30000E9479038A8161E00E9479038B8160E0CF
:101D40000E9479038C8160E00E94790300000F906B
:101D50000F900F900F90DF91CF910895CF93DF9365
:101D600000D000D0CDB7DEB79A8389837C836B83A4
:101D7000898160E00E9479038A8160E00E94790392
:101D80008B8160E00E9479038C8160E00E9479037E
:101D900000000F900F900F900F90DF91CF9108955A
:101DA000CF93DF93CDB7DEB72A970FB6F894DEBF97
:101DB0000FBECDBF2B833C834D835E836F837887BB
:101DC00089879A8719821DC08981882F90E09E019A
:101DD0002D5F3F4F820F931FFC01808160E00E94C6
:101DE00005038981882F90E09E012D5F3F4F820F70
:101DF000931FFC01808161E00E94790389818F5FDC
:101E000089838981843000F31A821DC08A81882FDA
:101E100090E09E01295F3F4F820F931FFC0180815C
:101E200061E00E9405038A81882F90E09E01295F6E
:101E30003F4F820F931FFC01808161E00E94790374
:101E40008A818F5F8A838A81843000F300002A961A
:101E50000FB6F894DEBF0FBECDBFDF91CF910895CE
:101E60000F931F93CF93DF93CDB7DEB76B970FB66A
:101E7000F894DEBF0FBECDBF2A8B3B8B4C8B5D8BA6
:101E80006E8B7F8B888F998F1B8F0A8F1B82198295
:101E9000DBC08981882F90E09E012A5E3F4F820F30
:101EA000931FFC01808160E00E9479031A82B8C010
:101EB0008A81882F90E09E012E5E3F4F820F931FF4
:101EC000FC0180810E94D905882309F0A6C08A817F
:101ED000282F30E08981882F90E0220F331F220FB6
:101EE000331F820F931F84559F4FFC0120818A8DE1
:101EF0009B8DFC01208381E08B8300008A81882FE9
:101F000090E09E012E5E3F4F820F931FFC01808167
:101F10000E94D905882391F380E090E0A0EAB1E423
:101F20008C839D83AE83BF8320E030E04AE753E497
:101F30006C817D818E819F810E94E414DC01CB0144
:101F400088879987AA87BB8720E030E040E85FE375
:101F5000688579858A859B850E94C41388232CF423
:101F600081E090E09D878C873FC020E03FEF4FE706
:101F700057E4688579858A859B850E94DF14181649
:101F80004CF520E030E040E251E46C817D818E81AF
:101F90009F810E94E414DC01CB01BC01CD010E94B1
:101FA0003B14DC01CB019D878C870FC089E190E059
:101FB0009F878E878E859F850197F1F79F878E87F4
:101FC0008C859D8501979D878C878C859D85892B28
:101FD00069F714C0688579858A859B850E943B14C2
:101FE000DC01CB019D878C878C859D85998B888BA7
:101FF000888999890197F1F7998B888B8981882F36
:1020000090E09E012A5E3F4F820F931FFC0180816A
:1020100061E00E9479038B811CC08A818F5F8A8373
:102020008A81843008F444CF8981882F90E09E0112
:102030002A5E3F4F820F931FFC01808161E00E9466
:10204000790389818F5F89838981843008F421CF66
:102050008B816B960FB6F894DEBF0FBECDBFDF91BC
:10206000CF911F910F910895CF93DF93CDB7DEB736
:102070002091AA003091AB008091A8009091A90016
:10208000B9010E94F00D0000DF91CF9108950F93E8
:102090001F93CF93DF93CDB7DEB7C654D1090FB6E8
:1020A000F894DEBF0FBECDBF2091AA003091AB00E7
:1020B0008091A8009091A900B9010E94260E80E0AD
:1020C00090E0AAEFB4E489AF9AAFABAFBCAF20E029
:1020D00030E04AE753E469AD7AAD8BAD9CAD0E9428
:1020E000E414DC01CB019E01235C3F4FF9018083A6
:1020F0009183A283B38320E030E040E85FE3CE0128
:10210000CD96FC0160817181828193810E94C4130C
:1021100088234CF4CE018F5B9F4F21E030E0FC011F
:102120003183208367C020E03FEF4FE757E4CE01C3
:10213000CD96FC0160817181828193810E94DF14C0
:1021400018160CF046C020E030E040E251E469ADE2
:102150007AAD8BAD9CAD0E94E414DC01CB018E0105
:102160000F5B1F4FBC01CD010E943B14DC01CB0172
:10217000F8019183808324C0CE018D5B9F4F29E1BC
:1021800030E0FC0131832083CE018D5B9F4FFC0149
:10219000808191810197F1F79E012D5B3F4FF901FD
:1021A00091838083CE018F5B9F4F9E012F5B3F4FBA
:1021B000F9012081318121503109FC0131832083D3
:1021C000CE018F5B9F4FFC0180819181892BA1F60D
:1021D0002BC08E010F5B1F4FCE01CD96FC0160819D
:1021E0007181828193810E943B14DC01CB01F80153
:1021F00091838083CE018B5B9F4F9E012F5B3F4F6E
:10220000F90120813181FC0131832083CE018B5B78
:102210009F4FFC01808191810197F1F79E012B5B1B
:102220003F4FF901918380832091AA003091AB0048
:102230008091A8009091A900B9010E94480E80E009
:1022400090E0AAEFB4E48BA79CA7ADA7BEA720E0BF
:1022500030E04AE753E46BA57CA58DA59EA50E94BE
:10226000E414DC01CB018FA798ABA9ABBAAB20E09B
:1022700030E040E85FE36FA578A989A99AA90E9498
:10228000C41388232CF481E090E09CAB8BAB3FC05F
:1022900020E03FEF4FE757E46FA578A989A99AA9F5
:1022A0000E94DF1418164CF520E030E040E251E4C3
:1022B0006BA57CA58DA59EA50E94E414DC01CB0135
:1022C000BC01CD010E943B14DC01CB019CAB8BAB6C
:1022D0000FC089E190E09EAB8DAB8DA99EA90197BF
:1022E000F1F79EAB8DAB8BA99CA901979CAB8BABF7
:1022F0008BA99CA9892B69F714C06FA578A989A916
:102300009AA90E943B14DC01CB019CAB8BAB8BA93F
:102310009CA998AF8FAB8FA998AD0197F1F798AFB3
:102320008FAB2091AA003091AB008091A8009091D2
:10233000A900B9010E948C0E80E090E0AAEFB4E4FD
:102340008D8F9E8FAF8FB8A320E030E04AE753E433
:102350006D8D7E8D8F8D98A10E94E414DC01CB01E0
:1023600089A39AA3ABA3BCA320E030E040E85FE3DD
:1023700069A17AA18BA19CA10E94C41388232CF48B
:1023800081E090E09EA38DA33FC020E03FEF4FE7A8
:1023900057E469A17AA18BA19CA10E94DF141816B1
:1023A0004CF520E030E040E251E46D8D7E8D8F8D64
:1023B00098A10E94E414DC01CB01BC01CD010E9474
:1023C0003B14DC01CB019EA38DA30FC089E190E0FB
:1023D00098A78FA38FA198A50197F1F798A78FA32E
:1023E0008DA19EA101979EA38DA38DA19EA1892B56
:1023F00069F714C069A17AA18BA19CA10E943B142A
:10240000DC01CB019EA38DA38DA19EA19AA789A7D4
:1024100089A59AA50197F1F79AA789A72091AA0003
:102420003091AB008091A8009091A900B9010E9461
:102430006A0E80E090E0AAEFB4E48F87988BA98BB6
:10244000BA8B20E030E04AE753E46F8578898989C8
:102450009A890E94E414DC01CB018B8B9C8BAD8BA1
:10246000BE8B20E030E040E85FE36B897C898D899A
:102470009E890E94C41388232CF481E090E0988FF9
:102480008F8B3FC020E03FEF4FE757E46B897C899B
:102490008D899E890E94DF1418164CF520E030E0EB
:1024A00040E251E46F85788989899A890E94E41411
:1024B000DC01CB01BC01CD010E943B14DC01CB014E
:1024C000988F8F8B0FC089E190E09A8F898F898DCB
:1024D0009A8D0197F1F79A8F898F8F89988D01973F
:1024E000988F8F8B8F89988D892B69F714C06B8992
:1024F0007C898D899E890E943B14DC01CB01988FD9
:102500008F8B8F89988D9C8F8B8F8B8D9C8D019756
:10251000F1F79C8F8B8F2091AA003091AB008091B6
:10252000A8009091A900B9010E94AE0E80E090E051
:10253000AAEFB4E489839A83AB83BC8320E030E0C4
:102540004AE753E469817A818B819C810E94E4147B
:10255000DC01CB018D839E83AF83B88720E030E020
:1025600040E85FE36D817E818F8198850E94C4136E
:1025700088232CF481E090E09A8789873FC020E08F
:102580003FEF4FE757E46D817E818F8198850E94F0
:10259000DF1418164CF520E030E040E251E4698188
:1025A0007A818B819C810E94E414DC01CB01BC0107
:1025B000CD010E943B14DC01CB019A8789870FC0B3
:1025C00089E190E09C878B878B859C850197F1F74B
:1025D0009C878B8789859A8501979A8789878985C2
:1025E0009A85892B69F714C06D817E818F819885CA
:1025F0000E943B14DC01CB019A87898789859A85E3
:102600009E878D878D859E850197F1F79E878D87A3
:102610000000CA5BDF4F0FB6F894DEBF0FBECDBF20
:10262000DF91CF911F910F910895CF93DF9300D049
:1026300000D01F92CDB7DEB749835A836B837C836A
:102640008D83898161E00E9405038A8161E00E9497
:1026500005038B8161E00E9405038C8161E00E948B
:1026600005038D8161E00E94050349815A816B81D8
:102670007C818D810E94451300000F900F900F9078
:102680000F900F90DF91CF910895CF93DF9300D0FB
:1026900000D01F92CDB7DEB749835A836B837C830A
:1026A0008D83898161E00E94790300000F900F9073
:1026B0000F900F900F90DF91CF910895CF93DF93FC
:1026C00000D000D01F92CDB7DEB749835A836B8309
:1026D0007C838D83898160E00E94790300000F90E4
:1026E0000F900F900F900F90DF91CF910895CF939F
:1026F000DF9300D000D000D0CDB7DEB749835A8336
:102700006B837C838D832E838E818A3018F58E8136
:10271000982F91708A81692F0E9479038E81869506
:10272000982F91708B81692F0E9479038E818695F5
:102730008695982F91708C81692F0E9479038E81E4
:10274000869586958695982F91708D81692F0E9428
:10275000790307C049815A816B817C818D810E94F8
:102760005E13000026960FB6F894DEBF0FBECDBFF5
:10277000DF91CF910895CF93DF93CDB7DEB70E945D
:1027800034100E944710FDCF0E946A1408F481E0C3
:1027900008950E94DD130C94A5140E949E1458F015
:1027A0000E94971440F029F45F3F29F00C948E1496
:1027B00051110C94D9140C9494140E94B61468F31B
:1027C0009923B1F3552391F3951B550BBB27AA27EA
:1027D00062177307840738F09F5F5F4F220F331F24
:1027E000441FAA1FA9F335D00E2E3AF0E0E832D0EC
:1027F00091505040E695001CCAF72BD0FE2F29D0EF
:10280000660F771F881FBB1F261737074807AB07C0
:10281000B0E809F0BB0B802DBF01FF2793585F4F35
:102820003AF09E3F510578F00C948E140C94D91414
:102830005F3FE4F3983ED4F3869577956795B79517
:10284000F7959F5FC9F7880F911D9695879597F922
:102850000895E1E0660F771F881FBB1F621773079B
:102860008407BA0720F0621B730B840BBA0BEE1FB0
:1028700088F7E09508950E94BE1488F09F5798F05D
:10288000B92F9927B751B0F0E1F0660F771F881F75
:10289000991F1AF0BA95C9F714C0B13091F00E948F
:1028A000D814B1E008950C94D814672F782F882796
:1028B000B85F39F0B93FCCF3869577956795B395B6
:1028C000D9F73EF490958095709561957F4F8F4F25
:1028D0009F4F0895990F0008550FAA0BE0E8FEEFEF
:1028E00016161706E807F907C0F012161306E407D4
:1028F000F50798F0621B730B840B950B39F40A26CD
:1029000061F0232B242B252B21F408950A2609F4AA
:10291000A140A6958FEF811D811D089597F99F67AE
:1029200080E870E060E008959FEF80EC0895002457
:102930000A941616170618060906089500240A9424
:1029400012161306140605060895092E0394000CAA
:1029500011F4882352F0BB0F40F4BF2B11F460FF39
:1029600004C06F5F7F4F8F4F9F4F089557FD905862
:10297000440F551F59F05F3F71F04795880F97FB43
:10298000991F61F09F3F79F08795089512161306FD
:102990001406551FF2CF4695F1DF08C0161617062C
:1029A0001806991FF1CF8695710561050894089561
:1029B000E894BB2766277727CB0197F908950E94F3
:1029C0006A1408F48FEF08950E94F7140C94A5146C
:1029D0000E94971438F00E949E1420F0952311F065
:1029E0000C948E140C94941411240C94D9140E94F9
:1029F000B61470F3959FC1F3950F50E0551F629F79
:102A0000F001729FBB27F00DB11D639FAA27F00D47
:102A1000B11DAA1F649F6627B00DA11D661F829F6E
:102A20002227B00DA11D621F739FB00DA11D621F53
:102A3000839FA00D611D221F749F3327A00D611D70
:102A4000231F849F600D211D822F762F6A2F112452
:102A50009F5750409AF0F1F088234AF0EE0FFF1F85
:102A6000BB1F661F771F881F91505040A9F79E3FDC
:102A7000510580F00C948E140C94D9145F3FE4F34C
:102A8000983ED4F3869577956795B795F795E79532
:102A90009F5FC1F7FE2B880F911D9695879597F93B
:102AA0000895DC0101C06D9341505040E0F7089556
:102AB000AEE0B0E0EEE5F5E10C9407180D891E8953
:102AC00086E08C831A8309838FEF9FE79E838D8333
:102AD000AE01475E5F4F6F89788DCE0101960E94EF
:102AE0007B152F813885020F131FF80110822E9657
:102AF000E4E00C942318ABE0B0E0E1E8F5E10C94DD
:102B0000F9177C013B018A01FC011782168283813F
:102B100081FFC8C1CE0101965C01F7019381F301E9
:102B200093FD859193FF81913F01882309F453C15F
:102B3000853239F493FD859193FF81913F01853270
:102B400029F4B70190E00E946B17E7CF912C212C5C
:102B5000312CFFE1F31538F08B3211F190F4803213
:102B600009F1833229F137FC3CC020ED280F2A30CF
:102B700050F536FE20C08AE0989E200D1124922E3A
:102B800006C08D3291F0803371F7689430F8F3010C
:102B900093FD859193FF81913F018111DACF21C08F
:102BA000689431F8689432F8F2CF689433F8EFCF34
:102BB000689434F8ECCFEAE02E9E200D1124222EEA
:102BC000689435F8E4CF8E3229F436FC04C1689459
:102BD00036F8DDCF8C3619F4689437F8D8CF8836BC
:102BE000B1F2982F9F7D95549330E0F08336A1F198
:102BF0008337C1F1833509F063C02801F2E04F0E3D
:102C0000511CF801C080D180692D70E036FC02C0F3
:102C10006FEF7FEFC6010E9455174C01689437F89B
:102C200082010AC00C5F1F4FFFE3F983882483945D
:102C3000912C6501E89437F833FE2DC0522C811495
:102C4000910471F5552009F468CFB70180E290E056
:102C50000E946B175A94F6CFF801808189830E5F2A
:102C60001F4FE4CF2801F2E04F0E511CF801C08045
:102C7000D180692D70E036FC02C06FEF7FEFC60196
:102C80000E9460174C018201D5CFB70180E290E02D
:102C90000E946B172A942814190409F0B0F7CECFBC
:102CA000F60137FC859137FE81916F01B70190E005
:102CB0000E946B1751105A94F1E08F1A9108BFCF00
:102CC000843619F0893609F077C0F80137FE6BC0F9
:102CD00060817181828193810C5F1F4FF32DFF769C
:102CE0003F2E97FF09C090958095709561957F4F15
:102CF0008F4F9F4F689437F82AE030E0A5010E947B
:102D00009B17C82ECA188C2C432C36FE0CC0E89496
:102D100040F8C91440F434FE05C032FC03C0F32D62
:102D2000FE7E4F2E892C44FE95C0FE01EC0DF11D58
:102D30008081803309F087C0242D297E422E842D86
:102D40008870582E43FC95C040FE8FC09C2C821486
:102D500018F42C0C922C981844FE91C0B70180E313
:102D600090E00E946B1742FE09C088E790E041FEA8
:102D700002C088E590E0B7010E946B17C91408F4FF
:102D80008AC0CA94D12C9FEFC91AD90ACA0CDB1C7D
:102D9000F60182916F01B70190E00E946B17AC14AD
:102DA000BD04B1F74FCF60817181072E000C880BF5
:102DB000990B0E5F1F4F92CFD32CE894D4F82AE0E2
:102DC00030E0853739F1232D297FD22E8F3601F15E
:102DD00048F48835A9F0F701868197812B96E2E1C6
:102DE0000C941518803749F08837A9F7D4FE02C033
:102DF0006894D2F820E130E00DC06894D4F8F6CFA2
:102E000034FE03C0822F8660D82E20E132E002C05B
:102E100028E030E0F801D7FE0FC060817181828127
:102E200093810C5F1F4FA5010E949B17C82ECA18E3
:102E30003D2CE89437F867CF6081718190E080E0A5
:102E40000E5F1F4FF0CF42FC02C0839478CF839473
:102E5000839475CF842D867809F471CFF6CFB701AE
:102E600080E290E00E946B1783948214C0F3512C8F
:102E700073CF522C5818821408F46ECFF8CF842DDB
:102E8000867809F47BCF8BE241FE80E247FC8DE23D
:102E9000B70190E071CFB70180E390E00E946B171B
:102EA0009A946CCF8FEF9FEF99CFFC010590615002
:102EB00070400110D8F7809590958E0F9F1F089550
:102EC000FC016150704001900110D8F780959095F9
:102ED0008E0F9F1F08950F931F93CF93DF93182F8B
:102EE000092FEB018B8181FD09C01FEF0FEF812FAF
:102EF000902FDF91CF911F910F91089582FF14C001
:102F00002E813F818C819D81281739073CF4E8810F
:102F1000F981CF0101969983888310838E819F81E7
:102F200001969F838E83E3CFE885F985812F0995EC
:102F3000892BA1F3DACFFA01AA27283051F12031E9
:102F400081F1E8946F936E7F6E5F7F4F8F4F9F4F3D
:102F5000AF4FB1E03ED0B4E03CD0670F781F891F7F
:102F60009A1FA11D680F791F8A1F911DA11D6A0F4D
:102F7000711D811D911DA11D20D009F468943F9100
:102F80002AE0269F11243019305D3193DEF6CF01FF
:102F90000895462F4770405D4193B3E00FD0C9F7C5
:102FA000F6CF462F4F70405D4A3318F0495D31FD32
:102FB0004052419302D0A9F7EACFB4E0A695979585
:102FC000879577956795BA95C9F70097610571055B
:102FD00008959B01AC010A2E0694579547953795A5
:102FE0002795BA95C9F7620F731F841F951FA01DFF
:102FF00008952F923F924F925F926F927F928F929D
:103000009F92AF92BF92CF92DF92EF92FF920F9377
:103010001F93CF93DF93CDB7DEB7CA1BDB0B0FB681
:10302000F894DEBF0FBECDBF09942A88398848883E
:103030005F846E847D848C849B84AA84B984C884D4
:10304000DF80EE80FD800C811B81AA81B981CE0FCB
:10305000D11D0FB6F894DEBF0FBECDBFED010895B0
:04306000F894FFCF12
:103064003A00370034003100000000000000000086
:103074000000000000003B00380035003200000072
:1030840000000000000000000000000039003600CD
:1030940033003000000000000000000000000000C9
:1030A400000009080A0B0C0D000102033738392F00
:1030B400343536783132332D23303D2B0001020371
:0C30C4000405060708090A0B0C2569002A
:00000001FF
