:100000000C942A000C9447000C9447000C94470071
:100010000C9447000C9447000C9447000C94470044
:100020000C9447000C9447000C9447000C94470034
:100030000C9447000C9447000C9447000C94470024
:100040000C9447000C9447000C9447000C94470014
:100050000C94470011241FBECFE5D8E0DEBFCDBF12
:1000600010E0A0E6B0E0E8EDF0E302C005900D92EC
:10007000AC3CB107D9F720E0ACECB0E001C01D9278
:10008000AC3CB207E1F70E9488130C946A180C94F8
:100090000000CF93DF931F92CDB7DEB789838981AC
:1000A000882F90E0292F332727FD3A9580E490E0B0
:1000B000FC01208389E290E02981FC01208380E417
:1000C00090E0FC01208180E490E02F7BFC01208304
:1000D00080E490E0FC01208180E490E0277FFC0137
:1000E000208380E490E0FC01208180E490E02260A5
:1000F000FC01208380E490E0FC01208180E490E01A
:100100002460FC01208380E490E0FC01208180E4F5
:1001100090E02B7FFC0120838AE290E0FC012081AB
:100120008AE290E02860FC0120838AE290E0FC01F2
:1001300020818AE290E02061FC01208300000F9082
:10014000DF91CF910895CF93DF9300D0CDB7DEB785
:100150009A83898300008BE290E0FC018081829584
:1001600086958770882F90E081709927892B99F365
:100170008CE290E02981FC01208300000F900F9019
:10018000DF91CF910895CF93DF9300D01F92CDB729
:10019000DEB79B838A8319828BE290E0FC01808129
:1001A000881F8827881F882F90E081709927892BC6
:1001B00059F08CE290E0FC0120818A819B81FC0156
:1001C000208381E0898301C0198289810F900F907B
:1001D0000F90DF91CF910895CF93DF93CDB7DEB726
:1001E00000008BE290E0FC018081881F8827881F37
:1001F000882F90E081709927892B99F38CE290E009
:10020000FC018081DF91CF910895CF93DF931F92FE
:10021000CDB7DEB7898385E490E0FC01308185E4C9
:1002200090E02981232BFC01208382E490E0FC01F3
:10023000208182E490E02860FC01208385E490E046
:10024000FC01208185E490E0277FFC01208385E488
:1002500090E0FC01208185E490E02F7BFC0120836D
:1002600085E490E0FC01208185E490E02F7DFC0195
:10027000208385E490E0FC01208185E490E02F7EDE
:10028000FC01208300000F90DF91CF910895CF9360
:10029000DF931F92CDB7DEB7898385E490E0FC0140
:1002A000308185E490E02981232BFC01208300002C
:1002B0000F90DF91CF910895CF93DF93CDB7DEB745
:1002C00085E490E0FC01208185E490E0287FFC013A
:1002D00020830000DF91CF910895CF93DF931F9289
:1002E000CDB7DEB7898384E490E02981FC012083C7
:1002F00000000F90DF91CF910895CF93DF931F926D
:10030000CDB7DEB7898383E490E02981FC012083A7
:1003100000000F90DF91CF910895CF93DF93CDB779
:10032000DEB78FE590E0FC0120818FE590E020684A
:10033000FC01208389E590E0FC01208189E590E0C3
:100340002064FC0120830000DF91CF910895CF93BA
:10035000DF93CDB7DEB789E590E0FC01208189E528
:1003600090E02F7BFC0120830000DF91CF91089566
:10037000CF93DF93CDB7DEB78FE590E0FC0120810E
:100380008FE590E02068FC01208389E590E0FC0186
:10039000208189E590E02068FC0120830000DF9146
:1003A000CF910895CF93DF93CDB7DEB789E590E085
:1003B000FC01208189E590E02F77FC01208300007B
:1003C000DF91CF910895CF93DF931F92CDB7DEB722
:1003D00089838EE490E0FC0130818EE490E02981F5
:1003E000232BFC0120838FE490E0FC0120818FE42B
:1003F00090E02E7FFC0120838FE490E0FC012081BF
:100400008FE490E02D7FFC0120838EE490E0FC01DE
:1004100020818EE490E0277FFC0120838EE490E031
:10042000FC0120818EE490E02F7EFC0120838FE48C
:1004300090E0FC0120818FE490E02F7BFC01208381
:100440008FE490E0FC0120818FE490E02F77FC01A5
:1004500020838FE490E0FC0120818FE490E02F7EE8
:10046000FC0120838FE490E0FC0120818FE490E088
:100470002F7DFC01208300000F90DF91CF91089524
:10048000CF93DF931F92CDB7DEB789838EE490E0E0
:10049000FC0130818EE490E02981232BFC01208334
:1004A00000000F90DF91CF910895CF93DF93CDB7E8
:1004B000DEB78EE490E0FC0120818EE490E0287F9E
:1004C000FC0120830000DF91CF910895CF93DF934B
:1004D0001F92CDB7DEB7898383E590E0FC012081D0
:1004E00083E590E02F7BFC01208383E590E0FC0115
:1004F000208183E590E0277FFC01208383E590E065
:10050000FC01208183E590E02068FC01208383E5E5
:1005100090E0FC01208183E590E02F7DFC012083A9
:1005200083E590E0FC01208183E590E02F7EFC01D3
:10053000208383E590E0FC01208183E590E0287F23
:10054000FC01208383E590E0FC01308183E590E0AD
:100550002981232BFC01208300000F90DF91CF9194
:100560000895CF93DF931F92CDB7DEB7898383E5DC
:1005700090E0FC01308183E590E02981232BFC0190
:10058000208300000F90DF91CF910895CF93DF93E8
:10059000CDB7DEB783E590E0FC01208183E590E0F4
:1005A000287FFC0120830000DF91CF910895CF9335
:1005B000DF931F92CDB7DEB7898382E590E0298172
:1005C000FC01208300000F90DF91CF910895CF931D
:1005D000DF931F92CDB7DEB789838CE590E0298148
:1005E000FC01208300000F90DF91CF910895CF93FD
:1005F000DF93CDB7DEB78FE590E0FC0120818FE57A
:1006000090E02068FC01208389E590E0FC012081D6
:1006100089E590E02160FC0120830000DF91CF910B
:100620000895CF93DF93CDB7DEB789E590E0FC0165
:10063000208189E590E02E7FFC0120830000DF917E
:10064000CF910895CF93DF93CDB7DEB78FE590E0DC
:10065000FC0120818FE590E02068FC01208389E582
:1006600090E0FC01208189E590E02260FC0120837C
:100670000000DF91CF910895CF93DF93CDB7DEB720
:1006800089E590E0FC01208189E590E02D7FFC0167
:1006900020830000DF91CF910895CF93DF93CDB7F2
:1006A000DEB78DE290E0FC0120818DE290E02064D5
:1006B000FC0120838DE290E0FC0120818DE290E03E
:1006C0002062FC0120838DE290E0FC0120818DE21C
:1006D00090E02061FC0120838DE290E0FC0120810C
:1006E0008DE290E02860FC0120838DE290E0FC0127
:1006F00020818DE290E02460FC0120830000DF91E6
:10070000CF910895CF93DF931F92CDB7DEB7898342
:100710008FE290E02981FC01208300008EE290E0CE
:10072000FC018081881F8827881F882F90E08170B6
:100730009927892B99F38FE290E0FC0180810F903B
:10074000DF91CF910895CF93DF931F92CDB7DEB79E
:1007500089838FE290E02981FC01208300008EE2F2
:1007600090E0FC018081881F8827881F882F90E0F7
:1007700081709927892B99F38FE290E0FC018081A9
:100780000F90DF91CF910895CF93DF93CDB7DEB770
:100790008FE590E0FC0120818FE590E02068FC016E
:1007A00020838DE290E0FC0120818DE290E02068C2
:1007B000FC0120830000DF91CF910895CF93DF9358
:1007C000CDB7DEB78DE290E0FC0120818DE290E0B4
:1007D0002F77FC0120830000DF91CF910895CF9304
:1007E000DF9300D0CDB7DEB789836A838FE590E0D1
:1007F000FC0120818FE590E02068FC012083898145
:10080000882F90E081309105B9F08230910529F16F
:10081000892B09F033C08A810E9444048BE590E063
:10082000FC0120818BE590E02064FC01208360E0E6
:100830008AE10E947B0522C08A810E94AD048BE57B
:1008400090E0FC0120818BE590E02068FC01208392
:1008500060E08BE10E947B0511C08A810E94160531
:100860008BE590E0FC0120818BE590E02062FC01AB
:10087000208360E08AE00E947B05000000000F906A
:100880000F90DF91CF910895CF93DF931F92CDB753
:10089000DEB789838981882F90E081309105F9F056
:1008A000823091051CF4892B39F052C082309105B9
:1008B00049F10397D1F14CC085E590E0FC0120811E
:1008C00085E590E02D7FFC01208385E590E0FC012B
:1008D000208185E590E02E7FFC01208339C085E5ED
:1008E00090E0FC01208185E590E02D7FFC012083D4
:1008F00085E590E0FC01208185E590E02160FC0128
:10090000208326C085E590E0FC01208185E590E00C
:100910002260FC01208385E590E0FC01208185E5D3
:1009200090E02E7FFC01208313C085E590E0FC0160
:10093000208185E590E02260FC01208385E590E040
:10094000FC01208185E590E02160FC01208300000E
:1009500000000F90DF91CF910895CF93DF931F9206
:10096000CDB7DEB789838981882F90E081309105EA
:10097000F9F0823091051CF4892B39F052C0823095
:10098000910549F10397D1F14CC085E590E0FC0158
:10099000208185E590E0277FFC01208385E590E0BC
:1009A000FC01208185E590E02B7FFC01208339C08C
:1009B00085E590E0FC01208185E590E0277FFC0142
:1009C000208385E590E0FC01208185E590E02460AE
:1009D000FC01208326C085E590E0FC01208185E5AF
:1009E00090E02860FC01208385E590E0FC012081F7
:1009F00085E590E02B7FFC01208313C085E590E026
:100A0000FC01208185E590E02860FC01208385E5DC
:100A100090E0FC01208185E590E02460FC012083CA
:100A2000000000000F90DF91CF910895CF93DF93E6
:100A30001F92CDB7DEB789838981882F90E08230FD
:100A4000910519F0039759F014C085E590E0FC0179
:100A5000208185E590E02F7BFC01208314C085E593
:100A600090E0FC01208185E590E02064FC0120837A
:100A70000AC084E590E0FC01208184E590E02F7BB2
:100A8000FC012083000000000F90DF91CF910895BA
:100A9000CF93DF93CDB7DEB70000DF91CF910895FC
:100AA000CF93DF93CDB7DEB78FE590E0FC012081D7
:100AB0008FE590E02068FC01208386E590E0FC0152
:100AC000208186E590E02160FC0120830000DF9119
:100AD000CF910895CF93DF93CDB7DEB786E590E051
:100AE000FC01208186E590E02E7FFC012083000040
:100AF000DF91CF910895CF93DF9300D0CDB7DEB7CC
:100B000089836A838A81882F90E0009719F0019782
:100B100089F15FC08981869586958695882F90E0BA
:100B2000880F991F805A9F4FFC0180819181FC01A1
:100B30008081482F8981882F90E09C01277033277E
:100B400081E090E002C0880F991F2A95E2F7809516
:100B5000242F28238981869586958695882F90E075
:100B6000880F991F805A9F4FFC0180819181FC0161
:100B700020832FC08981869586958695882F90E061
:100B8000880F991F805A9F4FFC0180819181FC0141
:100B90008081482F8981882F90E09C01277033271E
:100BA00081E090E002C0880F991F2A95E2F7242F78
:100BB000282B8981869586958695882F90E0880FC9
:100BC000991F805A9F4FFC0180819181FC012083F5
:100BD000000000000F900F90DF91CF910895CF9308
:100BE000DF9300D0CDB7DEB789836A838A81882FEF
:100BF00090E081309105B9F18230910509F462C02D
:100C0000892B09F08EC08981869586958695882FD7
:100C100090E0880F991F8A589F4FFC018081918135
:100C2000FC018081482F8981882F90E09C012770EA
:100C3000332781E090E002C0880F991F2A95E2F7E0
:100C40008095242F28238981869586958695882FDF
:100C500090E0880F991F8A589F4FFC0180819181F5
:100C6000FC0120835EC08981869586958695882FB4
:100C700090E0880F991F8A589F4FFC0180819181D5
:100C8000FC018081482F8981882F90E09C0127708A
:100C9000332781E090E002C0880F991F2A95E2F780
:100CA000242F282B8981869586958695882F90E01C
:100CB000880F991F8A589F4FFC0180819181FC0108
:100CC00020832FC08981869586958695882F90E010
:100CD000880F991F8A589F4FFC0180819181FC01E8
:100CE0008081482F8981882F90E09C0127703327CD
:100CF00081E090E002C0880F991F2A95E2F7242F27
:100D000028278981869586958695882F90E0880F7B
:100D1000991F8A589F4FFC0180819181FC0120839B
:100D2000000000000F900F90DF91CF910895CF93B6
:100D3000DF9300D000D01F92CDB7DEB79B838A83AC
:100D40006C834D8319829BC08D81882F90E0009722
:100D500021F0019709F449C08FC08981882F90E064
:100D60002A813B81820F931FFC01808186958695A5
:100D70008695882F90E0880F991F805A9F4FFC011D
:100D800080819181FC018081482F8981882F90E0AA
:100D90002A813B81820F931FFC018081882F90E084
:100DA0009C012770332781E090E002C0880F991FD3
:100DB0002A95E2F7809548238981882F90E02A813F
:100DC0003B81820F931FFC018081869586958695D5
:100DD000882F90E0880F991F805A9F4FFC018081D7
:100DE0009181242FFC01208347C08981882F90E0C6
:100DF0002A813B81820F931FFC0180818695869515
:100E00008695882F90E0880F991F805A9F4FFC018C
:100E100080819181FC018081482F8981882F90E019
:100E20002A813B81820F931FFC018081882F90E0F3
:100E30009C012770332781E090E002C0880F991F42
:100E40002A95E2F7482B8981882F90E02A813B81FF
:100E5000820F931FFC018081869586958695882F49
:100E600090E0880F991F805A9F4FFC0180819181EB
:100E7000242FFC012083000089818F5F8983998161
:100E80008C81981708F460CF00000F900F900F909E
:100E90000F900F90DF91CF910895CF93DF9300D003
:100EA00000D01F92CDB7DEB79B838A836C834D83BE
:100EB0001982E7C08D81882F90E08130910509F477
:100EC0004FC08230910509F492C0892B09F0D6C039
:100ED0008981882F90E02A813B81820F931FFC013A
:100EE0008081869586958695882F90E0880F991F3A
:100EF0008A589F4FFC0180819181FC018081482F9D
:100F00008981882F90E02A813B81820F931FFC0109
:100F10008081882F90E09C012770332781E090E04A
:100F200002C0880F991F2A95E2F78095482389818E
:100F3000882F90E02A813B81820F931FFC018081E2
:100F4000869586958695882F90E0880F991F8A58F8
:100F50009F4FFC0180819181242FFC0120838EC052
:100F60008981882F90E02A813B81820F931FFC01A9
:100F70008081869586958695882F90E0880F991FA9
:100F80008A589F4FFC0180819181FC018081482F0C
:100F90008981882F90E02A813B81820F931FFC0179
:100FA0008081882F90E09C012770332781E090E0BA
:100FB00002C0880F991F2A95E2F7482B8981882F54
:100FC00090E02A813B81820F931FFC0180818695EE
:100FD00086958695882F90E0880F991F8A589F4F95
:100FE000FC0180819181242FFC01208347C08981ED
:100FF000882F90E02A813B81820F931FFC01808122
:10100000869586958695882F90E0880F991F8A5837
:101010009F4FFC0180819181FC018081482F898153
:10102000882F90E02A813B81820F931FFC018081F1
:10103000882F90E09C012770332781E090E002C068
:10104000880F991F2A95E2F748278981882F90E019
:101050002A813B81820F931FFC01808186958695B2
:101060008695882F90E0880F991F8A589F4FFC0122
:1010700080819181242FFC012083000089818F5F72
:10108000898399818C81981708F414CF00000F9000
:101090000F900F900F900F90DF91CF910895CF9305
:1010A000DF9300D0CDB7DEB78A8319828A81869517
:1010B00086958695882F90E0880F991F84579F4FBB
:1010C000FC0180819181FC018081882F90E02A8140
:1010D000222F30E02770332702C0959587952A95F7
:1010E000E2F78170898389810F900F90DF91CF9112
:1010F0000895CF93DF9300D0CDB7DEB789836A839D
:101100008981882F90E0880F991F805A9F4FFC019A
:10111000808191812A81FC01208300000F900F9033
:10112000DF91CF910895CF93DF9300D0CDB7DEB795
:1011300089836A838981882F90E0880F991F8A5854
:101140009F4FFC01808191812A81FC012083000056
:101150000F900F90DF91CF910895CF93DF9300D040
:10116000CDB7DEB78A8319828A81882F90E0880FF5
:10117000991F84579F4FFC0180819181FC018081E0
:10118000898389810F900F90DF91CF910895CF933C
:10119000DF93CDB7DEB787E290E0FC01208187E2E4
:1011A00090E02F77FC01208387E290E0FC01208112
:1011B00087E290E02064FC01208380E590E0FC0160
:1011C000208180E590E02F77FC01208380E590E08E
:1011D000FC01208180E590E02F7BFC01208380E5ED
:1011E00090E0FC01208180E590E02F7DFC012083D0
:1011F00086E290E0FC01208186E290E02068FC011C
:10120000208326E230E086E290E0F9012081FC01B3
:1012100020830000DF91CF910895CF93DF9300D01A
:101220001F92CDB7DEB78B831A82198287E290E0D6
:10123000FC01208187E290E0207EFC01208387E290
:1012400090E0FC01308187E290E02B81232BFC01B0
:10125000208386E290E0FC01208186E290E0206419
:10126000FC012083000086E290E0FC0180818295F1
:10127000869586958370882F90E081709927892BB9
:1012800091F784E290E0FC018081882F90E09A83BE
:10129000898385E290E0FC018081882F90E0982F7F
:1012A00088279C0189819A81822B932B9A83898339
:1012B00089819A810F900F900F90DF91CF910895BF
:1012C000CF93DF93CDB7DEB786E290E0FC012081BB
:1012D00086E290E02068FC0120830000DF91CF913E
:1012E0000895CF93DF93CDB7DEB786E290E0FC019F
:1012F000208186E290E02F77FC0120830000DF91BF
:10130000CF910895CF93DF93CDB7DEB78FE590E00F
:10131000FC0120818FE590E02068FC01208386E2BB
:1013200090E0FC01208186E290E02860FC012083AF
:101330000000DF91CF910895CF93DF93CDB7DEB753
:1013400086E290E0FC01208186E290E0277FFC01AC
:1013500020830000DF91CF910895CF93DF93CDB725
:10136000DEB786E290E0FC01208186E290E02F7EED
:10137000FC0120830000DF91CF910895CF93DF938C
:10138000CDB7DEB761E080E10E947B050000DF9110
:10139000CF910895CF93DF93CDB7DEB761E080E1C1
:1013A0000E94EF050000DF91CF910895CF93DF9366
:1013B000CDB7DEB760E080E10E94EF050000DF916D
:1013C000CF910895CF93DF93CDB7DEB7E1970FB6F6
:1013D000F894DEBF0FBECDBF4CA75DA76EA77FA759
:1013E00088AB99AB8CA561E00E947B058DA561E07F
:1013F0000E947B05198210C08981882F90E09E0190
:10140000225D3F4F820F931FFC01808161E00E94AB
:101410007B0589818F5F89838981843068F380E0CF
:1014200090E0A0EAB1E48E8F9F8FA8A3B9A320E03B
:1014300030E04AEF54E46E8D7F8D88A199A10E941F
:101440001E15DC01CB018AA39BA3ACA3BDA320E0A6
:1014500030E040E85FE36AA17BA18CA19DA10E94DE
:10146000FE1388232CF481E090E09FA38EA33FC05D
:1014700020E03FEF4FE757E46AA17BA18CA19DA13B
:101480000E94191518164CF520E030E040E251E4B6
:101490006E8D7F8D88A199A10E941E15DC01CB0164
:1014A000BC01CD010E947514DC01CB019FA38EA36A
:1014B0000FC088EC90E099A788A788A599A5019707
:1014C000F1F799A788A78EA19FA101979FA38EA34B
:1014D0008EA19FA1892B69F714C06AA17BA18CA161
:1014E0009DA10E947514DC01CB019FA38EA38EA148
:1014F0009FA19BA78AA78AA59BA50197F1F79BA708
:101500008AA728E34CA55DA56EA57FA588A999A902
:101510000E94C00B80E090E0A0EAB0E4888B998B39
:10152000AA8BBB8B20E030E04AEF54E468897989CC
:101530008A899B890E941E15DC01CB018C8B9D8BB7
:10154000AE8BBF8B20E030E040E85FE36C897D89A3
:101550008E899F890E94FE1388232CF481E090E0FD
:10156000998F888F3FC020E03FEF4FE757E46C89A9
:101570007D898E899F890E94191518164CF520E0E7
:1015800030E040E251E4688979898A899B890E9428
:101590001E15DC01CB01BC01CD010E947514DC01DC
:1015A000CB01998F888F0FC088EC90E09B8F8A8F3A
:1015B0008A8D9B8D0197F1F79B8F8A8F888D998DEE
:1015C0000197998F888F888D998D892B69F714C021
:1015D0006C897D898E899F890E947514DC01CB01FD
:1015E000998F888F888D998D9D8F8C8F8C8D9D8DF7
:1015F0000197F1F79D8F8C8F28E34CA55DA56EA513
:101600007FA588A999A90E94C00B80E090E0A6E17F
:10161000B3E48A839B83AC83BD8320E030E04AEF50
:1016200054E46A817B818C819D810E941E15DC01BE
:10163000CB018E839F83A887B98720E030E040E804
:101640005FE36E817F81888599850E94FE138823E0
:101650002CF481E090E09B878A873FC020E03FEF39
:101660004FE757E46E817F81888599850E9419151F
:1016700018164CF520E030E040E251E46A817B81AD
:101680008C819D810E941E15DC01CB01BC01CD0126
:101690000E947514DC01CB019B878A870FC088EC00
:1016A00090E09D878C878C859D850197F1F79D87BC
:1016B0008C878A859B8501979B878A878A859B85EE
:1016C000892B69F714C06E817F81888599850E9476
:1016D0007514DC01CB019B878A878A859B859F8750
:1016E0008E878E859F850197F1F79F878E8728E3E8
:1016F0004CA55DA56EA57FA588A999A90E94C00BE0
:1017000021E04CA55DA56EA57FA588A999A90E9499
:10171000C00B22E04CA55DA56EA57FA588A999A95F
:101720000E94C00B26E04CA55DA56EA57FA588A9EB
:1017300099A90E94C00B2CE04CA55DA56EA57FA5C4
:1017400088A999A90E94C00B28E24CA55DA56EA5A9
:101750007FA588A999A90E94C00B20E84CA55DA58A
:101760006EA57FA588A999A90E94C00B0000E196EB
:101770000FB6F894DEBF0FBECDBFDF91CF910895B5
:10178000CF93DF9300D000D000D01F92CDB7DEB74B
:1017900049835A836B837C838D839E832F838A81C5
:1017A00060E00E94EF058F8182958F70282F49811C
:1017B0005A816B817C818D819E810E94650E409152
:1017C000A2005091A3006091A4007091A5008091A7
:1017D000A6009091A7000E94A00E2F8149815A81F6
:1017E0006B817C818D819E810E94650E4091A2005B
:1017F0005091A3006091A4007091A5008091A60073
:101800009091A7000E94A00E000027960FB6F894B2
:10181000DEBF0FBECDBFDF91CF910895CF93DF9391
:1018200000D000D000D01F92CDB7DEB749835A83D5
:101830006B837C838D839E832F838A8161E00E94EA
:10184000EF058F8182958F70282F49815A816B8196
:101850007C818D819E810E94650E4091A2005091F5
:10186000A3006091A4007091A5008091A6009091C2
:10187000A7000E94A00E2F8149815A816B817C8133
:101880008D819E810E94650E4091A2005091A3001F
:101890006091A4007091A5008091A6009091A7008E
:1018A0000E94A00E000027960FB6F894DEBF0FBE70
:1018B000CDBFDF91CF910895CF93DF93CDB7DEB742
:1018C00028970FB6F894DEBF0FBECDBF49835A8369
:1018D0006B837C838D839E8338872F8312C08F8197
:1018E00098859C012F5F3F4F38872F83FC018081B3
:1018F000282F49815A816B817C818D819E810E9434
:101900000E0C8F819885FC018081882341F70000AF
:1019100028960FB6F894DEBF0FBECDBFDF91CF91F2
:101920000895CF93DF93CDB7DEB72D970FB6F89418
:10193000DEBF0FBECDBF4E835F83688779878A87FE
:101940009B873D872C878C859D85282FCE0101960E
:10195000BC01822F0E94F00FCE0101969C014E81A6
:101960005F81688579858A859B850E945C0C000073
:101970002D960FB6F894DEBF0FBECDBFDF91CF918D
:101980000895CF93DF93CDB7DEB762970FB6F89483
:10199000DEBF0FBECDBF4B875C876D877E878F878D
:1019A000988B3A8B298B89899A899E012F5F3F4FAB
:1019B000B9010E942110CE0101969C014B855C85E6
:1019C0006D857E858F8598890E945C0C00006296EB
:1019D0000FB6F894DEBF0FBECDBFDF91CF91089553
:1019E000CF93DF93CDB7DEB76C970FB6F894DEBF19
:1019F0000FBECDBF4D8B5E8B6F8B788F898F9A8F8B
:101A00003C8F2B8F8B8D9C8D092E000CAA0BBB0B52
:101A10009E012F5F3F4FA901BC01CD010E945210D2
:101A2000CE0101969C014D895E896F89788D898DE3
:101A30009A8D0E945C0C00006C960FB6F894DEBF85
:101A40000FBECDBFDF91CF910895EF920F93CF934B
:101A5000DF93CDB7DEB729970FB6F894DEBF0FBE80
:101A6000CDBF49835A836B837C838D839E832F8371
:101A70000887E98608852F8149815A816B817C819D
:101A80008D819E810E94B10F298549815A816B8188
:101A90007C818D819E810E940E0C000029960FB6DC
:101AA000F894DEBF0FBECDBFDF91CF910F91EF90C5
:101AB0000895EF92FF920F93CF93DF93CDB7DEB7E8
:101AC0002A970FB6F894DEBF0FBECDBF49835A8365
:101AD0006B837C838D839E832F830887FA86E986B8
:101AE00008852F8149815A816B817C818D819E81FE
:101AF0000E94B10F89859A859C0149815A816B8129
:101B00007C818D819E810E945C0C00002A960FB61C
:101B1000F894DEBF0FBECDBFDF91CF910F91FF9044
:101B2000EF900895EF92FF920F93CF93DF93CDB78D
:101B3000DEB72A970FB6F894DEBF0FBECDBF49833C
:101B40005A836B837C838D839E832F830887FA86D9
:101B5000E98608852F8149815A816B817C818D813D
:101B60009E810E94B10F89859A859C0149815A8185
:101B70006B817C818D819E810E94910C00002A9650
:101B80000FB6F894DEBF0FBECDBFDF91CF910F919E
:101B9000FF90EF900895EF92FF920F93CF93DF9312
:101BA000CDB7DEB72A970FB6F894DEBF0FBECDBF14
:101BB00049835A836B837C838D839E832F8308871D
:101BC000FA86E98608852F8149815A816B817C815B
:101BD0008D819E810E94B10F89859A859C014981E2
:101BE0005A816B817C818D819E810E94C10C000095
:101BF0002A960FB6F894DEBF0FBECDBFDF91CF910E
:101C00000F91FF90EF900895EF92FF920F93CF9373
:101C1000DF93CDB7DEB72A970FB6F894DEBF0FBEBD
:101C2000CDBF49835A836B837C838D839E832F83AF
:101C30000887FA86E98608852F8149815A816B8158
:101C40007C818D819E810E94B10F89859A859C013E
:101C500049815A816B817C818D819E810E94F00C2B
:101C600000002A960FB6F894DEBF0FBECDBFDF91FD
:101C7000CF910F91FF90EF9008950F93CF93DF9343
:101C8000CDB7DEB728970FB6F894DEBF0FBECDBF35
:101C900049835A836B837C838D839E832F8308873C
:101CA00008852F8149815A816B817C818D819E813C
:101CB0000E94B10F000028960FB6F894DEBF0FBE49
:101CC000CDBFDF91CF910F910895CF93DF9300D0D7
:101CD00000D000D01F92CDB7DEB749835A836B8303
:101CE0007C838D839E832F838F81982F91708B812E
:101CF000692F0E94EF058F818695982F91708C81B6
:101D0000692F0E94EF058F8186958695982F917097
:101D10008D81692F0E94EF058F8186958695869526
:101D2000982F91708E81692F0E94EF0500002796F1
:101D30000FB6F894DEBF0FBECDBFDF91CF910895EF
:101D4000CF93DF93CDB7DEB7A6970FB6F894DEBF7B
:101D50000FBECDBF49A35AA36BA37CA38DA39EA3A3
:101D600089A161E00E94EF0580E090E0A0EAB0E484
:101D700089839A83AB83BC832BEA3AEA4AE250E434
:101D800069817A818B819C810E941E15DC01CB01C7
:101D90008D839E83AF83B88789819A81AB81BC8113
:101DA0009C01AD01BC01CD010E949213DC01CB016D
:101DB00089879A87AB87BC8720E030E040E85FE303
:101DC0006D817E818F8198850E94FE1388231CF48B
:101DD00081E08D87B2C020E03FEF4FE757E469858F
:101DE0007A858B859C850E94191518160CF07BC08E
:101DF00020E030E04AE754E469817A818B819C815C
:101E00000E940314DC01CB018E879F87A88BB98BBE
:101E100020E030E04AEF54E46E857F858889998917
:101E20000E941E15DC01CB018A8B9B8BAC8BBD8B7A
:101E300020E030E040E85FE36A897B898C899D89F6
:101E40000E94FE1388232CF481E090E09F8B8E8B00
:101E50003FC020E03FEF4FE757E46A897B898C89D8
:101E60009D890E94191518164CF520E030E040E2DB
:101E700051E46E857F85888999890E941E15DC0151
:101E8000CB01BC01CD010E947514DC01CB019F8BFD
:101E90008E8B0FC088EC90E0998F888F888D998DFC
:101EA0000197F1F7998F888F8E899F8901979F8B72
:101EB0008E8B8E899F89892B69F73FC06A897B89C0
:101EC0008C899D890E947514DC01CB019F8B8E8BC0
:101ED0008E899F899B8F8A8F8A8D9B8D0197F1F7C1
:101EE0009B8F8A8F2AC020E030E04FE753E46D815A
:101EF0007E818F8198850E9419151816ACF469852A
:101F00007A858B859C850E947514DC01CB019D8FA1
:101F10008C8F8C8D9D8D9F8F8E8F8E8D9F8D019739
:101F2000F1F79F8F8E8F0FC06D817E818F81988595
:101F30000E947514DC01CB018D878D8588A388A153
:101F40008A95F1F788A389A160E00E94EF0500005F
:101F5000A6960FB6F894DEBF0FBECDBFDF91CF912E
:101F600008950F93CF93DF93CDB7DEB728970FB6C1
:101F7000F894DEBF0FBECDBF49835A836B837C8349
:101F80008D839E832F8308878885815088878F81E2
:101F9000882F90E0009719F0019759F016C0288516
:101FA00049815A816B817C818D819E810E94C00B09
:101FB0000CC08885805C282F49815A816B817C8187
:101FC0008D819E810E94C00B0000000028960FB6F4
:101FD000F894DEBF0FBECDBFDF91CF910F91089572
:101FE000CF93DF9300D01F92CDB7DEB789837B8379
:101FF0006A838A819B8144E050E060E070E00E9447
:102000008B158981882F90E0292F2F938F9389EC4E
:1020100090E0892F8F9389EC90E08F938B818F9341
:102020008A818F930E9492150F900F900F900F90BE
:102030000F900F9000000F900F900F90DF91CF91B5
:102040000895CF93DF9300D000D0CDB7DEB79A8349
:1020500089837C836B838B819C8146E050E060E0C8
:1020600070E00E948B158A818F9389818F9389EC10
:1020700090E0892F8F9389EC90E08F938C818F93E0
:102080008B818F930E9492150F900F900F900F905D
:102090000F900F9000000F900F900F900F90DF9116
:1020A000CF910895CF93DF9300D000D000D0CDB76B
:1020B000DEB769837A838B839C835E834D838D81B6
:1020C0009E814BE050E060E070E00E948B158C81B7
:1020D0008F938B818F938A818F9389818F9389ECE2
:1020E00090E0892F8F9389EC90E08F938E818F936E
:1020F0008D818F930E9492158DB79EB708960FB66B
:10210000F894DEBF0FBECDBF000026960FB6F89440
:10211000DEBF0FBECDBFDF91CF910895CF93DF9388
:1021200000D000D01F92CDB7DEB79B838A837D831A
:102130006C8319821DC08981882F90E09E012E5FDB
:102140003F4F820F931FFC01808161E00E947B055D
:102150008981882F90E09E012C5F3F4F820F931F53
:10216000FC01808161E00E947B0589818F5F89830A
:102170008981823000F300000F900F900F900F9034
:102180000F90DF91CF910895CF93DF9300D000D0CF
:10219000CDB7DEB79A8389837C836B83898161E0C5
:1021A0000E94EF058A8160E00E94EF058B8161E06B
:1021B0000E94EF058C8160E00E94EF0500000F9007
:1021C0000F900F900F90DF91CF910895CF93DF93F1
:1021D00000D000D0CDB7DEB79A8389837C836B8330
:1021E000898160E00E94EF058A8161E00E94EF052D
:1021F0008B8160E00E94EF058C8161E00E94EF0519
:1022000000000F900F900F900F90DF91CF910895E5
:10221000CF93DF9300D000D0CDB7DEB79A83898308
:102220007C836B83898160E00E94EF058A8160E096
:102230000E94EF058B8160E00E94EF058C8161E0D8
:102240000E94EF0500000F900F900F900F90DF910C
:10225000CF910895CF93DF9300D000D0CDB7DEB7F4
:102260009A8389837C836B83898160E00E94EF0578
:102270008A8161E00E94EF058B8160E00E94EF059A
:102280008C8160E00E94EF0500000F900F900F908E
:102290000F90DF91CF910895CF93DF9300D000D0BE
:1022A000CDB7DEB79A8389837C836B83898160E0B5
:1022B0000E94EF058A8160E00E94EF058B8160E05B
:1022C0000E94EF058C8160E00E94EF0500000F90F6
:1022D0000F900F900F90DF91CF910895CF93DF93E0
:1022E000CDB7DEB72A970FB6F894DEBF0FBECDBFCD
:1022F0002B833C834D835E836F83788789879A879E
:1023000019821DC08981882F90E09E012D5F3F4F6B
:10231000820F931FFC01808160E00E947B05898110
:10232000882F90E09E012D5F3F4F820F931FFC018D
:10233000808161E00E94EF0589818F5F89838981B7
:10234000843000F31A821DC08A81882F90E09E019C
:10235000295F3F4F820F931FFC01808161E00E9443
:102360007B058A81882F90E09E01295F3F4F820F75
:10237000931FFC01808161E00E94EF058A818F5FDD
:102380008A838A81843000F300002A960FB6F8947D
:10239000DEBF0FBECDBFDF91CF9108950F931F9386
:1023A000CF93DF93CDB7DEB76B970FB6F894DEBF50
:1023B0000FBECDBF2A8B3B8B4C8B5D8B6E8B7F8B87
:1023C000888F998F1B8F0A8F1B821982DBC08981AE
:1023D000882F90E09E012A5E3F4F820F931FFC01E1
:1023E000808160E00E94EF051A82B8C08A81882F40
:1023F00090E09E012E5E3F4F820F931FFC01808173
:102400000E944F08882309F0A6C08A81282F30E057
:102410008981882F90E0220F331F220F331F820FF4
:10242000931F84559F4FFC0120818A8D9B8DFC0159
:10243000208381E08B8300008A81882F90E09E01B9
:102440002E5E3F4F820F931FFC0180810E944F0838
:10245000882391F380E090E0A0E2B1E48C839D8337
:10246000AE83BF8320E030E04AEF54E46C817D818D
:102470008E819F810E941E15DC01CB018887998780
:10248000AA87BB8720E030E040E85FE36885798574
:102490008A859B850E94FE1388232CF481E090E0BE
:1024A0009D878C873FC020E03FEF4FE757E468856A
:1024B00079858A859B850E94191518164CF520E0B0
:1024C00030E040E251E46C817D818E819F810E94E9
:1024D0001E15DC01CB01BC01CD010E947514DC018D
:1024E000CB019D878C870FC088EC90E09F878E87FB
:1024F0008E859F850197F1F79F878E878C859D85B7
:1025000001979D878C878C859D85892B69F714C0E1
:10251000688579858A859B850E947514DC01CB01CD
:102520009D878C878C859D85998B888B88899989D7
:102530000197F1F7998B888B8981882F90E09E0114
:102540002A5E3F4F820F931FFC01808161E00E9451
:10255000EF058B811CC08A818F5F8A838A818430DA
:1025600008F444CF8981882F90E09E012A5E3F4F76
:10257000820F931FFC01808161E00E94EF05898139
:102580008F5F89838981843008F421CF8B816B969A
:102590000FB6F894DEBF0FBECDBFDF91CF911F9174
:1025A0000F910895CF93DF9300D000D01F92CDB745
:1025B000DEB749835A836B837C838D83898161E095
:1025C0000E947B058A8161E00E947B058B8161E02E
:1025D0000E947B058C8161E00E947B058D8161E01A
:1025E0000E947B0549815A816B817C818D810E948B
:1025F000021300000F900F900F900F900F90DF913B
:10260000CF910895CF93DF9300D000D01F92CDB724
:10261000DEB749835A836B837C838D83898161E034
:102620000E94EF0500000F900F900F900F900F90F9
:10263000DF91CF910895CF93DF9300D000D01F9208
:10264000CDB7DEB749835A836B837C838D838981C1
:1026500060E00E94EF0500000F900F900F900F9028
:102660000F90DF91CF910895CF93DF9300D000D0EA
:1026700000D0CDB7DEB749835A836B837C838D83CB
:102680002E838E818A3018F58E81982F91708A81E1
:10269000692F0E94EF058E818695982F91708B810E
:1026A000692F0E94EF058E8186958695982F9170EF
:1026B0008C81692F0E94EF058E818695869586957F
:1026C000982F91708D81692F0E94EF0507C0498175
:1026D0005A816B817C818D810E941B13000026969C
:1026E0000FB6F894DEBF0FBECDBFDF91CF91089536
:1026F000CF93DF93CDB7DEB70000DF91CF91089580
:10270000CF93DF93CDB7DEB70000DF91CF9108956F
:10271000CF93DF93CDB7DEB70E9478130E9480136A
:10272000FDCF5058BB27AA270E94A9130C94DF1491
:102730000E94D11438F00E94D81420F039F49F3F41
:1027400019F426F40C94CE140EF4E095E7FB0C94E7
:10275000C814E92F0E94F01458F3BA1762077307E0
:102760008407950720F079F4A6F50C9412150EF461
:10277000E0950B2EBA2FA02D0B01B90190010C0191
:10278000CA01A0011124FF27591B99F0593F50F4A9
:10279000503E68F11A16F040A22F232F342F442701
:1027A000585FF3CF469537952795A795F0405395F9
:1027B000C9F77EF41F16BA0B620B730B840BBAF0C9
:1027C0009150A1F0FF0FBB1F661F771F881FC2F734
:1027D0000EC0BA0F621F731F841F48F48795779548
:1027E0006795B795F7959E3F08F0B0CF9395880F02
:1027F00008F09927EE0F9795879508950E94A414E5
:1028000008F481E008950E9417140C94DF140E94CC
:10281000D81458F00E94D11440F029F45F3F29F0F9
:102820000C94C81451110C9413150C94CE140E94DE
:10283000F01468F39923B1F3552391F3951B550BCD
:10284000BB27AA2762177307840738F09F5F5F4F83
:10285000220F331F441FAA1FA9F335D00E2E3AF0C2
:10286000E0E832D091505040E695001CCAF72BD0DA
:10287000FE2F29D0660F771F881FBB1F261737072B
:102880004807AB07B0E809F0BB0B802DBF01FF275D
:1028900093585F4F3AF09E3F510578F00C94C8145E
:1028A0000C9413155F3FE4F3983ED4F38695779527
:1028B0006795B795F7959F5FC9F7880F911D969516
:1028C000879597F90895E1E0660F771F881FBB1F72
:1028D000621773078407BA0720F0621B730B840B1F
:1028E000BA0BEE1F88F7E09508950E94F81488F05F
:1028F0009F5798F0B92F9927B751B0F0E1F0660FC4
:10290000771F881F991F1AF0BA95C9F714C0B13004
:1029100091F00E941215B1E008950C941215672FE2
:10292000782F8827B85F39F0B93FCCF38695779533
:102930006795B395D9F73EF490958095709561951C
:102940007F4F8F4F9F4F0895990F0008550FAA0B87
:10295000E0E8FEEF16161706E807F907C0F01216B2
:102960001306E407F50798F0621B730B840B950BB5
:1029700039F40A2661F0232B242B252B21F408950A
:102980000A2609F4A140A6958FEF811D811D0895A7
:1029900097F99F6780E870E060E008959FEF80EC12
:1029A000089500240A9416161706180609060895B5
:1029B00000240A9412161306140605060895092E1B
:1029C0000394000C11F4882352F0BB0F40F4BF2B8A
:1029D00011F460FF04C06F5F7F4F8F4F9F4F0895CA
:1029E00057FD9058440F551F59F05F3F71F04795C0
:1029F000880F97FB991F61F09F3F79F087950895A5
:102A0000121613061406551FF2CF4695F1DF08C0C3
:102A1000161617061806991FF1CF869571056105E0
:102A200008940895E894BB2766277727CB0197F988
:102A300008950E94A41408F48FEF08950E943115A0
:102A40000C94DF140E94D11438F00E94D81420F0A6
:102A5000952311F00C94C8140C94CE1411240C94EA
:102A600013150E94F01470F3959FC1F3950F50E079
:102A7000551F629FF001729FBB27F00DB11D639F30
:102A8000AA27F00DB11DAA1F649F6627B00DA11DD6
:102A9000661F829F2227B00DA11D621F739FB00D7C
:102AA000A11D621F839FA00D611D221F749F3327EC
:102AB000A00D611D231F849F600D211D822F762F85
:102AC0006A2F11249F5750409AF0F1F088234AF062
:102AD000EE0FFF1FBB1F661F771F881F91505040CE
:102AE000A9F79E3F510580F00C94C8140C9413155F
:102AF0005F3FE4F3983ED4F3869577956795B79555
:102B0000F795E7959F5FC1F7FE2B880F911D96956E
:102B1000879597F90895DC0101C06D9341505040AD
:102B2000E0F70895AEE0B0E0E8E9F5E10C94411873
:102B30000D891E8986E08C831A8309838FEF9FE7B6
:102B40009E838D83AE01475E5F4F6F89788DCE0186
:102B500001960E94B5152F813885020F131FF801C9
:102B600010822E96E4E00C945D18ABE0B0E0EBEB45
:102B7000F5E10C9433187C013B018A01FC011782BA
:102B80001682838181FFC8C1CE0101965C01F701E5
:102B90009381F30193FD859193FF81913F018823F8
:102BA00009F453C1853239F493FD859193FF8191E6
:102BB0003F01853229F4B70190E00E94A517E7CFC5
:102BC000912C212C312CFFE1F31538F08B3211F1CF
:102BD00090F4803209F1833229F137FC3CC020EDBA
:102BE000280F2A3050F536FE20C08AE0989E200D2E
:102BF0001124922E06C08D3291F0803371F76894C3
:102C000030F8F30193FD859193FF81913F0181118C
:102C1000DACF21C0689431F8689432F8F2CF689422
:102C200033F8EFCF689434F8ECCFEAE02E9E200D15
:102C30001124222E689435F8E4CF8E3229F436FC24
:102C400004C1689436F8DDCF8C3619F4689437F8EF
:102C5000D8CF8836B1F2982F9F7D95549330E0F00D
:102C60008336A1F18337C1F1833509F063C02801B0
:102C7000F2E04F0E511CF801C080D180692D70E048
:102C800036FC02C06FEF7FEFC6010E948F174C0128
:102C9000689437F882010AC00C5F1F4FFFE3F98385
:102CA00088248394912C6501E89437F833FE2DC075
:102CB000522C8114910471F5552009F468CFB701A5
:102CC00080E290E00E94A5175A94F6CFF801808127
:102CD00089830E5F1F4FE4CF2801F2E04F0E511C95
:102CE000F801C080D180692D70E036FC02C06FEF22
:102CF0007FEFC6010E949A174C018201D5CFB70120
:102D000080E290E00E94A5172A942814190409F083
:102D1000B0F7CECFF60137FC859137FE81916F0178
:102D2000B70190E00E94A51751105A94F1E08F1A54
:102D30009108BFCF843619F0893609F077C0F801C1
:102D400037FE6BC060817181828193810C5F1F4F60
:102D5000F32DFF763F2E97FF09C0909580957095D3
:102D600061957F4F8F4F9F4F689437F82AE030E08E
:102D7000A5010E94D517C82ECA188C2C432C36FEEC
:102D80000CC0E89440F8C91440F434FE05C032FC8D
:102D900003C0F32DFE7E4F2E892C44FE95C0FE010C
:102DA000EC0DF11D8081803309F087C0242D297E30
:102DB000422E842D8870582E43FC95C040FE8FC053
:102DC0009C2C821418F42C0C922C981844FE91C060
:102DD000B70180E390E00E94A51742FE09C088E792
:102DE00090E041FE02C088E590E0B7010E94A5177F
:102DF000C91408F48AC0CA94D12C9FEFC91AD90A01
:102E0000CA0CDB1CF60182916F01B70190E00E94B1
:102E1000A517AC14BD04B1F74FCF60817181072EA7
:102E2000000C880B990B0E5F1F4F92CFD32CE894A8
:102E3000D4F82AE030E0853739F1232D297FD22ECE
:102E40008F3601F148F48835A9F0F7018681978122
:102E50002B96E2E10C944F18803749F08837A9F798
:102E6000D4FE02C06894D2F820E130E00DC068942E
:102E7000D4F8F6CF34FE03C0822F8660D82E20E12E
:102E800032E002C028E030E0F801D7FE0FC06081D8
:102E90007181828193810C5F1F4FA5010E94D5171C
:102EA000C82ECA183D2CE89437F867CF608171812D
:102EB00090E080E00E5F1F4FF0CF42FC02C0839491
:102EC00078CF8394839475CF842D867809F471CF5D
:102ED000F6CFB70180E290E00E94A5178394821498
:102EE000C0F3512C73CF522C5818821408F46ECFB3
:102EF000F8CF842D867809F47BCF8BE241FE80E207
:102F000047FC8DE2B70190E071CFB70180E390E01C
:102F10000E94A5179A946CCF8FEF9FEF99CFFC0179
:102F20000590615070400110D8F7809590958E0FF4
:102F30009F1F0895FC016150704001900110D8F767
:102F4000809590958E0F9F1F08950F931F93CF9399
:102F5000DF93182F092FEB018B8181FD09C01FEF33
:102F60000FEF812F902FDF91CF911F910F91089537
:102F700082FF14C02E813F818C819D8128173907E3
:102F80003CF4E881F981CF0101969983888310830D
:102F90008E819F8101969F838E83E3CFE885F9859B
:102FA000812F0995892BA1F3DACFFA01AA272830BE
:102FB00051F1203181F1E8946F936E7F6E5F7F4F06
:102FC0008F4F9F4FAF4FB1E03ED0B4E03CD0670F82
:102FD000781F891F9A1FA11D680F791F8A1F911DD5
:102FE000A11D6A0F711D811D911DA11D20D009F425
:102FF00068943F912AE0269F11243019305D319367
:10300000DEF6CF010895462F4770405D4193B3E04F
:103010000FD0C9F7F6CF462F4F70405D4A3318F0F6
:10302000495D31FD4052419302D0A9F7EACFB4E0A7
:10303000A6959795879577956795BA95C9F700975F
:103040006105710508959B01AC010A2E0694579500
:10305000479537952795BA95C9F7620F731F841F57
:10306000951FA01D08952F923F924F925F926F92ED
:103070007F928F929F92AF92BF92CF92DF92EF9208
:10308000FF920F931F93CF93DF93CDB7DEB7CA1B89
:10309000DB0B0FB6F894DEBF0FBECDBF09942A88B4
:1030A000398848885F846E847D848C849B84AA845C
:1030B000B984C884DF80EE80FD800C811B81AA81E9
:1030C000B981CE0FD11D0FB6F894DEBF0FBECDBFB4
:0830D000ED010895F894FFCF13
:1030D8003A00370034003100000000000000000012
:1030E8000000000000003B003800350032000000FE
:1030F8000000000000000000000000003900360059
:103108003300300000000000000000000000000054
:10311800000011101213141508090A0B3738392F3B
:10312800343536783132332D23303D2B00010203FC
:0C3138000405060717101112132569008A
:00000001FF
