:100000000C942A000C948E010C94BD010C94EC010C
:100010000C9447000C9447000C9447000C94470044
:100020000C9447000C9447000C9447000C94470034
:100030000C9447000C9447000C9447000C94470024
:100040000C9447000C9447000C9447000C94470014
:100050000C94470011241FBECFE5D4E0DEBFCDBF16
:1000600010E0A0E6B0E0EAE2F5E302C005900D92F0
:10007000A63AB107D9F720E0A6EAB0E001C01D9288
:10008000A03BB207E1F70E9418160C94931A0C9447
:100090000000CF93DF931F92CDB7DEB7898389E24B
:1000A00090E02981FC01208380E490E0FC01208124
:1000B00080E490E02F7BFC01208380E490E0FC0151
:1000C000208180E490E0277FFC01208380E490E0A1
:1000D000FC01208180E490E02260FC01208380E428
:1000E00090E0FC01208180E490E02460FC0120830A
:1000F00080E490E0FC01208180E490E02B7FFC0113
:1001000020838AE290E0FC0120818AE290E028606E
:10011000FC0120838AE290E0FC0120818AE290E0E9
:100120002061FC01208300000F90DF91CF910895A2
:10013000CF93DF9300D0CDB7DEB79A8389830000D9
:100140008BE290E0FC018081829586958770882FF4
:1001500090E081709927892B99F38CE290E02981B6
:10016000FC01208300000F900F90DF91CF91089544
:10017000CF93DF9300D0CDB7DEB79A8389838BE22C
:1001800090E0FC018081881F8827881F882F90E0DD
:1001900081709927892B51F08CE290E0FC0120813D
:1001A00089819A81FC01208381E001C080E00F9069
:1001B0000F90DF91CF910895CF93DF93CDB7DEB746
:1001C00083E590E0FC01208183E590E02F7BFC013A
:1001D000208383E590E0FC01208183E590E0277F88
:1001E000FC0120830000DF91CF910895CF93DF932E
:1001F000CDB7DEB783E590E0FC01208183E590E098
:100200002260FC0120830000DF91CF910895CF93FD
:10021000DF93CDB7DEB783E590E0FC01208183E575
:1002200090E0287FFC0120830000DF91CF910895AA
:10023000CF93DF931F92CDB7DEB7898382E590E03D
:100240002981FC01208300000F90DF91CF91089558
:10025000CF93DF931F92CDB7DEB789838CE590E013
:100260002981FC01208300000F90DF91CF91089538
:10027000CF93DF93CDB7DEB78FE590E0FC0120810F
:100280008FE590E02068FC01208389E590E0FC0187
:10029000208189E590E02160FC0120830000DF914E
:1002A000CF910895CF93DF93CDB7DEB789E590E086
:1002B000FC01208189E590E02E7FFC012083000075
:1002C000DF91CF910895CF93DF93CDB7DEB78FE560
:1002D00090E0FC0120818FE590E02068FC01208304
:1002E00089E590E0FC01208189E590E02260FC0135
:1002F00020830000DF91CF910895CF93DF93CDB796
:10030000DEB789E590E0FC01208189E590E02D7F52
:10031000FC0120830000DF91CF9108951F920F927E
:100320000FB60F9211242F933F934F935F936F93C8
:100330007F938F939F93AF93BF93EF93FF93CF934D
:10034000DF93CDB7DEB78091AA009091AB00FC019E
:1003500009950000DF91CF91FF91EF91BF91AF918F
:100360009F918F917F916F915F914F913F912F91CD
:100370000F900FBE0F901F9018951F920F920FB6FF
:100380000F9211242F933F934F935F936F937F931B
:100390008F939F93AF93BF93EF93FF93CF93DF938D
:1003A000CDB7DEB78091A8009091A900FC01099516
:1003B0000000DF91CF91FF91EF91BF91AF919F919D
:1003C0008F917F916F915F914F913F912F910F90FE
:1003D0000FBE0F901F9018951F920F920FB60F929D
:1003E00011242F933F934F935F936F937F938F933A
:1003F0009F93AF93BF93EF93FF93CF93DF93CDB7CB
:10040000DEB78091A6009091A700FC01099500003D
:10041000DF91CF91FF91EF91BF91AF919F918F911C
:100420007F916F915F914F913F912F910F900FBEF0
:100430000F901F901895CF93DF9300D0CDB7DEB704
:1004400089836A838981882F90E08130910501F149
:1004500082309105B9F1892B09F04EC08FE590E00B
:10046000FC0120818FE590E02068FC0120838BE572
:1004700090E0FC0120818BE590E02064FC0120836A
:100480008A810E94820260E08AE10E94860334C071
:100490008FE590E0FC0120818FE590E02068FC0171
:1004A00020838BE590E0FC0120818BE590E02068C3
:1004B000FC0120838A810E94EB0260E08BE10E94B4
:1004C00086031AC08FE590E0FC0120818FE590E063
:1004D0002068FC0120838BE590E0FC0120818BE506
:1004E00090E02062FC0120838A810E94540360E036
:1004F0008BE00E948603000000000F900F90DF91B8
:10050000CF910895CF93DF931F92CDB7DEB7898344
:100510008981882F90E081309105F9F08230910532
:100520001CF4892B39F052C08230910549F10397B0
:10053000D1F14CC085E590E0FC01208185E590E09B
:10054000277FFC01208385E590E0FC01208185E583
:1005500090E02B7FFC01208339C085E590E0FC0111
:10056000208185E590E0277FFC01208385E590E0F0
:10057000FC01208185E590E02460FC01208326C0F9
:1005800085E590E0FC01208185E590E02860FC0194
:10059000208385E590E0FC01208185E590E02B7FBC
:1005A000FC01208313C085E590E0FC01208185E5F6
:1005B00090E02860FC01208385E590E0FC0120812B
:1005C00085E590E02460FC012083000000000F908E
:1005D000DF91CF910895CF93DF931F92CDB7DEB710
:1005E00089838981882F90E081309105F9F08230EC
:1005F00091051CF4892B39F052C08230910549F1E4
:100600000397D1F14CC085E590E0FC01208185E5A0
:1006100090E02D7FFC01208385E590E0FC012081A6
:1006200085E590E02E7FFC01208339C085E590E0D0
:10063000FC01208185E590E02D7FFC01208385E58C
:1006400090E0FC01208185E590E02160FC012083A1
:1006500026C085E590E0FC01208185E590E02260E0
:10066000FC01208385E590E0FC01208185E590E098
:100670002E7FFC01208313C085E590E0FC012081E2
:1006800085E590E02260FC01208385E590E0FC0197
:10069000208185E590E02160FC01208300000000BE
:1006A0000F90DF91CF910895CF93DF931F92CDB735
:1006B000DEB789838981882F90E08230910519F017
:1006C000039759F014C084E590E0FC01208184E593
:1006D00090E02F7BFC01208314C084E590E0FC01B6
:1006E000208184E590E02064FC0120830AC084E539
:1006F00090E0FC01208184E590E02F7BFC012083C9
:10070000000000000F90DF91CF910895CF93DF9309
:1007100000D0CDB7DEB789836A838A81882F90E0C5
:10072000009791F1019709F05FC0898186958695C0
:100730008695882F90E0880F991F805A9F4FFC0163
:1007400080819181FC018081482F8981882F90E0F0
:100750009C012770332781E090E002C0880F991F29
:100760002A95E2F7242F282B8981869586958695F0
:10077000882F90E0880F991F805A9F4FFC0180813D
:100780009181FC01208330C089818695869586956C
:10079000882F90E0880F991F805A9F4FFC0180811D
:1007A0009181FC018081482F8981882F90E09C01F4
:1007B0002770332781E090E002C0880F991F2A95A7
:1007C000E2F78095242F2823898186958695869542
:1007D000882F90E0880F991F805A9F4FFC018081DD
:1007E0009181FC012083000000000F900F90DF91A9
:1007F000CF910895CF93DF9300D0CDB7DEB7898333
:100800006A838A81882F90E08130910539F08230A7
:10081000910509F462C0892B81F18EC0898186958A
:1008200086958695882F90E0880F991F88599F4F4D
:10083000FC0180819181FC018081482F8981882F72
:1008400090E09C012770332781E090E002C0880F80
:10085000991F2A95E2F7242F282B89818695869562
:100860008695882F90E0880F991F88599F4FFC012B
:1008700080819181FC0120835FC089818695869566
:100880008695882F90E0880F991F88599F4FFC010B
:1008900080819181FC018081482F8981882F90E09F
:1008A0009C012770332781E090E002C0880F991FD8
:1008B0002A95E2F78095242F2823898186958695AD
:1008C0008695882F90E0880F991F88599F4FFC01CB
:1008D00080819181FC0120832FC089818695869536
:1008E0008695882F90E0880F991F88599F4FFC01AB
:1008F00080819181FC018081482F8981882F90E03F
:100900009C012770332781E090E002C0880F991F77
:100910002A95E2F7242F2827898186958695869542
:10092000882F90E0880F991F88599F4FFC01808184
:100930009181FC012083000000000F900F90DF9157
:10094000CF910895CF93DF9300D0CDB7DEB78A83E0
:1009500019828A81869586958695882F90E0880FE2
:10096000991F80599F4FFC0180819181FC018081FA
:10097000882F90E02A81222F30E02770332702C091
:10098000959587952A95E2F78170898389810F90E3
:100990000F90DF91CF910895CF93DF9300D000D0D7
:1009A0001F92CDB7DEB79B838A836C834D831982F8
:1009B0009BC08D81882F90E0009721F0019709F46A
:1009C00049C08FC08981882F90E02A813B81820FA6
:1009D000931FFC018081869586958695882F90E0EF
:1009E000880F991F805A9F4FFC0180819181FC01E3
:1009F0008081482F8981882F90E02A813B81820F56
:100A0000931FFC018081882F90E09C012770332781
:100A100081E090E002C0880F991F2A95E2F7809547
:100A200048238981882F90E02A813B81820F931F80
:100A3000FC018081869586958695882F90E0880FA9
:100A4000991F805A9F4FFC0180819181242FFC01C6
:100A5000208347C08981882F90E02A813B81820FC3
:100A6000931FFC018081869586958695882F90E05E
:100A7000880F991F805A9F4FFC0180819181FC0152
:100A80008081482F8981882F90E02A813B81820FC5
:100A9000931FFC018081882F90E09C0127703327F1
:100AA00081E090E002C0880F991F2A95E2F7482B59
:100AB0008981882F90E02A813B81820F931FFC015E
:100AC0008081869586958695882F90E0880F991F5E
:100AD000805A9F4FFC0180819181242FFC0120834B
:100AE000000089818F5F898399818C81981708F430
:100AF00060CF00000F900F900F900F900F90DF913C
:100B0000CF910895CF93DF9300D000D01F92CDB73F
:100B1000DEB79B838A836C834D8319829BC08D8152
:100B2000882F90E0009721F0019709F449C08FC009
:100B30008981882F90E02A813B81820F931FFC01DD
:100B40008081869586958695882F90E0880F991FDD
:100B500088599F4FFC0180819181FC018081482F41
:100B60008981882F90E02A813B81820F931FFC01AD
:100B70008081882F90E09C012770332781E090E0EE
:100B800002C0880F991F2A95E2F780954823898132
:100B9000882F90E02A813B81820F931FFC01808186
:100BA000869586958695882F90E0880F991F88599D
:100BB0009F4FFC0180819181242FFC01208347C03D
:100BC0008981882F90E02A813B81820F931FFC014D
:100BD0008081869586958695882F90E0880F991F4D
:100BE00088599F4FFC0180819181FC018081482FB1
:100BF0008981882F90E02A813B81820F931FFC011D
:100C00008081882F90E09C012770332781E090E05D
:100C100002C0880F991F2A95E2F7482B8981882FF7
:100C200090E02A813B81820F931FFC018081869591
:100C300086958695882F90E0880F991F88599F4F39
:100C4000FC0180819181242FFC0120830000898197
:100C50008F5F898399818C81981708F460CF000099
:100C60000F900F900F900F900F90DF91CF910895FC
:100C7000CF93DF9300D0CDB7DEB789836A838981B4
:100C8000882F90E0880F991F805A9F4FFC01808128
:100C900091812A81FC01208300000F900F90DF9149
:100CA000CF910895CF93DF9300D0CDB7DEB789837E
:100CB0006A838981882F90E0880F991F88599F4FF8
:100CC000FC01808191812A81FC01208300000F902A
:100CD0000F90DF91CF910895CF93DF9300D0CDB7E0
:100CE000DEB78A8319828A81882F90E0880F991F46
:100CF00080599F4FFC0180819181FC018081898313
:100D000089810F900F90DF91CF910895CF93DF935A
:100D1000CDB7DEB787E290E0FC01208187E290E06A
:100D20002064FC01208387E290E0FC01208187E2BF
:100D300090E02F77FC01208386E290E0FC01208187
:100D400086E290E02068FC01208386E290E0FC01CE
:100D5000208186E290E02160FC0120830000DF9189
:100D6000CF910895CF93DF9300D01F92CDB7DEB718
:100D70008B831A82198287E290E0FC01208187E24E
:100D800090E0207EFC01208387E290E0FC0130812E
:100D900087E290E02B81232BFC01208386E290E008
:100DA000FC01208186E290E02064FC0120830000A9
:100DB00086E290E0FC01808182958695869583701D
:100DC000882F90E081709927892B91F784E290E039
:100DD000FC018081882F90E09A83898385E290E0EE
:100DE000FC018081882F90E0982F88279C018981C1
:100DF0009A81822B932B9A83898389819A810F9080
:100E00000F900F90DF91CF910895CF93DF93CDB7DF
:100E1000DEB786E290E0FC01208186E290E0206867
:100E2000FC0120830000DF91CF910895CF93DF93E1
:100E3000CDB7DEB786E290E0FC01208186E290E04B
:100E40002F77FC0120830000DF91CF910895CF938D
:100E5000DF93CDB7DEB78FE590E0FC0120818FE511
:100E600090E02068FC01208386E290E0FC01208174
:100E700086E290E02860FC0120830000DF91CF91A2
:100E80000895CF93DF93CDB7DEB786E290E0FC0103
:100E9000208186E290E0277FFC0120830000DF9123
:100EA000CF910895CF93DF93CDB7DEB786E290E080
:100EB000FC01208186E290E02F7EFC01208300006F
:100EC000DF91CF910895CF92EF92FF920F931F93EE
:100ED000CF93DF93CDB7DEB7C854D1090FB6F894DE
:100EE000DEBF0FBECDBFEEAEFFAEFE01E05CFF4F3A
:100EF0000083FE01EF5BFF4F1083FE01EE5BFF4FAF
:100F00002083FE01ED5BFF4F30839E012C5B3F4F42
:100F1000F90140839E012B5B3F4FF90150839E01F5
:100F20002A5B3F4FF90160839E01295B3F4FF90126
:100F300070839E01285B3F4FF901808319828FAD3A
:100F400061E00E948603CE01805C9F4FFC0180819E
:100F500061E00E948603198210C08981882F90E089
:100F60009E012F5B3F4F820F931FFC01808161E048
:100F70000E94860389818F5F89838981883068F325
:100F800080E090E0A0EAB1E488AB99ABAAABBBAB40
:100F900020E030E04AE753E468A979A98AA99BA92F
:100FA0000E944717DC01CB018CAB9DABAEABBFAB56
:100FB00020E030E040E85FE36CA97DA98EA99FA9FD
:100FC0000E94271688232CF481E090E099AF88AF27
:100FD0003FC020E03FEF4FE757E46CA97DA98EA901
:100FE0009FA90E94421718164CF520E030E040E21D
:100FF00051E468A979A98AA99BA90E944717DC0135
:10100000CB01BC01CD010E949E16DC01CB0199AF42
:1010100088AF0FC089E190E09BAF8AAF8AAD9BADEE
:101020000197F1F79BAF8AAF88AD99AD019799AF62
:1010300088AF88AD99AD892B69F714C06CA97DA9DB
:101040008EA99FA90E949E16DC01CB0199AF88AFA3
:1010500088AD99AD9DAF8CAF8CAD9DAD0197F1F78B
:101060009DAF8CAF0F2EF8E3CF2EF02DEEACFFAC82
:10107000CE01805C9F4FFC010081CE018F5B9F4FB2
:10108000FC011081CE018E5B9F4FFC012081CE01BF
:101090008D5B9F4FFC013081CE018C5B9F4FFC012B
:1010A0004081CE018B5B9F4FFC015081CE018A5B5A
:1010B0009F4FFC016081CE01895B9F4FFC017081D5
:1010C000CE01885B9F4FFC0180810E947C0B80E0F9
:1010D00090E0A0EAB0E48AA39BA3ACA3BDA320E068
:1010E00030E04AE753E46AA17BA18CA19DA10E9454
:1010F0004717DC01CB018EA39FA3A8A7B9A720E0C7
:1011000030E040E85FE36EA17FA188A599A50E9429
:10111000271688232CF481E090E09BA78AA73FC084
:1011200020E03FEF4FE757E46EA17FA188A599A586
:101130000E94421718164CF520E030E040E251E4DE
:101140006AA17BA18CA19DA10E944717DC01CB0164
:10115000BC01CD010E949E16DC01CB019BA78AA792
:101160000FC089E190E09DA78CA78CA59DA5019754
:10117000F1F79DA78CA78AA59BA501979BA78AA796
:101180008AA59BA5892B69F714C06EA17FA188A5AC
:1011900099A50E949E16DC01CB019BA78AA78AA570
:1011A0009BA59FA78EA78EA59FA50197F1F79FA747
:1011B0008EA70F2EF8E3CF2EF02DEEACFFACCE01B4
:1011C000805C9F4FFC010081CE018F5B9F4FFC0133
:1011D0001081CE018E5B9F4FFC012081CE018D5B83
:1011E0009F4FFC013081CE018C5B9F4FFC01408101
:1011F000CE018B5B9F4FFC015081CE018A5B9F4FDC
:10120000FC016081CE01895B9F4FFC017081CE01A2
:10121000885B9F4FFC0180810E947C0B80E090E006
:10122000A6E1B3E48A839B83AC83BD832BEA3AEACD
:101230004AEA5EE36A817B818C819D810E94471727
:10124000DC01CB018E839F83A887B98720E030E043
:1012500040E85EE36A817B818C819D810E94471713
:10126000DC01CB018A879B87AC87BD8720E030E01B
:1012700040E85FE36E817F81888599850E9427160B
:1012800088231CF481E08E87B2C020E03FEF4FE757
:1012900057E46A857B858C859D850E9442171816C8
:1012A0000CF07BC020E030E04AE754E46A817B81A7
:1012B0008C819D810E942C16DC01CB018F87988B3D
:1012C000A98BBA8B20E030E04AE753E46F85788938
:1012D00089899A890E944717DC01CB018B8B9C8BF3
:1012E000AD8BBE8B20E030E040E85FE36B897C890A
:1012F0008D899E890E94271688232CF481E090E036
:10130000988F8F8B3FC020E03FEF4FE757E46B890A
:101310007C898D899E890E94421718164CF520E021
:1013200030E040E251E46F85788989899A890E948A
:101330004717DC01CB01BC01CD010E949E16DC01E8
:10134000CB01988F8F8B0FC089E190E09A8F898FA6
:10135000898D9A8D0197F1F79A8F898F8F89988D52
:101360000197988F8F8B8F89988D892B69F73FC054
:101370006B897C898D899E890E949E16DC01CB0138
:10138000988F8F8B8F89988D9C8F8B8F8B8D9C8D59
:101390000197F1F79C8F8B8F2AC020E030E04FE758
:1013A00053E46E817F81888599850E9442171816C3
:1013B000ACF46A857B858C859D850E949E16DC0138
:1013C000CB019E8F8D8F8D8D9E8D98A38F8F8F8D4E
:1013D00098A10197F1F798A38F8F0FC06E817F813D
:1013E000888599850E949E16DC01CB018E878E85AB
:1013F00089A389A18A95F1F789A30F2EF8E3CF2E4F
:10140000F02DEEACFFACCE01805C9F4FFC01008163
:10141000CE018F5B9F4FFC011081CE018E5B9F4FF1
:10142000FC012081CE018D5B9F4FFC013081CE01FC
:101430008C5B9F4FFC014081CE018B5B9F4FFC0179
:101440005081CE018A5B9F4FFC016081CE01895B98
:101450009F4FFC017081CE01885B9F4FFC01808112
:101460000E947C0BCC24C394EEACFFACCE01805C1C
:101470009F4FFC010081CE018F5B9F4FFC011081CB
:10148000CE018E5B9F4FFC012081CE018D5B9F4F73
:10149000FC013081CE018C5B9F4FFC014081CE016D
:1014A0008B5B9F4FFC015081CE018A5B9F4FFC01FB
:1014B0006081CE01895B9F4FFC017081CE01885B0A
:1014C0009F4FFC0180810E947C0B6894CC24C1F862
:1014D000EEACFFACCE01805C9F4FFC010081CE01E1
:1014E0008F5B9F4FFC011081CE018E5B9F4FFC01F3
:1014F0002081CE018D5B9F4FFC013081CE018C5B42
:101500009F4FFC014081CE018B5B9F4FFC015081BE
:10151000CE018A5B9F4FFC016081CE01895B9F4FAA
:10152000FC017081CE01885B9F4FFC0180810E948D
:101530007C0B0F2EF6E0CF2EF02DEEACFFACCE01E3
:10154000805C9F4FFC010081CE018F5B9F4FFC01AF
:101550001081CE018E5B9F4FFC012081CE018D5BFF
:101560009F4FFC013081CE018C5B9F4FFC0140817D
:10157000CE018B5B9F4FFC015081CE018A5B9F4F58
:10158000FC016081CE01895B9F4FFC017081CE011F
:10159000885B9F4FFC0180810E947C0B0F2EFCE03A
:1015A000CF2EF02DEEACFFACCE01805C9F4FFC0146
:1015B0000081CE018F5B9F4FFC011081CE018E5BBD
:1015C0009F4FFC012081CE018D5B9F4FFC0130813C
:1015D000CE018C5B9F4FFC014081CE018B5B9F4F06
:1015E000FC015081CE018A5B9F4FFC016081CE01DE
:1015F000895B9F4FFC017081CE01885B9F4FFC018E
:1016000080810E947C0B0F2EF8E3CF2EF02DEEACE4
:10161000FFACCE01805C9F4FFC010081CE018F5B4F
:101620009F4FFC011081CE018E5B9F4FFC012081FA
:10163000CE018D5B9F4FFC013081CE018C5B9F4FB3
:10164000FC014081CE018B5B9F4FFC015081CE019C
:101650008A5B9F4FFC016081CE01895B9F4FFC013B
:101660007081CE01885B9F4FFC0180810E947C0BC2
:101670006894CC24C7F8EEACFFACCE01805C9F4FE1
:10168000FC010081CE018F5B9F4FFC011081CE01D8
:101690008E5B9F4FFC012081CE018D5B9F4FFC0133
:1016A0003081CE018C5B9F4FFC014081CE018B5B72
:1016B0009F4FFC015081CE018A5B9F4FFC016081EE
:1016C000CE01895B9F4FFC017081CE01885B9F4FEB
:1016D000FC0180810E947C0B0000C85BDF4F0FB6CD
:1016E000F894DEBF0FBECDBFDF91CF911F910F9158
:1016F000FF90EF90CF900895CF92EF92FF920F93CB
:101700001F93CF93DF93CDB7DEB72D970FB6F89425
:10171000DEBF0FBECDBFEA82FB820C831D832E830A
:101720003F83488759876A877B878C87CD86198254
:101730008C8160E00E94FA0319821DC08D85882F7C
:1017400090E02981222F30E002C0959587952A9557
:10175000E2F7482F41708981882F90E09E012B5F2E
:101760003F4F820F931FFC018081642F0E94FA0378
:1017700089818F5F89838981883000F3EA80FB80CB
:101780000C811D812E813F81488559856A857B8525
:101790008C850E94CF0F00002D960FB6F894DEBF07
:1017A0000FBECDBFDF91CF911F910F91FF90EF90B2
:1017B000CF900895CF92EF92FF920F931F93CF9304
:1017C000DF93CDB7DEB76A970FB6F894DEBF0FBED2
:1017D000CDBFEF86F88A098B1A8B2B8B3C8B4D8BF8
:1017E0005E8B6F8B788F898FCA8E898961E00E94AA
:1017F000FA038F856A8D0E94520680E090E0A0E88F
:10180000BFE389839A83AB83BC8320E030E04AE75F
:1018100053E469817A818B819C810E944717DC01A6
:10182000CB018D839E83AF83B88720E030E040E812
:101830005FE36D817E818F8198850E9427168823C2
:101840002CF481E090E09A8789873FC020E03FEF49
:101850004FE757E46D817E818F8198850E94421702
:1018600018164CF520E030E040E251E469817A81BD
:101870008B819C810E944717DC01CB01BC01CD010B
:101880000E949E16DC01CB019A8789870FC089E1EF
:1018900090E09C878B878B859C850197F1F79C87CF
:1018A0008B8789859A8501979A87898789859A8503
:1018B000892B69F714C06D817E818F8198850E9484
:1018C0009E16DC01CB019A87898789859A859E8738
:1018D0008D878D859E850197F1F79E878D87EF8493
:1018E000F88809891A892B893C894D895E896F8915
:1018F000788D898D0E94CF0F00006A960FB6F894FC
:10190000DEBF0FBECDBFDF91CF911F910F91FF9032
:10191000EF90CF900895CF92DF92EF92FF920F93C6
:101920001F93CF93DF93CDB7DEB72D970FB6F89403
:10193000DEBF0FBECDBFE982FA820B831C832D83ED
:101940003E834F83588769877A878B87DD86CC866D
:1019500017C08C859D859C012F5F3F4F3D872C874D
:10196000FC018081C82EE980FA800B811C812D81C9
:101970003E814F81588569857A858B850E94DA0B77
:101980008C859D85FC018081882319F700002D96A8
:101990000FB6F894DEBF0FBECDBFDF91CF911F9180
:1019A0000F91FF90EF90DF90CF900895CF92DF924C
:1019B000EF92FF920F931F93CF93DF93CDB7DEB7D4
:1019C00062970FB6F894DEBF0FBECDBFEE82FF82E6
:1019D000088719872A873B874C875D876E877F87B3
:1019E000888BDA8AC98A89899A89282FCE0101963B
:1019F000BC01822F0E947311CE0101966C01EE8012
:101A0000FF80088519852A853B854C855D856E8517
:101A10007F8588890E948B0C000062960FB6F8942F
:101A2000DEBF0FBECDBFDF91CF911F910F91FF9011
:101A3000EF90DF90CF900895CF92DF92EF92FF92D8
:101A40000F931F93CF93DF93CDB7DEB767970FB692
:101A5000F894DEBF0FBECDBFEB86FC860D871E87D8
:101A60002F87388B498B5A8B6B8B7C8B8D8BDF8AC6
:101A7000CE8A8E899F899E012F5F3F4FB9010E94B8
:101A8000A411CE0101966C01EB84FC840D851E85AA
:101A90002F85388949895A896B897C898D890E946B
:101AA0008B0C000067960FB6F894DEBF0FBECDBF5B
:101AB000DF91CF911F910F91FF90EF90DF90CF902A
:101AC0000895CF92DF92EF92FF920F931F93CF93DF
:101AD000DF93CDB7DEB7A1970FB6F894DEBF0FBE88
:101AE000CDBFED8AFE8A0F8B188F298F3A8F4B8FCF
:101AF0005C8F6D8F7E8F8F8FD9A2C8A288A199A18C
:101B0000092E000CAA0BBB0B9E012F5F3F4FA901B2
:101B1000BC01CD010E94D511CE0101966C01ED886A
:101B2000FE880F89188D298D3A8D4B8D5C8D6D8DBA
:101B30007E8D8F8D0E948B0C0000A1960FB6F894BD
:101B4000DEBF0FBECDBFDF91CF911F910F91FF90F0
:101B5000EF90DF90CF9008958F92AF92CF92EF9257
:101B6000FF920F931F93CF93DF93CDB7DEB72E97DE
:101B70000FB6F894DEBF0FBECDBFE982FA820B83A9
:101B80001C832D833E834F83588769877A878B8791
:101B9000CC86AD868E86AD84CC84E980FA800B81BC
:101BA0001C812D813E814F81588569857A858B8581
:101BB0000E94ED10CE84E980FA800B811C812D817A
:101BC0003E814F81588569857A858B850E94DA0B25
:101BD00000002E960FB6F894DEBF0FBECDBFDF918A
:101BE000CF911F910F91FF90EF90CF90AF908F907A
:101BF00008958F929F92AF92CF92DF92EF92FF92D1
:101C00000F931F93CF93DF93CDB7DEB72F970FB608
:101C1000F894DEBF0FBECDBFE982FA820B831C832E
:101C20002D833E834F83588769877A878B87CC863D
:101C3000AD869F868E86AD84CC84E980FA800B8148
:101C40001C812D813E814F81588569857A858B85E0
:101C50000E94ED108E859F856C01E980FA800B81D2
:101C60001C812D813E814F81588569857A858B85C0
:101C70000E948B0C00002F960FB6F894DEBF0FBEAB
:101C8000CDBFDF91CF911F910F91FF90EF90DF902B
:101C9000CF90AF909F908F9008958F929F92AF9228
:101CA000CF92DF92EF92FF920F931F93CF93DF9328
:101CB000CDB7DEB72F970FB6F894DEBF0FBECDBFFE
:101CC000E982FA820B831C832D833E834F835887DE
:101CD00069877A878B87CC86AD869F868E86AD8412
:101CE000CC84E980FA800B811C812D813E814F815B
:101CF000588569857A858B850E94ED108E859F8534
:101D00006C01E980FA800B811C812D813E814F811D
:101D1000588569857A858B850E94D60C00002F96A0
:101D20000FB6F894DEBF0FBECDBFDF91CF911F91EC
:101D30000F91FF90EF90DF90CF90AF909F908F909A
:101D400008958F929F92AF92CF92DF92EF92FF927F
:101D50000F931F93CF93DF93CDB7DEB72F970FB6B7
:101D6000F894DEBF0FBECDBFE982FA820B831C83DD
:101D70002D833E834F83588769877A878B87CC86EC
:101D8000AD869F868E86AD84CC84E980FA800B81F7
:101D90001C812D813E814F81588569857A858B858F
:101DA0000E94ED108E859F856C01E980FA800B8181
:101DB0001C812D813E814F81588569857A858B856F
:101DC0000E941C0D00002F960FB6F894DEBF0FBEC8
:101DD000CDBFDF91CF911F910F91FF90EF90DF90DA
:101DE000CF90AF909F908F9008958F929F92AF92D7
:101DF000CF92DF92EF92FF920F931F93CF93DF93D7
:101E0000CDB7DEB72F970FB6F894DEBF0FBECDBFAC
:101E1000E982FA820B831C832D833E834F8358878C
:101E200069877A878B87CC86AD869F868E86AD84C0
:101E3000CC84E980FA800B811C812D813E814F8109
:101E4000588569857A858B850E94ED108E859F85E2
:101E50006C01E980FA800B811C812D813E814F81CC
:101E6000588569857A858B850E94610D00002F96C3
:101E70000FB6F894DEBF0FBECDBFDF91CF911F919B
:101E80000F91FF90EF90DF90CF90AF909F908F9049
:101E90000895AF92CF92EF92FF920F931F93CF933B
:101EA000DF93CDB7DEB72D970FB6F894DEBF0FBE28
:101EB000CDBFE982FA820B831C832D833E834F833F
:101EC000588769877A878B87CC86AD868D858150C8
:101ED0008D878C85882F90E081309105E9F08230E4
:101EE00091051CF4892B39F04AC08230910529F103
:101EF0000397A1F144C08D858058C82EE980FA80EF
:101F00000B811C812D813E814F81588569857A85A1
:101F10008B850E947C0B33C08D858054C82EE98050
:101F2000FA800B811C812D813E814F815885698506
:101F30007A858B850E947C0B22C08D858C56C82E9D
:101F4000E980FA800B811C812D813E814F8158856B
:101F500069857A858B850E947C0B11C08D858C529A
:101F6000C82EE980FA800B811C812D813E814F8132
:101F7000588569857A858B850E947C0B000000005E
:101F80002D960FB6F894DEBF0FBECDBFDF91CF9177
:101F90001F910F91FF90EF90CF90AF900895EF9227
:101FA000FF920F931F93CF93DF93CDB7DEB7AB971D
:101FB0000FB6F894DEBF0FBECDBFE9A2FAA20BA305
:101FC0001CA32DA33EA34FA358A769A77AA78BA74D
:101FD0008AA161E00E94FA0380E090E0A0EAB0E408
:101FE00089839A83AB83BC832BEA3AEA4AEA5EE3AD
:101FF00069817A818B819C810E944717DC01CB012A
:102000008D839E83AF83B88720E030E040E85EE3B5
:1020100069817A818B819C810E944717DC01CB0109
:1020200089879A87AB87BC8720E030E040E85FE390
:102030006D817E818F8198850E94271688231CF4EC
:1020400081E08D87B2C020E03FEF4FE757E469851C
:102050007A858B859C850E94421718160CF07BC0F0
:1020600020E030E04AE754E469817A818B819C81E9
:102070000E942C16DC01CB018E879F87A88BB98B21
:1020800020E030E04AE753E46E857F8588899989AE
:102090000E944717DC01CB018A8B9B8BAC8BBD8BDD
:1020A00020E030E040E85FE36A897B898C899D8984
:1020B0000E94271688232CF481E090E09F8B8E8B62
:1020C0003FC020E03FEF4FE757E46A897B898C8966
:1020D0009D890E94421718164CF520E030E040E23E
:1020E00051E46E857F85888999890E944717DC01B4
:1020F000CB01BC01CD010E949E16DC01CB019F8B60
:102100008E8B0FC089E190E0998F888F888D998D93
:102110000197F1F7998F888F8E899F8901979F8BFF
:102120008E8B8E899F89892B69F73FC06A897B894D
:102130008C899D890E949E16DC01CB019F8B8E8B22
:102140008E899F899B8F8A8F8A8D9B8D0197F1F74E
:102150009B8F8A8F2AC020E030E04FE753E46D81E7
:102160007E818F8198850E9442171816ACF469858C
:102170007A858B859C850E949E16DC01CB019D8F04
:102180008C8F8C8D9D8D9F8F8E8F8E8D9F8D0197C7
:10219000F1F79F8F8E8F0FC06D817E818F81988523
:1021A0000E949E16DC01CB018D878D8588A388A1B6
:1021B0008A95F1F788A38AA160E00E94FA030000E3
:1021C000AB960FB6F894DEBF0FBECDBFDF91CF91B7
:1021D0001F910F91FF90EF900895AF92CF92EF92E1
:1021E000FF920F931F93CF93DF93CDB7DEB72D9759
:1021F0000FB6F894DEBF0FBECDBFE982FA820B8323
:102200001C832D833E834F83588769877A878B870A
:10221000CC86AD868D8581508D878C85882F90E00A
:1022200081309105E9F0823091051CF4892B39F059
:102230004AC08230910529F10397A1F144C08D85F0
:102240008058C82EE980FA800B811C812D813E8147
:102250004F81588569857A858B850E947C0B33C0B8
:102260008D858054C82EE980FA800B811C812D81D8
:102270003E814F81588569857A858B850E947C0BCC
:1022800022C08D858C56C82EE980FA800B811C8176
:102290002D813E814F81588569857A858B850E9485
:1022A0007C0B11C08D858C52C82EE980FA800B8181
:1022B0001C812D813E814F81588569857A858B856A
:1022C0000E947C0B000000002D960FB6F894DEBF34
:1022D0000FBECDBFDF91CF911F910F91FF90EF9077
:1022E000CF90AF900895CF93DF9300D01F92CDB7DA
:1022F000DEB789837B836A838A819B8144E050E0D7
:1023000060E070E00E94B4178981882F90E0292F47
:102310002F938F9383EA90E0892F8F9383EA90E045
:102320008F938B818F938A818F930E94BB170F901D
:102330000F900F900F900F900F9000000F900F9044
:102340000F90DF91CF910895CF93DF9300D000D00D
:10235000CDB7DEB79A8389837C836B838B819C8125
:1023600046E050E060E070E00E94B4178A818F93ED
:1023700089818F9383EA90E0892F8F9383EA90E09D
:102380008F938C818F938B818F930E94BB170F90BB
:102390000F900F900F900F900F9000000F900F90E4
:1023A0000F900F90DF91CF910895CF93DF9300D0DE
:1023B00000D000D0CDB7DEB769837A838B839C834E
:1023C0005E834D838D819E814BE050E060E070E044
:1023D0000E94B4178C818F938B818F938A818F9306
:1023E00089818F9383EA90E0892F8F9383EA90E02D
:1023F0008F938E818F938D818F930E94BB178DB7A2
:102400009EB708960FB6F894DEBF0FBECDBF000092
:1024100026960FB6F894DEBF0FBECDBFDF91CF91E9
:102420000895CF93DF93CDB7DEB740E064E083E952
:1024300090E00E94CC0441E064E087E990E00E94D3
:10244000CC0441E064E083E990E00E94820541E031
:1024500064E087E990E00E9482050000DF91CF915F
:102460000895CF93DF93CDB7DEB763970FB6F89497
:10247000DEBF0FBECDBF9B8B8A8B1B821982CCC067
:102480008981882F90E089569F4FFC01808160E010
:102490000E94FA031A82AFC08A81882F90E08D567D
:1024A0009F4FFC0180810E94A204882309F0A0C0F4
:1024B0008A81282F30E08981882F90E0220F331FF6
:1024C000220F331F820F931F8D579F4FFC012081D6
:1024D0008A899B89FC01208381E08B8300008A81AB
:1024E000882F90E08D569F4FFC0180810E94A204AE
:1024F0008823A9F380E090E0A0EAB1E48C839D8377
:10250000AE83BF8320E030E04AE753E46C817D81F5
:102510008E819F810E944717DC01CB0188879987B4
:10252000AA87BB8720E030E040E85FE368857985D3
:102530008A859B850E94271688232CF481E090E0F1
:102540009D878C873FC020E03FEF4FE757E46885C9
:1025500079858A859B850E94421718164CF520E0E4
:1025600030E040E251E46C817D818E819F810E9448
:102570004717DC01CB01BC01CD010E949E16DC0196
:10258000CB019D878C870FC089E190E09F878E8764
:102590008E859F850197F1F79F878E878C859D8516
:1025A00001979D878C878C859D85892B69F714C041
:1025B000688579858A859B850E949E16DC01CB0102
:1025C0009D878C878C859D85998B888B8889998937
:1025D0000197F1F7998B888B8981882F90E0895634
:1025E0009F4FFC01808161E00E94FA038B8119C03A
:1025F0008A818F5F8A838A81843008F44DCF8981F4
:10260000882F90E089569F4FFC01808161E00E94F5
:10261000FA0389818F5F89838981843008F430CF00
:102620008B8163960FB6F894DEBF0FBECDBFDF91EE
:10263000CF910895EF92FF920F931F93CF93DF9363
:10264000CDB7DEB786E00E944900E0907800F090B8
:10265000790000917A0010917B0020917C003091EC
:102660007D0040917E0050917F00609180007091CC
:102670008100809182000E9463070000DF91CF916A
:102680001F910F91FF90EF900895CF92EF92FF92DC
:102690000F931F93CF93DF93CDB7DEB72E970FB66F
:1026A000F894DEBF0FBECDBF8FEA90E00E94B80065
:1026B0008823D9F08091AF00C82EE0907800F09088
:1026C000790000917A0010917B0020917C0030917C
:1026D0007D0040917E0050917F006091800070915C
:1026E0008100809182000E94DA0B80E090E0A8E4F3
:1026F000B3E489839A83AB83BC8320E030E04AE76C
:1027000053E469817A818B819C810E944717DC01A7
:10271000CB018D839E83AF83B88720E030E040E813
:102720005FE36D817E818F8198850E9427168823C3
:102730002CF481E090E09A8789873FC020E03FEF4A
:102740004FE757E46D817E818F8198850E94421703
:1027500018164CF520E030E040E251E469817A81BE
:102760008B819C810E944717DC01CB01BC01CD010C
:102770000E949E16DC01CB019A8789870FC089E1F0
:1027800090E09C878B878B859C850197F1F79C87D0
:102790008B8789859A8501979A87898789859A8504
:1027A000892B69F714C06D817E818F8198850E9485
:1027B0009E16DC01CB019A87898789859A859E8739
:1027C0008D878D859E850197F1F79E878D87000007
:1027D0002E960FB6F894DEBF0FBECDBFDF91CF911E
:1027E0001F910F91FF90EF90CF900895CF93DF93BB
:1027F00000D000D0CDB7DEB79A8389837C836B830A
:1028000080919B0061E00E94860380919C0061E0C2
:102810000E94860380919D0061E00E948603809162
:102820009E0061E00E94860300000F900F900F90C1
:102830000F90DF91CF910895CF93DF9300D000D018
:10284000CDB7DEB79A8389837C836B83898161E00E
:102850000E94FA038A8160E00E94FA038B8161E0A2
:102860000E94FA038C8160E00E94FA0300000F903E
:102870000F900F900F90DF91CF910895CF93DF933A
:1028800000D000D0CDB7DEB79A8389837C836B8379
:10289000898160E00E94FA038A8161E00E94FA0364
:1028A0008B8160E00E94FA038C8161E00E94FA0350
:1028B00000000F900F900F900F90DF91CF9108952F
:1028C000CF93DF9300D000D0CDB7DEB79A83898352
:1028D0007C836B83898160E00E94FA038A8160E0D7
:1028E0000E94FA038B8160E00E94FA038C8160E011
:1028F0000E94FA0300000F900F900F900F90DF914D
:10290000CF910895CF93DF9300D000D0CDB7DEB73D
:1029100069837A838B839C83898161E00E9486032B
:102920008A8161E00E9486038B8161E00E948603B8
:102930008C8161E00E94860300000F900F900F9041
:102940000F90DF91CF910895CF93DF9300D000D007
:102950001F92CDB7DEB769837A838B839C834D83C7
:102960008D81882F90E0092E000CAA0BBB0B8A30BA
:102970009105A105B10508F0B9C08E539B4EFC012D
:102980000C942116CC14DD14EE14FF14101521152F
:102990003215431554156515898160E00E94FA03CC
:1029A0008A8160E00E94FA038B8160E00E94FA0352
:1029B0008C8160E00E94FA039AC0898161E00E94E4
:1029C000FA038A8160E00E94FA038B8160E00E9432
:1029D000FA038C8160E00E94FA0389C0898160E07B
:1029E0000E94FA038A8161E00E94FA038B8160E011
:1029F0000E94FA038C8160E00E94FA0378C089810A
:102A000061E00E94FA038A8161E00E94FA038B81EF
:102A100060E00E94FA038C8160E00E94FA0367C0C4
:102A2000898160E00E94FA038A8160E00E94FA03D3
:102A30008B8161E00E94FA038C8160E00E94FA03BE
:102A400056C0898161E00E94FA038A8160E00E9499
:102A5000FA038B8161E00E94FA038C8160E00E949E
:102A6000FA0345C0898160E00E94FA038A8161E02F
:102A70000E94FA038B8161E00E94FA038C8160E07E
:102A80000E94FA0334C0898161E00E94FA038A81BE
:102A900061E00E94FA038B8161E00E94FA038C815D
:102AA00060E00E94FA0323C0898160E00E94FA037B
:102AB0008A8160E00E94FA038B8160E00E94FA0341
:102AC0008C8161E00E94FA0312C0898161E00E945A
:102AD000FA038A8160E00E94FA038B8160E00E9421
:102AE000FA038C8161E00E94FA0301C0000000003B
:102AF0000F900F900F900F900F90DF91CF9108954E
:102B00000F93CF93DF93CDB7DEB728970FB6F89426
:102B1000DEBF0FBECDBF49835A836B837C838D8319
:102B20009E832F83088788858130D1F58F81882FF8
:102B300090E00097E1F0019709F06FC0898161E0B2
:102B40000E94FA038A8161E00E94FA038B8161E0AE
:102B50000E94FA038C8161E00E94FA038D8161E09A
:102B60000E94FA038E8161E00E94FA0356C08981B7
:102B700060E00E94FA038A8160E00E94FA038B8180
:102B800060E00E94FA038C8160E00E94FA038D816C
:102B900060E00E94FA038E8160E00E94FA033DC06B
:102BA00088858823D1F58F81882F90E00097E1F008
:102BB000019709F032C0898160E00E94FA038A819E
:102BC00060E00E94FA038B8160E00E94FA038C812E
:102BD00060E00E94FA038D8160E00E94FA038E811A
:102BE00060E00E94FA0319C0898161E00E94FA0343
:102BF0008A8161E00E94FA038B8161E00E94FA03FE
:102C00008C8161E00E94FA038D8161E00E94FA03E9
:102C10008E8161E00E94FA030000000028960FB642
:102C2000F894DEBF0FBECDBFDF91CF910F91089515
:102C3000CF93DF93CDB7DEB70E941A130E944513DE
:102C4000FDCFEE0FFF1F0590F491E02D09940E9437
:102C5000CD1608F481E008950E9440160C940817E0
:102C60000E94011758F00E94FA1640F029F45F3FC5
:102C700029F00C94F11651110C943C170C94F71692
:102C80000E94191768F39923B1F3552391F3951B0B
:102C9000550BBB27AA2762177307840738F09F5F7D
:102CA0005F4F220F331F441FAA1FA9F335D00E2EEA
:102CB0003AF0E0E832D091505040E695001CCAF757
:102CC0002BD0FE2F29D0660F771F881FBB1F26171A
:102CD00037074807AB07B0E809F0BB0B802DBF01F1
:102CE000FF2793585F4F3AF09E3F510578F00C94C0
:102CF000F1160C943C175F3FE4F3983ED4F38695AD
:102D000077956795B795F7959F5FC9F7880F911DE0
:102D10009695879597F90895E1E0660F771F881FCC
:102D2000BB1F621773078407BA0720F0621B730B7F
:102D3000840BBA0BEE1F88F7E09508950E942117C7
:102D400088F09F5798F0B92F9927B751B0F0E1F06C
:102D5000660F771F881F991F1AF0BA95C9F714C01C
:102D6000B13091F00E943B17B1E008950C943B17ED
:102D7000672F782F8827B85F39F0B93FCCF3869555
:102D800077956795B395D9F73EF4909580957095B2
:102D900061957F4F8F4F9F4F0895990F0008550FF2
:102DA000AA0BE0E8FEEF16161706E807F907C0F0D1
:102DB00012161306E407F50798F0621B730B840BD9
:102DC000950B39F40A2661F0232B242B252B21F4B3
:102DD00008950A2609F4A140A6958FEF811D811D53
:102DE000089597F99F6780E870E060E008959FEF8D
:102DF00080EC089500240A94161617061806090692
:102E0000089500240A941216130614060506089560
:102E1000092E0394000C11F4882352F0BB0F40F4E8
:102E2000BF2B11F460FF04C06F5F7F4F8F4F9F4F28
:102E3000089557FD9058440F551F59F05F3F71F0AA
:102E40004795880F97FB991F61F09F3F79F0879511
:102E50000895121613061406551FF2CF4695F1DF9A
:102E600008C0161617061806991FF1CF869571052A
:102E7000610508940895E894BB2766277727CB015E
:102E800097F908950E94CD1608F48FEF08950E94D7
:102E90005A170C9408170E94FA1638F00E9401176E
:102EA00020F0952311F00C94F1160C94F7161124D0
:102EB0000C943C170E94191770F3959FC1F3950F5E
:102EC00050E0551F629FF001729FBB27F00DB11DAE
:102ED000639FAA27F00DB11DAA1F649F6627B00D3E
:102EE000A11D661F829F2227B00DA11D621F739F27
:102EF000B00DA11D621F839FA00D611D221F749F35
:102F00003327A00D611D231F849F600D211D822F7B
:102F1000762F6A2F11249F5750409AF0F1F08823A2
:102F20004AF0EE0FFF1FBB1F661F771F881F9150CF
:102F30005040A9F79E3F510580F00C94F1160C9477
:102F40003C175F3FE4F3983ED4F3869577956795F9
:102F5000B795F795E7959F5FC1F7FE2B880F911DF9
:102F60009695879597F90895DC0101C06D934150BE
:102F70005040E0F70895AEE0B0E0E1ECF7E10C94EA
:102F80006A1A0D891E8986E08C831A8309838FEF64
:102F90009FE79E838D83AE01475E5F4F6F89788D7B
:102FA000CE0101960E94DE172F813885020F131F74
:102FB000F80110822E96E4E00C94861AABE0B0E0A3
:102FC000E4EEF7E10C945C1A7C013B018A01FC0100
:102FD00017821682838181FFC8C1CE0101965C01F0
:102FE000F7019381F30193FD859193FF81913F0157
:102FF000882309F453C1853239F493FD859193FFF9
:1030000081913F01853229F4B70190E00E94CE19E9
:10301000E7CF912C212C312CFFE1F31538F08B32C6
:1030200011F190F4803209F1833229F137FC3CC070
:1030300020ED280F2A3050F536FE20C08AE0989EF9
:10304000200D1124922E06C08D3291F0803371F73D
:10305000689430F8F30193FD859193FF81913F01CE
:103060008111DACF21C0689431F8689432F8F2CF38
:10307000689433F8EFCF689434F8ECCFEAE02E9EF2
:10308000200D1124222E689435F8E4CF8E3229F4D5
:1030900036FC04C1689436F8DDCF8C3619F4689498
:1030A00037F8D8CF8836B1F2982F9F7D955493305A
:1030B000E0F08336A1F18337C1F1833509F063C0B5
:1030C0002801F2E04F0E511CF801C080D180692D1B
:1030D00070E036FC02C06FEF7FEFC6010E94B819A6
:1030E0004C01689437F882010AC00C5F1F4FFFE360
:1030F000F98388248394912C6501E89437F833FE92
:103100002DC0522C8114910471F5552009F468CF1B
:10311000B70180E290E00E94CE195A94F6CFF801F0
:10312000808189830E5F1F4FE4CF2801F2E04F0EAC
:10313000511CF801C080D180692D70E036FC02C0BE
:103140006FEF7FEFC6010E94C3194C018201D5CFFA
:10315000B70180E290E00E94CE192A942814190445
:1031600009F0B0F7CECFF60137FC859137FE81919B
:103170006F01B70190E00E94CE1951105A94F1E00E
:103180008F1A9108BFCF843619F0893609F077C0BD
:10319000F80137FE6BC060817181828193810C5F81
:1031A0001F4FF32DFF763F2E97FF09C09095809516
:1031B000709561957F4F8F4F9F4F689437F82AE045
:1031C00030E0A5010E94FE19C82ECA188C2C432C91
:1031D00036FE0CC0E89440F8C91440F434FE05C033
:1031E00032FC03C0F32DFE7E4F2E892C44FE95C089
:1031F000FE01EC0DF11D8081803309F087C0242D84
:10320000297E422E842D8870582E43FC95C040FEA6
:103210008FC09C2C821418F42C0C922C981844FE0D
:1032200091C0B70180E390E00E94CE1942FE09C030
:1032300088E790E041FE02C088E590E0B7010E9477
:10324000CE19C91408F48AC0CA94D12C9FEFC91AA8
:10325000D90ACA0CDB1CF60182916F01B70190E01C
:103260000E94CE19AC14BD04B1F74FCF60817181BB
:10327000072E000C880B990B0E5F1F4F92CFD32C9B
:10328000E894D4F82AE030E0853739F1232D297FFE
:10329000D22E8F3601F148F48835A9F0F7018681E6
:1032A00097812B96E2E10C94781A803749F08837A1
:1032B000A9F7D4FE02C06894D2F820E130E00DC036
:1032C0006894D4F8F6CF34FE03C0822F8660D82EDF
:1032D00020E132E002C028E030E0F801D7FE0FC064
:1032E00060817181828193810C5F1F4FA5010E94D3
:1032F000FE19C82ECA183D2CE89437F867CF6081B4
:10330000718190E080E00E5F1F4FF0CF42FC02C061
:10331000839478CF8394839475CF842D867809F431
:1033200071CFF6CFB70180E290E00E94CE1983946E
:103330008214C0F3512C73CF522C5818821408F405
:103340006ECFF8CF842D867809F47BCF8BE241FED7
:1033500080E247FC8DE2B70190E071CFB70180E3D6
:1033600090E00E94CE199A946CCF8FEF9FEF99CF87
:10337000FC010590615070400110D8F78095909540
:103380008E0F9F1F0895FC01615070400190011045
:10339000D8F7809590958E0F9F1F08950F931F93D8
:1033A000CF93DF93182F092FEB018B8181FD09C08B
:1033B0001FEF0FEF812F902FDF91CF911F910F9172
:1033C000089582FF14C02E813F818C819D81281732
:1033D00039073CF4E881F981CF010196998388830C
:1033E00010838E819F8101969F838E83E3CFE88532
:1033F000F985812F0995892BA1F3DACFFA01AA2744
:10340000283051F1203181F1E8946F936E7F6E5F27
:103410007F4F8F4F9F4FAF4FB1E03ED0B4E03CD0D5
:10342000670F781F891F9A1FA11D680F791F8A1FB8
:10343000911DA11D6A0F711D811D911DA11D20D01F
:1034400009F468943F912AE0269F11243019305DD9
:103450003193DEF6CF010895462F4770405D4193CA
:10346000B3E00FD0C9F7F6CF462F4F70405D4A3317
:1034700018F0495D31FD4052419302D0A9F7EACFDF
:10348000B4E0A6959795879577956795BA95C9F70E
:1034900000976105710508959B01AC010A2E069401
:1034A0005795479537952795BA95C9F7620F731FBA
:1034B000841F951FA01D08952F923F924F925F92F7
:1034C0006F927F928F929F92AF92BF92CF92DF9234
:1034D000EF92FF920F931F93CF93DF93CDB7DEB799
:1034E000CA1BDB0B0FB6F894DEBF0FBECDBF09942D
:1034F0002A88398848885F846E847D848C849B8484
:10350000AA84B984C884DF80EE80FD800C811B8191
:10351000AA81B981CE0FD11D0FB6F894DEBF0FBEC0
:0A352000CDBFED010895F894FFCF30
:10352A003A003700340031003B00380035003200E1
:10353A00390036003300300001010008090A0B0C7B
:10354A000D0E0F3738392F3435362A3132332D43A1
:10355A00303D2B101112131415161708090A0B0007
:06356A00010203256900C7
:00000001FF
