:100000000C9434000C9451000C9451000C94510049
:100010000C9451000C9451000C9451000C9451001C
:100020000C9451000C9451000C9451000C9451000C
:100030000C9451000C9451000C9451000C945100FC
:100040000C9451000C9451000C9451000C945100EC
:100050000C9451000412151226123712481259122C
:100060006A127B128C129D1211241FBECFE5D4E0C0
:10007000DEBFCDBF10E0A0E6B0E0E4EBF2E302C0EB
:1000800005900D92A43BB107D9F720E0A4EBB0E0B6
:1000900001C01D92A43BB207E1F70E94CB140C945F
:1000A00058190C940000CF93DF9300D0CDB7DEB782
:1000B00089836A838A81882F90E0009789F101976C
:1000C00009F05DC08981869586958695882F90E098
:1000D000880F991F805A9F4FFC018081918129814F
:1000E000269526952695222F30E0220F331F205A81
:1000F0003F4FF90120813181F9012081622F29814F
:10010000222F30E0A9014770552721E030E002C0DE
:10011000220F331F4A95E2F7262BFC0120832FC0C4
:100120008981869586958695882F90E0880F991FFE
:10013000805A9F4FFC0180819181298126952695C7
:100140002695222F30E0220F331F205A3F4FF9010E
:1001500020813181F9012081622F2981222F30E015
:10016000A9014770552721E030E002C0220F331F5C
:100170004A95E2F720952623FC0120830000000029
:100180000F900F90DF91CF910895CF93DF9300D020
:10019000CDB7DEB789836A838A81882F90E081306A
:1001A000910539F08230910509F460C0892B79F10D
:1001B0008BC08981869586958695882F90E0880FDB
:1001C000991F88599F4FFC01808191812981269533
:1001D00026952695222F30E0220F331F28593F4FB6
:1001E000F90120813181F9012081622F2981222F9B
:1001F00030E0A9014770552721E030E002C0220F0E
:10020000331F4A95E2F7262BFC0120835DC08981CC
:10021000869586958695882F90E0880F991F885936
:100220009F4FFC01808191812981269526952695F5
:10023000222F30E0220F331F28593F4FF901208130
:100240003181F9012081622F2981222F30E0A9011B
:100250004770552721E030E002C0220F331F4A9536
:10026000E2F720952623FC0120832EC08981869504
:1002700086958695882F90E0880F991F88599F4F03
:10028000FC01808191812981269526952695222F32
:1002900030E0220F331F28593F4FF901208131816F
:1002A000F9012081622F2981222F30E0A9014770B6
:1002B000552721E030E002C0220F331F4A95E2F7B4
:1002C0002627FC012083000000000F900F90DF9193
:1002D000CF910895CF93DF9300D0CDB7DEB78A8357
:1002E00019828A81869586958695882F90E0880F59
:1002F000991F80599F4FFC0180819181FC01808171
:10030000882F90E02A81222F30E02770332702C007
:10031000959587952A95E2F78170898389810F9059
:100320000F90DF91CF910895CF93DF9300D0CDB799
:10033000DEB789836A838981882F90E0880F991FAF
:10034000805A9F4FFC01808191812A81FC0120838A
:1003500000000F900F90DF91CF910895CF93DF931E
:1003600000D0CDB7DEB789836A838981882F90E07A
:10037000880F991F88599F4FFC01808191812A81A4
:10038000FC01208300000F900F90DF91CF91089522
:10039000CF93DF9300D0CDB7DEB78A8319828A81ED
:1003A000882F90E0880F991F80599F4FFC01808112
:1003B0009181FC018081898389810F900F90DF9169
:1003C000CF910895CF93DF9300D01F92CDB7DEB7C2
:1003D00089836A834B836FEF89810E94940160E077
:1003E0008A810E94530060E08B810E9453008A81C1
:1003F0000E946A01882321F46FEF89810E94AE0177
:100400008B810E946A01882321F460E089810E9427
:10041000AE0100000F900F900F90DF91CF910895E3
:10042000CF93DF9300D01F92CDB7DEB789836A8365
:100430004B8361E089810E94530060E08A810E94C1
:10044000530060E08B810E9453008A810E946A0100
:10045000882321F461E089810E94C5008B810E947C
:100460006A01882321F460E089810E94AE010000C6
:100470000F900F900F90DF91CF910895EF920F930F
:100480001F93CF93DF93CDB7DEB7C754D1090FB613
:10049000F894DEBF0FBECDBF0EAF1FAFFE01E05C14
:1004A000FF4F2083FE01EF5BFF4F30839E012E5BE9
:1004B0003F4FF90140839E012D5B3F4FF90150836F
:1004C0009E012C5B3F4FF90160839E012B5B3F4FE8
:1004D000F90170839E012A5B3F4FF90180839E01E1
:1004E000295B3F4FF901908319828FAD61E00E9433
:1004F00053008EAD61E00E945300198210C08981C3
:10050000882F90E09E01205C3F4F820F931FFC01DB
:10051000808161E00E94530089818F5F8983898196
:10052000883068F380E090E0A0EAB1E48A839B839E
:10053000AC83BD8320E030E04AE753E46A817B81ED
:100540008C819D810E94FA15DC01CB018CAB9DABA7
:10055000AEABBFAB20E030E040E85FE36CA97DA923
:100560008EA99FA90E94DA1488232CF481E090E0E0
:1005700099AF88AF3FC020E03FEF4FE757E46CA949
:100580007DA98EA99FA90E94F51518164CF520E0AB
:1005900030E040E251E46A817B818C819D810E9440
:1005A000FA15DC01CB01BC01CD010E945115DC0123
:1005B000CB0199AF88AF0FC089E190E09BAF8AAFC4
:1005C0008AAD9BAD0197F1F79BAF8AAF88AD99AD2E
:1005D000019799AF88AF88AD99AD892B69F714C0A1
:1005E0006CA97DA98EA99FA90E945115DC01CB01A0
:1005F00099AF88AF88AD99AD9DAF8CAF8CAD9DADF7
:100600000197F1F79DAF8CAF0F2EF8E3EF2EF02D91
:100610000EAD1FADCE01805C9F4FFC012081CE014D
:100620008F5B9F4FFC013081CE018E5B9F4FFC01A1
:100630004081CE018D5B9F4FFC015081CE018C5BD0
:100640009F4FFC016081CE018B5B9F4FFC0170814D
:10065000CE018A5B9F4FFC018081FE01E95BFF4F69
:1006600090810E94160680E090E0A0EAB0E48E83BC
:100670009F83A887B98720E030E04AE753E46E8182
:100680007F81888599850E94FA15DC01CB018AA7B4
:100690009BA7ACA7BDA720E030E040E85FE36AA5D8
:1006A0007BA58CA59DA50E94DA1488232CF481E0FB
:1006B00090E09FA78EA73FC020E03FEF4FE757E4B1
:1006C0006AA57BA58CA59DA50E94F51518164CF56D
:1006D00020E030E040E251E46E817F818885998599
:1006E0000E94FA15DC01CB01BC01CD010E9451151D
:1006F000DC01CB019FA78EA70FC089E190E099ABE9
:1007000088AB88A999A90197F1F799AB88AB8EA519
:100710009FA501979FA78EA78EA59FA5892B69F7F7
:1007200014C06AA57BA58CA59DA50E945115DC016E
:10073000CB019FA78EA78EA59FA59BAB8AAB8AA94D
:100740009BA90197F1F79BAB8AAB0F2EF8E3EF2E35
:10075000F02D0EAD1FADCE01805C9F4FFC012081BE
:10076000CE018F5B9F4FFC013081CE018E5B9F4F8E
:10077000FC014081CE018D5B9F4FFC015081CE0179
:100780008C5B9F4FFC016081CE018B5B9F4FFC0116
:100790007081CE018A5B9F4FFC018081FE01E95B85
:1007A000FF4F90810E94160680E090E0A6E1B3E43E
:1007B0008A879B87AC87BD872BEA3AEA4AEA5EE3E1
:1007C0006A857B858C859D850E94FA15DC01CB01AD
:1007D0008E879F87A88BB98B20E030E040E85EE3EE
:1007E0006A857B858C859D850E94FA15DC01CB018D
:1007F0008A8B9B8BAC8BBD8B20E030E040E85FE3C5
:100800006E857F85888999890E94DA1488231CF473
:1008100081E08E8BB2C020E03FEF4FE757E46A895A
:100820007B898C899D890E94F51518160CF07BC078
:1008300020E030E04AE754E46A857B858C859D851D
:100840000E94DF14DC01CB018F8B988FA98FBA8FA8
:1008500020E030E04AE753E46F89788D898D9A8DE6
:100860000E94FA15DC01CB018B8F9C8FAD8FBE8F60
:1008700020E030E040E85FE36B8D7C8D8D8D9E8DB8
:100880000E94DA1488232CF481E090E098A38F8FE3
:100890003FC020E03FEF4FE757E46B8D7C8D8D8D9F
:1008A0009E8D0E94F51518164CF520E030E040E2D0
:1008B00051E46F89788D898D9A8D0E94FA15DC013B
:1008C000CB01BC01CD010E945115DC01CB0198A3E5
:1008D0008F8F0FC089E190E09AA389A389A19AA183
:1008E0000197F1F79AA389A38F8D98A1019798A3F7
:1008F0008F8F8F8D98A1892B69F73FC06B8D7C8D71
:100900008D8D9E8D0E945115DC01CB0198A38F8F98
:100910008F8D98A19CA38BA38BA19CA10197F1F72C
:100920009CA38BA32AC020E030E04FE753E46E8500
:100930007F85888999890E94F5151816ACF46A8913
:100940007B898C899D890E945115DC01CB019EA376
:100950008DA38DA19EA198A78FA38FA198A5019784
:10096000F1F798A78FA30FC06E857F858889998935
:100970000E945115DC01CB018E8B8E8989A789A538
:100980008A95F1F789A70F2EF8E3EF2EF02D0EAD23
:100990001FADCE01805C9F4FFC012081CE018F5B9B
:1009A0009F4FFC013081CE018E5B9F4FFC01408147
:1009B000CE018D5B9F4FFC015081CE018C5B9F4F20
:1009C000FC016081CE018B5B9F4FFC017081CE01E9
:1009D0008A5B9F4FFC018081FE01E95BFF4F9081A4
:1009E0000E941606EE24E3940EAD1FADCE01805C8E
:1009F0009F4FFC012081CE018F5B9F4FFC01308116
:100A0000CE018E5B9F4FFC014081CE018D5B9F4FDD
:100A1000FC015081CE018C5B9F4FFC016081CE01B7
:100A20008B5B9F4FFC017081CE018A5B9F4FFC0165
:100A30008081FE01E95BFF4F90810E941606689459
:100A4000EE24E1F80EAD1FADCE01805C9F4FFC019E
:100A50002081CE018F5B9F4FFC013081CE018E5BE8
:100A60009F4FFC014081CE018D5B9F4FFC01508167
:100A7000CE018C5B9F4FFC016081CE018B5B9F4F51
:100A8000FC017081CE018A5B9F4FFC018081FE01D9
:100A9000E95BFF4F90810E9416060F2EF6E0EF2EC5
:100AA000F02D0EAD1FADCE01805C9F4FFC0120816B
:100AB000CE018F5B9F4FFC013081CE018E5B9F4F3B
:100AC000FC014081CE018D5B9F4FFC015081CE0126
:100AD0008C5B9F4FFC016081CE018B5B9F4FFC01C3
:100AE0007081CE018A5B9F4FFC018081FE01E95B32
:100AF000FF4F90810E9416060F2EFCE0EF2EF02D86
:100B00000EAD1FADCE01805C9F4FFC012081CE0158
:100B10008F5B9F4FFC013081CE018E5B9F4FFC01AC
:100B20004081CE018D5B9F4FFC015081CE018C5BDB
:100B30009F4FFC016081CE018B5B9F4FFC01708158
:100B4000CE018A5B9F4FFC018081FE01E95BFF4F74
:100B500090810E9416060F2EF8E3EF2EF02D0EADB9
:100B60001FADCE01805C9F4FFC012081CE018F5BC9
:100B70009F4FFC013081CE018E5B9F4FFC01408175
:100B8000CE018D5B9F4FFC015081CE018C5B9F4F4E
:100B9000FC016081CE018B5B9F4FFC017081CE0117
:100BA0008A5B9F4FFC018081FE01E95BFF4F9081D2
:100BB0000E9416066894EE24E7F80EAD1FADCE0134
:100BC000805C9F4FFC012081CE018F5B9F4FFC0119
:100BD0003081CE018E5B9F4FFC014081CE018D5B49
:100BE0009F4FFC015081CE018C5B9F4FFC016081C7
:100BF000CE018B5B9F4FFC017081CE018A5B9F4FC2
:100C0000FC018081FE01E95BFF4F90810E94160686
:100C10000000C95BDF4F0FB6F894DEBF0FBECDBF3B
:100C2000DF91CF911F910F91EF900895EF920F9365
:100C30001F93CF93DF93CDB7DEB72C970FB6F89401
:100C4000DEBF0FBECDBF0A831B832C833D834E8343
:100C50005F83688779878A879B87EC8619828A8178
:100C600060E00E94C50019821DC08C85882F90E02D
:100C70002981222F30E002C0959587952A95E2F7C9
:100C8000482F41708981882F90E09E012C5F3F4F53
:100C9000820F931FFC018081642F0E94C50089810F
:100CA0008F5F89838981883000F30A811B812C81C1
:100CB0003D814E815F81688579858A859B850E940B
:100CC000C30D00002C960FB6F894DEBF0FBECDBF4B
:100CD000DF91CF911F910F91EF900895EF920F93B5
:100CE0001F93CF93DF93CDB7DEB72C970FB6F89451
:100CF000DEBF0FBECDBF0A831B832C833D834E8393
:100D00005F83688779878A879B87EC8619828A81C7
:100D100061E00E94C50019821DC08C85882F90E07B
:100D20002981222F30E002C0959587952A95E2F718
:100D3000482F41708981882F90E09E012C5F3F4FA2
:100D4000820F931FFC018081642F0E94C50089815E
:100D50008F5F89838981883000F30A811B812C8110
:100D60003D814E815F81688579858A859B850E945A
:100D7000C30D00002C960FB6F894DEBF0FBECDBF9A
:100D8000DF91CF911F910F91EF900895AF92CF9285
:100D9000EF920F931F93CF93DF93CDB7DEB72D97CD
:100DA0000FB6F894DEBF0FBECDBF09831A832B8325
:100DB0003C834D835E836F83788789879A87EB8630
:100DC000CC86AD86CC84EB8409811A812B813C8151
:100DD0004D815E816F81788589859A850E945F0E3D
:100DE000ED8409811A812B813C814D815E816F8167
:100DF000788589859A850E946E0600002D960FB62B
:100E0000F894DEBF0FBECDBFDF91CF911F910F9140
:100E1000EF90CF90AF900895EF92FF920F931F93B2
:100E2000CF93DF93CDB7DEB72C970FB6F894DEBF24
:100E30000FBECDBF09831A832B833C834D835E8312
:100E40006F83788789879A87FC86EB8616C08B85A7
:100E50009C859C012F5F3F4F3C872B87FC01808145
:100E6000E82E09811A812B813C814D815E816F8141
:100E7000788589859A850E946E068B859C85FC0104
:100E80008081882321F700002C960FB6F894DEBFEE
:100E90000FBECDBFDF91CF911F910F91FF90EF90CB
:100EA0000895AF92BF92CF92EF920F931F93CF937B
:100EB000DF93CDB7DEB72E970FB6F894DEBF0FBE27
:100EC000CDBF09831A832B833C834D835E836F835D
:100ED000788789879A87EB86CC86BE86AD86CC8458
:100EE000EB8409811A812B813C814D815E816F8168
:100EF000788589859A850E945F0E16C08D859E85AE
:100F00009C012F5F3F4F3E872D87FC018081E82E9B
:100F100009811A812B813C814D815E816F817885A9
:100F200089859A850E946E068D859E85FC0180814B
:100F3000882321F700002E960FB6F894DEBF0FBE6F
:100F4000CDBFDF91CF911F910F91EF90CF90BF90C8
:100F5000AF900895CF93DF93CDB7DEB7C354D109D7
:100F60000FB6F894DEBF0FBECDBF4EAF5FAF9E0190
:100F7000205C3F4FF90160839E012F5B3F4FF901D9
:100F800070839E012E5B3F4FF90180839E012D5B94
:100F90003F4FF901908319828FAD61E00E945300A9
:100FA0008EAD61E00E945300198210C08981882FA4
:100FB00090E09E01205C3F4F820F931FFC018081D7
:100FC00061E00E94530089818F5F89838981843029
:100FD00068F380E090E0A0EAB1E48A839B83AC836D
:100FE000BD8320E030E04AE753E46A817B818C8155
:100FF0009D810E94FA15DC01CB018CAB9DABAEABA1
:10100000BFAB20E030E040E85FE36CA97DA98EA98A
:101010009FA90E94DA1488232CF481E090E099AF14
:1010200088AF3FC020E03FEF4FE757E46CA97DA9B0
:101030008EA99FA90E94F51518164CF520E030E006
:1010400040E251E46A817B818C819D810E94FA1586
:10105000DC01CB01BC01CD010E945115DC01CB01AB
:1010600099AF88AF0FC089E190E09BAF8AAF8AAD9E
:101070009BAD0197F1F79BAF8AAF88AD99AD019712
:1010800099AF88AF88AD99AD892B69F714C06CA969
:101090007DA98EA99FA90E945115DC01CB0199AFB2
:1010A00088AF88AD99AD9DAF8CAF8CAD9DAD0197EC
:1010B000F1F79DAF8CAF28E34EAD5FADCE01805C04
:1010C0009F4FFC016081CE018F5B9F4FFC017081BF
:1010D000CE018E5B9F4FFC018081FE01ED5BFF4FD7
:1010E00090810E949F0A80E090E0A0EAB0E48E83A5
:1010F0009F83A887B98720E030E04AE753E46E81F8
:101100007F81888599850E94FA15DC01CB018AA729
:101110009BA7ACA7BDA720E030E040E85FE36AA54D
:101120007BA58CA59DA50E94DA1488232CF481E070
:1011300090E09FA78EA73FC020E03FEF4FE757E426
:101140006AA57BA58CA59DA50E94F51518164CF5E2
:1011500020E030E040E251E46E817F81888599850E
:101160000E94FA15DC01CB01BC01CD010E94511592
:10117000DC01CB019FA78EA70FC089E190E099AB5E
:1011800088AB88A999A90197F1F799AB88AB8EA58F
:101190009FA501979FA78EA78EA59FA5892B69F76D
:1011A00014C06AA57BA58CA59DA50E945115DC01E4
:1011B000CB019FA78EA78EA59FA59BAB8AAB8AA9C3
:1011C0009BA90197F1F79BAB8AAB28E34EAD5FADCE
:1011D000CE01805C9F4FFC016081CE018F5B9F4FF1
:1011E000FC017081CE018E5B9F4FFC018081FE016E
:1011F000ED5BFF4F90810E949F0A80E090E0A6E1A6
:10120000B3E48A879B87AC87BD872BEA3AEA4AEA30
:101210005EE36A857B858C859D850E94FA15DC01DD
:10122000CB018E879F87A88BB98B20E030E040E808
:101230005EE36A857B858C859D850E94FA15DC01BD
:10124000CB018A8B9B8BAC8BBD8B20E030E040E8E0
:101250005FE36E857F85888999890E94DA148823E7
:101260001CF481E08E8BB2C020E03FEF4FE757E4E3
:101270006A897B898C899D890E94F51518160CF066
:101280007BC020E030E04AE754E46A857B858C85AA
:101290009D850E94DF14DC01CB018F8B988FA98F75
:1012A000BA8F20E030E04AE753E46F89788D898D6A
:1012B0009A8D0E94FA15DC01CB018B8F9C8FAD8F2C
:1012C000BE8F20E030E040E85FE36B8D7C8D8D8D3C
:1012D0009E8D0E94DA1488232CF481E090E098A37C
:1012E0008F8F3FC020E03FEF4FE757E46B8D7C8D41
:1012F0008D8D9E8D0E94F51518164CF520E030E07E
:1013000040E251E46F89788D898D9A8D0E94FA159B
:10131000DC01CB01BC01CD010E945115DC01CB01E8
:1013200098A38F8F0FC089E190E09AA389A389A128
:101330009AA10197F1F79AA389A38F8D98A101979C
:1013400098A38F8F8F8D98A1892B69F73FC06B8DE4
:101350007C8D8D8D9E8D0E945115DC01CB0198A353
:101360008F8F8F8D98A19CA38BA38BA19CA101979C
:10137000F1F79CA38BA32AC020E030E04FE753E4B1
:101380006E857F85888999890E94F5151816ACF4B9
:101390006A897B898C899D890E945115DC01CB016A
:1013A0009EA38DA38DA19EA198A78FA38FA198A581
:1013B0000197F1F798A78FA30FC06E857F85888965
:1013C00099890E945115DC01CB018E8B8E8989A7EA
:1013D00089A58A95F1F789A728E34EAD5FADCE01C7
:1013E000805C9F4FFC016081CE018F5B9F4FFC01B1
:1013F0007081CE018E5B9F4FFC018081FE01ED5B11
:10140000FF4F90810E949F0A21E04EAD5FADCE015B
:10141000805C9F4FFC016081CE018F5B9F4FFC0180
:101420007081CE018E5B9F4FFC018081FE01ED5BE0
:10143000FF4F90810E949F0A22E04EAD5FADCE012A
:10144000805C9F4FFC016081CE018F5B9F4FFC0150
:101450007081CE018E5B9F4FFC018081FE01ED5BB0
:10146000FF4F90810E949F0A26E04EAD5FADCE01F6
:10147000805C9F4FFC016081CE018F5B9F4FFC0120
:101480007081CE018E5B9F4FFC018081FE01ED5B80
:10149000FF4F90810E949F0A2CE04EAD5FADCE01C0
:1014A000805C9F4FFC016081CE018F5B9F4FFC01F0
:1014B0007081CE018E5B9F4FFC018081FE01ED5B50
:1014C000FF4F90810E949F0A28E24EAD5FADCE0192
:1014D000805C9F4FFC016081CE018F5B9F4FFC01C0
:1014E0007081CE018E5B9F4FFC018081FE01ED5B20
:1014F000FF4F90810E949F0A20E84EAD5FADCE0164
:10150000805C9F4FFC016081CE018F5B9F4FFC018F
:101510007081CE018E5B9F4FFC018081FE01ED5BEF
:10152000FF4F90810E949F0A0000CD5BDF4F0FB6F6
:10153000F894DEBF0FBECDBFDF91CF910895CF935A
:10154000DF93CDB7DEB727970FB6F894DEBF0FBE97
:10155000CDBF49835A836B837C838D839E832F8386
:10156000898160E00E94C5008F8182958F70282F4D
:1015700049815A816B817C818D819E810E94750C8D
:1015800049815A816B817C818D819E810E94B20C40
:101590002F8149815A816B817C818D819E810E943E
:1015A000750C49815A816B817C818D819E810E945D
:1015B000B20C000027960FB6F894DEBF0FBECDBF69
:1015C000DF91CF910895CF93DF93CDB7DEB7279703
:1015D0000FB6F894DEBF0FBECDBF49835A836B832D
:1015E0007C838D839E832F83898161E00E94C50067
:1015F0008F8182958F70282F49815A816B817C81E0
:101600008D819E810E94750C49815A816B817C81FC
:101610008D819E810E94B20C2F8149815A816B81FC
:101620007C818D819E810E94750C49815A816B81DC
:101630007C818D819E810E94B20C000027960FB69E
:10164000F894DEBF0FBECDBFDF91CF910895EF922A
:101650000F93CF93DF93CDB7DEB729970FB6F894EA
:10166000DEBF0FBECDBF49835A836B837C838D83DE
:101670009E832F830887E98608852F8149815A81B7
:101680006B817C818D819E810E94DC0E2985498140
:101690005A816B817C818D819E810E94E30A0000CA
:1016A00029960FB6F894DEBF0FBECDBFDF91CF9164
:1016B0000F91EF900895CF93DF93CDB7DEB72897C2
:1016C0000FB6F894DEBF0FBECDBF49835A836B833C
:1016D0007C838D839E8338872F8312C08F8198856A
:1016E0009C012F5F3F4F38872F83FC018081282F7B
:1016F00049815A816B817C818D819E810E94E30AA0
:101700008F819885FC018081882341F7000028960D
:101710000FB6F894DEBF0FBECDBFDF91CF91089515
:10172000EF92FF920F93CF93DF93CDB7DEB72A9757
:101730000FB6F894DEBF0FBECDBF49835A836B83CB
:101740007C838D839E832F830887FA86E9860885AC
:101750002F8149815A816B817C818D819E810E947C
:10176000DC0E12C089859A859C012F5F3F4F3A8716
:101770002987FC018081282F49815A816B817C81D6
:101780008D819E810E94E30A89859A85FC01808172
:10179000882341F700002A960FB6F894DEBF0FBEEB
:1017A000CDBFDF91CF910F91FF90EF900895CF9330
:1017B000DF9300D01F92CDB7DEB789837B836A8326
:1017C0008A819B8144E050E060E070E00E946716EF
:1017D0008981882F90E0292F2F938F9380EB90E0C1
:1017E000892F8F9380EB90E08F938B818F938A81E9
:1017F0008F930E946E160F900F900F900F900F9086
:101800000F9000000F900F900F90DF91CF910895EF
:10181000CF93DF9300D000D0CDB7DEB79A83898312
:101820007C836B838B819C8146E050E060E070E0BC
:101830000E9467168A818F9389818F9380EB90E055
:10184000892F8F9380EB90E08F938C818F938B8186
:101850008F930E946E160F900F900F900F900F9025
:101860000F9000000F900F900F900F90DF91CF918D
:101870000895CF93DF9300D000D000D0CDB7DEB76E
:1018800069837A838B839C835E834D838D819E8164
:101890004BE050E060E070E00E9467168C818F930F
:1018A0008B818F938A818F9389818F9380EB90E0D6
:1018B000892F8F9380EB90E08F938E818F938D8112
:1018C0008F930E946E168DB79EB708960FB6F89448
:1018D000DEBF0FBECDBF000026960FB6F894DEBF68
:1018E0000FBECDBFDF91CF910895CF93DF93CDB7DA
:1018F000DEB727970FB6F894DEBF0FBECDBF498382
:101900005A836B837C838D839E832F838F81982F53
:1019100091708B81692F0E94C5008F818695982FC9
:1019200091708C81692F0E94C5008F818695869564
:10193000982F91708D81692F0E94C5008F818695A7
:1019400086958695982F91708E81692F0E94C5008B
:10195000000027960FB6F894DEBF0FBECDBFDF9113
:10196000CF910895CF93DF93CDB7DEB7A6970FB68B
:10197000F894DEBF0FBECDBF49A35AA36BA37CA3CF
:101980008DA39EA38AA161E00E94C50080E090E043
:10199000A0EAB0E489839A83AB83BC832BEA3AEA5A
:1019A0004AEA5EE369817A818B819C810E94FA1503
:1019B000DC01CB018D839E83AF83B88720E030E0CC
:1019C00040E85EE369817A818B819C810E94FA15EF
:1019D000DC01CB0189879A87AB87BC8720E030E0A8
:1019E00040E85FE36D817E818F8198850E94DA14E3
:1019F00088231CF481E08D87B2C020E03FEF4FE7E1
:101A000057E469857A858B859C850E94F5151816A3
:101A10000CF07BC020E030E04AE754E469817A8131
:101A20008B819C810E94DF14DC01CB018E879F8714
:101A3000A88BB98B20E030E04AE753E46E857F85C0
:101A4000888999890E94FA15DC01CB018A8B9B8BCE
:101A5000AC8BBD8B20E030E040E85FE36A897B8996
:101A60008C899D890E94DA1488232CF481E090E00F
:101A70009F8B8E8B3FC020E03FEF4FE757E46A8992
:101A80007B898C899D890E94F51518164CF520E0FC
:101A900030E040E251E46E857F85888999890E9413
:101AA000FA15DC01CB01BC01CD010E945115DC010E
:101AB000CB019F8B8E8B0FC089E190E0998F888F2F
:101AC000888D998D0197F1F7998F888F8E899F89DD
:101AD00001979F8B8E8B8E899F89892B69F73FC0D9
:101AE0006A897B898C899D890E945115DC01CB0113
:101AF0009F8B8E8B8E899F899B8F8A8F8A8D9B8DE2
:101B00000197F1F79B8F8A8F2AC020E030E04FE7E2
:101B100053E46D817E818F8198850E94F51518169A
:101B2000ACF469857A858B859C850E945115DC0112
:101B3000CB019D8F8C8F8C8D9D8D9F8F8E8F8E8DE9
:101B40009F8D0197F1F79F8F8E8F0FC06D817E81E2
:101B50008F8198850E945115DC01CB018D878D8581
:101B600088A388A18A95F1F788A38AA160E00E94E2
:101B7000C5000000A6960FB6F894DEBF0FBECDBF1D
:101B8000DF91CF9108950F931F93CF93DF93CDB73C
:101B9000DEB768970FB6F894DEBF0FBECDBF0F87D4
:101BA000188B298B3A8B4B8B5C8B6D8B7E8B8F8B41
:101BB000988F888961E00E94C50080E090E0A0EAEB
:101BC000B0E489839A83AB83BC8320E030E04AE7AA
:101BD00053E469817A818B819C810E94FA15DC0132
:101BE000CB018D839E83AF83B88720E030E040E84F
:101BF0005FE36D817E818F8198850E94DA1488234E
:101C00002CF481E090E09A8789873FC020E03FEF85
:101C10004FE757E46D817E818F8198850E94F5158D
:101C200018164CF520E030E040E251E469817A81F9
:101C30008B819C810E94FA15DC01CB01BC01CD0196
:101C40000E945115DC01CB019A8789870FC089E179
:101C500090E09C878B878B859C850197F1F79C870B
:101C60008B8789859A8501979A87898789859A853F
:101C7000892B69F714C06D817E818F8198850E94C0
:101C80005115DC01CB019A87898789859A859E87C2
:101C90008D878D859E850197F1F79E878D87888931
:101CA00060E00E94C500000068960FB6F894DEBFA1
:101CB0000FBECDBFDF91CF911F910F910895CF92AD
:101CC000EF920F931F93CF93DF93CDB7DEB72C978F
:101CD0000FB6F894DEBF0FBECDBF09831A832B83E6
:101CE0003C834D835E836F83788789879A87EB86F1
:101CF000CC868C8581508C878B85882F90E08230B4
:101D00009105E1F0833091051CF4019739F046C04C
:101D10008330910519F1049789F140C08C85805872
:101D2000E82E09811A812B813C814D815E816F8172
:101D3000788589859A850E94160630C08C858054E6
:101D4000E82E09811A812B813C814D815E816F8152
:101D5000788589859A850E94160620C08C858C56C8
:101D6000E82E09811A812B813C814D815E816F8132
:101D7000788589859A850E94160610C08C858C52BC
:101D8000E82E09811A812B813C814D815E816F8112
:101D9000788589859A850E941606000000002C9699
:101DA0000FB6F894DEBF0FBECDBFDF91CF911F916C
:101DB0000F91EF90CF9008950F93CF93DF93CDB70E
:101DC000DEB728970FB6F894DEBF0FBECDBF4983AC
:101DD0005A836B837C838D839E832F8308878885BA
:101DE000815088878F81882F90E082309105C1F0E3
:101DF000833091051CF4019739F036C0833091058A
:101E0000D9F0049729F130C088858058282F49815E
:101E10005A816B817C818D819E810E949F0A24C0A2
:101E200088858054282F49815A816B817C818D81DE
:101E30009E810E949F0A18C088858C56282F498150
:101E40005A816B817C818D819E810E949F0A0CC08A
:101E500088858C52282F49815A816B817C818D81A4
:101E60009E810E949F0A0000000028960FB6F894F9
:101E7000DEBF0FBECDBFDF91CF910F910895CF93FD
:101E8000DF93CDB7DEB72A970FB6F894DEBF0FBE4B
:101E9000CDBF2B833C834D835E836F837887898797
:101EA0009A8719821A82198210C08981882F90E03E
:101EB0009E012D5F3F4F820F931FFC01808161E0E7
:101EC0000E94530089818F5F89838981843068F300
:101ED0001A8210C08A81882F90E09E01295F3F4FAF
:101EE000820F931FFC01808160E00E9453008A8171
:101EF0008F5F8A838A81843068F300002A960FB648
:101F0000F894DEBF0FBECDBFDF91CF9108950F9340
:101F1000CF93DF93CDB7DEB76B970FB6F894DEBFE4
:101F20000FBECDBF2B8B3C8B4D8B5E8B6F8B788F19
:101F3000898F9A8F0B8F19821A821B821C821982B9
:101F4000C0C01B8210C08B81882F90E09E012D5E47
:101F50003F4F820F931FFC01808160E00E94C5000B
:101F60008B818F5F8B838B81843068F38981882F8D
:101F700090E09E012D5E3F4F820F931FFC018081F8
:101F800061E00E94C50080E090E0A0E2B1E48D83B2
:101F90009E83AF83B88720E030E04AE753E46D8149
:101FA0007E818F8198850E94FA15DC01CB0189879B
:101FB0009A87AB87BC8720E030E040E85FE3698523
:101FC0007A858B859C850E94DA1488232CF481E025
:101FD00090E09E878D873FC020E03FEF4FE757E4BA
:101FE00069857A858B859C850E94F51518164CF5B8
:101FF00020E030E040E251E46D817E818F81988560
:102000000E94FA15DC01CB01BC01CD010E945115E3
:10201000DC01CB019E878D870FC089E190E0988B12
:102020008F878F8598890197F1F7988B8F878D859A
:102030009E8501979E878D878D859E85892B69F763
:1020400014C069857A858B859C850E945115DC01B9
:10205000CB019E878D878D859E859A8B898B8989FB
:102060009A890197F1F79A8B898B1A8224C08A8109
:10207000882F90E09E01295E3F4F820F931FFC0145
:1020800080810E946A018C838C81813089F48981EE
:10209000282F30E08A81882F90E0220F331F220FF3
:1020A000331F820F931F80579F4FFC0180818B8FBE
:1020B0008A818F5F8A838A818430C8F289818F5FA9
:1020C00089838981843008F43CCF00006B960FB679
:1020D000F894DEBF0FBECDBFDF91CF910F91089571
:1020E000CF93DF93CDB7DEB70000DF91CF91089596
:1020F000CF93DF93CDB7DEB70000DF91CF91089586
:10210000CF93DF93CDB7DEB78091A20061E00E944C
:1021100053008091A00061E00E9453008091A100D3
:1021200061E00E9453008091A60061E00E9453008C
:102130008091A40061E00E9453008091A50061E0BD
:102140000E9453000000DF91CF910895CF93DF9359
:102150001F92CDB7DEB789838981882F90E08230C6
:102160009105C1F08330910539F1019709F047C01D
:102170009091A3008091A200692F0E94C5008091D8
:10218000A00061E00E94C5008091A10060E00E9473
:10219000C50035C09091A7008091A600692F0E94CC
:1021A000C5008091A40061E00E94C5008091A50057
:1021B00060E00E94C50023C09091A3008091A2001E
:1021C000692F0E94C5009091A7008091A600692FF9
:1021D0000E94C5008091A00061E00E94C50080912E
:1021E000A10060E00E94C5008091A40061E00E940F
:1021F000C5008091A50060E00E94C50000000000BD
:102200000F90DF91CF910895CF93DF931F92CDB7B9
:10221000DEB789838981882F90E082309105C1F0F3
:102220008330910539F1019709F047C09091A300DF
:102230008091A200692F0E94C5008091A00060E0FB
:102240000E94C5008091A10061E00E94C50035C0D8
:102250009091A7008091A600692F0E94C5008091EF
:10226000A40060E00E94C5008091A50061E00E948A
:10227000C50023C09091A3008091A200692F0E9405
:10228000C5009091A7008091A600692F0E94C5000B
:102290008091A00060E00E94C5008091A10061E0F3
:1022A0000E94C5008091A40060E00E94C50080915A
:1022B000A50061E00E94C500000000000F90DF91C2
:1022C000CF910895CF93DF931F92CDB7DEB7898367
:1022D0008981882F90E082309105C1F0833091058B
:1022E00039F1019709F047C09091A3008091A200B5
:1022F000692F0E94C5008091A00060E00E94C50087
:102300008091A10060E00E94C50035C09091A700B7
:102310008091A600692F0E94C5008091A40060E012
:102320000E94C5008091A50060E00E94C50023C006
:102330009091A3008091A200692F0E94C500909106
:10234000A7008091A600692F0E94C5008091A0007F
:1023500060E00E94C5008091A10060E00E94C5007D
:102360008091A40060E00E94C5008091A50060E01B
:102370000E94C500000000000F90DF91CF910895EA
:10238000CF93DF9300D000D0CDB7DEB769837A83D7
:102390008B839C83898161E00E9453008A8161E084
:1023A0000E9453008B8161E00E9453008C8161E0A8
:1023B0000E94530000000F900F900F900F90DF913C
:1023C000CF910895CF93DF9300D000D01F92CDB767
:1023D000DEB769837A838B839C834D838D81882FBD
:1023E00090E0092E000CAA0BBB0B40E050E029E066
:1023F00030E0841B950B2817390708F4AFC0865DC1
:102400009F4FFC010C94D414898160E00E94C500A8
:102410008A8160E00E94C5008B8160E00E94C50057
:102420008C8160E00E94C5009AC0898161E00E94B1
:10243000C5008A8160E00E94C5008B8160E00E9437
:10244000C5008C8160E00E94C50089C0898160E080
:102450000E94C5008A8161E00E94C5008B8160E016
:102460000E94C5008C8160E00E94C50078C089810F
:1024700061E00E94C5008A8161E00E94C5008B81F5
:1024800060E00E94C5008C8160E00E94C50067C0CA
:10249000898160E00E94C5008A8160E00E94C500D9
:1024A0008B8161E00E94C5008C8160E00E94C500C4
:1024B00056C0898161E00E94C5008A8160E00E9467
:1024C000C5008B8161E00E94C5008C8160E00E94A4
:1024D000C50045C0898160E00E94C5008A8161E035
:1024E0000E94C5008B8161E00E94C5008C8160E084
:1024F0000E94C50034C0898161E00E94C5008A81C4
:1025000061E00E94C5008B8161E00E94C5008C8162
:1025100060E00E94C50023C0898160E00E94C50080
:102520008A8160E00E94C5008B8160E00E94C50046
:102530008C8161E00E94C50012C0898161E00E9427
:10254000C5008A8160E00E94C5008B8160E00E9426
:10255000C5008C8161E00E94C50001C00000000040
:102560000F900F900F900F900F90DF91CF910895E3
:10257000CF93DF9300D000D0CDB7DEB79A838983A5
:102580006B834C838C818130D1F48B81882F90E0D8
:10259000009761F0019709F02FC0898161E00E94E6
:1025A000C5008A8161E00E94C50026C0898160E083
:1025B0000E94C5008A8160E00E94C5001DC08C8118
:1025C0008823D1F48B81882F90E0009761F00197E8
:1025D00009F012C0898160E00E94C5008A8160E034
:1025E0000E94C50009C0898161E00E94C5008A81FE
:1025F00061E00E94C500000000000F900F900F9056
:102600000F90DF91CF910895CF93DF9300D000D04A
:1026100000D0CDB7DEB769837A838B839C834D83EB
:102620002E838E81813051F58D81882F90E0009727
:10263000A1F0019709F04FC0898161E00E94C500B7
:102640008A8161E00E94C5008B8161E00E94C50023
:102650008C8161E00E94C5003EC0898160E00E94DB
:10266000C5008A8160E00E94C5008B8160E00E9405
:10267000C5008C8160E00E94C5002DC08E8188233A
:1026800051F58D81882F90E00097A1F0019709F016
:1026900022C0898160E00E94C5008A8160E00E94BA
:1026A000C5008B8160E00E94C5008C8160E00E94C3
:1026B000C50011C0898161E00E94C5008A8161E086
:1026C0000E94C5008B8161E00E94C5008C8161E0A1
:1026D0000E94C5000000000026960FB6F894DEBFE9
:1026E0000FBECDBFDF91CF9108950F93CF93DF93AE
:1026F000CDB7DEB728970FB6F894DEBF0FBECDBFBB
:1027000049835A836B837C838D839E832F830887C1
:1027100088858130D1F58F81882F90E00097E1F096
:10272000019709F06FC0898161E00E94C5008A812C
:1027300061E00E94C5008B8161E00E94C5008C8130
:1027400061E00E94C5008D8161E00E94C5008E811C
:1027500061E00E94C50056C0898160E00E94C5000A
:102760008A8160E00E94C5008B8160E00E94C50004
:102770008C8160E00E94C5008D8160E00E94C500F0
:102780008E8160E00E94C5003DC088858823D1F518
:102790008F81882F90E00097E1F0019709F032C017
:1027A000898160E00E94C5008A8160E00E94C500C6
:1027B0008B8160E00E94C5008C8160E00E94C500B2
:1027C0008D8160E00E94C5008E8160E00E94C5009E
:1027D00019C0898161E00E94C5008A8161E00E9480
:1027E000C5008B8161E00E94C5008C8161E00E9480
:1027F000C5008D8161E00E94C5008E8161E00E946C
:10280000C5000000000028960FB6F894DEBF0FBE8A
:10281000CDBFDF91CF910F910895EF920F93CF939A
:10282000DF93CDB7DEB72A970FB6F894DEBF0FBEA1
:10283000CDBF29833A834B835C836D837E838F83F3
:1028400098870987EA868A85813009F04AC0898598
:10285000882F90E0009721F1019709F090C08981BD
:1028600061E00E94C5008A8161E00E94C5008B8101
:1028700061E00E94C5008C8161E00E94C5008D81ED
:1028800061E00E94C5008E8161E00E94C5008F81D9
:1028900061E00E94C500888561E00E94C5006FC0AC
:1028A000898160E00E94C5008A8160E00E94C500C5
:1028B0008B8160E00E94C5008C8160E00E94C500B1
:1028C0008D8160E00E94C5008E8160E00E94C5009D
:1028D0008F8160E00E94C500888560E00E94C5008D
:1028E0004EC08A85882309F04AC08985882F90E0E8
:1028F000009721F1019709F042C0898160E00E94B0
:10290000C5008A8160E00E94C5008B8160E00E9462
:10291000C5008C8160E00E94C5008D8160E00E944E
:10292000C5008E8160E00E94C5008F8160E00E943A
:10293000C500888560E00E94C50021C0898161E0F2
:102940000E94C5008A8161E00E94C5008B8161E020
:102950000E94C5008C8161E00E94C5008D8161E00C
:102960000E94C5008E8161E00E94C5008F8161E0F8
:102970000E94C500888561E00E94C500000000003B
:102980002A960FB6F894DEBF0FBECDBFDF91CF9170
:102990000F91EF900895CF93DF93CDB7DEB70E94EC
:1029A00070100E947810FDCFEE0FFF1F0590F4917C
:1029B000E02D09940E94801508F481E008950E949A
:1029C000F3140C94BB150E94B41558F00E94AD1579
:1029D00040F029F45F3F29F00C94A41551110C9498
:1029E000EF150C94AA150E94CC1568F39923B1F346
:1029F000552391F3951B550BBB27AA276217730725
:102A0000840738F09F5F5F4F220F331F441FAA1FB8
:102A1000A9F335D00E2E3AF0E0E832D09150504074
:102A2000E695001CCAF72BD0FE2F29D0660F771F22
:102A3000881FBB1F261737074807AB07B0E809F008
:102A4000BB0B802DBF01FF2793585F4F3AF09E3F8D
:102A5000510578F00C94A4150C94EF155F3FE4F346
:102A6000983ED4F3869577956795B795F7959F5FD0
:102A7000C9F7880F911D9695879597F90895E1E01C
:102A8000660F771F881FBB1F621773078407BA077B
:102A900020F0621B730B840BBA0BEE1F88F7E095D6
:102AA00008950E94D41588F09F5798F0B92F992760
:102AB000B751B0F0E1F0660F771F881F991F1AF029
:102AC000BA95C9F714C0B13091F00E94EE15B1E08B
:102AD00008950C94EE15672F782F8827B85F39F08A
:102AE000B93FCCF3869577956795B395D9F73EF4C2
:102AF00090958095709561957F4F8F4F9F4F08956A
:102B0000990F0008550FAA0BE0E8FEEF16161706FE
:102B1000E807F907C0F012161306E407F50798F066
:102B2000621B730B840B950B39F40A2661F0232B7F
:102B3000242B252B21F408950A2609F4A140A695FB
:102B40008FEF811D811D089597F99F6780E870E0E0
:102B500060E008959FEF80EC089500240A94161613
:102B6000170618060906089500240A94121613067B
:102B7000140605060895092E0394000C11F4882309
:102B800052F0BB0F40F4BF2B11F460FF04C06F5F25
:102B90007F4F8F4F9F4F089557FD9058440F551FFB
:102BA00059F05F3F71F04795880F97FB991F61F0CF
:102BB0009F3F79F087950895121613061406551F46
:102BC000F2CF4695F1DF08C0161617061806991FB2
:102BD000F1CF86957105610508940895E894BB27A7
:102BE00066277727CB0197F908950E94801508F48E
:102BF0008FEF08950E940D160C94BB150E94AD1521
:102C000038F00E94B41520F0952311F00C94A4150F
:102C10000C94AA1511240C94EF150E94CC1570F396
:102C2000959FC1F3950F50E0551F629FF001729F71
:102C3000BB27F00DB11D639FAA27F00DB11DAA1F80
:102C4000649F6627B00DA11D661F829F2227B00DCD
:102C5000A11D621F739FB00DA11D621F839FA00D58
:102C6000611D221F749F3327A00D611D231F849FA8
:102C7000600D211D822F762F6A2F11249F575040FF
:102C80009AF0F1F088234AF0EE0FFF1FBB1F661F7A
:102C9000771F881F91505040A9F79E3F510580F043
:102CA0000C94A4150C94EF155F3FE4F3983ED4F315
:102CB000869577956795B795F795E7959F5FC1F7E7
:102CC000FE2B880F911D9695879597F90895DC0145
:102CD00001C06D9341505040E0F70895AEE0B0E080
:102CE000E4E7F6E10C942F190D891E8986E08C83A8
:102CF0001A8309838FEF9FE79E838D83AE01475E22
:102D00005F4F6F89788DCE0101960E949016EF81FA
:102D1000F885E00FF11F10822E96E4E00C944B1919
:102D2000ABE0B0E0E6E9F6E10C9421196C017B011F
:102D30008A01FC0117821682838181FFCCC1CE01FA
:102D400001963C01F6019381F70193FD859193FF74
:102D500081917F01882309F4BAC1853239F493FD4A
:102D6000859193FF81917F01853229F4B60190E02E
:102D70000E948718E7CF912C212C312CFFE1F3150D
:102D8000D8F08B3279F038F4803279F08332A1F4C4
:102D9000232D20611DC08D3261F0803369F4232D15
:102DA000216016C0832D8260382EE32DE4603E2E14
:102DB0002AC0F32DF8601DC037FC2DC020ED280F70
:102DC0002A3040F08E32B9F436FC81C1232D2064C4
:102DD000322E19C036FE06C08AE0989E200D1124BE
:102DE000922E11C0EAE02E9E200D1124222EF32DEA
:102DF000F0623F2E08C08C3621F4832D8068382E77
:102E000002C0883641F4F70193FD859193FF8191CB
:102E10007F018111B3CF982F9F7D9554933028F473
:102E20000C5F1F4F9FE399830DC0833631F08337CA
:102E300071F0833509F059C021C0F8018081898380
:102E40000E5F1F4F88248394912C530113C02801D7
:102E5000F2E04F0E511CF801A080B18036FE03C095
:102E6000692D70E002C06FEF7FEFC5010E947C18F2
:102E70004C018201F32DFF773F2E16C0280122E07E
:102E8000420E511CF801A080B18036FE03C0692DAE
:102E900070E002C06FEF7FEFC5010E9471184C0116
:102EA000F32DF0683F2E820133FC1BC0822D90E091
:102EB00088169906B0F4B60180E290E00E94871867
:102EC0002A94F4CFF50137FC859137FE81915F019B
:102ED000B60190E00E94871821102A9421E0821AFE
:102EE00091088114910471F7E8C0843611F0893695
:102EF00041F5F80137FE07C06081718182819381BD
:102F00000C5F1F4F08C060817181072E000C880B79
:102F1000990B0E5F1F4FF32DFF763F2E97FF09C0D1
:102F200090958095709561957F4F8F4F9F4FF0687A
:102F30003F2E2AE030E0A3010E94C318882E861895
:102F400045C0853731F4232D2F7EB22E2AE030E0A4
:102F500025C0932D997FB92E8F36C1F018F488358E
:102F600079F0B5C0803719F0883721F0B0C0E92F6B
:102F7000E061BE2EB4FE0DC0FB2DF460BF2E09C073
:102F800034FE0AC0292F2660B22E06C028E030E0A9
:102F900005C020E130E002C020E132E0F801B7FED8
:102FA00007C060817181828193810C5F1F4F06C0D1
:102FB0006081718180E090E00E5F1F4FA3010E944D
:102FC000C318882E8618FB2DFF773F2E36FE0DC0C6
:102FD000232D2E7FA22E891458F434FE0BC032FC10
:102FE00009C0832D8E7EA82E05C0B82CA32C03C04B
:102FF000B82C01C0B92CA4FE0FC0FE01E80DF11DD4
:103000008081803321F49A2D997EA92E09C0A2FED9
:1030100006C0B394B39404C08A2D867809F0B394A3
:10302000A3FC11C0A0FE06C0B21488F4280C922C98
:103030009B180EC0B21460F4B60180E290E00E94CA
:103040008718B394F7CFB21418F42B1802C0982C39
:10305000212CA4FE10C0B60180E390E00E948718E6
:10306000A2FE17C0A1FC03C088E790E002C088E57B
:1030700090E0B6010CC08A2D867859F0A1FE02C0FE
:103080008BE201C080E2A7FC8DE2B60190E00E94D5
:103090008718891438F4B60180E390E00E948718FD
:1030A0009A94F7CF8A94F301E80DF11D8081B6015F
:1030B00090E00E9487188110F5CF222009F442CEBB
:1030C000B60180E290E00E9487182A94F6CFF601BC
:1030D0008681978102C08FEF9FEF2B96E2E10C94DF
:1030E0003D19FC010590615070400110D8F78095A2
:1030F00090958E0F9F1F0895FC01615070400190C4
:103100000110D8F7809590958E0F9F1F08950F930B
:103110001F93CF93DF93FB01238121FD03C08FEF2A
:103120009FEF2CC022FF16C0468157812481358134
:103130004217530744F4A081B1819D012F5F3F4F97
:10314000318320838C93268137812F5F3F4F3783D4
:10315000268314C08B01EC01FB010084F185E02D76
:103160000995892BE1F6D80116968D919C911797B8
:10317000019617969C938E931697CE01DF91CF916F
:103180001F910F910895FA01AA27283051F120319B
:1031900081F1E8946F936E7F6E5F7F4F8F4F9F4FEB
:1031A000AF4FB1E03ED0B4E03CD0670F781F891F2D
:1031B0009A1FA11D680F791F8A1F911DA11D6A0FFB
:1031C000711D811D911DA11D20D009F468943F91AE
:1031D0002AE0269F11243019305D3193DEF6CF01AD
:1031E0000895462F4770405D4193B3E00FD0C9F773
:1031F000F6CF462F4F70405D4A3318F0495D31FDE0
:103200004052419302D0A9F7EACFB4E0A695979532
:10321000879577956795BA95C9F700976105710508
:1032200008959B01AC010A2E069457954795379552
:103230002795BA95C9F7620F731F841F951FA01DAC
:1032400008952F923F924F925F926F927F928F924A
:103250009F92AF92BF92CF92DF92EF92FF920F9325
:103260001F93CF93DF93CDB7DEB7CA1BDB0B0FB62F
:10327000F894DEBF0FBECDBF09942A8839884888EC
:103280005F846E847D848C849B84AA84B984C88482
:10329000DF80EE80FD800C811B81AA81B981CE0F79
:1032A000D11D0FB6F894DEBF0FBECDBFED0108955E
:0432B000F894FFCFC0
:1032B4003A003700340031003B003800350032005A
:1032C4003900360033003000161718191A1B1C1D5C
:1032D4001E1F060708090A0B00010203040506075E
:1032E4003738392F343536783132332D23303D2B6E
:1032F40008090C010A0B0D0100010203040506076D
:043304002569000037
:00000001FF
