:100000000C942A000C9447000C9447000C94470071
:100010000C9447000C9447000C9447000C94470044
:100020000C9447000C9447000C9447000C94470034
:100030000C9447000C9447000C9447000C94470024
:100040000C9447000C9447000C9447000C94470014
:100050000C94470011241FBECFE5D4E0DEBFCDBF16
:1000600010E0A0E6B0E0E6ECFDE202C005900D92E3
:10007000AA3AB107D9F720E0AAEAB0E001C01D9280
:10008000AA3AB207E1F70E9466120C94E1160C94AA
:100090000000CF93DF9300D0CDB7DEB789836A83AA
:1000A0008981882F90E08130910501F1823091059E
:1000B000B9F1892B09F04EC08FE590E0FC01208159
:1000C0008FE590E02068FC0120838BE590E0FC0147
:1000D00020818BE590E02064FC0120838A810E94CE
:1000E000B00060E08AE10E94B40134C08FE590E086
:1000F000FC0120818FE590E02068FC0120838BE5E6
:1001000090E0FC0120818BE590E02068FC012083D9
:100110008A810E94190160E08BE10E94B4011AC03B
:100120008FE590E0FC0120818FE590E02068FC01E4
:1001300020838BE590E0FC0120818BE590E020623C
:10014000FC0120838A810E94820160E08BE00E9492
:10015000B401000000000F900F90DF91CF9108953F
:10016000CF93DF931F92CDB7DEB789838981882F24
:1001700090E081309105F9F0823091051CF4892BD3
:1001800039F052C08230910549F10397D1F14CC04A
:1001900085E590E0FC01208185E590E0277FFC016A
:1001A000208385E590E0FC01208185E590E02B7FB0
:1001B000FC01208339C085E590E0FC01208185E5C4
:1001C00090E0277FFC01208385E590E0FC01208101
:1001D00085E590E02460FC01208326C085E590E061
:1001E000FC01208185E590E02860FC01208385E505
:1001F00090E0FC01208185E590E02B7FFC012083CD
:1002000013C085E590E0FC01208185E590E0286041
:10021000FC01208385E590E0FC01208185E590E0EC
:100220002460FC012083000000000F90DF91CF913B
:100230000895CF93DF931F92CDB7DEB7898389816D
:10024000882F90E081309105F9F0823091051CF4FF
:10025000892B39F052C08230910549F10397D1F1D1
:100260004CC085E590E0FC01208185E590E02D7F84
:10027000FC01208385E590E0FC01208185E590E08C
:100280002E7FFC01208339C085E590E0FC012081B0
:1002900085E590E02D7FFC01208385E590E0FC0161
:1002A000208185E590E02160FC01208326C085E562
:1002B00090E0FC01208185E590E02260FC01208334
:1002C00085E590E0FC01208185E590E02E7FFC0132
:1002D000208313C085E590E0FC01208185E590E056
:1002E0002260FC01208385E590E0FC01208185E50A
:1002F00090E02160FC012083000000000F90DF915E
:10030000CF910895CF93DF931F92CDB7DEB7898346
:100310008981882F90E08230910519F0039759F078
:1003200014C084E590E0FC01208184E590E02F7BFF
:10033000FC01208314C084E590E0FC01208184E569
:1003400090E02064FC0120830AC084E590E0FC0179
:10035000208184E590E02F7BFC01208300000000D9
:100360000F90DF91CF910895CF93DF9300D0CDB759
:10037000DEB789836A838A81882F90E0009791F1A4
:10038000019709F05FC08981869586958695882FAB
:1003900090E0880F991F805A9F4FFC0180819181C6
:1003A000FC018081482F8981882F90E09C01277073
:1003B000332781E090E002C0880F991F2A95E2F769
:1003C000242F282B8981869586958695882F90E005
:1003D000880F991F805A9F4FFC0180819181FC01F9
:1003E000208330C08981869586958695882F90E0F8
:1003F000880F991F805A9F4FFC0180819181FC01D9
:100400008081482F8981882F90E09C0127703327B5
:1004100081E090E002C0880F991F2A95E2F780954D
:10042000242F28238981869586958695882F90E0AC
:10043000880F991F805A9F4FFC0180819181FC0198
:100440002083000000000F900F90DF91CF9108955E
:10045000CF93DF9300D0CDB7DEB789836A838A81DB
:10046000882F90E08130910539F08230910509F4B0
:1004700062C0892B81F18EC089818695869586958B
:10048000882F90E0880F991F88599F4FFC01808129
:100490009181FC018081482F8981882F90E09C0107
:1004A0002770332781E090E002C0880F991F2A95BA
:1004B000E2F7242F282B8981869586958695882FAB
:1004C00090E0880F991F88599F4FFC01808191818E
:1004D000FC0120835FC08981869586958695882F4B
:1004E00090E0880F991F88599F4FFC01808191816E
:1004F000FC018081482F8981882F90E09C01277022
:10050000332781E090E002C0880F991F2A95E2F717
:100510008095242F28238981869586958695882F16
:1005200090E0880F991F88599F4FFC01808191812D
:10053000FC0120832FC08981869586958695882F1A
:1005400090E0880F991F88599F4FFC01808191810D
:10055000FC018081482F8981882F90E09C012770C1
:10056000332781E090E002C0880F991F2A95E2F7B7
:10057000242F28278981869586958695882F90E057
:10058000880F991F88599F4FFC0180819181FC0140
:100590002083000000000F900F90DF91CF9108950D
:1005A000CF93DF9300D0CDB7DEB78A8319828A81DB
:1005B000869586958695882F90E0880F991F80599B
:1005C0009F4FFC0180819181FC018081882F90E008
:1005D0002A81222F30E02770332702C09595879516
:1005E0002A95E2F78170898389810F900F90DF91BE
:1005F000CF910895CF93DF9300D000D01F92CDB755
:10060000DEB79B838A836C834D8319829BC08D8167
:10061000882F90E0009721F0019709F449C08FC01E
:100620008981882F90E02A813B81820F931FFC01F2
:100630008081869586958695882F90E0880F991FF2
:10064000805A9F4FFC0180819181FC018081482F5D
:100650008981882F90E02A813B81820F931FFC01C2
:100660008081882F90E09C012770332781E090E003
:1006700002C0880F991F2A95E2F780954823898147
:10068000882F90E02A813B81820F931FFC0180819B
:10069000869586958695882F90E0880F991F805AB9
:1006A0009F4FFC0180819181242FFC01208347C052
:1006B0008981882F90E02A813B81820F931FFC0162
:1006C0008081869586958695882F90E0880F991F62
:1006D000805A9F4FFC0180819181FC018081482FCD
:1006E0008981882F90E02A813B81820F931FFC0132
:1006F0008081882F90E09C012770332781E090E073
:1007000002C0880F991F2A95E2F7482B8981882F0C
:1007100090E02A813B81820F931FFC0180818695A6
:1007200086958695882F90E0880F991F805A9F4F55
:10073000FC0180819181242FFC01208300008981AC
:100740008F5F898399818C81981708F460CF0000AE
:100750000F900F900F900F900F90DF91CF91089511
:10076000CF93DF9300D000D01F92CDB7DEB79B832D
:100770008A836C834D8319829BC08D81882F90E082
:10078000009721F0019709F449C08FC08981882F13
:1007900090E02A813B81820F931FFC018081869526
:1007A00086958695882F90E0880F991F88599F4FCE
:1007B000FC0180819181FC018081482F8981882FF3
:1007C00090E02A813B81820F931FFC018081882F5A
:1007D00090E09C012770332781E090E002C0880FF1
:1007E000991F2A95E2F7809548238981882F90E008
:1007F0002A813B81820F931FFC018081869586951B
:100800008695882F90E0880F991F88599F4FFC018B
:1008100080819181242FFC01208347C08981882F0A
:1008200090E02A813B81820F931FFC018081869595
:1008300086958695882F90E0880F991F88599F4F3D
:10084000FC0180819181FC018081482F8981882F62
:1008500090E02A813B81820F931FFC018081882FC9
:1008600090E09C012770332781E090E002C0880F60
:10087000991F2A95E2F7482B8981882F90E02A81D9
:100880003B81820F931FFC0180818695869586951A
:10089000882F90E0880F991F88599F4FFC01808115
:1008A0009181242FFC012083000089818F5F89833F
:1008B00099818C81981708F460CF00000F900F90F9
:1008C0000F900F900F90DF91CF910895CF93DF930A
:1008D00000D0CDB7DEB789836A838981882F90E005
:1008E000880F991F805A9F4FFC01808191812A8136
:1008F000FC01208300000F900F90DF91CF910895AD
:10090000CF93DF9300D0CDB7DEB789836A83898127
:10091000882F90E0880F991F88599F4FFC01808194
:1009200091812A81FC01208300000F900F90DF91BC
:10093000CF910895CF93DF9300D0CDB7DEB78A83F0
:1009400019828A81882F90E0880F991F80599F4FC4
:10095000FC0180819181FC018081898389810F90D4
:100960000F90DF91CF910895CF93DF93CDB7DEB78E
:1009700087E290E0FC01208187E290E02064FC01A6
:10098000208387E290E0FC01208187E290E02F77CE
:10099000FC01208386E290E0FC01208186E290E069
:1009A0002068FC01208386E290E0FC01208186E241
:1009B00090E02660FC0120830000DF91CF91089534
:1009C000CF93DF931F92CDB7DEB7898380E00F907E
:1009D000DF91CF910895CF93DF93CDB7DEB786E255
:1009E00090E0FC01208186E290E02068FC012083F9
:1009F0000000DF91CF910895CF93DF93CDB7DEB79D
:100A000086E290E0FC01208186E290E02F77FC01F5
:100A100020830000DF91CF910895CF93DF93CDB76E
:100A2000DEB78FE590E0FC0120818FE590E0206843
:100A3000FC01208386E290E0FC01208186E290E0C8
:100A40002860FC0120830000DF91CF910895CF93AF
:100A5000DF93CDB7DEB786E290E0FC01208186E22D
:100A600090E0277FFC0120830000DF91CF91089563
:100A7000CF93DF93CDB7DEB786E290E0FC01208113
:100A800086E290E02F7EFC0120830000DF91CF9171
:100A90000895CF93DF9300D0CDB7DEB79A838983D3
:100AA000898161E00E94B4018A8160E00E94B40102
:100AB00000000F900F90DF91CF910895CF93DF93B7
:100AC000CDB7DEB76F970FB6F894DEBF0FBECDBFC0
:100AD0009E8F8D8F6F8F8D8D60E00E94280280E049
:100AE00090E0A0E0B0E48F87988BA98BBA8B20E0D0
:100AF00030E04AE753E46F85788989899A890E94B2
:100B00009513DC01CB018B8B9C8BAD8BBE8B20E0D6
:100B100030E040E85FE36B897C898D899E890E9483
:100B2000751288232CF481E090E0988F8F8B3FC062
:100B300020E03FEF4FE757E46B897C898D899E89E0
:100B40000E94901318164CF520E030E040E251E48A
:100B50006F85788989899A890E949513DC01CB0178
:100B6000BC01CD010E94EC12DC01CB01988F8F8B70
:100B70000FC089E190E09A8F898F898D9A8D0197B6
:100B8000F1F79A8F898F8F89988D0197988F8F8B26
:100B90008F89988D892B69F714C06B897C898D8921
:100BA0009E890E94EC12DC01CB01988F8F8B8F897C
:100BB000988D9C8F8B8F8B8D9C8D0197F1F79C8FDF
:100BC0008B8F8D8D61E00E94280280E090E0A0E292
:100BD000B1E489839A83AB83BC8320E030E04AE7A9
:100BE00053E469817A818B819C810E949513DC0199
:100BF000CB018D839E83AF83B88720E030E040E84F
:100C00005FE36D817E818F8198850E9475128823B4
:100C10002CF481E090E09A8789873FC020E03FEF85
:100C20004FE757E46D817E818F8198850E949013F4
:100C300018164CF520E030E040E251E469817A81F9
:100C40008B819C810E949513DC01CB01BC01CD01FD
:100C50000E94EC12DC01CB019A8789870FC089E1E1
:100C600090E09C878B878B859C850197F1F79C870B
:100C70008B8789859A8501979A87898789859A853F
:100C8000892B69F714C06D817E818F8198850E94C0
:100C9000EC12DC01CB019A87898789859A859E872A
:100CA0008D878D859E850197F1F79E878D878D8D28
:100CB00060E00E94280200006F960FB6F894DEBF35
:100CC0000FBECDBFDF91CF910895CF93DF93CDB706
:100CD000DEB7C354D1090FB6F894DEBF0FBECDBF47
:100CE0004EAF5FAF9E01205C3F4FF90160839E01D4
:100CF0002F5B3F4FF90170839E012E5B3F4FF9013F
:100D000080839E012D5B3F4FF901908319828FAD47
:100D100061E00E94B4018EAD61E00E94B4011982CD
:100D200010C08981882F90E09E01205C3F4F820F88
:100D3000931FFC01808161E00E94B40189818F5F73
:100D400089838981843068F380E090E0A0EAB1E48F
:100D500088AB99ABAAABBBAB20E030E04AE753E4E9
:100D600068A979A98AA99BA90E949513DC01CB01E6
:100D70008CAB9DABAEABBFAB20E030E040E85FE3B7
:100D80006CA97DA98EA99FA90E94751288232CF4B5
:100D900081E090E099AF88AF3FC020E03FEF4FE7A0
:100DA00057E46CA97DA98EA99FA90E9490131816DB
:100DB0004CF520E030E040E251E468A979A98AA925
:100DC0009BA90E949513DC01CB01BC01CD010E94BF
:100DD000EC12DC01CB0199AF88AF0FC089E190E044
:100DE0009BAF8AAF8AAD9BAD0197F1F79BAF8AAFFE
:100DF00088AD99AD019799AF88AF88AD99AD892B32
:100E000069F714C06CA97DA98EA99FA90E94EC1254
:100E1000DC01CB0199AF88AF88AD99AD9DAF8CAFA8
:100E20008CAD9DAD0197F1F79DAF8CAF28E34EAD32
:100E30005FADCE01805C9F4FFC016081CE018F5B76
:100E40009F4FFC017081CE018E5B9F4FFC01808122
:100E5000FE01ED5BFF4F90810E945A0980E090E017
:100E6000A0EAB0E48AA39BA3ACA3BDA320E030E03A
:100E70004AE753E46AA17BA18CA19DA10E9495132E
:100E8000DC01CB018EA39FA3A8A7B9A720E030E087
:100E900040E85FE36EA17FA188A599A50E94751225
:100EA00088232CF481E090E09BA78AA73FC020E034
:100EB0003FEF4FE757E46EA17FA188A599A50E9457
:100EC000901318164CF520E030E040E251E46AA19E
:100ED0007BA18CA19DA10E949513DC01CB01BC01DB
:100EE000CD010E94EC12DC01CB019BA78AA70FC0A9
:100EF00089E190E09DA78CA78CA59DA50197F1F7AE
:100F00009DA78CA78AA59BA501979BA78AA78AA5C1
:100F10009BA5892B69F714C06EA17FA188A599A50F
:100F20000E94EC12DC01CB019BA78AA78AA59BA596
:100F30009FA78EA78EA59FA50197F1F79FA78EA7C4
:100F400028E34EAD5FADCE01805C9F4FFC01608118
:100F5000CE018F5B9F4FFC017081CE018E5B9F4F56
:100F6000FC018081FE01ED5BFF4F90810E945A09D8
:100F700080E090E0A6E1B3E48A839B83AC83BD83E9
:100F80002BEA3AEA4AEA5EE36A817B818C819D81A1
:100F90000E949513DC01CB018E839F83A887B987BC
:100FA00020E030E040E85EE36A817B818C819D81B6
:100FB0000E949513DC01CB018A879B87AC87BD8794
:100FC00020E030E040E85FE36E817F81888599858D
:100FD0000E94751288231CF481E08E87B2C020E045
:100FE0003FEF4FE757E46A857B858C859D850E949E
:100FF000901318160CF07BC020E030E04AE754E470
:101000006A817B818C819D810E947A12DC01CB01F7
:101010008F87988BA98BBA8B20E030E04AE753E4A6
:101020006F85788989899A890E949513DC01CB01A3
:101030008B8B9C8BAD8BBE8B20E030E040E85FE378
:101040006B897C898D899E890E94751288232CF476
:1010500081E090E0988F8F8B3FC020E03FEF4FE71B
:1010600057E46B897C898D899E890E94901318169C
:101070004CF520E030E040E251E46F8578898989C1
:101080009A890E949513DC01CB01BC01CD010E941D
:10109000EC12DC01CB01988F8F8B0FC089E190E0BF
:1010A0009A8F898F898D9A8D0197F1F79A8F898F01
:1010B0008F89988D0197988F8F8B8F89988D892B29
:1010C00069F73FC06B897C898D899E890E94EC12EB
:1010D000DC01CB01988F8F8B8F89988D9C8F8B8FA4
:1010E0008B8D9C8D0197F1F79C8F8B8F2AC020E010
:1010F00030E04FE753E46E817F81888599850E94B7
:1011000090131816ACF46A857B858C859D850E94AA
:10111000EC12DC01CB019E8F8D8F8D8D9E8D98A35F
:101120008F8F8F8D98A10197F1F798A38F8F0FC0A4
:101130006E817F81888599850E94EC12DC01CB014C
:101140008E878E8589A389A18A95F1F789A328E3E3
:101150004EAD5FADCE01805C9F4FFC016081CE0142
:101160008F5B9F4FFC017081CE018E5B9F4FFC0116
:101170008081FE01ED5BFF4F90810E945A0921E0C2
:101180004EAD5FADCE01805C9F4FFC016081CE0112
:101190008F5B9F4FFC017081CE018E5B9F4FFC01E6
:1011A0008081FE01ED5BFF4F90810E945A0922E091
:1011B0004EAD5FADCE01805C9F4FFC016081CE01E2
:1011C0008F5B9F4FFC017081CE018E5B9F4FFC01B6
:1011D0008081FE01ED5BFF4F90810E945A0926E05D
:1011E0004EAD5FADCE01805C9F4FFC016081CE01B2
:1011F0008F5B9F4FFC017081CE018E5B9F4FFC0186
:101200008081FE01ED5BFF4F90810E945A092CE026
:101210004EAD5FADCE01805C9F4FFC016081CE0181
:101220008F5B9F4FFC017081CE018E5B9F4FFC0155
:101230008081FE01ED5BFF4F90810E945A0928E2F8
:101240004EAD5FADCE01805C9F4FFC016081CE0151
:101250008F5B9F4FFC017081CE018E5B9F4FFC0125
:101260008081FE01ED5BFF4F90810E945A0920E8CA
:101270004EAD5FADCE01805C9F4FFC016081CE0121
:101280008F5B9F4FFC017081CE018E5B9F4FFC01F5
:101290008081FE01ED5BFF4F90810E945A090000A2
:1012A000CD5BDF4F0FB6F894DEBF0FBECDBFDF9131
:1012B000CF910895CF93DF9300D000D000D01F923C
:1012C000CDB7DEB749835A836B837C838D839E833E
:1012D0002F83898160E00E9428028F8182958F7020
:1012E000282F49815A816B817C818D819E810E944A
:1012F0002C0B49815A816B817C818D819E810E945A
:10130000670B2F8149815A816B817C818D819E8100
:101310000E942C0B49815A816B817C818D819E8139
:101320000E94670B000027960FB6F894DEBF0FBE31
:10133000CDBFDF91CF910895CF93DF9300D000D040
:1013400000D01F92CDB7DEB749835A836B837C836D
:101350008D839E832F83898161E00E9428028F8183
:1013600082958F70282F49815A816B817C818D8174
:101370009E810E942C0B49815A816B817C818D81D9
:101380009E810E94670B2F8149815A816B817C81EC
:101390008D819E810E942C0B49815A816B817C81B9
:1013A0008D819E810E94670B000027960FB6F894EE
:1013B000DEBF0FBECDBFDF91CF910895EF920F93A7
:1013C000CF93DF93CDB7DEB729970FB6F894DEBF82
:1013D0000FBECDBF49835A836B837C838D839E83ED
:1013E0002F830887E98608852F8149815A816B817F
:1013F0007C818D819E810E94780C298549815A814A
:101400006B817C818D819E810E949C0900002996C0
:101410000FB6F894DEBF0FBECDBFDF91CF910F9115
:10142000EF900895CF93DF93CDB7DEB728970FB62F
:10143000F894DEBF0FBECDBF49835A836B837C8394
:101440008D839E8338872F8312C08F8198859C015E
:101450002F5F3F4F38872F83FC018081282F4981E0
:101460005A816B817C818D819E810E949C098F8134
:101470009885FC018081882341F7000028960FB6EB
:10148000F894DEBF0FBECDBFDF91CF910895EF92EC
:10149000FF920F93CF93DF93CDB7DEB72A970FB6A6
:1014A000F894DEBF0FBECDBF49835A836B837C8324
:1014B0008D839E832F830887FA86E98608852F818E
:1014C00049815A816B817C818D819E810E94780C3B
:1014D00012C089859A859C012F5F3F4F3A872987E3
:1014E000FC018081282F49815A816B817C818D810B
:1014F0009E810E949C0989859A85FC0180818823B0
:1015000041F700002A960FB6F894DEBF0FBECDBF9C
:10151000DF91CF910F91FF90EF900895CF93DF93DC
:1015200000D01F92CDB7DEB789837B836A838A811F
:101530009B8144E050E060E070E00E9402148981E9
:10154000882F90E0292F2F938F9386EA90E0892FA0
:101550008F9386EA90E08F938B818F938A818F930C
:101560000E9409140F900F900F900F900F900F9002
:1015700000000F900F900F90DF91CF910895CF93BF
:10158000DF9300D000D0CDB7DEB79A8389837C8308
:101590006B838B819C8146E050E060E070E00E94AC
:1015A00002148A818F9389818F9386EA90E0892F34
:1015B0008F9386EA90E08F938C818F938B818F93AA
:1015C0000E9409140F900F900F900F900F900F90A2
:1015D00000000F900F900F900F90DF91CF91089522
:1015E000CF93DF9300D000D000D0CDB7DEB76983B2
:1015F0007A838B839C835E834D838D819E814BE0B8
:1016000050E060E070E00E9402148C818F938B8127
:101610008F938A818F9389818F9386EA90E0892FB7
:101620008F9386EA90E08F938E818F938D818F9335
:101630000E9409148DB79EB708960FB6F894DEBFC6
:101640000FBECDBF000026960FB6F894DEBF0FBECA
:10165000CDBFDF91CF910895CF93DF9300D000D01D
:1016600000D01F92CDB7DEB749835A836B837C834A
:101670008D839E832F838F81982F91708B81692F0B
:101680000E9428028F818695982F91708C81692FF6
:101690000E9428028F8186958695982F91708D8162
:1016A000692F0E9428028F81869586958695982FAE
:1016B00091708E81692F0E942802000027960FB634
:1016C000F894DEBF0FBECDBFDF91CF910895CF93C9
:1016D000DF93CDB7DEB7A6970FB6F894DEBF0FBE87
:1016E000CDBF49A35AA36BA37CA38DA39EA38AA1BC
:1016F00061E00E94280280E090E0A0EAB0E48983E3
:101700009A83AB83BC832BEA3AEA4AEA5EE36981B7
:101710007A818B819C810E949513DC01CB018D83A2
:101720009E83AF83B88720E030E040E85EE36981C4
:101730007A818B819C810E949513DC01CB01898782
:101740009A87AB87BC8720E030E040E85FE36D819B
:101750007E818F8198850E94751288231CF481E018
:101760008D87B2C020E03FEF4FE757E469857A8567
:101770008B859C850E94901318160CF07BC020E08E
:1017800030E04AE754E469817A818B819C810E9430
:101790007A12DC01CB018E879F87A88BB98B20E062
:1017A00030E04AE753E46E857F85888999890E94F5
:1017B0009513DC01CB018A8B9B8BAC8BBD8B20E01E
:1017C00030E040E85FE36A897B898C899D890E94CB
:1017D000751288232CF481E090E09F8B8E8B3FC0A4
:1017E00020E03FEF4FE757E46A897B898C899D8928
:1017F0000E94901318164CF520E030E040E251E4CE
:101800006E857F85888999890E949513DC01CB01BB
:10181000BC01CD010E94EC12DC01CB019F8B8E8BB1
:101820000FC089E190E0998F888F888D998D0197FD
:10183000F1F7998F888F8E899F8901979F8B8E8B67
:101840008E899F89892B69F73FC06A897B898C893A
:101850009D890E94EC12DC01CB019F8B8E8B8E89BF
:101860009F899B8F8A8F8A8D9B8D0197F1F79B8F24
:101870008A8F2AC020E030E04FE753E46D817E81FB
:101880008F8198850E9490131816ACF469857A852B
:101890008B859C850E94EC12DC01CB019D8F8C8F87
:1018A0008C8D9D8D9F8F8E8F8E8D9F8D0197F1F7E3
:1018B0009F8F8E8F0FC06D817E818F8198850E9452
:1018C000EC12DC01CB018D878D8588A388A18A95D8
:1018D000F1F788A38AA160E00E9428020000A69682
:1018E0000FB6F894DEBF0FBECDBFDF91CF91089544
:1018F0000F93CF93DF93CDB7DEB728970FB6F89449
:10190000DEBF0FBECDBF49835A836B837C838D833B
:101910009E832F8308878885815088878F81882FB1
:1019200090E082309105C1F0833091051CF401975D
:1019300039F036C083309105D9F0049729F130C0D1
:1019400088858058282F49815A816B817C818D81BF
:101950009E810E945A0924C088858054282F49817D
:101960005A816B817C818D819E810E945A0918C0A9
:1019700088858057282F49815A816B817C818D8190
:101980009E810E945A090CC088858053282F498166
:101990005A816B817C818D819E810E945A09000051
:1019A000000028960FB6F894DEBF0FBECDBFDF91C2
:1019B000CF910F910895CF93DF93CDB7DEB72A97DC
:1019C0000FB6F894DEBF0FBECDBF2B833C834D8393
:1019D0005E836F83788789879A8719821A82198232
:1019E00010C08981882F90E09E012D5F3F4F820FAC
:1019F000931FFC01808161E00E94B40189818F5FA7
:101A000089838981843068F31A8210C08A81882F83
:101A100090E09E01295F3F4F820F931FFC01808160
:101A200060E00E94B4018A818F5F8A838A8184305A
:101A300068F300002A960FB6F894DEBF0FBECDBF44
:101A4000DF91CF9108950F931F93CF93DF93CDB77D
:101A5000DEB7AA970FB6F894DEBF0FBECDBF29A39D
:101A60003AA34BA35CA36DA37EA38FA398A71AA749
:101A700009A719821A821B821C82198234C11B8217
:101A800010C08B81882F90E09E012F5D3F4F820F09
:101A9000931FFC01808160E00E9428028B818F5F90
:101AA0008B838B81843068F38981882F90E09E013D
:101AB0002F5D3F4F820F931FFC01808161E00E94E8
:101AC000280280E090E0A8E4B2E48D839E83AF8397
:101AD000B88720E030E04AE753E46D817E818F8152
:101AE00098850E949513DC01CB0189879A87AB8783
:101AF000BC8720E030E040E85FE369857A858B852C
:101B00009C850E94751288232CF481E090E09E87CA
:101B10008D873FC020E03FEF4FE757E469857A8526
:101B20008B859C850E94901318164CF520E030E0C0
:101B300040E251E46D817E818F8198850E949513EA
:101B4000DC01CB01BC01CD010E94EC12DC01CB0118
:101B50009E878D870FC089E190E0988B8F878F8556
:101B600098890197F1F7988B8F878D859E850197CE
:101B70009E878D878D859E85892B69F714C0698521
:101B80007A858B859C850E94EC12DC01CB019E87B7
:101B90008D878D859E859A8B898B89899A890197F6
:101BA000F1F79A8B898B1A8297C08A81882F90E0EF
:101BB0009E012B5D3F4F820F931FFC0180810E948D
:101BC000D00280E090E0A8E4B2E48B8B9C8BAD8BDC
:101BD000BE8B20E030E04AE753E46B897C898D8935
:101BE0009E890E949513DC01CB018F8B988FA98F62
:101BF000BA8F20E030E040E85FE36F89788D898D0F
:101C00009A8D0E94751288232CF481E090E09C8FBD
:101C10008B8F3FC020E03FEF4FE757E46F89788D0F
:101C2000898D9A8D0E94901318164CF520E030E0B3
:101C300040E251E46B897C898D899E890E949513CD
:101C4000DC01CB01BC01CD010E94EC12DC01CB0117
:101C50009C8F8B8F0FC089E190E09E8F8D8F8D8D33
:101C60009E8D0197F1F79E8F8D8F8B8D9C8D0197A7
:101C70009C8F8B8F8B8D9C8D892B69F714C06F89FE
:101C8000788D898D9A8D0E94EC12DC01CB019C8F9E
:101C90008B8F8B8D9C8D98A38F8F8F8D98A10197A3
:101CA000F1F798A38F8F8C81813099F48981282F47
:101CB00030E08A81882F90E0220F331F220F331FDC
:101CC000820F931F88579F4F282F89A59AA5FC0143
:101CD00020838A818F5F8A838A81843008F465CF6C
:101CE00089818F5F89838981843008F4C8CE0000A0
:101CF000AA960FB6F894DEBF0FBECDBFDF91CF918D
:101D00001F910F910895CF93DF93CDB7DEB70000F9
:101D1000DF91CF910895CF93DF93CDB7DEB7000069
:101D2000DF91CF910895CF93DF9300D000D000D002
:101D3000CDB7DEB769837A838B832C833D834E8353
:101D40008091980061E00E94B4018091990061E067
:101D50000E94B40180919A0061E00E94B4018091D8
:101D60009B0061E00E94B40180919C0061E00E94B0
:101D7000B40180919D0061E00E94B40100002696AC
:101D80000FB6F894DEBF0FBECDBFDF91CF9108959F
:101D9000CF93DF9300D000D000D0CDB7DEB76983FA
:101DA0007A838B832C833D834E83898161E00E94FB
:101DB00028028A8160E00E9428028B8161E00E94F3
:101DC00028028C8161E00E9428028D8160E00E94DF
:101DD00028028E8161E00E942802000026960FB63C
:101DE000F894DEBF0FBECDBFDF91CF910895CF93A2
:101DF000DF9300D000D000D0CDB7DEB769837A83FF
:101E00008B832C833D834E83898160E00E9428026E
:101E10008A8161E00E9428028B8161E00E94280291
:101E20008C8160E00E9428028D8161E00E9428027E
:101E30008E8161E00E942802000026960FB6F89479
:101E4000DEBF0FBECDBFDF91CF910895CF93DF935B
:101E500000D000D000D0CDB7DEB769837A838B8302
:101E60002C833D834E83898160E00E9428028A8111
:101E700060E00E9428028B8160E00E9428028C8131
:101E800060E00E9428028D8160E00E9428028E811D
:101E900060E00E942802000026960FB6F894DEBF8C
:101EA0000FBECDBFDF91CF910895CF93DF9300D0C8
:101EB00000D0CDB7DEB769837A838B839C83898119
:101EC00061E00E94B4018A8161E00E94B4018B81CB
:101ED00061E00E94B4018C8161E00E94B4010000C5
:101EE0000F900F900F900F90DF91CF910895CF93A7
:101EF000DF9300D000D01F92CDB7DEB769837A831D
:101F00008B839C834D838D81882F90E0092E000C5C
:101F1000AA0BBB0B8A309105A105B10508F0B9C029
:101F20008B56904FFC010C946F129F0FB00FC10F96
:101F3000D20FE30FF40F0510161027103810898107
:101F400060E00E9428028A8160E00E9428028B8162
:101F500060E00E9428028C8160E00E9428029AC002
:101F6000898161E00E9428028A8160E00E94280243
:101F70008B8160E00E9428028C8160E00E94280230
:101F800089C0898160E00E9428028A8161E00E9404
:101F900028028B8160E00E9428028C8160E00E9410
:101FA000280278C0898161E00E9428028A8161E06C
:101FB0000E9428028B8160E00E9428028C8160E0F0
:101FC0000E94280267C0898160E00E9428028A81FD
:101FD00060E00E9428028B8161E00E9428028C81CF
:101FE00060E00E94280256C0898161E00E942802B8
:101FF0008A8160E00E9428028B8161E00E942802B1
:102000008C8160E00E94280245C0898160E00E94C6
:1020100028028A8161E00E9428028B8161E00E948F
:1020200028028C8160E00E94280234C0898161E02E
:102030000E9428028A8161E00E9428028B8161E06F
:102040000E9428028C8160E00E94280223C08981BE
:1020500060E00E9428028A8160E00E9428028B8151
:1020600060E00E9428028C8161E00E94280212C078
:10207000898161E00E9428028A8160E00E94280232
:102080008B8160E00E9428028C8161E00E9428021E
:1020900001C0000000000F900F900F900F900F9064
:1020A000DF91CF910895CF93DF9300D000D0CDB7CB
:1020B000DEB79A8389836B834C838C818130D1F422
:1020C0008B81882F90E0009761F0019709F02FC075
:1020D000898161E00E9428028A8161E00E942802D1
:1020E00026C0898160E00E9428028A8160E00E9407
:1020F00028021DC08C818823D1F48B81882F90E029
:10210000009761F0019709F012C0898160E00E9498
:1021100028028A8160E00E94280209C0898161E06A
:102120000E9428028A8161E00E94280200000000CB
:102130000F900F900F900F90DF91CF910895CF9354
:10214000DF9300D000D000D0CDB7DEB769837A83AB
:102150008B839C834D832E838E81813051F58D81BD
:10216000882F90E00097A1F0019709F04FC0898176
:1021700061E00E9428028A8161E00E9428028B812E
:1021800061E00E9428028C8161E00E9428023EC02A
:10219000898160E00E9428028A8160E00E94280212
:1021A0008B8160E00E9428028C8160E00E942802FE
:1021B0002DC08E81882351F58D81882F90E0009766
:1021C000A1F0019709F022C0898160E00E942802F5
:1021D0008A8160E00E9428028B8160E00E942802D0
:1021E0008C8160E00E94280211C0898161E00E9418
:1021F00028028A8161E00E9428028B8161E00E94AE
:1022000028028C8161E00E942802000000002696CE
:102210000FB6F894DEBF0FBECDBFDF91CF9108950A
:102220000F93CF93DF93CDB7DEB728970FB6F8940F
:10223000DEBF0FBECDBF49835A836B837C838D8302
:102240009E832F83088788858130D1F58F81882FE1
:1022500090E00097E1F0019709F06FC0898161E09B
:102260000E9428028A8161E00E9428028B8161E03D
:102270000E9428028C8161E00E9428028D8161E029
:102280000E9428028E8161E00E94280256C0898146
:1022900060E00E9428028A8160E00E9428028B810F
:1022A00060E00E9428028C8160E00E9428028D81FB
:1022B00060E00E9428028E8160E00E9428023DC0FA
:1022C00088858823D1F58F81882F90E00097E1F0F1
:1022D000019709F032C0898160E00E9428028A815A
:1022E00060E00E9428028B8160E00E9428028C81BD
:1022F00060E00E9428028D8160E00E9428028E81A9
:1023000060E00E94280219C0898161E00E942802D1
:102310008A8161E00E9428028B8161E00E9428028C
:102320008C8161E00E9428028D8161E00E94280278
:102330008E8161E00E9428020000000028960FB6FE
:10234000F894DEBF0FBECDBFDF91CF910F910895FE
:10235000EF920F93CF93DF93CDB7DEB72A970FB6E7
:10236000F894DEBF0FBECDBF29833A834B835C83D5
:102370006D837E838F8398870987EA868A8581307B
:1023800009F04AC08985882F90E0009721F10197D4
:1023900009F090C0898161E00E9428028A8161E091
:1023A0000E9428028B8161E00E9428028C8161E0FA
:1023B0000E9428028D8161E00E9428028E8161E0E6
:1023C0000E9428028F8161E00E942802888561E0D6
:1023D0000E9428026FC0898160E00E9428028A81E1
:1023E00060E00E9428028B8160E00E9428028C81BC
:1023F00060E00E9428028D8160E00E9428028E81A8
:1024000060E00E9428028F8160E00E942802888597
:1024100060E00E9428024EC08A85882309F04AC0E5
:102420008985882F90E0009721F1019709F042C03B
:10243000898160E00E9428028A8160E00E9428026F
:102440008B8160E00E9428028C8160E00E9428025B
:102450008D8160E00E9428028E8160E00E94280247
:102460008F8160E00E942802888560E00E94280237
:1024700021C0898161E00E9428028A8161E00E9476
:1024800028028B8161E00E9428028C8161E00E9419
:1024900028028D8161E00E9428028E8161E00E9405
:1024A00028028F8161E00E942802888561E00E94F5
:1024B0002802000000002A960FB6F894DEBF0FBE77
:1024C000CDBFDF91CF910F91EF900895CF93DF9320
:1024D000CDB7DEB70E94830E0E948B0EFDCFEE0FAC
:1024E000FF1F0590F491E02D09940E941B1308F43E
:1024F00081E008950E948E120C9456130E944F138F
:1025000058F00E94481340F029F45F3F29F00C94E2
:102510003F1351110C948A130C9445130E946713B6
:1025200068F39923B1F3552391F3951B550BBB2702
:10253000AA2762177307840738F09F5F5F4F220F47
:10254000331F441FAA1FA9F335D00E2E3AF0E0E83E
:1025500032D091505040E695001CCAF72BD0FE2F88
:1025600029D0660F771F881FBB1F2617370748071C
:10257000AB07B0E809F0BB0B802DBF01FF279358D4
:102580005F4F3AF09E3F510578F00C943F130C9446
:102590008A135F3FE4F3983ED4F386957795679569
:1025A000B795F7959F5FC9F7880F911D9695879509
:1025B00097F90895E1E0660F771F881FBB1F621728
:1025C00073078407BA0720F0621B730B840BBA0BE6
:1025D000EE1F88F7E09508950E946F1388F09F57CB
:1025E00098F0B92F9927B751B0F0E1F0660F771F37
:1025F000881F991F1AF0BA95C9F714C0B13091F02D
:102600000E948913B1E008950C948913672F782FE5
:102610008827B85F39F0B93FCCF3869577956795F1
:10262000B395D9F73EF490958095709561957F4F5D
:102630008F4F9F4F0895990F0008550FAA0BE0E8A0
:10264000FEEF16161706E807F907C0F01216130674
:10265000E407F50798F0621B730B840B950B39F4B4
:102660000A2661F0232B242B252B21F408950A261A
:1026700009F4A140A6958FEF811D811D089597F95A
:102680009F6780E870E060E008959FEF80EC089518
:1026900000240A9416161706180609060895002441
:1026A0000A9412161306140605060895092E0394BB
:1026B000000C11F4882352F0BB0F40F4BF2B11F42F
:1026C00060FF04C06F5F7F4F8F4F9F4F089557FD8E
:1026D0009058440F551F59F05F3F71F04795880F90
:1026E00097FB991F61F09F3F79F087950895121627
:1026F00013061406551FF2CF4695F1DF08C01616D3
:1027000017061806991FF1CF869571056105089483
:102710000895E894BB2766277727CB0197F908959A
:102720000E941B1308F48FEF08950E94A8130C94C5
:1027300056130E94481338F00E944F1320F095233F
:1027400011F00C943F130C94451311240C948A132C
:102750000E94671370F3959FC1F3950F50E0551FCA
:10276000629FF001729FBB27F00DB11D639FAA27E6
:10277000F00DB11DAA1F649F6627B00DA11D661F35
:10278000829F2227B00DA11D621F739FB00DA11D56
:10279000621F839FA00D611D221F749F3327A00D10
:1027A000611D231F849F600D211D822F762F6A2FAC
:1027B00011249F5750409AF0F1F088234AF0EE0F11
:1027C000FF1FBB1F661F771F881F91505040A9F73E
:1027D0009E3F510580F00C943F130C948A135F3F89
:1027E000E4F3983ED4F3869577956795B795F7957A
:1027F000E7959F5FC1F7FE2B880F911D96958795F2
:1028000097F90895DC0101C06D9341505040E0F705
:102810000895AEE0B0E0EFE0F4E10C94B8160D8955
:102820001E8986E08C831A8309838FEF9FE79E833E
:102830008D83AE01475E5F4F6F89788DCE01019623
:102840000E942C142F813885020F131FF80110826B
:102850002E96E4E00C94D416ABE0B0E0E2E3F4E1B1
:102860000C94AA167C013B018A01FC011782168296
:10287000838181FFC8C1CE0101965C01F70193817C
:10288000F30193FD859193FF81913F01882309F422
:1028900053C1853239F493FD859193FF81913F01B6
:1028A000853229F4B70190E00E941C16E7CF912CE5
:1028B000212C312CFFE1F31538F08B3211F190F41B
:1028C000803209F1833229F137FC3CC020ED280F1A
:1028D0002A3050F536FE20C08AE0989E200D112443
:1028E000922E06C08D3291F0803371F7689430F8E3
:1028F000F30193FD859193FF81913F018111DACF1F
:1029000021C0689431F8689432F8F2CF689433F8B3
:10291000EFCF689434F8ECCFEAE02E9E200D11241E
:10292000222E689435F8E4CF8E3229F436FC04C1A7
:10293000689436F8DDCF8C3619F4689437F8D8CF20
:102940008836B1F2982F9F7D95549330E0F083360E
:10295000A1F18337C1F1833509F063C02801F2E0AA
:102960004F0E511CF801C080D180692D70E036FCFB
:1029700002C06FEF7FEFC6010E9406164C016894FB
:1029800037F882010AC00C5F1F4FFFE3F9838824E8
:102990008394912C6501E89437F833FE2DC0522CB6
:1029A0008114910471F5552009F468CFB70180E2D4
:1029B00090E00E941C165A94F6CFF801808189831A
:1029C0000E5F1F4FE4CF2801F2E04F0E511CF801BB
:1029D000C080D180692D70E036FC02C06FEF7FEFC0
:1029E000C6010E9411164C018201D5CFB70180E2C9
:1029F00090E00E941C162A942814190409F0B0F7DC
:102A0000CECFF60137FC859137FE81916F01B7017A
:102A100090E00E941C1651105A94F1E08F1A910810
:102A2000BFCF843619F0893609F077C0F80137FE38
:102A30006BC060817181828193810C5F1F4FF32D88
:102A4000FF763F2E97FF09C0909580957095619510
:102A50007F4F8F4F9F4F689437F82AE030E0A501F1
:102A60000E944C16C82ECA188C2C432C36FE0CC063
:102A7000E89440F8C91440F434FE05C032FC03C0A9
:102A8000F32DFE7E4F2E892C44FE95C0FE01EC0DE9
:102A9000F11D8081803309F087C0242D297E422ECC
:102AA000842D8870582E43FC95C040FE8FC09C2C0E
:102AB000821418F42C0C922C981844FE91C0B70183
:102AC00080E390E00E941C1642FE09C088E790E077
:102AD00041FE02C088E590E0B7010E941C16C914AF
:102AE00008F48AC0CA94D12C9FEFC91AD90ACA0C1B
:102AF000DB1CF60182916F01B70190E00E941C1669
:102B0000AC14BD04B1F74FCF60817181072E000C6A
:102B1000880B990B0E5F1F4F92CFD32CE894D4F8FB
:102B20002AE030E0853739F1232D297FD22E8F36E8
:102B300001F148F48835A9F0F701868197812B9639
:102B4000E2E10C94C616803749F08837A9F7D4FE25
:102B500002C06894D2F820E130E00DC06894D4F847
:102B6000F6CF34FE03C0822F8660D82E20E132E0FB
:102B700002C028E030E0F801D7FE0FC0608171810B
:102B8000828193810C5F1F4FA5010E944C16C82EB5
:102B9000CA183D2CE89437F867CF6081718190E0C6
:102BA00080E00E5F1F4FF0CF42FC02C0839478CFCD
:102BB0008394839475CF842D867809F471CFF6CFF2
:102BC000B70180E290E00E941C1683948214C0F347
:102BD000512C73CF522C5818821408F46ECFF8CFB2
:102BE000842D867809F47BCF8BE241FE80E247FC9E
:102BF0008DE2B70190E071CFB70180E390E00E94D1
:102C00001C169A946CCF8FEF9FEF99CFFC01059023
:102C1000615070400110D8F7809590958E0F9F1FDE
:102C20000895FC016150704001900110D8F7809523
:102C300090958E0F9F1F08950F931F93CF93DF934F
:102C4000182F092FEB018B8181FD09C01FEF0FEFBA
:102C5000812F902FDF91CF911F910F91089582FFC7
:102C600014C02E813F818C819D81281739073CF447
:102C7000E881F981CF0101969983888310838E8141
:102C80009F8101969F838E83E3CFE885F985812F0D
:102C90000995892BA1F3DACFFA01AA27283051F13F
:102CA000203181F1E8946F936E7F6E5F7F4F8F4F7D
:102CB0009F4FAF4FB1E03ED0B4E03CD0670F781FDC
:102CC000891F9A1FA11D680F791F8A1F911DA11DC1
:102CD0006A0F711D811D911DA11D20D009F46894FA
:102CE0003F912AE0269F11243019305D3193DEF6A2
:102CF000CF010895462F4770405D4193B3E00FD058
:102D0000C9F7F6CF462F4F70405D4A3318F0495D42
:102D100031FD4052419302D0A9F7EACFB4E0A69525
:102D20009795879577956795BA95C9F70097610547
:102D3000710508959B01AC010A2E0694579547959D
:102D400037952795BA95C9F7620F731F841F951F92
:102D5000A01D08952F923F924F925F926F927F92A3
:102D60008F929F92AF92BF92CF92DF92EF92FF929B
:102D70000F931F93CF93DF93CDB7DEB7CA1BDB0B47
:102D80000FB6F894DEBF0FBECDBF09942A883988EC
:102D900048885F846E847D848C849B84AA84B984F3
:102DA000C884DF80EE80FD800C811B81AA81B981FF
:102DB000CE0FD11D0FB6F894DEBF0FBECDBFED0113
:062DC0000895F894FFCF16
:102DC6003A003700340031003B003800350032004D
:102DD600390036003300300000010405000102030B
:102DE60014151617101112133738392F3435367853
:102DF6003132332D23303D2B08090C0A0B0D00010F
:0A2E06000203040506072569000019
:00000001FF
