:100000000C9434000C9451000C9451000C94510049
:100010000C9451000C9451000C9451000C9451001C
:100020000C9451000C9451000C9451000C9451000C
:100030000C9451000C9451000C9451000C945100FC
:100040000C9451000C9451000C9451000C945100EC
:100050000C9451001E0E2F0E400E510E620E730EA8
:10006000840E950EA60EB70E11241FBECFE5D4E068
:10007000DEBFCDBF10E0A0E6B0E0E8EEFAE202C0DD
:1000800005900D92AC3AB107D9F720E0ACEAB0E0A8
:1000900001C01D92AD3AB207E1F70E94E5100C9441
:1000A00072150C940000CF93DF9300D0CDB7DEB76C
:1000B00089836A838A81882F90E0009789F101976C
:1000C00009F05DC08981869586958695882F90E098
:1000D000880F991F805A9F4FFC018081918129814F
:1000E000269526952695222F30E0220F331F205A81
:1000F0003F4FF90120813181F9012081622F29814F
:10010000222F30E0A9014770552721E030E002C0DE
:10011000220F331F4A95E2F7262BFC0120832FC0C4
:100120008981869586958695882F90E0880F991FFE
:10013000805A9F4FFC0180819181298126952695C7
:100140002695222F30E0220F331F205A3F4FF9010E
:1001500020813181F9012081622F2981222F30E015
:10016000A9014770552721E030E002C0220F331F5C
:100170004A95E2F720952623FC0120830000000029
:100180000F900F90DF91CF910895CF93DF9300D020
:10019000CDB7DEB789836A838A81882F90E081306A
:1001A000910539F08230910509F460C0892B79F10D
:1001B0008BC08981869586958695882F90E0880FDB
:1001C000991F88599F4FFC01808191812981269533
:1001D00026952695222F30E0220F331F28593F4FB6
:1001E000F90120813181F9012081622F2981222F9B
:1001F00030E0A9014770552721E030E002C0220F0E
:10020000331F4A95E2F7262BFC0120835DC08981CC
:10021000869586958695882F90E0880F991F885936
:100220009F4FFC01808191812981269526952695F5
:10023000222F30E0220F331F28593F4FF901208130
:100240003181F9012081622F2981222F30E0A9011B
:100250004770552721E030E002C0220F331F4A9536
:10026000E2F720952623FC0120832EC08981869504
:1002700086958695882F90E0880F991F88599F4F03
:10028000FC01808191812981269526952695222F32
:1002900030E0220F331F28593F4FF901208131816F
:1002A000F9012081622F2981222F30E0A9014770B6
:1002B000552721E030E002C0220F331F4A95E2F7B4
:1002C0002627FC012083000000000F900F90DF9193
:1002D000CF910895CF93DF9300D0CDB7DEB78A8357
:1002E00019828A81869586958695882F90E0880F59
:1002F000991F80599F4FFC0180819181FC01808171
:10030000882F90E02A81222F30E02770332702C007
:10031000959587952A95E2F78170898389810F9059
:100320000F90DF91CF910895CF93DF9300D000D04D
:100330001F92CDB7DEB79B838A836C834D8319826E
:1003400099C08D81882F90E0009721F0019709F4E2
:1003500048C08DC08981882F90E02A813B81820F1F
:10036000931FFC018081869586958695882F90E065
:10037000880F991F805A9F4FFC01808191812981AC
:10038000222F30E04A815B81240F351FF901208143
:10039000269526952695222F30E0220F331F205ACE
:1003A0003F4FF90120813181F9012081622F29819C
:1003B000222F30E04A815B81240F351FF901208113
:1003C000222F30E0A9014770552721E030E002C01C
:1003D000220F331F4A95E2F720952623FC01208344
:1003E00046C08981882F90E02A813B81820F931F2C
:1003F000FC018081869586958695882F90E0880FF0
:10040000991F805A9F4FFC01808191812981222F61
:1004100030E04A815B81240F351FF9012081269548
:1004200026952695222F30E0220F331F205A3F4F6A
:10043000F90120813181F9012081622F2981222F48
:1004400030E04A815B81240F351FF9012081222F82
:1004500030E0A9014770552721E030E002C0220FAB
:10046000331F4A95E2F7262BFC0120830000898187
:100470008F5F898399818C81981708F462CF00007F
:100480000F900F900F900F900F90DF91CF910895E4
:10049000CF93DF9300D000D01F92CDB7DEB79B8300
:1004A0008A836C834D83198299C08D81882F90E057
:1004B000009721F0019709F448C08DC08981882FE9
:1004C00090E02A813B81820F931FFC0180818695F9
:1004D00086958695882F90E0880F991F88599F4FA1
:1004E000FC01808191812981222F30E04A815B814A
:1004F000240F351FF9012081269526952695222F58
:1005000030E0220F331F28593F4FF90120813181FC
:10051000F9012081622F2981222F30E04A815B81FD
:10052000240F351FF9012081222F30E0A9014770E7
:10053000552721E030E002C0220F331F4A95E2F731
:1005400020952623FC01208346C08981882F90E0D6
:100550002A813B81820F931FFC01808186958695BD
:100560008695882F90E0880F991F88599F4FFC012E
:10057000808191812981222F30E04A815B81240F83
:10058000351FF9012081269526952695222F30E0EA
:10059000220F331F28593F4FF90120813181F90182
:1005A0002081622F2981222F30E04A815B81240F34
:1005B000351FF9012081222F30E0A901477055270E
:1005C00021E030E002C0220F331F4A95E2F7262BCC
:1005D000FC012083000089818F5F898399818C8150
:1005E000981708F462CF00000F900F900F900F90B3
:1005F0000F90DF91CF910895CF93DF9300D0CDB7C7
:10060000DEB789836A838981882F90E0880F991FDC
:10061000805A9F4FFC01808191812A81FC012083B7
:1006200000000F900F90DF91CF910895CF93DF934B
:1006300000D0CDB7DEB789836A838981882F90E0A7
:10064000880F991F88599F4FFC01808191812A81D1
:10065000FC01208300000F900F90DF91CF9108954F
:10066000CF93DF9300D0CDB7DEB78A8319828A811A
:10067000882F90E0880F991F80599F4FFC0180813F
:100680009181FC018081898389810F900F90DF9196
:10069000CF910895CF93DF9300D0CDB7DEB79A8383
:1006A0008983898161E00E9453008A8160E00E9411
:1006B000530000000F900F90DF91CF910895CF93DA
:1006C000DF93CDB7DEB76F970FB6F894DEBF0FBEDE
:1006D000CDBF9E8F8D8F6F8F8D8D60E00E94C50086
:1006E00080E090E0A0E0B0E489839A83AB83BC8390
:1006F00020E030E04AE753E469817A818B819C8174
:100700000E941412DC01CB018B8B9C8BAD8BBE8BBA
:1007100020E030E040E85FE36B897C898D899E8929
:100720000E94F41088232CF481E090E0988F8F8B46
:100730003FC020E03FEF4FE757E46B897C898D890C
:100740009E890E940F1218164CF520E030E040E21E
:1007500051E469817A818B819C810E941412DC01B1
:10076000CB01BC01CD010E946B11DC01CB01988F44
:100770008F8B0FC089E190E09A8F898F898D9A8D38
:100780000197F1F79A8F898F8F89988D0197988FAC
:100790008F8B8F89988D892B69F714C06B897C8921
:1007A0008D899E890E946B11DC01CB01988F8F8B04
:1007B0008F89988D9C8F8B8F8B8D9C8D0197F1F7F6
:1007C0009C8F8B8F8D8D61E00E94C50080E090E052
:1007D000A0E2B1E48D839E83AF83B88720E030E050
:1007E0004AE753E46D817E818F8198850E941412BF
:1007F000DC01CB0189879A87AB87BC8720E030E09A
:1008000040E85FE369857A858B859C850E94F410BA
:1008100088232CF481E090E09E878D873FC020E004
:100820003FEF4FE757E469857A858B859C850E9469
:100830000F1218164CF520E030E040E251E46D81D3
:100840007E818F8198850E941412DC01CB01BC014E
:10085000CD010E946B11DC01CB019E878D870FC0FB
:1008600089E190E0988B8F878F8598890197F1F7C0
:10087000988B8F878D859E8501979E878D878D8527
:100880009E85892B69F714C069857A858B859C853F
:100890000E946B11DC01CB019E878D878D859E8523
:1008A0009A8B898B89899A890197F1F79A8B898B21
:1008B0008D8D60E00E94C50000006F960FB6F89421
:1008C000DEBF0FBECDBFDF91CF910895CF93DF93F1
:1008D000CDB7DEB7C354D1090FB6F894DEBF0FBE53
:1008E000CDBF4EAF5FAF9E01205C3F4FF9016083EB
:1008F0009E012F5B3F4FF90170839E012E5B3F4F9E
:10090000F90180839E012D5B3F4FF901908319828D
:100910008FAD61E00E9453008EAD61E00E945300F4
:10092000198210C08981882F90E09E01205C3F4F82
:10093000820F931FFC01808161E00E945300898136
:100940008F5F89838981843068F380E090E0A0EA3A
:10095000B1E48A839B83AC83BD8320E030E04AE727
:1009600053E46A817B818C819D810E941412DC0199
:10097000CB018CAB9DABAEABBFAB20E030E040E831
:100980005FE36CA97DA98EA99FA90E94F41088231A
:100990002CF481E090E099AF88AF3FC020E03FEFBA
:1009A0004FE757E46CA97DA98EA99FA90E940F1259
:1009B00018164CF520E030E040E251E46A817B817A
:1009C0008C819D810E941412DC01CB01BC01CD0100
:1009D0000E946B11DC01CB0199AF88AF0FC089E198
:1009E00090E09BAF8AAF8AAD9BAD0197F1F79BAFCB
:1009F0008AAF88AD99AD019799AF88AF88AD99ADB1
:100A0000892B69F714C06CA97DA98EA99FA90E94A2
:100A10006B11DC01CB0199AF88AF88AD99AD9DAF6B
:100A20008CAF8CAD9DAD0197F1F79DAF8CAF28E3F6
:100A30004EAD5FADCE01805C9F4FFC016081CE0169
:100A40008F5B9F4FFC017081CE018E5B9F4FFC013D
:100A50008081FE01ED5BFF4F90810E945B0780E08B
:100A600090E0A0EAB0E48E839F83A887B98720E056
:100A700030E04AE753E46E817F81888599850E9442
:100A80001412DC01CB018AA79BA7ACA7BDA720E06D
:100A900030E040E85FE36AA57BA58CA59DA50E9498
:100AA000F41088232CF481E090E09FA78EA73FC02C
:100AB00020E03FEF4FE757E46AA57BA58CA59DA5F5
:100AC0000E940F1218164CF520E030E040E251E48D
:100AD0006E817F81888599850E941412DC01CB018B
:100AE000BC01CD010E946B11DC01CB019FA78EA739
:100AF0000FC089E190E099AB88AB88A999A90197CB
:100B0000F1F799AB88AB8EA59FA501979FA78EA7FC
:100B10008EA59FA5892B69F714C06AA57BA58CA516
:100B20009DA50E946B11DC01CB019FA78EA78EA50E
:100B30009FA59BAB8AAB8AA99BA90197F1F79BABB9
:100B40008AAB28E34EAD5FADCE01805C9F4FFC01C8
:100B50006081CE018F5B9F4FFC017081CE018E5B67
:100B60009F4FFC018081FE01ED5BFF4F90810E9451
:100B70005B0780E090E0A6E1B3E48A879B87AC87BF
:100B8000BD872BEA3AEA4AEA5EE36A857B858C8573
:100B90009D850E941412DC01CB018E879F87A88B54
:100BA000B98B20E030E040E85EE36A857B858C8588
:100BB0009D850E941412DC01CB018A8B9B8BAC8B30
:100BC000BD8B20E030E040E85FE36E857F8588895B
:100BD00099890E94F41088231CF481E08E8BB2C0A6
:100BE00020E03FEF4FE757E46A897B898C899D8934
:100BF0000E940F1218160CF07BC020E030E04AE78C
:100C000054E46A857B858C859D850E94F910DC0102
:100C1000CB018F8B988FA98FBA8F20E030E04AE705
:100C200053E46F89788D898D9A8D0E941412DC01AE
:100C3000CB018B8F9C8FAD8FBE8F20E030E040E8E2
:100C40005FE36B8D7C8D8D8D9E8D0E94F4108823CB
:100C50002CF481E090E098A38F8F3FC020E03FEF1D
:100C60004FE757E46B8D7C8D8D8D9E8D0E940F120A
:100C700018164CF520E030E040E251E46F89788DA1
:100C8000898D9A8D0E941412DC01CB01BC01CD012B
:100C90000E946B11DC01CB0198A38F8F0FC089E1FB
:100CA00090E09AA389A389A19AA10197F1F79AA349
:100CB00089A38F8D98A1019798A38F8F8F8D98A16D
:100CC000892B69F73FC06B8D7C8D8D8D9E8D0E9429
:100CD0006B11DC01CB0198A38F8F8F8D98A19CA302
:100CE0008BA38BA19CA10197F1F79CA38BA32AC096
:100CF00020E030E04FE753E46E857F85888999894D
:100D00000E940F121816ACF46A897B898C899D8920
:100D10000E946B11DC01CB019EA38DA38DA19EA12E
:100D200098A78FA38FA198A50197F1F798A78FA3F4
:100D30000FC06E857F85888999890E946B11DC01BF
:100D4000CB018E8B8E8989A789A58A95F1F789A712
:100D500028E34EAD5FADCE01805C9F4FFC0160810A
:100D6000CE018F5B9F4FFC017081CE018E5B9F4F48
:100D7000FC018081FE01ED5BFF4F90810E945B07CB
:100D800021E04EAD5FADCE01805C9F4FFC016081E4
:100D9000CE018F5B9F4FFC017081CE018E5B9F4F18
:100DA000FC018081FE01ED5BFF4F90810E945B079B
:100DB00022E04EAD5FADCE01805C9F4FFC016081B3
:100DC000CE018F5B9F4FFC017081CE018E5B9F4FE8
:100DD000FC018081FE01ED5BFF4F90810E945B076B
:100DE00026E04EAD5FADCE01805C9F4FFC0160817F
:100DF000CE018F5B9F4FFC017081CE018E5B9F4FB8
:100E0000FC018081FE01ED5BFF4F90810E945B073A
:100E10002CE04EAD5FADCE01805C9F4FFC01608148
:100E2000CE018F5B9F4FFC017081CE018E5B9F4F87
:100E3000FC018081FE01ED5BFF4F90810E945B070A
:100E400028E24EAD5FADCE01805C9F4FFC0160811A
:100E5000CE018F5B9F4FFC017081CE018E5B9F4F57
:100E6000FC018081FE01ED5BFF4F90810E945B07DA
:100E700020E84EAD5FADCE01805C9F4FFC016081EC
:100E8000CE018F5B9F4FFC017081CE018E5B9F4F27
:100E9000FC018081FE01ED5BFF4F90810E945B07AA
:100EA0000000CD5BDF4F0FB6F894DEBF0FBECDBFA5
:100EB000DF91CF910895CF93DF93CDB7DEB727971A
:100EC0000FB6F894DEBF0FBECDBF49835A836B8344
:100ED0007C838D839E832F83898160E00E94C5007F
:100EE0008F8182958F70282F49815A816B817C81F7
:100EF0008D819E810E94310949815A816B817C815B
:100F00008D819E810E946E092F8149815A816B815A
:100F10007C818D819E810E94310949815A816B813A
:100F20007C818D819E810E946E09000027960FB6FC
:100F3000F894DEBF0FBECDBFDF91CF910895CF9360
:100F4000DF93CDB7DEB727970FB6F894DEBF0FBE9D
:100F5000CDBF49835A836B837C838D839E832F838C
:100F6000898161E00E94C5008F8182958F70282F52
:100F700049815A816B817C818D819E810E943109DA
:100F800049815A816B817C818D819E810E946E098D
:100F90002F8149815A816B817C818D819E810E9444
:100FA000310949815A816B817C818D819E810E94AA
:100FB0006E09000027960FB6F894DEBF0FBECDBFB6
:100FC000DF91CF910895EF920F93CF93DF93CDB739
:100FD000DEB729970FB6F894DEBF0FBECDBF4983A9
:100FE0005A836B837C838D839E832F830887E98656
:100FF00008852F8149815A816B817C818D819E81F9
:101000000E947F0A298549815A816B817C818D816B
:101010009E810E949F07000029960FB6F894DEBFBC
:101020000FBECDBFDF91CF910F91EF900895CF9379
:10103000DF93CDB7DEB728970FB6F894DEBF0FBEAB
:10104000CDBF49835A836B837C838D839E8338878E
:101050002F8312C08F8198859C012F5F3F4F388767
:101060002F83FC018081282F49815A816B817C81EB
:101070008D819E810E949F078F819885FC018081D0
:10108000882341F7000028960FB6F894DEBF0FBE04
:10109000CDBFDF91CF910895EF92FF920F93CF9341
:1010A000DF93CDB7DEB72A970FB6F894DEBF0FBE39
:1010B000CDBF49835A836B837C838D839E832F832B
:1010C0000887FA86E98608852F8149815A816B81D4
:1010D0007C818D819E810E947F0A12C089859A85BC
:1010E0009C012F5F3F4F3A872987FC018081282F81
:1010F00049815A816B817C818D819E810E949F07ED
:1011000089859A85FC018081882341F700002A9611
:101110000FB6F894DEBF0FBECDBFDF91CF910F9118
:10112000FF90EF900895CF93DF9300D01F92CDB73B
:10113000DEB789837B836A838A819B8144E050E0A8
:1011400060E070E00E9481128981882F90E0292F51
:101150002F938F9388EA90E0892F8F9388EA90E00D
:101160008F938B818F938A818F930E9488120F9027
:101170000F900F900F900F900F9000000F900F9016
:101180000F90DF91CF910895CF93DF9300D000D0DF
:10119000CDB7DEB79A8389837C836B838B819C81F7
:1011A00046E050E060E070E00E9481128A818F93F7
:1011B00089818F9388EA90E0892F8F9388EA90E065
:1011C0008F938C818F938B818F930E9488120F90C5
:1011D0000F900F900F900F900F9000000F900F90B6
:1011E0000F900F90DF91CF910895CF93DF9300D0B0
:1011F00000D000D0CDB7DEB769837A838B839C8320
:101200005E834D838D819E814BE050E060E070E015
:101210000E9481128C818F938B818F938A818F930F
:1012200089818F9388EA90E0892F8F9388EA90E0F4
:101230008F938E818F938D818F930E9488128DB7AB
:101240009EB708960FB6F894DEBF0FBECDBF000064
:1012500026960FB6F894DEBF0FBECDBFDF91CF91BB
:101260000895CF93DF93CDB7DEB727970FB6F894E5
:10127000DEBF0FBECDBF49835A836B837C838D83D2
:101280009E832F838F81982F91708B81692F0E946D
:10129000C5008F818695982F91708C81692F0E944F
:1012A000C5008F8186958695982F91708D81692FC5
:1012B0000E94C5008F81869586958695982F91709E
:1012C0008E81692F0E94C500000027960FB6F89402
:1012D000DEBF0FBECDBFDF91CF910895CF93DF93D7
:1012E000CDB7DEB7A6970FB6F894DEBF0FBECDBF61
:1012F00049A35AA36BA37CA38DA39EA38AA161E0FB
:101300000E94C50080E090E0A0EAB0E489839A835F
:10131000AB83BC832BEA3AEA4AEA5EE369817A81CD
:101320008B819C810E941412DC01CB018D839E83F2
:10133000AF83B88720E030E040E85EE369817A81DE
:101340008B819C810E941412DC01CB0189879A87D2
:10135000AB87BC8720E030E040E85FE36D817E81B1
:101360008F8198850E94F41088231CF481E08D877A
:10137000B2C020E03FEF4FE757E469857A858B855F
:101380009C850E940F1218160CF07BC020E030E004
:101390004AE754E469817A818B819C810E94F9102B
:1013A000DC01CB018E879F87A88BB98B20E030E0D2
:1013B0004AE753E46E857F85888999890E941412D3
:1013C000DC01CB018A8B9B8BAC8BBD8B20E030E0AA
:1013D00040E85FE36A897B898C899D890E94F410CB
:1013E00088232CF481E090E09F8B8E8B3FC020E01F
:1013F0003FEF4FE757E46A897B898C899D890E947A
:101400000F1218164CF520E030E040E251E46E85F2
:101410007F85888999890E941412DC01CB01BC0167
:10142000CD010E946B11DC01CB019F8B8E8B0FC015
:1014300089E190E0998F888F888D998D0197F1F7D8
:10144000998F888F8E899F8901979F8B8E8B8E892C
:101450009F89892B69F73FC06A897B898C899D891F
:101460000E946B11DC01CB019F8B8E8B8E899F8933
:101470009B8F8A8F8A8D9B8D0197F1F79B8F8A8F27
:101480002AC020E030E04FE753E46D817E818F81F8
:1014900098850E940F121816ACF469857A858B85A1
:1014A0009C850E946B11DC01CB019D8F8C8F8C8DF4
:1014B0009D8D9F8F8E8F8E8D9F8D0197F1F79F8FC2
:1014C0008E8F0FC06D817E818F8198850E946B11F8
:1014D000DC01CB018D878D8588A388A18A95F1F7E2
:1014E00088A38AA160E00E94C5000000A6960FB6FE
:1014F000F894DEBF0FBECDBFDF91CF9108950F935B
:10150000CF93DF93CDB7DEB728970FB6F894DEBF41
:101510000FBECDBF49835A836B837C838D839E83AB
:101520002F8308878885815088878F81882F90E056
:1015300082309105C1F0833091051CF4019739F098
:1015400036C083309105D9F0049729F130C08885E1
:101550008058282F49815A816B817C818D819E81A1
:101560000E945B0724C088858054282F49815A81B6
:101570006B817C818D819E810E945B0718C088856C
:101580008C56282F49815A816B817C818D819E8167
:101590000E945B070CC088858C52282F49815A8194
:1015A0006B817C818D819E810E945B070000000021
:1015B00028960FB6F894DEBF0FBECDBFDF91CF9156
:1015C0000F910895CF93DF93CDB7DEB72A970FB66B
:1015D000F894DEBF0FBECDBF2B833C834D835E836B
:1015E0006F83788789879A8719821A82198210C037
:1015F0008981882F90E09E012D5F3F4F820F931FBE
:10160000FC01808161E00E94530089818F5F8983A2
:101610008981843068F31A8210C08A81882F90E013
:101620009E01295F3F4F820F931FFC01808160E084
:101630000E9453008A818F5F8A838A81843068F395
:1016400000002A960FB6F894DEBF0FBECDBFDF9123
:10165000CF9108950F931F93CF93DF93CDB7DEB74C
:10166000AA970FB6F894DEBF0FBECDBF29A33AA349
:101670004BA35CA36DA37EA38FA398A71AA709A76A
:1016800019821A821B821C82198234C11B8210C0EB
:101690008B81882F90E09E012F5D3F4F820F931F1B
:1016A000FC01808160E00E94C5008B818F5F8B838D
:1016B0008B81843068F38981882F90E09E012F5DB3
:1016C0003F4F820F931FFC01808161E00E94C500A3
:1016D00080E090E0A8E4B2E489879A87AB87BC8772
:1016E00020E030E04AE753E469857A858B859C8564
:1016F0000E941412DC01CB018D879E87AF87B88BC7
:1017000020E030E040E85FE36D857E858F85988935
:101710000E94F41088232CF481E090E09A8B898B4E
:101720003FC020E03FEF4FE757E46D857E858F8512
:1017300098890E940F1218164CF520E030E040E224
:1017400051E469857A858B859C850E941412DC01A1
:10175000CB01BC01CD010E946B11DC01CB019A8B46
:10176000898B0FC089E190E09C8B8B8B8B899C8946
:101770000197F1F79C8B8B8B89899A8901979A8BBA
:10178000898B89899A89892B69F714C06D857E8533
:101790008F8598890E946B11DC01CB019A8B898B14
:1017A00089899A899E8B8D8B8D899E890197F1F706
:1017B0009E8B8D8B1A8297C08A81882F90E09E0124
:1017C0002B5D3F4F820F931FFC0180810E946A01B5
:1017D00080E090E0A8E4B2E48D839E83AF83B88775
:1017E00020E030E04AE753E46D817E818F81988567
:1017F0000E941412DC01CB018F8B988FA98FBA8FB6
:1018000020E030E040E85FE36F89788D898D9A8D24
:101810000E94F41088232CF481E090E09C8F8B8F41
:101820003FC020E03FEF4FE757E46F89788D898D07
:101830009A8D0E940F1218164CF520E030E040E21D
:1018400051E46D817E818F8198850E941412DC01A4
:10185000CB01BC01CD010E946B11DC01CB019C8F3F
:101860008B8F0FC089E190E09E8F8D8F8D8D9E8D27
:101870000197F1F79E8F8D8F8B8D9C8D01979C8F9B
:101880008B8F8B8D9C8D892B69F714C06F89788D18
:10189000898D9A8D0E946B11DC01CB019C8F8B8FFF
:1018A0008B8D9C8D98A38F8F8F8D98A10197F1F7C9
:1018B00098A38F8F8C81813099F48981282F30E013
:1018C0008A81882F90E0220F331F220F331F820F4F
:1018D000931F88579F4F282F89A59AA5FC01208325
:1018E0008A818F5F8A838A81843008F465CF8981F9
:1018F0008F5F89838981843008F4C8CE0000AA965E
:101900000FB6F894DEBF0FBECDBFDF91CF911F9110
:101910000F910895CF93DF93CDB7DEB70000DF912D
:10192000CF910895CF93DF93CDB7DEB70000DF915D
:10193000CF910895CF93DF93CDB7DEB780919A0012
:1019400061E00E9453008091980061E00E94530082
:101950008091990061E00E94530080919E0061E0B7
:101960000E94530080919C0061E00E94530080918E
:101970009D0061E00E9453000000DF91CF91089527
:10198000CF93DF931F92CDB7DEB789838981882FEC
:1019900090E082309105C1F08330910539F10197D3
:1019A00009F047C090919B0080919A00692F0E9496
:1019B000C5008091980061E00E94C5008091990067
:1019C00060E00E94C50035C090919F0080919E000C
:1019D000692F0E94C50080919C0061E00E94C500B3
:1019E00080919D0060E00E94C50023C090919B0003
:1019F00080919A00692F0E94C50090919F0080916C
:101A00009E00692F0E94C5008091980061E00E94AD
:101A1000C5008091990060E00E94C50080919C0003
:101A200061E00E94C50080919D0060E00E94C500B9
:101A3000000000000F90DF91CF910895CF93DF93C6
:101A40001F92CDB7DEB789838981882F90E08230DD
:101A50009105C1F08330910539F1019709F047C034
:101A600090919B0080919A00692F0E94C5008091FF
:101A7000980060E00E94C5008091990061E00E949A
:101A8000C50035C090919F0080919E00692F0E94F3
:101A9000C50080919C0060E00E94C50080919D007F
:101AA00061E00E94C50023C090919B0080919A0044
:101AB000692F0E94C50090919F0080919E00692F20
:101AC0000E94C5008091980060E00E94C50080914E
:101AD000990061E00E94C50080919C0060E00E9436
:101AE000C50080919D0061E00E94C50000000000DB
:101AF0000F90DF91CF910895CF93DF931F92CDB7D1
:101B0000DEB789838981882F90E082309105C1F00A
:101B10008330910539F1019709F047C090919B00FE
:101B200080919A00692F0E94C5008091980060E022
:101B30000E94C5008091990060E00E94C50035C0F8
:101B400090919F0080919E00692F0E94C500809116
:101B50009C0060E00E94C50080919D0060E00E94B2
:101B6000C50023C090919B0080919A00692F0E942C
:101B7000C50090919F0080919E00692F0E94C50032
:101B80008091980060E00E94C5008091990060E01B
:101B90000E94C50080919C0060E00E94C500809179
:101BA0009D0060E00E94C500000000000F90DF91E2
:101BB000CF910895CF93DF9300D000D0CDB7DEB79B
:101BC00069837A838B839C83898161E00E945300BF
:101BD0008A8161E00E9453008B8161E00E94530082
:101BE0008C8161E00E94530000000F900F900F90D5
:101BF0000F90DF91CF910895CF93DF9300D000D065
:101C00001F92CDB7DEB769837A838B839C834D8324
:101C10008D81882F90E0092E000CAA0BBB0B40E0B1
:101C200050E029E030E0841B950B2817390708F4B1
:101C3000AFC0865D9F4FFC010C94EE10898160E07F
:101C40000E94C5008A8160E00E94C5008B8160E02F
:101C50000E94C5008C8160E00E94C5009AC0898105
:101C600061E00E94C5008A8160E00E94C5008B810E
:101C700060E00E94C5008C8160E00E94C50089C0C0
:101C8000898160E00E94C5008A8161E00E94C500F0
:101C90008B8160E00E94C5008C8160E00E94C500DD
:101CA00078C0898161E00E94C5008A8161E00E945C
:101CB000C5008B8160E00E94C5008C8160E00E94BD
:101CC000C50067C0898160E00E94C5008A8160E02C
:101CD0000E94C5008B8161E00E94C5008C8160E09C
:101CE0000E94C50056C0898161E00E94C5008A81BA
:101CF00060E00E94C5008B8161E00E94C5008C817C
:101D000060E00E94C50045C0898160E00E94C50076
:101D10008A8161E00E94C5008B8161E00E94C5005C
:101D20008C8160E00E94C50034C0898161E00E941E
:101D3000C5008A8161E00E94C5008B8161E00E943C
:101D4000C5008C8160E00E94C50023C0898160E0ED
:101D50000E94C5008A8160E00E94C5008B8160E01E
:101D60000E94C5008C8161E00E94C50012C089817B
:101D700061E00E94C5008A8160E00E94C5008B81FD
:101D800060E00E94C5008C8161E00E94C50001C036
:101D9000000000000F900F900F900F900F90DF91B8
:101DA000CF910895CF93DF9300D000D0CDB7DEB7A9
:101DB0009A8389836B834C838C818130D1F48B81AE
:101DC000882F90E0009761F0019709F02FC089817A
:101DD00061E00E94C5008A8161E00E94C50026C0C2
:101DE000898160E00E94C5008A8160E00E94C50090
:101DF0001DC08C818823D1F48B81882F90E00097BF
:101E000061F0019709F012C0898160E00E94C5006D
:101E10008A8160E00E94C50009C0898161E00E945A
:101E2000C5008A8161E00E94C500000000000F909B
:101E30000F900F900F90DF91CF910895CF93DF9384
:101E400000D000D000D0CDB7DEB769837A838B8312
:101E50009C834D832E838E81813051F58D81882F17
:101E600090E00097A1F0019709F04FC0898161E0EF
:101E70000E94C5008A8161E00E94C5008B8161E0FB
:101E80000E94C5008C8161E00E94C5003EC089812E
:101E900060E00E94C5008A8160E00E94C5008B81DD
:101EA00060E00E94C5008C8160E00E94C5002DC0EA
:101EB0008E81882351F58D81882F90E00097A1F0C5
:101EC000019709F022C0898160E00E94C5008A81E3
:101ED00060E00E94C5008B8160E00E94C5008C819B
:101EE00060E00E94C50011C0898161E00E94C500C8
:101EF0008A8161E00E94C5008B8161E00E94C5007B
:101F00008C8161E00E94C5000000000026960FB69B
:101F1000F894DEBF0FBECDBFDF91CF9108950F9330
:101F2000CF93DF93CDB7DEB728970FB6F894DEBF17
:101F30000FBECDBF49835A836B837C838D839E8381
:101F40002F83088788858130D1F58F81882F90E095
:101F50000097E1F0019709F06FC0898161E00E946C
:101F6000C5008A8161E00E94C5008B8161E00E940A
:101F7000C5008C8161E00E94C5008D8161E00E94F6
:101F8000C5008E8161E00E94C50056C0898160E075
:101F90000E94C5008A8160E00E94C5008B8160E0DC
:101FA0000E94C5008C8160E00E94C5008D8160E0C8
:101FB0000E94C5008E8160E00E94C5003DC08885FA
:101FC0008823D1F58F81882F90E00097E1F0019769
:101FD00009F032C0898160E00E94C5008A8160E01A
:101FE0000E94C5008B8160E00E94C5008C8160E08A
:101FF0000E94C5008D8160E00E94C5008E8160E076
:102000000E94C50019C0898161E00E94C5008A81D3
:1020100061E00E94C5008B8161E00E94C5008C8157
:1020200061E00E94C5008D8161E00E94C5008E8143
:1020300061E00E94C5000000000028960FB6F894E9
:10204000DEBF0FBECDBFDF91CF910F910895EF920C
:102050000F93CF93DF93CDB7DEB72A970FB6F894DF
:10206000DEBF0FBECDBF29833A834B835C836D8374
:102070007E838F8398870987EA868A85813009F075
:102080004AC08985882F90E0009721F1019709F0D7
:1020900090C0898161E00E94C5008A8161E00E9450
:1020A000C5008B8161E00E94C5008C8161E00E94C7
:1020B000C5008D8161E00E94C5008E8161E00E94B3
:1020C000C5008F8161E00E94C500888561E00E94A3
:1020D000C5006FC0898160E00E94C5008A8160E010
:1020E0000E94C5008B8160E00E94C5008C8160E089
:1020F0000E94C5008D8160E00E94C5008E8160E075
:102100000E94C5008F8160E00E94C500888560E064
:102110000E94C5004EC08A85882309F04AC089857F
:10212000882F90E0009721F1019709F042C0898142
:1021300060E00E94C5008A8160E00E94C5008B813A
:1021400060E00E94C5008C8160E00E94C5008D8126
:1021500060E00E94C5008E8160E00E94C5008F8112
:1021600060E00E94C500888560E00E94C50021C033
:10217000898161E00E94C5008A8161E00E94C500FA
:102180008B8161E00E94C5008C8161E00E94C500E6
:102190008D8161E00E94C5008E8161E00E94C500D2
:1021A0008F8161E00E94C500888561E00E94C500C2
:1021B000000000002A960FB6F894DEBF0FBECDBF18
:1021C000DF91CF910F91EF900895CF93DF93CDB72B
:1021D000DEB70E948A0C0E94920CFDCFEE0FFF1F0B
:1021E0000590F491E02D09940E949A1108F481E081
:1021F00008950E940D110C94D5110E94CE1158F033
:102200000E94C71140F029F45F3F29F00C94BE11E1
:1022100051110C9409120C94C4110E94E61168F338
:102220009923B1F3552391F3951B550BBB27AA278F
:1022300062177307840738F09F5F5F4F220F331FC9
:10224000441FAA1FA9F335D00E2E3AF0E0E832D091
:1022500091505040E695001CCAF72BD0FE2F29D094
:10226000660F771F881FBB1F261737074807AB0766
:10227000B0E809F0BB0B802DBF01FF2793585F4FDB
:102280003AF09E3F510578F00C94BE110C9409125F
:102290005F3FE4F3983ED4F3869577956795B795BD
:1022A000F7959F5FC9F7880F911D9695879597F9C8
:1022B0000895E1E0660F771F881FBB1F6217730741
:1022C0008407BA0720F0621B730B840BBA0BEE1F56
:1022D00088F7E09508950E94EE1188F09F5798F0D6
:1022E000B92F9927B751B0F0E1F0660F771F881F1B
:1022F000991F1AF0BA95C9F714C0B13091F00E9435
:102300000812B1E008950C940812672F782F8827DF
:10231000B85F39F0B93FCCF3869577956795B3955B
:10232000D9F73EF490958095709561957F4F8F4FCA
:102330009F4F0895990F0008550FAA0BE0E8FEEF94
:1023400016161706E807F907C0F012161306E40779
:10235000F50798F0621B730B840B950B39F40A2672
:1023600061F0232B242B252B21F408950A2609F450
:10237000A140A6958FEF811D811D089597F99F6754
:1023800080E870E060E008959FEF80EC08950024FD
:102390000A941616170618060906089500240A94CA
:1023A00012161306140605060895092E0394000C50
:1023B00011F4882352F0BB0F40F4BF2B11F460FFDF
:1023C00004C06F5F7F4F8F4F9F4F089557FD905808
:1023D000440F551F59F05F3F71F04795880F97FBE9
:1023E000991F61F09F3F79F08795089512161306A3
:1023F0001406551FF2CF4695F1DF08C016161706D2
:102400001806991FF1CF8695710561050894089506
:10241000E894BB2766277727CB0197F908950E9498
:102420009A1108F48FEF08950E9427120C94D51189
:102430000E94C71138F00E94CE1120F0952311F0B0
:102440000C94BE110C94C41111240C9409120E9416
:10245000E61170F3959FC1F3950F50E0551F629FF1
:10246000F001729FBB27F00DB11D639FAA27F00DED
:10247000B11DAA1F649F6627B00DA11D661F829F14
:102480002227B00DA11D621F739FB00DA11D621FF9
:10249000839FA00D611D221F749F3327A00D611D16
:1024A000231F849F600D211D822F762F6A2F1124F8
:1024B0009F5750409AF0F1F088234AF0EE0FFF1F2B
:1024C000BB1F661F771F881F91505040A9F79E3F82
:1024D000510580F00C94BE110C9409125F3FE4F397
:1024E000983ED4F3869577956795B795F795E795D8
:1024F0009F5FC1F7FE2B880F911D9695879597F9E1
:102500000895DC0101C06D9341505040E0F70895FB
:10251000AEE0B0E0EEE8F2E10C9449150D891E89B9
:1025200086E08C831A8309838FEF9FE79E838D83D8
:10253000AE01475E5F4F6F89788DCE0101960E9494
:10254000AA12EF81F885E00FF11F10822E96E4E0C9
:102550000C946515ABE0B0E0E0EBF2E10C943B15B8
:102560006C017B018A01FC0117821682838181FF45
:10257000CCC1CE0101963C01F6019381F70193FD98
:10258000859193FF81917F01882309F4BAC1853237
:1025900039F493FD859193FF81917F01853229F470
:1025A000B60190E00E94A114E7CF912C212C312C90
:1025B000FFE1F315D8F08B3279F038F4803279F0FE
:1025C0008332A1F4232D20611DC08D3261F0803350
:1025D00069F4232D216016C0832D8260382EE32DEF
:1025E000E4603E2E2AC0F32DF8601DC037FC2DC0DC
:1025F00020ED280F2A3040F08E32B9F436FC81C12C
:10260000232D2064322E19C036FE06C08AE0989E23
:10261000200D1124922E11C0EAE02E9E200D1124CF
:10262000222EF32DF0623F2E08C08C3621F4832D2C
:102630008068382E02C0883641F4F70193FD8591F9
:1026400093FF81917F018111B3CF982F9F7D955486
:10265000933028F40C5F1F4F9FE399830DC083369E
:1026600031F0833771F0833509F059C021C0F8018A
:10267000808189830E5F1F4F88248394912C53019E
:1026800013C02801F2E04F0E511CF801A080B18068
:1026900036FE03C0692D70E002C06FEF7FEFC50109
:1026A0000E9496144C018201F32DFF773F2E16C035
:1026B000280122E0420E511CF801A080B18036FEB4
:1026C00003C0692D70E002C06FEF7FEFC5010E946B
:1026D0008B144C01F32DF0683F2E820133FC1BC09C
:1026E000822D90E088169906B0F4B60180E290E061
:1026F0000E94A1142A94F4CFF50137FC859137FE8E
:1027000081915F01B60190E00E94A11421102A94EA
:1027100021E0821A91088114910471F7E8C084368F
:1027200011F0893641F5F80137FE07C060817181EB
:10273000828193810C5F1F4F08C060817181072ED9
:10274000000C880B990B0E5F1F4FF32DFF763F2E69
:1027500097FF09C090958095709561957F4F8F4F39
:102760009F4FF0683F2E2AE030E0A3010E94DD1465
:10277000882E861845C0853731F4232D2F7EB22E42
:102780002AE030E025C0932D997FB92E8F36C1F015
:1027900018F4883579F0B5C0803719F0883721F002
:1027A000B0C0E92FE061BE2EB4FE0DC0FB2DF46079
:1027B000BF2E09C034FE0AC0292F2660B22E06C0E3
:1027C00028E030E005C020E130E002C020E132E046
:1027D000F801B7FE07C060817181828193810C5F2F
:1027E0001F4F06C06081718180E090E00E5F1F4F37
:1027F000A3010E94DD14882E8618FB2DFF773F2E43
:1028000036FE0DC0232D2E7FA22E891458F434FEDF
:102810000BC032FC09C0832D8E7EA82E05C0B82CBB
:10282000A32C03C0B82C01C0B92CA4FE0FC0FE011C
:10283000E80DF11D8081803321F49A2D997EA92E17
:1028400009C0A2FE06C0B394B39404C08A2D867852
:1028500009F0B394A3FC11C0A0FE06C0B21488F422
:10286000280C922C9B180EC0B21460F4B60180E2C2
:1028700090E00E94A114B394F7CFB21418F42B186F
:1028800002C0982C212CA4FE10C0B60180E390E079
:102890000E94A114A2FE17C0A1FC03C088E790E02B
:1028A00002C088E590E0B6010CC08A2D867859F008
:1028B000A1FE02C08BE201C080E2A7FC8DE2B6015E
:1028C00090E00E94A114891438F4B60180E390E0EE
:1028D0000E94A1149A94F7CF8A94F301E80DF11D98
:1028E0008081B60190E00E94A1148110F5CF2220D2
:1028F00009F442CEB60180E290E00E94A1142A942D
:10290000F6CFF6018681978102C08FEF9FEF2B965D
:10291000E2E10C945715FC010590615070400110E4
:10292000D8F7809590958E0F9F1F0895FC016150F8
:10293000704001900110D8F7809590958E0F9F1FE1
:1029400008950F931F93CF93DF93FB01238121FD04
:1029500003C08FEF9FEF2CC022FF16C04681578126
:10296000248135814217530744F4A081B1819D0130
:102970002F5F3F4F318320838C93268137812F5FD8
:102980003F4F3783268314C08B01EC01FB01008489
:10299000F185E02D0995892BE1F6D80116968D91E8
:1029A0009C911797019617969C938E931697CE013C
:1029B000DF91CF911F910F910895FA01AA27283036
:1029C00051F1203181F1E8946F936E7F6E5F7F4FFC
:1029D0008F4F9F4FAF4FB1E03ED0B4E03CD0670F78
:1029E000781F891F9A1FA11D680F791F8A1F911DCB
:1029F000A11D6A0F711D811D911DA11D20D009F41B
:102A000068943F912AE0269F11243019305D31935C
:102A1000DEF6CF010895462F4770405D4193B3E045
:102A20000FD0C9F7F6CF462F4F70405D4A3318F0EC
:102A3000495D31FD4052419302D0A9F7EACFB4E09D
:102A4000A6959795879577956795BA95C9F7009755
:102A50006105710508959B01AC010A2E06945795F6
:102A6000479537952795BA95C9F7620F731F841F4D
:102A7000951FA01D08952F923F924F925F926F92E3
:102A80007F928F929F92AF92BF92CF92DF92EF92FE
:102A9000FF920F931F93CF93DF93CDB7DEB7CA1B7F
:102AA000DB0B0FB6F894DEBF0FBECDBF09942A88AA
:102AB000398848885F846E847D848C849B84AA8452
:102AC000B984C884DF80EE80FD800C811B81AA81DF
:102AD000B981CE0FD11D0FB6F894DEBF0FBECDBFAA
:082AE000ED010895F894FFCF09
:102AE8003A003700340031003B003800350032002E
:102AF80039003600330030000001060708090A0BC8
:102B080014151617101112133738392F3435367833
:102B18003132332D23303D2B08090C010A0B0D01EE
:0C2B2800000102030405060725690000F7
:00000001FF
