:100000000C9434000C9451000C9451000C94510049
:100010000C9451000C9451000C9451000C9451001C
:100020000C9451000C9451000C9451000C9451000C
:100030000C9451000C9451000C9451000C945100FC
:100040000C9451000C9451000C9451000C945100EC
:100050000C945100C203D303E403F5030604170410
:10006000280439044A045B0411241FBECFE5D4E000
:10007000DEBFCDBF10E0A0E6B0E0E4E5FDE002C0E9
:1000800005900D92A838B107D9F720E0A8E8B0E0B4
:1000900001C01D92A838B207E1F70E9489060C94AE
:1000A000A8060C940000CF93DF9300D0CDB7DEB745
:1000B00089836A838A81882F90E0009789F101976C
:1000C00009F05DC08981869586958695882F90E098
:1000D000880F991F805A9F4FFC018081918129814F
:1000E000269526952695222F30E0220F331F205A81
:1000F0003F4FF90120813181F9012081622F29814F
:10010000222F30E0A9014770552721E030E002C0DE
:10011000220F331F4A95E2F7262BFC0120832FC0C4
:100120008981869586958695882F90E0880F991FFE
:10013000805A9F4FFC0180819181298126952695C7
:100140002695222F30E0220F331F205A3F4FF9010E
:1001500020813181F9012081622F2981222F30E015
:10016000A9014770552721E030E002C0220F331F5C
:100170004A95E2F720952623FC0120830000000029
:100180000F900F90DF91CF910895CF93DF9300D020
:10019000CDB7DEB789836A838A81882F90E081306A
:1001A000910539F08230910509F460C0892B79F10D
:1001B0008BC08981869586958695882F90E0880FDB
:1001C000991F88599F4FFC01808191812981269533
:1001D00026952695222F30E0220F331F28593F4FB6
:1001E000F90120813181F9012081622F2981222F9B
:1001F00030E0A9014770552721E030E002C0220F0E
:10020000331F4A95E2F7262BFC0120835DC08981CC
:10021000869586958695882F90E0880F991F885936
:100220009F4FFC01808191812981269526952695F5
:10023000222F30E0220F331F28593F4FF901208130
:100240003181F9012081622F2981222F30E0A9011B
:100250004770552721E030E002C0220F331F4A9536
:10026000E2F720952623FC0120832EC08981869504
:1002700086958695882F90E0880F991F88599F4F03
:10028000FC01808191812981269526952695222F32
:1002900030E0220F331F28593F4FF901208131816F
:1002A000F9012081622F2981222F30E0A9014770B6
:1002B000552721E030E002C0220F331F4A95E2F7B4
:1002C0002627FC012083000000000F900F90DF9193
:1002D000CF910895CF93DF9300D0CDB7DEB78A8357
:1002E00019828A81869586958695882F90E0880F59
:1002F000991F80599F4FFC0180819181FC01808171
:10030000882F90E02A81222F30E02770332702C007
:10031000959587952A95E2F78170898389810F9059
:100320000F90DF91CF910895CF93DF9300D0CDB799
:10033000DEB789836A838981882F90E0880F991FAF
:10034000805A9F4FFC01808191812A81FC0120838A
:1003500000000F900F90DF91CF910895CF93DF931E
:1003600000D0CDB7DEB789836A838981882F90E07A
:10037000880F991F88599F4FFC01808191812A81A4
:10038000FC01208300000F900F90DF91CF91089522
:10039000CF93DF9300D0CDB7DEB78A8319828A81ED
:1003A000882F90E0880F991F80599F4FFC01808112
:1003B0009181FC018081898389810F900F90DF9169
:1003C000CF910895CF93DF9300D01F92CDB7DEB7C2
:1003D00089836A834B836FEF89810E94940160E077
:1003E0008A810E94530060E08B810E9453008A81C1
:1003F0000E946A01882321F46FEF89810E94AE0177
:100400008B810E946A01882321F460E089810E9427
:10041000AE0100000F900F900F90DF91CF910895E3
:10042000CF93DF9300D01F92CDB7DEB789836A8365
:100430004B8361E089810E94530060E08A810E94C1
:10044000530060E08B810E9453008A810E946A0100
:10045000882321F461E089810E94C5008B810E947C
:100460006A01882321F460E089810E94AE010000C6
:100470000F900F900F90DF91CF910895CF93DF935E
:10048000CDB7DEB780917A0061E00E945300809181
:10049000780061E00E9453008091790061E00E9441
:1004A000530080917E0061E00E94530080917C00A7
:1004B00061E00E94530080917D0061E00E94530042
:1004C0000000DF91CF910895CF93DF931F92CDB7B6
:1004D000DEB789838981882F90E082309105C1F051
:1004E0008330910539F1019709F047C090917B0065
:1004F00080917A00692F0E94C5008091780061E0A8
:100500000E94C5008091790060E00E94C50035C05E
:1005100090917F0080917E00692F0E94C50080919C
:100520007C0061E00E94C50080917D0060E00E9437
:10053000C50023C090917B0080917A00692F0E94B2
:10054000C50090917F0080917E00692F0E94C500B8
:100550008091780061E00E94C5008091790060E0A0
:100560000E94C50080917C0061E00E94C5008091DE
:100570007D0060E00E94C500000000000F90DF9148
:10058000CF910895CF93DF931F92CDB7DEB78983C4
:100590008981882F90E082309105C1F083309105E8
:1005A00039F1019709F047C090917B0080917A0062
:1005B000692F0E94C5008091780060E00E94C5000C
:1005C0008091790061E00E94C50035C090917F0064
:1005D00080917E00692F0E94C50080917C0060E0C0
:1005E0000E94C50080917D0061E00E94C50023C08B
:1005F00090917B0080917A00692F0E94C5009091B4
:100600007F0080917E00692F0E94C5008091780054
:1006100060E00E94C5008091790061E00E94C50001
:1006200080917C0060E00E94C50080917D0061E0C7
:100630000E94C500000000000F90DF91CF91089547
:10064000CF93DF931F92CDB7DEB789838981882F3F
:1006500090E082309105C1F08330910539F1019726
:1006600009F047C090917B0080917A00692F0E9429
:10067000C5008091780060E00E94C50080917900FB
:1006800060E00E94C50035C090917F0080917E009F
:10069000692F0E94C50080917C0060E00E94C50027
:1006A00080917D0060E00E94C50023C090917B0096
:1006B00080917A00692F0E94C50090917F008091FF
:1006C0007E00692F0E94C5008091780060E00E9442
:1006D000C5008091790060E00E94C50080917C0097
:1006E00060E00E94C50080917D0060E00E94C5002E
:1006F000000000000F90DF91CF910895CF93DF931A
:1007000000D000D0CDB7DEB769837A838B839C831A
:10071000898161E00E9453008A8161E00E94530058
:100720008B8161E00E9453008C8161E00E94530044
:1007300000000F900F900F900F90DF91CF910895D0
:10074000CF93DF9300D000D01F92CDB7DEB769837F
:100750007A838B839C834D838D81882F90E0092E33
:10076000000CAA0BBB0B40E050E029E030E0841BFA
:10077000950B2817390708F4AFC0865D9F4FFC0121
:100780000C94A206898160E00E94C5008A8160E025
:100790000E94C5008B8160E00E94C5008C8160E0F2
:1007A0000E94C5009AC0898161E00E94C5008A81CB
:1007B00060E00E94C5008B8160E00E94C5008C81D2
:1007C00060E00E94C50089C0898160E00E94C50088
:1007D0008A8161E00E94C5008B8160E00E94C500B3
:1007E0008C8160E00E94C50078C0898161E00E9430
:1007F000C5008A8161E00E94C5008B8160E00E9493
:10080000C5008C8160E00E94C50067C0898160E0FE
:100810000E94C5008A8160E00E94C5008B8161E072
:100820000E94C5008C8160E00E94C50056C089818D
:1008300061E00E94C5008A8160E00E94C5008B8152
:1008400061E00E94C5008C8160E00E94C50045C047
:10085000898160E00E94C5008A8161E00E94C50034
:100860008B8161E00E94C5008C8160E00E94C50020
:1008700034C0898161E00E94C5008A8161E00E94E4
:10088000C5008B8161E00E94C5008C8160E00E9400
:10089000C50023C0898160E00E94C5008A8160E0B4
:1008A0000E94C5008B8160E00E94C5008C8161E0E0
:1008B0000E94C50012C0898161E00E94C5008A8142
:1008C00060E00E94C5008B8160E00E94C5008C81C1
:1008D00061E00E94C50001C0000000000F900F9071
:1008E0000F900F900F90DF91CF910895CF93DF93EA
:1008F00000D000D0CDB7DEB79A8389836B834C8359
:100900008C818130D1F48B81882F90E0009761F049
:10091000019709F02FC0898161E00E94C5008A819A
:1009200061E00E94C50026C0898160E00E94C50088
:100930008A8160E00E94C5001DC08C818823D1F4AB
:100940008B81882F90E0009761F0019709F012C029
:10095000898160E00E94C5008A8160E00E94C50034
:1009600009C0898161E00E94C5008A8161E00E941E
:10097000C500000000000F900F900F900F90DF91C6
:10098000CF910895CF93DF9300D000D000D0CDB7A2
:10099000DEB769837A838B839C834D832E838E811C
:1009A000813051F58D81882F90E00097A1F001975B
:1009B00009F04FC0898161E00E94C5008A8161E031
:1009C0000E94C5008B8161E00E94C5008C8161E0BE
:1009D0000E94C5003EC0898160E00E94C5008A81F6
:1009E00060E00E94C5008B8160E00E94C5008C81A0
:1009F00060E00E94C5002DC08E81882351F58D8155
:100A0000882F90E00097A1F0019709F022C089811A
:100A100060E00E94C5008A8160E00E94C5008B8171
:100A200060E00E94C5008C8160E00E94C50011C09A
:100A3000898161E00E94C5008A8161E00E94C50051
:100A40008B8161E00E94C5008C8161E00E94C5003D
:100A50000000000026960FB6F894DEBF0FBECDBF93
:100A6000DF91CF9108950F93CF93DF93CDB7DEB78A
:100A700028970FB6F894DEBF0FBECDBF49835A83C7
:100A80006B837C838D839E832F8308878885813049
:100A9000D1F58F81882F90E00097E1F0019709F060
:100AA0006FC0898161E00E94C5008A8161E00E9477
:100AB000C5008B8161E00E94C5008C8161E00E94CD
:100AC000C5008D8161E00E94C5008E8161E00E94B9
:100AD000C50056C0898160E00E94C5008A8160E03F
:100AE0000E94C5008B8160E00E94C5008C8160E09F
:100AF0000E94C5008D8160E00E94C5008E8160E08B
:100B00000E94C5003DC088858823D1F58F81882F3C
:100B100090E00097E1F0019709F032C0898160E030
:100B20000E94C5008A8160E00E94C5008B8160E060
:100B30000E94C5008C8160E00E94C5008D8160E04C
:100B40000E94C5008E8160E00E94C50019C08981A5
:100B500061E00E94C5008A8161E00E94C5008B812E
:100B600061E00E94C5008C8161E00E94C5008D811A
:100B700061E00E94C5008E8161E00E94C500000016
:100B8000000028960FB6F894DEBF0FBECDBFDF91F0
:100B9000CF910F910895EF920F93CF93DF93CDB73D
:100BA000DEB72A970FB6F894DEBF0FBECDBF2983FC
:100BB0003A834B835C836D837E838F839887098719
:100BC000EA868A85813009F04AC08985882F90E0BD
:100BD000009721F1019709F090C0898161E00E949E
:100BE000C5008A8161E00E94C5008B8161E00E949E
:100BF000C5008C8161E00E94C5008D8161E00E948A
:100C0000C5008E8161E00E94C5008F8161E00E9475
:100C1000C500888561E00E94C5006FC0898160E0E1
:100C20000E94C5008A8160E00E94C5008B8160E05F
:100C30000E94C5008C8160E00E94C5008D8160E04B
:100C40000E94C5008E8160E00E94C5008F8160E037
:100C50000E94C500888560E00E94C5004EC08A855C
:100C6000882309F04AC08985882F90E0009721F1F8
:100C7000019709F042C0898160E00E94C5008A8125
:100C800060E00E94C5008B8160E00E94C5008C81FD
:100C900060E00E94C5008D8160E00E94C5008E81E9
:100CA00060E00E94C5008F8160E00E94C5008885D9
:100CB00060E00E94C50021C0898161E00E94C500FA
:100CC0008A8161E00E94C5008B8161E00E94C500BD
:100CD0008C8161E00E94C5008D8161E00E94C500A9
:100CE0008E8161E00E94C5008F8161E00E94C50095
:100CF000888561E00E94C500000000002A960FB6BA
:100D0000F894DEBF0FBECDBFDF91CF910F91EF9072
:100D10000895CF93DF93CDB7DEB70E9492060E946D
:100D20009A06FDCFCF93DF93CDB7DEB70000DF91FA
:100D3000CF910895CF93DF93CDB7DEB70000DF9159
:100D4000CF910895EE0FFF1F0590F491E02D0994C7
:040D5000F894FFCF45
:100D54003A003700340031003B00380035003200DF
:100D6400390036003300300008090C010A0B0D016C
:080D740000010203040506075B
:00000001FF
