:100000000C942A000C9447000C9447000C94470071
:100010000C9447000C9447000C9447000C94470044
:100020000C9447000C9447000C9447000C94470034
:100030000C9447000C9447000C9447000C94470024
:100040000C9447000C9447000C9447000C94470014
:100050000C94470011241FBECFE5D4E0DEBFCDBF16
:1000600010E0A0E6B0E0E0EBF5E302C005900D92F1
:10007000A63FB107D9F720E0A6EFB0E001C01D927E
:10008000AA3FB207E1F70E9412160C94D61A0C94FC
:100090000000CF93DF9300D0CDB7DEB789836A83AA
:1000A0008981882F90E08130910501F1823091059E
:1000B000B9F1892B09F04EC08FE590E0FC01208159
:1000C0008FE590E02068FC0120838BE590E0FC0147
:1000D00020818BE590E02064FC0120838A810E94CE
:1000E000B00060E08AE10E94B40134C08FE590E086
:1000F000FC0120818FE590E02068FC0120838BE5E6
:1001000090E0FC0120818BE590E02068FC012083D9
:100110008A810E94190160E08BE10E94B4011AC03B
:100120008FE590E0FC0120818FE590E02068FC01E4
:1001300020838BE590E0FC0120818BE590E020623C
:10014000FC0120838A810E94820160E08BE00E9492
:10015000B401000000000F900F90DF91CF9108953F
:10016000CF93DF931F92CDB7DEB789838981882F24
:1001700090E081309105F9F0823091051CF4892BD3
:1001800039F052C08230910549F10397D1F14CC04A
:1001900085E590E0FC01208185E590E0277FFC016A
:1001A000208385E590E0FC01208185E590E02B7FB0
:1001B000FC01208339C085E590E0FC01208185E5C4
:1001C00090E0277FFC01208385E590E0FC01208101
:1001D00085E590E02460FC01208326C085E590E061
:1001E000FC01208185E590E02860FC01208385E505
:1001F00090E0FC01208185E590E02B7FFC012083CD
:1002000013C085E590E0FC01208185E590E0286041
:10021000FC01208385E590E0FC01208185E590E0EC
:100220002460FC012083000000000F90DF91CF913B
:100230000895CF93DF931F92CDB7DEB7898389816D
:10024000882F90E081309105F9F0823091051CF4FF
:10025000892B39F052C08230910549F10397D1F1D1
:100260004CC085E590E0FC01208185E590E02D7F84
:10027000FC01208385E590E0FC01208185E590E08C
:100280002E7FFC01208339C085E590E0FC012081B0
:1002900085E590E02D7FFC01208385E590E0FC0161
:1002A000208185E590E02160FC01208326C085E562
:1002B00090E0FC01208185E590E02260FC01208334
:1002C00085E590E0FC01208185E590E02E7FFC0132
:1002D000208313C085E590E0FC01208185E590E056
:1002E0002260FC01208385E590E0FC01208185E50A
:1002F00090E02160FC012083000000000F90DF915E
:10030000CF910895CF93DF931F92CDB7DEB7898346
:100310008981882F90E08230910519F0039759F078
:1003200014C084E590E0FC01208184E590E02F7BFF
:10033000FC01208314C084E590E0FC01208184E569
:1003400090E02064FC0120830AC084E590E0FC0179
:10035000208184E590E02F7BFC01208300000000D9
:100360000F90DF91CF910895CF93DF9300D0CDB759
:10037000DEB789836A838A81882F90E0009791F1A4
:10038000019709F05FC08981869586958695882FAB
:1003900090E0880F991F805A9F4FFC0180819181C6
:1003A000FC018081482F8981882F90E09C01277073
:1003B000332781E090E002C0880F991F2A95E2F769
:1003C000242F282B8981869586958695882F90E005
:1003D000880F991F805A9F4FFC0180819181FC01F9
:1003E000208330C08981869586958695882F90E0F8
:1003F000880F991F805A9F4FFC0180819181FC01D9
:100400008081482F8981882F90E09C0127703327B5
:1004100081E090E002C0880F991F2A95E2F780954D
:10042000242F28238981869586958695882F90E0AC
:10043000880F991F805A9F4FFC0180819181FC0198
:100440002083000000000F900F90DF91CF9108955E
:10045000CF93DF9300D0CDB7DEB789836A838A81DB
:10046000882F90E08130910539F08230910509F4B0
:1004700062C0892B81F18EC089818695869586958B
:10048000882F90E0880F991F88599F4FFC01808129
:100490009181FC018081482F8981882F90E09C0107
:1004A0002770332781E090E002C0880F991F2A95BA
:1004B000E2F7242F282B8981869586958695882FAB
:1004C00090E0880F991F88599F4FFC01808191818E
:1004D000FC0120835FC08981869586958695882F4B
:1004E00090E0880F991F88599F4FFC01808191816E
:1004F000FC018081482F8981882F90E09C01277022
:10050000332781E090E002C0880F991F2A95E2F717
:100510008095242F28238981869586958695882F16
:1005200090E0880F991F88599F4FFC01808191812D
:10053000FC0120832FC08981869586958695882F1A
:1005400090E0880F991F88599F4FFC01808191810D
:10055000FC018081482F8981882F90E09C012770C1
:10056000332781E090E002C0880F991F2A95E2F7B7
:10057000242F28278981869586958695882F90E057
:10058000880F991F88599F4FFC0180819181FC0140
:100590002083000000000F900F90DF91CF9108950D
:1005A000CF93DF9300D0CDB7DEB78A8319828A81DB
:1005B000869586958695882F90E0880F991F80599B
:1005C0009F4FFC0180819181FC018081882F90E008
:1005D0002A81222F30E02770332702C09595879516
:1005E0002A95E2F78170898389810F900F90DF91BE
:1005F000CF910895CF93DF9300D000D01F92CDB755
:10060000DEB79B838A836C834D8319829BC08D8167
:10061000882F90E0009721F0019709F449C08FC01E
:100620008981882F90E02A813B81820F931FFC01F2
:100630008081869586958695882F90E0880F991FF2
:10064000805A9F4FFC0180819181FC018081482F5D
:100650008981882F90E02A813B81820F931FFC01C2
:100660008081882F90E09C012770332781E090E003
:1006700002C0880F991F2A95E2F780954823898147
:10068000882F90E02A813B81820F931FFC0180819B
:10069000869586958695882F90E0880F991F805AB9
:1006A0009F4FFC0180819181242FFC01208347C052
:1006B0008981882F90E02A813B81820F931FFC0162
:1006C0008081869586958695882F90E0880F991F62
:1006D000805A9F4FFC0180819181FC018081482FCD
:1006E0008981882F90E02A813B81820F931FFC0132
:1006F0008081882F90E09C012770332781E090E073
:1007000002C0880F991F2A95E2F7482B8981882F0C
:1007100090E02A813B81820F931FFC0180818695A6
:1007200086958695882F90E0880F991F805A9F4F55
:10073000FC0180819181242FFC01208300008981AC
:100740008F5F898399818C81981708F460CF0000AE
:100750000F900F900F900F900F90DF91CF91089511
:10076000CF93DF9300D000D01F92CDB7DEB79B832D
:100770008A836C834D8319829BC08D81882F90E082
:10078000009721F0019709F449C08FC08981882F13
:1007900090E02A813B81820F931FFC018081869526
:1007A00086958695882F90E0880F991F88599F4FCE
:1007B000FC0180819181FC018081482F8981882FF3
:1007C00090E02A813B81820F931FFC018081882F5A
:1007D00090E09C012770332781E090E002C0880FF1
:1007E000991F2A95E2F7809548238981882F90E008
:1007F0002A813B81820F931FFC018081869586951B
:100800008695882F90E0880F991F88599F4FFC018B
:1008100080819181242FFC01208347C08981882F0A
:1008200090E02A813B81820F931FFC018081869595
:1008300086958695882F90E0880F991F88599F4F3D
:10084000FC0180819181FC018081482F8981882F62
:1008500090E02A813B81820F931FFC018081882FC9
:1008600090E09C012770332781E090E002C0880F60
:10087000991F2A95E2F7482B8981882F90E02A81D9
:100880003B81820F931FFC0180818695869586951A
:10089000882F90E0880F991F88599F4FFC01808115
:1008A0009181242FFC012083000089818F5F89833F
:1008B00099818C81981708F460CF00000F900F90F9
:1008C0000F900F900F90DF91CF910895CF93DF930A
:1008D00000D0CDB7DEB789836A838981882F90E005
:1008E000880F991F805A9F4FFC01808191812A8136
:1008F000FC01208300000F900F90DF91CF910895AD
:10090000CF93DF9300D0CDB7DEB789836A83898127
:10091000882F90E0880F991F88599F4FFC01808194
:1009200091812A81FC01208300000F900F90DF91BC
:10093000CF910895CF93DF9300D0CDB7DEB78A83F0
:1009400019828A81882F90E0880F991F80599F4FC4
:10095000FC0180819181FC018081898389810F90D4
:100960000F90DF91CF910895CF93DF93CDB7DEB78E
:1009700087E290E0FC01208187E290E02064FC01A6
:10098000208387E290E0FC01208187E290E02F77CE
:10099000FC01208386E290E0FC01208186E290E069
:1009A0002068FC01208386E290E0FC01208186E241
:1009B00090E02160FC0120830000DF91CF91089539
:1009C000CF93DF9300D01F92CDB7DEB78B831A820F
:1009D000198287E290E0FC01208187E290E0207E8E
:1009E000FC01208387E290E0FC01308187E290E007
:1009F0002B81232BFC01208386E290E0FC012081E7
:100A000086E290E02064FC012083000086E290E012
:100A1000FC0180818295869586958370882F90E071
:100A200081709927892B91F784E290E0FC01808105
:100A3000882F90E09A83898385E290E0FC01808191
:100A4000882F90E0982F88279C0189819A81822B9A
:100A5000932B9A83898389819A810F900F900F90AD
:100A6000DF91CF910895CF93DF93CDB7DEB786E2C4
:100A700090E0FC01208186E290E02068FC01208368
:100A80000000DF91CF910895CF93DF93CDB7DEB70C
:100A900086E290E0FC01208186E290E02F77FC0165
:100AA00020830000DF91CF910895CF93DF93CDB7DE
:100AB000DEB78FE590E0FC0120818FE590E02068B3
:100AC000FC01208386E290E0FC01208186E290E038
:100AD0002860FC0120830000DF91CF910895CF931F
:100AE000DF93CDB7DEB786E290E0FC01208186E29D
:100AF00090E0277FFC0120830000DF91CF910895D3
:100B0000CF93DF93CDB7DEB786E290E0FC01208182
:100B100086E290E02F7EFC0120830000DF91CF91E0
:100B20000895CF93DF93CDB7DEB7C354D1090FB685
:100B3000F894DEBF0FBECDBF4EAF5FAF9E01205C0D
:100B40003F4FF90160839E012F5B3F4FF901708396
:100B50009E012E5B3F4FF90180839E012D5B3F4F2D
:100B6000F901908319828FAD61E00E94B4018EADCE
:100B700061E00E94B401198210C08981882F90E041
:100B80009E01205C3F4F820F931FFC01808161E03A
:100B90000E94B40189818F5F89838981843068F3E1
:100BA00080E090E0A0EAB1E488AB99ABAAABBBAB24
:100BB00020E030E04AE753E468A979A98AA99BA913
:100BC0000E948A17DC01CB018CAB9DABAEABBFABF7
:100BD00020E030E040E85FE36CA97DA98EA99FA9E1
:100BE0000E942D1688232CF481E090E099AF88AF05
:100BF0003FC020E03FEF4FE757E46CA97DA98EA9E5
:100C00009FA90E94851718164CF520E030E040E2BD
:100C100051E468A979A98AA99BA90E948A17DC01D5
:100C2000CB01BC01CD010E94A416DC01CB0199AF20
:100C300088AF0FC089E190E09BAF8AAF8AAD9BADD2
:100C40000197F1F79BAF8AAF88AD99AD019799AF46
:100C500088AF88AD99AD892B69F714C06CA97DA9BF
:100C60008EA99FA90E94A416DC01CB0199AF88AF81
:100C700088AD99AD9DAF8CAF8CAD9DAD0197F1F76F
:100C80009DAF8CAF28E34EAD5FADCE01805C9F4F32
:100C9000FC016081CE018F5B9F4FFC017081CE0112
:100CA0008E5B9F4FFC018081FE01ED5BFF4F9081C9
:100CB0000E94860880E090E0A0EAB0E48AA39BA3AB
:100CC000ACA3BDA320E030E04AE753E46AA17BA1D6
:100CD0008CA19DA10E948A17DC01CB018EA39FA34A
:100CE000A8A7B9A720E030E040E85FE36EA17FA1AC
:100CF00088A599A50E942D1688232CF481E090E008
:100D00009BA78AA73FC020E03FEF4FE757E46EA1C3
:100D10007FA188A599A50E94851718164CF520E09B
:100D200030E040E251E46AA17BA18CA19DA10E9428
:100D30008A17DC01CB01BC01CD010E94A416DC01A5
:100D4000CB019BA78AA70FC089E190E09DA78CA744
:100D50008CA59DA50197F1F79DA78CA78AA59BA5BA
:100D600001979BA78AA78AA59BA5892B69F714C021
:100D70006EA17FA188A599A50E94A416DC01CB01D4
:100D80009BA78AA78AA59BA59FA78EA78EA59FA58F
:100D90000197F1F79FA78EA728E34EAD5FADCE0177
:100DA000805C9F4FFC016081CE018F5B9F4FFC01F7
:100DB0007081CE018E5B9F4FFC018081FE01ED5B57
:100DC000FF4F90810E94860880E090E0A6E1B3E4A6
:100DD0008A839B83AC83BD832BEA3AEA4AEA5EE3CB
:100DE0006A817B818C819D810E948A17DC01CB0105
:100DF0008E839F83A887B98720E030E040E85EE3D8
:100E00006A817B818C819D810E948A17DC01CB01E4
:100E10008A879B87AC87BD8720E030E040E85FE3AE
:100E20006E817F81888599850E942D1688231CF408
:100E300081E08E87B2C020E03FEF4FE757E46A853C
:100E40007B858C859D850E94851718160CF07BC0CC
:100E500020E030E04AE754E46A817B818C819D8107
:100E60000E943216DC01CB018F87988BA98BBA8B3D
:100E700020E030E04AE753E46F85788989899A89D0
:100E80000E948A17DC01CB018B8B9C8BAD8BBE8BB8
:100E900020E030E040E85FE36B897C898D899E89A2
:100EA0000E942D1688232CF481E090E0988F8F8B80
:100EB0003FC020E03FEF4FE757E46B897C898D8985
:100EC0009E890E94851718164CF520E030E040E21C
:100ED00051E46F85788989899A890E948A17DC0193
:100EE000CB01BC01CD010E94A416DC01CB01988F7F
:100EF0008F8B0FC089E190E09A8F898F898D9A8DB1
:100F00000197F1F79A8F898F8F89988D0197988F24
:100F10008F8B8F89988D892B69F73FC06B897C896E
:100F20008D899E890E94A416DC01CB01988F8F8B3E
:100F30008F89988D9C8F8B8F8B8D9C8D0197F1F76E
:100F40009C8F8B8F2AC020E030E04FE753E46E8106
:100F50007F81888599850E9485171816ACF46A856B
:100F60007B858C859D850E94A416DC01CB019E8F1C
:100F70008D8F8D8D9E8D98A38F8F8F8D98A10197CA
:100F8000F1F798A38F8F0FC06E817F818885998537
:100F90000E94A416DC01CB018E878E8589A389A1CE
:100FA0008A95F1F789A328E34EAD5FADCE01805C51
:100FB0009F4FFC016081CE018F5B9F4FFC017081D0
:100FC000CE018E5B9F4FFC018081FE01ED5BFF4FE8
:100FD00090810E94860821E04EAD5FADCE01805C1D
:100FE0009F4FFC016081CE018F5B9F4FFC017081A0
:100FF000CE018E5B9F4FFC018081FE01ED5BFF4FB8
:1010000090810E94860822E04EAD5FADCE01805CEB
:101010009F4FFC016081CE018F5B9F4FFC0170816F
:10102000CE018E5B9F4FFC018081FE01ED5BFF4F87
:1010300090810E94860826E04EAD5FADCE01805CB7
:101040009F4FFC016081CE018F5B9F4FFC0170813F
:10105000CE018E5B9F4FFC018081FE01ED5BFF4F57
:1010600090810E9486082CE04EAD5FADCE01805C81
:101070009F4FFC016081CE018F5B9F4FFC0170810F
:10108000CE018E5B9F4FFC018081FE01ED5BFF4F27
:1010900090810E94860828E24EAD5FADCE01805C53
:1010A0009F4FFC016081CE018F5B9F4FFC017081DF
:1010B000CE018E5B9F4FFC018081FE01ED5BFF4FF7
:1010C00090810E94860820E84EAD5FADCE01805C25
:1010D0009F4FFC016081CE018F5B9F4FFC017081AF
:1010E000CE018E5B9F4FFC018081FE01ED5BFF4FC7
:1010F00090810E9486080000CD5BDF4F0FB6F89408
:10110000DEBF0FBECDBFDF91CF910895CF93DF93A8
:1011100000D000D000D01F92CDB7DEB749835A83EC
:101120006B837C838D839E832F83898160E00E9403
:1011300028028F8182958F70282F49815A816B8177
:101140007C818D819E810E94580A49815A816B81E0
:101150007C818D819E810E94930A2F8149815A81D1
:101160006B817C818D819E810E94580A49815A81C0
:101170006B817C818D819E810E94930A000027965D
:101180000FB6F894DEBF0FBECDBFDF91CF910895AB
:10119000CF93DF9300D000D000D01F92CDB7DEB741
:1011A00049835A836B837C838D839E832F838981BC
:1011B00061E00E9428028F8182958F70282F4981DB
:1011C0005A816B817C818D819E810E94580A498160
:1011D0005A816B817C818D819E810E94930A2F812F
:1011E00049815A816B817C818D819E810E94580A40
:1011F00049815A816B817C818D819E810E94930AF5
:10120000000027960FB6F894DEBF0FBECDBFDF916A
:10121000CF910895EF920F93CF93DF93CDB7DEB7C1
:1012200029970FB6F894DEBF0FBECDBF49835A830E
:101230006B837C838D839E832F830887E986088553
:101240002F8149815A816B817C818D819E810E9491
:10125000A40B298549815A816B817C818D819E8176
:101260000E94C808000029960FB6F894DEBF0FBE92
:10127000CDBFDF91CF910F91EF900895CF93DF9382
:10128000CDB7DEB728970FB6F894DEBF0FBECDBF3F
:1012900049835A836B837C838D839E8338872F8316
:1012A00012C08F8198859C012F5F3F4F38872F8315
:1012B000FC018081282F49815A816B817C818D813D
:1012C0009E810E94C8088F819885FC0180818823B7
:1012D00041F7000028960FB6F894DEBF0FBECDBFD1
:1012E000DF91CF910895EF92FF920F93CF93DF9309
:1012F000CDB7DEB72A970FB6F894DEBF0FBECDBFCD
:1013000049835A836B837C838D839E832F830887D5
:10131000FA86E98608852F8149815A816B817C8113
:101320008D819E810E94A40B12C089859A859C01A3
:101330002F5F3F4F3A872987FC018081282F498101
:101340005A816B817C818D819E810E94C80889852C
:101350009A85FC018081882341F700002A960FB608
:10136000F894DEBF0FBECDBFDF91CF910F91FF90FC
:10137000EF900895CF93DF9300D01F92CDB7DEB7E3
:1013800089837B836A838A819B8144E050E060E0AB
:1013900070E00E94F7178981882F90E0292F2F9302
:1013A0008F938EE990E0892F8F938EE990E08F9351
:1013B0008B818F938A818F930E94FE170F900F90DD
:1013C0000F900F900F900F9000000F900F900F90C4
:1013D000DF91CF910895CF93DF9300D000D0CDB7A8
:1013E000DEB79A8389837C836B838B819C8146E003
:1013F00050E060E070E00E94F7178A818F93898146
:101400008F938EE990E0892F8F938EE990E08F93F0
:101410008C818F938B818F930E94FE170F900F907A
:101420000F900F900F900F9000000F900F900F9063
:101430000F90DF91CF910895CF93DF9300D000D02C
:1014400000D0CDB7DEB769837A838B839C835E83BC
:101450004D838D819E814BE050E060E070E00E9402
:10146000F7178C818F938B818F938A818F938981DA
:101470008F938EE990E0892F8F938EE990E08F9380
:101480008E818F938D818F930E94FE178DB79EB7AB
:1014900008960FB6F894DEBF0FBECDBF00002696AB
:1014A0000FB6F894DEBF0FBECDBFDF91CF91089588
:1014B000CF93DF9300D000D000D01F92CDB7DEB71E
:1014C00049835A836B837C838D839E832F838F8193
:1014D000982F91708B81692F0E9428028F818695A9
:1014E000982F91708C81692F0E9428028F81869598
:1014F0008695982F91708D81692F0E9428028F8187
:10150000869586958695982F91708E81692F0E9479
:101510002802000027960FB6F894DEBF0FBECDBF9D
:10152000DF91CF910895CF93DF93CDB7DEB7A69724
:101530000FB6F894DEBF0FBECDBF49A35AA36BA36D
:101540007CA38DA39EA38AA161E00E94280280E073
:1015500090E0A0EAB0E489839A83AB83BC832BEA52
:101560003AEA4AEA5EE369817A818B819C810E9432
:101570008A17DC01CB018D839E83AF83B88720E07F
:1015800030E040E85EE369817A818B819C810E9432
:101590008A17DC01CB0189879A87AB87BC8720E05B
:1015A00030E040E85FE36D817E818F8198850E9405
:1015B0002D1688231CF481E08D87B2C020E03FEF18
:1015C0004FE757E469857A858B859C850E9485174E
:1015D00018160CF07BC020E030E04AE754E4698143
:1015E0007A818B819C810E943216DC01CB018E872F
:1015F0009F87A88BB98B20E030E04AE753E46E85E3
:101600007F85888999890E948A17DC01CB018A8BA2
:101610009B8BAC8BBD8B20E030E040E85FE36A89B8
:101620007B898C899D890E942D1688232CF481E06A
:1016300090E09F8B8E8B3FC020E03FEF4FE757E459
:101640006A897B898C899D890E94851718164CF5BB
:1016500020E030E040E251E46E857F8588899989F9
:101660000E948A17DC01CB01BC01CD010E94A416A7
:10167000DC01CB019F8B8E8B0FC089E190E0998FAD
:10168000888F888D998D0197F1F7998F888F8E8932
:101690009F8901979F8B8E8B8E899F89892B69F7F4
:1016A0003FC06A897B898C899D890E94A416DC01D0
:1016B000CB019F8B8E8B8E899F899B8F8A8F8A8D82
:1016C0009B8D0197F1F79B8F8A8F2AC020E030E035
:1016D0004FE753E46D817E818F8198850E94851745
:1016E0001816ACF469857A858B859C850E94A416B2
:1016F000DC01CB019D8F8C8F8C8D9D8D9F8F8E8F6C
:101700008E8D9F8D0197F1F79F8F8E8F0FC06D810A
:101710007E818F8198850E94A416DC01CB018D8784
:101720008D8588A388A18A95F1F788A38AA160E0B6
:101730000E9428020000A6960FB6F894DEBF0FBEE6
:10174000CDBFDF91CF9108950F93CF93DF93CDB7A6
:10175000DEB728970FB6F894DEBF0FBECDBF498322
:101760005A836B837C838D839E832F830887888530
:10177000815088878F81882F90E082309105C1F059
:10178000833091051CF4019739F036C08330910500
:10179000D9F0049729F130C088858058282F4981D5
:1017A0005A816B817C818D819E810E94860824C034
:1017B00088858054282F49815A816B817C818D8155
:1017C0009E810E94860818C088858C56282F4981E2
:1017D0005A816B817C818D819E810E9486080CC01C
:1017E00088858C52282F49815A816B817C818D811B
:1017F0009E810E9486080000000028960FB6F8948B
:10180000DEBF0FBECDBFDF91CF910F910895CF9373
:10181000DF93CDB7DEB740E064E08EE890E00E9451
:10182000FA0241E064E082E990E00E94FA0241E0BD
:1018300064E08EE890E00E94B00341E064E082E959
:1018400090E00E94B0030000DF91CF910895CF9304
:10185000DF93CDB7DEB763970FB6F894DEBF0FBE48
:10186000CDBF9B8B8A8B1B821982CCC08981882F2C
:1018700090E08E569F4FFC01808160E00E9428021C
:101880001A82AFC08A81882F90E082579F4FFC0157
:1018900080810E94D002882309F0A0C08A81282F6D
:1018A00030E08981882F90E0220F331F220F331FF1
:1018B000820F931F82589F4FFC0120818A899B8948
:1018C000FC01208381E08B8300008A81882F90E0D7
:1018D00082579F4FFC0180810E94D0028823A9F388
:1018E00080E090E0A0EAB1E48C839D83AE83BF8367
:1018F00020E030E04AE753E46C817D818E819F8156
:101900000E948A17DC01CB0188879987AA87BB8749
:1019100020E030E040E85FE3688579858A859B8533
:101920000E942D1688232CF481E090E09D878C87FF
:101930003FC020E03FEF4FE757E4688579858A850F
:101940009B850E94851718164CF520E030E040E298
:1019500051E46C817D818E819F810E948A17DC0118
:10196000CB01BC01CD010E94A416DC01CB019D87F7
:101970008C870FC089E190E09F878E878E859F8539
:101980000197F1F79F878E878C859D8501979D87AD
:101990008C878C859D85892B69F714C0688579852E
:1019A0008A859B850E94A416DC01CB019D878C87CC
:1019B0008C859D85998B888B888999890197F1F70A
:1019C000998B888B8981882F90E08E569F4FFC01E0
:1019D000808161E00E9428028B8119C08A818F5F1B
:1019E0008A838A81843008F44DCF8981882F90E0E2
:1019F0008E569F4FFC01808161E00E942802898100
:101A00008F5F89838981843008F430CF8B8163961E
:101A10000FB6F894DEBF0FBECDBFDF91CF91089512
:101A2000EF92FF920F93CF93DF93CDB7DEB72E9750
:101A30000FB6F894DEBF0FBECDBF0E94070C4091D9
:101A400078005091790060917A0070917B008091CC
:101A50007C0090917D000E9491050F2EF1EAEF2EFF
:101A6000F0E0FF2EF02D01E022E04091780050914F
:101A7000790060917A0070917B0080917C00909158
:101A80007D000E94730980E090E8ABE3B5E48983B0
:101A90009A83AB83BC8320E030E04AE753E469815A
:101AA0007A818B819C810E948A17DC01CB018D8316
:101AB0009E83AF83B88720E030E040E85FE36D812C
:101AC0007E818F8198850E942D1688232CF481E0D9
:101AD00090E09A8789873FC020E03FEF4FE757E4C7
:101AE0006D817E818F8198850E94851718164CF52F
:101AF00020E030E040E251E469817A818B819C8171
:101B00000E948A17DC01CB01BC01CD010E94A41602
:101B1000DC01CB019A8789870FC089E190E09C871F
:101B20008B878B859C850197F1F79C878B878985AF
:101B30009A8501979A87898789859A85892B69F77C
:101B400014C06D817E818F8198850E94A416DC016E
:101B5000CB019A87898789859A859E878D878D8510
:101B60009E850197F1F79E878D8721E0409178004F
:101B70005091790060917A0070917B0080917C0097
:101B800090917D000E94860800002E960FB6F89472
:101B9000DEBF0FBECDBFDF91CF910F91FF90EF90D1
:101BA0000895EF92FF920F931F93CF93DF93CDB7DA
:101BB000DEB7C856D1090FB6F894DEBF0FBECDBF51
:101BC000CE018D599F4FFC0110820F2EF4EBEF2EAA
:101BD000F0E0FF2EF02D01E022E0409178005091DE
:101BE000790060917A0070917B0080917C009091E7
:101BF0007D000E947309CE018D599F4F0E94270CD2
:101C00008093F6009E012B5A3F4F80E090E0AAEFB0
:101C1000B3E4F90180839183A283B3838E01075AD1
:101C20001F4FCE018B5A9F4F20E030E04AE753E42C
:101C3000FC0160817181828193810E948A17DC019D
:101C4000CB01F80180839183A283B383CE01875AAD
:101C50009F4F20E030E040E85FE3FC01608171814C
:101C6000828193810E942D1688234CF4CE01835AE1
:101C70009F4F21E030E0FC01318320836DC0CE0115
:101C8000875A9F4F20E03FEF4FE757E4FC01608108
:101C90007181828193810E94851718160CF04AC0C9
:101CA000CE018B5A9F4F20E030E040E251E4FC012E
:101CB00060817181828193810E948A17DC01CB014E
:101CC0008E01035A1F4FBC01CD010E94A416DC01F6
:101CD000CB01F8019183808324C0CE01815A9F4FAC
:101CE00029E130E0FC0131832083CE01815A9F4FEE
:101CF000FC01808191810197F1F79E01215A3F4FAC
:101D0000F90191838083CE01835A9F4F9E01235A0C
:101D10003F4FF9012081318121503109FC0131838C
:101D20002083CE01835A9F4FFC0180819181892BB2
:101D3000A1F62CC08E01035A1F4FCE01875A9F4F28
:101D4000FC0160817181828193810E94A416DC0173
:101D5000CB01F80191838083CE018F599F4F9E0163
:101D6000235A3F4FF90120813181FC0131832083C7
:101D7000CE018F599F4FFC01808191810197F1F72E
:101D80009E012F593F4FF90191838083CE018D59D8
:101D90009F4FFC018081E82E0AE023E0409178000B
:101DA0005091790060917A0070917B0080917C0065
:101DB00090917D000E940A099E01295B3F4F80E0BF
:101DC00090E8ABE3B5E4F90180839183A283B38308
:101DD0008E01055B1F4FCE01895B9F4F20E030E0F5
:101DE0004AE753E4FC0160817181828193810E9402
:101DF0008A17DC01CB01F80180839183A283B3832E
:101E0000CE01855B9F4F20E030E040E85FE3FC01BE
:101E100060817181828193810E942D1688234CF408
:101E2000CE01815B9F4F21E030E0FC0131832083B4
:101E30006DC0CE01855B9F4F20E03FEF4FE757E439
:101E4000FC0160817181828193810E94851718163F
:101E50000CF04AC0CE01895B9F4F20E030E040E2A9
:101E600051E4FC0160817181828193810E948A1713
:101E7000DC01CB018E01015B1F4FBC01CD010E9433
:101E8000A416DC01CB01F8019183808324C0CE012C
:101E90008F5A9F4F29E130E0FC0131832083CE012E
:101EA0008F5A9F4FFC01808191810197F1F79E012C
:101EB0002F5A3F4FF90191838083CE01815B9F4F61
:101EC0009E01215B3F4FF901208131812150310971
:101ED000FC0131832083CE01815B9F4FFC01808117
:101EE0009181892BA1F62CC08E01015B1F4FCE0181
:101EF000855B9F4FFC0160817181828193810E948B
:101F0000A416DC01CB01F80191838083CE018D5AA8
:101F10009F4F9E01215B3F4FF90120813181FC01E0
:101F200031832083CE018D5A9F4FFC0180819181A6
:101F30000197F1F79E012D5A3F4FF901918380835C
:101F400021E0409178005091790060917A00709181
:101F50007B0080917C0090917D000E9486080F2E6E
:101F6000F9ECEF2EF0E0FF2EF02D01E023E04091A0
:101F700078005091790060917A0070917B00809197
:101F80007C0090917D000E947309CE018D599F4F76
:101F90000E94270C80E090E0AAEFB3E489AF9AAFEB
:101FA000ABAFBCAF20E030E04AE753E469AD7AADB7
:101FB0008BAD9CAD0E948A17DC01CB019E01235C96
:101FC0003F4FF90180839183A283B38320E030E007
:101FD00040E85FE3CE01CD96FC0160817181828192
:101FE00093810E942D1688234CF4CE018F5B9F4F66
:101FF00021E030E0FC013183208367C020E03FEF27
:102000004FE757E4CE01CD96FC016081718182815A
:1020100093810E94851718160CF046C020E030E02E
:1020200040E251E469AD7AAD8BAD9CAD0E948A1758
:10203000DC01CB018E010F5B1F4FBC01CD010E9463
:10204000A416DC01CB01F8019183808324C0CE016A
:102050008D5B9F4F29E130E0FC0131832083CE016D
:102060008D5B9F4FFC01808191810197F1F79E016B
:102070002D5B3F4FF90191838083CE018F5B9F4F92
:102080009E012F5B3F4FF9012081318121503109A1
:10209000FC0131832083CE018F5B9F4FFC01808147
:1020A0009181892BA1F62BC08E010F5B1F4FCE01B2
:1020B000CD96FC0160817181828193810E94A4167A
:1020C000DC01CB01F80191838083CE018B5B9F4FB4
:1020D0009E012F5B3F4FF90120813181FC0131834B
:1020E0002083CE018B5B9F4FFC0180819181019702
:1020F000F1F79E012B5B3F4FF90191838083CE0165
:102100008D599F4FFC018081E82E0AE023E0409129
:1021100078005091790060917A0070917B008091F5
:102120007C0090917D000E940A09CE018D599F4F3D
:10213000FC0180810E94AB138093F70080E090E85F
:10214000ABE3B5E48BA79CA7ADA7BEA720E030E02A
:102150004AE753E46BA57CA58DA59EA50E948A172E
:10216000DC01CB018FA798ABA9ABBAAB20E030E084
:1021700040E85FE36FA578A989A99AA90E942D1666
:1021800088232CF481E090E09CAB8BAB3FC020E037
:102190003FEF4FE757E46FA578A989A99AA90E9454
:1021A000851718164CF520E030E040E251E46BA5AD
:1021B0007CA58DA59EA50E948A17DC01CB01BC01E0
:1021C000CD010E94A416DC01CB019CAB8BAB0FC0F0
:1021D00089E190E09EAB8DAB8DA99EA90197F1F7A7
:1021E0009EAB8DAB8BA99CA901979CAB8BAB8BA9AC
:1021F0009CA9892B69F714C06FA578A989A99AA908
:102200000E94A416DC01CB019CAB8BAB8BA99CA9D3
:1022100098AF8FAB8FA998AD0197F1F798AF8FABBF
:1022200021E0409178005091790060917A0070919E
:102230007B0080917C0090917D000E9486080F2E8B
:10224000FAEDEF2EF0E0FF2EF02D01E023E04091BB
:1022500078005091790060917A0070917B008091B4
:102260007C0090917D000E947309CE018D599F4F93
:102270000E94270C80E090E0AAEFB3E48D8F9E8F40
:10228000AF8FB8A320E030E04AE753E46D8D7E8D38
:102290008F8D98A10E948A17DC01CB0189A39AA394
:1022A000ABA3BCA320E030E040E85FE369A17AA1E2
:1022B0008BA19CA10E942D1688232CF481E090E034
:1022C0009EA38DA33FC020E03FEF4FE757E469A1F5
:1022D0007AA18BA19CA10E94851718164CF520E0CD
:1022E00030E040E251E46D8D7E8D8F8D98A10E948B
:1022F0008A17DC01CB01BC01CD010E94A416DC01D0
:10230000CB019EA38DA30FC089E190E098A78FA376
:102310008FA198A50197F1F798A78FA38DA19EA1F2
:1023200001979EA38DA38DA19EA1892B69F714C04F
:1023300069A17AA18BA19CA10E94A416DC01CB010A
:102340009EA38DA38DA19EA19AA789A789A59AA5D1
:102350000197F1F79AA789A7CE018D599F4FFC01EC
:102360008081E82E0AE023E04091780050917900C6
:1023700060917A0070917B0080917C0090917D004B
:102380000E940A09CE018D599F4FFC0180810E9455
:10239000AB138093F80080E090E8ABE3B5E48F875F
:1023A000988BA98BBA8B20E030E04AE753E46F8525
:1023B000788989899A890E948A17DC01CB018B8BE5
:1023C0009C8BAD8BBE8B20E030E040E85FE36B89F7
:1023D0007C898D899E890E942D1688232CF481E0AA
:1023E00090E0988F8F8B3FC020E03FEF4FE757E49E
:1023F0006B897C898D899E890E94851718164CF5FA
:1024000020E030E040E251E46F85788989899A893B
:102410000E948A17DC01CB01BC01CD010E94A416E9
:10242000DC01CB01988F8F8B0FC089E190E09A8FF0
:10243000898F898D9A8D0197F1F79A8F898F8F896E
:10244000988D0197988F8F8B8F89988D892B69F73D
:1024500014C06B897C898D899E890E94A416DC0139
:10246000CB01988F8F8B8F89988D9C8F8B8F8B8DC5
:102470009C8D0197F1F79C8F8B8F21E04091780024
:102480005091790060917A0070917B0080917C007E
:1024900090917D000E9486080F2EFBEEEF2EF0E05B
:1024A000FF2EF02D01E023E040917800509179005B
:1024B00060917A0070917B0080917C0090917D000A
:1024C0000E9473093091F8002091F7008091F60086
:1024D000882F90E0432F622F0E941613DC01CB015E
:1024E000BC01CD010E94A416DC01CB018093F90050
:1024F0002091F900CE018C599F4FBC01822F0E9480
:10250000BA09CE018C599F4F7C010AE023E040912B
:1025100078005091790060917A0070917B008091F1
:102520007C0090917D000E94730980E090E4ACE90A
:10253000B5E489839A83AB83BC8320E030E04AE72B
:1025400053E469817A818B819C810E948A17DC0126
:10255000CB018D839E83AF83B88720E030E040E8D5
:102560005FE36D817E818F8198850E942D1688237F
:102570002CF481E090E09A8789873FC020E03FEF0C
:102580004FE757E46D817E818F8198850E94851782
:1025900018164CF520E030E040E251E469817A8180
:1025A0008B819C810E948A17DC01CB01BC01CD018B
:1025B0000E94A416DC01CB019A8789870FC089E1AC
:1025C00090E09C878B878B859C850197F1F79C8792
:1025D0008B8789859A8501979A87898789859A85C6
:1025E000892B69F714C06D817E818F8198850E9447
:1025F000A416DC01CB019A87898789859A859E87F5
:102600008D878D859E850197F1F79E878D870000C8
:10261000C859DF4F0FB6F894DEBF0FBECDBFDF91B4
:10262000CF911F910F91FF90EF900895CF93DF937B
:10263000CDB7DEB728970FB6F894DEBF0FBECDBF7B
:102640009E838D836F83488719821A821B821C8226
:102650008D819E818B32910569F08C32910518F441
:102660008A97C1F169C08D329105D9F08F9709F42D
:102670004DC062C08F81282F30E08885882F90E080
:10268000820F931F092E000CAA0BBB0BBC01CD01BE
:102690000E94D516DC01CB0189839A83AB83BC836E
:1026A0004BC08F81282F30E08885882F90E0A901CA
:1026B000481B590BCA01092E000CAA0BBB0BBC010D
:1026C000CD010E94D516DC01CB0189839A83AB83AF
:1026D000BC8332C08F81482F50E08885282F30E09E
:1026E000429FC001439F900D529F900D1124092ECF
:1026F000000CAA0BBB0BBC01CD010E94D516DC015E
:10270000CB0189839A83AB83BC8316C08F81988564
:10271000692F0E941B16882F90E0092E000CAA0B2F
:10272000BB0BBC01CD010E94D516DC01CB01898316
:102730009A83AB83BC83000089819A81AB81BC8181
:10274000BC01CD0128960FB6F894DEBF0FBECDBFF9
:10275000DF91CF910895CF93DF9300D0CDB7DEB74F
:102760008A8319828A81882F90E0092E000CAA0B97
:10277000BB0BC197A109B10989309105A105B1052C
:1027800048F58A539C4EFC010C942716CF13D213A4
:10279000D513D813DB13DE13E113E413E71381E041
:1027A000898318C082E0898315C083E0898312C0C1
:1027B00084E089830FC085E089830CC086E089832B
:1027C00009C087E0898306C088E0898303C089E067
:1027D0008983000089810F900F90DF91CF91089538
:1027E000CF93DF9300D000D0CDB7DEB79A83898333
:1027F0007C836B838091960061E00E94B40180919C
:10280000970061E00E94B4018091980061E00E940D
:10281000B4018091990061E00E94B40100000F9022
:102820000F900F900F90DF91CF910895CF93DF938A
:1028300000D000D0CDB7DEB79A8389837C836B83C9
:10284000898161E00E9428028A8160E00E9428025A
:102850008B8161E00E9428028C8160E00E94280246
:1028600000000F900F900F900F90DF91CF9108957F
:10287000CF93DF9300D000D0CDB7DEB79A838983A2
:102880007C836B83898160E00E9428028A8161E0F9
:102890000E9428028B8160E00E9428028C8161E006
:1028A0000E94280200000F900F900F900F90DF9170
:1028B000CF910895CF93DF9300D000D0CDB7DEB78E
:1028C0009A8389837C836B83898160E00E942802DC
:1028D0008A8160E00E9428028B8160E00E942802C9
:1028E0008C8160E00E94280200000F900F900F90F2
:1028F0000F90DF91CF910895CF93DF9300D000D058
:10290000CDB7DEB769837A838B839C83898161E04D
:102910000E94B4018A8161E00E94B4018B8161E070
:102920000E94B4018C8161E00E94B40100000F900C
:102930000F900F900F90DF91CF910895CF93DF9379
:1029400000D000D01F92CDB7DEB769837A838B8326
:102950009C834D838D81882F90E0092E000CAA0B5B
:10296000BB0B8A309105A105B10508F0B9C08454AC
:102970009B4EFC010C942716C614D714E814F914C6
:102980000A151B152C153D154E155F15898160E044
:102990000E9428028A8160E00E9428028B8160E008
:1029A0000E9428028C8160E00E9428029AC08981DE
:1029B00061E00E9428028A8160E00E9428028B81E7
:1029C00060E00E9428028C8160E00E94280289C099
:1029D000898160E00E9428028A8161E00E942802C9
:1029E0008B8160E00E9428028C8160E00E942802B6
:1029F00078C0898161E00E9428028A8161E00E949A
:102A000028028B8160E00E9428028C8160E00E9495
:102A1000280267C0898160E00E9428028A8160E004
:102A20000E9428028B8161E00E9428028C8160E074
:102A30000E94280256C0898161E00E9428028A8192
:102A400060E00E9428028B8161E00E9428028C8154
:102A500060E00E94280245C0898160E00E9428024F
:102A60008A8161E00E9428028B8161E00E94280235
:102A70008C8160E00E94280234C0898161E00E945C
:102A800028028A8161E00E9428028B8161E00E9415
:102A900028028C8160E00E94280223C0898160E0C6
:102AA0000E9428028A8160E00E9428028B8160E0F7
:102AB0000E9428028C8161E00E94280212C0898154
:102AC00061E00E9428028A8160E00E9428028B81D6
:102AD00060E00E9428028C8161E00E94280201C00F
:102AE000000000000F900F900F900F900F90DF915B
:102AF000CF9108950F93CF93DF93CDB7DEB728978B
:102B00000FB6F894DEBF0FBECDBF49835A836B83E7
:102B10007C838D839E832F83088788858130D1F5C0
:102B20008F81882F90E00097E1F0019709F06FC046
:102B3000898161E00E9428028A8161E00E94280266
:102B40008B8161E00E9428028C8161E00E94280252
:102B50008D8161E00E9428028E8161E00E9428023E
:102B600056C0898160E00E9428028A8160E00E944C
:102B700028028B8160E00E9428028C8160E00E9424
:102B800028028D8160E00E9428028E8160E00E9410
:102B900028023DC088858823D1F58F81882F90E059
:102BA0000097E1F0019709F032C0898160E00E944E
:102BB00028028A8160E00E9428028B8160E00E94E6
:102BC00028028C8160E00E9428028D8160E00E94D2
:102BD00028028E8160E00E94280219C0898161E08C
:102BE0000E9428028A8161E00E9428028B8161E0B4
:102BF0000E9428028C8161E00E9428028D8161E0A0
:102C00000E9428028E8161E00E94280200000000DC
:102C100028960FB6F894DEBF0FBECDBFDF91CF91DF
:102C20000F910895CF93DF93CDB7DEB70E94100DBB
:102C30000E94D10DFDCF991B79E004C0991F961712
:102C400008F0961B881F7A95C9F780950895EE0FB6
:102C5000FF1F0590F491E02D09940E94101708F4CD
:102C600081E008950E9446160C944B170E94441769
:102C700058F00E943D1740F029F45F3F29F00C9472
:102C8000341751110C947F170C943A170E945C175B
:102C900068F39923B1F3552391F3951B550BBB278B
:102CA000AA2762177307840738F09F5F5F4F220FD0
:102CB000331F441FAA1FA9F335D00E2E3AF0E0E8C7
:102CC00032D091505040E695001CCAF72BD0FE2F11
:102CD00029D0660F771F881FBB1F261737074807A5
:102CE000AB07B0E809F0BB0B802DBF01FF2793585D
:102CF0005F4F3AF09E3F510578F00C9434170C94D6
:102D00007F175F3FE4F3983ED4F3869577956795F8
:102D1000B795F7959F5FC9F7880F911D9695879591
:102D200097F90895E1E0660F771F881FBB1F6217B0
:102D300073078407BA0720F0621B730B840BBA0B6E
:102D4000EE1F88F7E09508950E94641788F09F575A
:102D500098F0B92F9927B751B0F0E1F0660F771FBF
:102D6000881F991F1AF0BA95C9F714C0B13091F0B5
:102D70000E947E17B1E008950C947E17672F782F7C
:102D80008827B85F39F0B93FCCF38695779567957A
:102D9000B395D9F73EF490958095709561957F4FE6
:102DA0008F4F9F4F0895E89409C097FB3EF490958C
:102DB0008095709561957F4F8F4F9F4F9923A9F014
:102DC000F92F96E9BB279395F695879577956795A3
:102DD000B795F111F8CFFAF4BB0F11F460FF1BC0E7
:102DE0006F5F7F4F8F4F9F4F16C0882311F096E97A
:102DF00011C0772321F09EE8872F762F05C0662328
:102E000071F096E8862F70E060E02AF09A95660FE0
:102E1000771F881FDAF7880F9695879597F9089599
:102E2000990F0008550FAA0BE0E8FEEF16161706DB
:102E3000E807F907C0F012161306E407F50798F043
:102E4000621B730B840B950B39F40A2661F0232B5C
:102E5000242B252B21F408950A2609F4A140A695D8
:102E60008FEF811D811D089597F99F6780E870E0BD
:102E700060E008959FEF80EC089500240A941616F0
:102E8000170618060906089500240A941216130658
:102E9000140605060895092E0394000C11F48823E6
:102EA00052F0BB0F40F4BF2B11F460FF04C06F5F02
:102EB0007F4F8F4F9F4F089557FD9058440F551FD8
:102EC00059F05F3F71F04795880F97FB991F61F0AC
:102ED0009F3F79F087950895121613061406551F23
:102EE000F2CF4695F1DF08C0161617061806991F8F
:102EF000F1CF86957105610508940895E894BB2784
:102F000066277727CB0197F908950E94101708F4D8
:102F10008FEF08950E949D170C944B170E943D1748
:102F200038F00E94441720F0952311F00C943417C8
:102F30000C943A1711240C947F170E945C1770F3BD
:102F4000959FC1F3950F50E0551F629FF001729F4E
:102F5000BB27F00DB11D639FAA27F00DB11DAA1F5D
:102F6000649F6627B00DA11D661F829F2227B00DAA
:102F7000A11D621F739FB00DA11D621F839FA00D35
:102F8000611D221F749F3327A00D611D231F849F85
:102F9000600D211D822F762F6A2F11249F575040DC
:102FA0009AF0F1F088234AF0EE0FFF1FBB1F661F57
:102FB000771F881F91505040A9F79E3F510580F020
:102FC0000C9434170C947F175F3FE4F3983ED4F3CE
:102FD000869577956795B795F795E7959F5FC1F7C4
:102FE000FE2B880F911D9695879597F90895DC0122
:102FF00001C06D9341505040E0F70895AEE0B0E05D
:10300000E4E0F8E10C94AD1A0D891E8986E08C830A
:103010001A8309838FEF9FE79E838D83AE01475EFE
:103020005F4F6F89788DCE0101960E9421182F8104
:103030003885020F131FF80110822E96E4E00C94DD
:10304000C91AABE0B0E0E7E2F8E10C949F1A7C010A
:103050003B018A01FC0117821682838181FFC8C16E
:10306000CE0101965C01F7019381F30193FD8591F7
:1030700093FF81913F01882309F453C1853239F4CC
:1030800093FD859193FF81913F01853229F4B7012A
:1030900090E00E94111AE7CF912C212C312CFFE1F6
:1030A000F31538F08B3211F190F4803209F183324C
:1030B00029F137FC3CC020ED280F2A3050F536FEB0
:1030C00020C08AE0989E200D1124922E06C08D32D9
:1030D00091F0803371F7689430F8F30193FD859196
:1030E00093FF81913F018111DACF21C0689431F8BB
:1030F000689432F8F2CF689433F8EFCF689434F8DC
:10310000ECCFEAE02E9E200D1124222E689435F893
:10311000E4CF8E3229F436FC04C1689436F8DDCF52
:103120008C3619F4689437F8D8CF8836B1F2982FD6
:103130009F7D95549330E0F08336A1F18337C1F140
:10314000833509F063C02801F2E04F0E511CF801ED
:10315000C080D180692D70E036FC02C06FEF7FEF38
:10316000C6010E94FB194C01689437F882010AC01D
:103170000C5F1F4FFFE3F98388248394912C650132
:10318000E89437F833FE2DC0522C8114910471F568
:10319000552009F468CFB70180E290E00E94111A2F
:1031A0005A94F6CFF801808189830E5F1F4FE4CFD8
:1031B0002801F2E04F0E511CF801C080D180692D2A
:1031C00070E036FC02C06FEF7FEFC6010E94061A66
:1031D0004C018201D5CFB70180E290E00E94111A24
:1031E0002A942814190409F0B0F7CECFF60137FC61
:1031F000859137FE81916F01B70190E00E94111A0D
:1032000051105A94F1E08F1A9108BFCF843619F00B
:10321000893609F077C0F80137FE6BC06081718193
:10322000828193810C5F1F4FF32DFF763F2E97FF16
:1032300009C090958095709561957F4F8F4F9F4FF6
:10324000689437F82AE030E0A5010E94411AC82EA0
:10325000CA188C2C432C36FE0CC0E89440F8C914D4
:1032600040F434FE05C032FC03C0F32DFE7E4F2E29
:10327000892C44FE95C0FE01EC0DF11D8081803348
:1032800009F087C0242D297E422E842D8870582E67
:1032900043FC95C040FE8FC09C2C821418F42C0C6B
:1032A000922C981844FE91C0B70180E390E00E94F0
:1032B000111A42FE09C088E790E041FE02C088E58D
:1032C00090E0B7010E94111AC91408F48AC0CA9488
:1032D000D12C9FEFC91AD90ACA0CDB1CF6018291C6
:1032E0006F01B70190E00E94111AAC14BD04B1F750
:1032F0004FCF60817181072E000C880B990B0E5FF8
:103300001F4F92CFD32CE894D4F82AE030E08537D1
:1033100039F1232D297FD22E8F3601F148F48835DB
:10332000A9F0F701868197812B96E2E10C94BB1AF4
:10333000803749F08837A9F7D4FE02C06894D2F8E4
:1033400020E130E00DC06894D4F8F6CF34FE03C01D
:10335000822F8660D82E20E132E002C028E030E0E3
:10336000F801D7FE0FC060817181828193810C5F6B
:103370001F4FA5010E94411AC82ECA183D2CE8947F
:1033800037F867CF6081718190E080E00E5F1F4F5A
:10339000F0CF42FC02C0839478CF8394839475CF9E
:1033A000842D867809F471CFF6CFB70180E290E0E2
:1033B0000E94111A83948214C0F3512C73CF522CA3
:1033C0005818821408F46ECFF8CF842D867809F44B
:1033D0007BCF8BE241FE80E247FC8DE2B70190E0BB
:1033E00071CFB70180E390E00E94111A9A946CCFDC
:1033F0008FEF9FEF99CFFC01059061507040011055
:10340000D8F7809590958E0F9F1F0895FC0161500D
:10341000704001900110D8F7809590958E0F9F1FF6
:1034200008950F931F93CF93DF93182F092FEB016C
:103430008B8181FD09C01FEF0FEF812F902FDF914E
:10344000CF911F910F91089582FF14C02E813F816B
:103450008C819D81281739073CF4E881F981CF01DF
:1034600001969983888310838E819F8101969F8323
:103470008E83E3CFE885F985812F0995892BA1F308
:10348000DACFFA01AA27283051F1203181F1E894EE
:103490006F936E7F6E5F7F4F8F4F9F4FAF4FB1E047
:1034A0003ED0B4E03CD0670F781F891F9A1FA11D42
:1034B000680F791F8A1F911DA11D6A0F711D811D43
:1034C000911DA11D20D009F468943F912AE0269F08
:1034D00011243019305D3193DEF6CF010895462F67
:1034E0004770405D4193B3E00FD0C9F7F6CF462F48
:1034F0004F70405D4A3318F0495D31FD40524193B1
:1035000002D0A9F7EACFB4E0A6959795879577956D
:103510006795BA95C9F700976105710508959B01F4
:10352000AC010A2E06945795479537952795BA957D
:10353000C9F7620F731F841F951FA01D08952F9256
:103540003F924F925F926F927F928F929F92AF9233
:10355000BF92CF92DF92EF92FF920F931F93CF9380
:10356000DF93CDB7DEB7CA1BDB0B0FB6F894DEBF17
:103570000FBECDBF09942A88398848885F846E843D
:103580007D848C849B84AA84B984C884DF80EE8087
:10359000FD800C811B81AA81B981CE0FD11D0FB690
:1035A000F894DEBF0FBECDBFED010895F894FFCFB4
:1035B0003A003700340031003B003800350032005B
:1035C00039003600330030000001040506073738A3
:1035D000392F3435362A3132332D43303D2B08090B
:1035E0000A0B0C0D0E0F08090A0B000102032569D6
:1035F0000057656C636F6D652063616C63756C610A
:10360000746F7200456E74657220596F7572204F29
:103610007065726174696F6E00456E746572204EDC
:10362000756D626572204F6E6500456E746572201F
:103630004E756D6265722054776F00526573756CBC
:0636400074203D20000093
:00000001FF
