:100000000C9434000C9451000C9451000C94510049
:100010000C9451000C9451000C9451000C9451001C
:100020000C9451000C9451000C9451000C9451000C
:100030000C9451000C9451000C9451000C945100FC
:100040000C9451000C9451000C9451000C945100EC
:100050000C9451007F0B900BA10BB20BC30BD40B74
:10006000E50BF60B070C180C11241FBECFE5D4E0EE
:10007000DEBFCDBF10E0A0E6B0E0EAEAF5E202C0E4
:1000800005900D92AA3AB107D9F720E0AAEAB0E0AC
:1000900001C01D92AA3AB207E1F70E94460E0C94E5
:1000A000D3120C940000CF93DF9300D0CDB7DEB70E
:1000B00089836A838A81882F90E0009789F101976C
:1000C00009F05DC08981869586958695882F90E098
:1000D000880F991F805A9F4FFC018081918129814F
:1000E000269526952695222F30E0220F331F205A81
:1000F0003F4FF90120813181F9012081622F29814F
:10010000222F30E0A9014770552721E030E002C0DE
:10011000220F331F4A95E2F7262BFC0120832FC0C4
:100120008981869586958695882F90E0880F991FFE
:10013000805A9F4FFC0180819181298126952695C7
:100140002695222F30E0220F331F205A3F4FF9010E
:1001500020813181F9012081622F2981222F30E015
:10016000A9014770552721E030E002C0220F331F5C
:100170004A95E2F720952623FC0120830000000029
:100180000F900F90DF91CF910895CF93DF9300D020
:10019000CDB7DEB789836A838A81882F90E081306A
:1001A000910539F08230910509F460C0892B79F10D
:1001B0008BC08981869586958695882F90E0880FDB
:1001C000991F88599F4FFC01808191812981269533
:1001D00026952695222F30E0220F331F28593F4FB6
:1001E000F90120813181F9012081622F2981222F9B
:1001F00030E0A9014770552721E030E002C0220F0E
:10020000331F4A95E2F7262BFC0120835DC08981CC
:10021000869586958695882F90E0880F991F885936
:100220009F4FFC01808191812981269526952695F5
:10023000222F30E0220F331F28593F4FF901208130
:100240003181F9012081622F2981222F30E0A9011B
:100250004770552721E030E002C0220F331F4A9536
:10026000E2F720952623FC0120832EC08981869504
:1002700086958695882F90E0880F991F88599F4F03
:10028000FC01808191812981269526952695222F32
:1002900030E0220F331F28593F4FF901208131816F
:1002A000F9012081622F2981222F30E0A9014770B6
:1002B000552721E030E002C0220F331F4A95E2F7B4
:1002C0002627FC012083000000000F900F90DF9193
:1002D000CF910895CF93DF9300D0CDB7DEB78A8357
:1002E00019828A81869586958695882F90E0880F59
:1002F000991F80599F4FFC0180819181FC01808171
:10030000882F90E02A81222F30E02770332702C007
:10031000959587952A95E2F78170898389810F9059
:100320000F90DF91CF910895CF93DF9300D0CDB799
:10033000DEB789836A838981882F90E0880F991FAF
:10034000805A9F4FFC01808191812A81FC0120838A
:1003500000000F900F90DF91CF910895CF93DF931E
:1003600000D0CDB7DEB789836A838981882F90E07A
:10037000880F991F88599F4FFC01808191812A81A4
:10038000FC01208300000F900F90DF91CF91089522
:10039000CF93DF9300D0CDB7DEB78A8319828A81ED
:1003A000882F90E0880F991F80599F4FFC01808112
:1003B0009181FC018081898389810F900F90DF9169
:1003C000CF910895CF93DF9300D01F92CDB7DEB7C2
:1003D00089836A834B836FEF89810E94940160E077
:1003E0008A810E94530060E08B810E9453008A81C1
:1003F0000E946A01882321F46FEF89810E94AE0177
:100400008B810E946A01882321F460E089810E9427
:10041000AE0100000F900F900F90DF91CF910895E3
:10042000CF93DF9300D01F92CDB7DEB789836A8365
:100430004B8361E089810E94530060E08A810E94C1
:10044000530060E08B810E9453008A810E946A0100
:10045000882321F461E089810E94C5008B810E947C
:100460006A01882321F460E089810E94AE010000C6
:100470000F900F900F90DF91CF910895CF93DF935E
:10048000CDB7DEB7C354D1090FB6F894DEBF0FBEA7
:10049000CDBF4EAF5FAF9E01205C3F4FF90160833F
:1004A0009E012F5B3F4FF90170839E012E5B3F4FF2
:1004B000F90180839E012D5B3F4FF90190831982E2
:1004C0008FAD61E00E9453008EAD61E00E94530049
:1004D000198210C08981882F90E09E01205C3F4FD7
:1004E000820F931FFC01808161E00E94530089818B
:1004F0008F5F89838981843068F380E090E0A0EA8F
:10050000B1E48A839B83AC83BD8320E030E04AE77B
:1005100053E46A817B818C819D810E94750FDC018F
:10052000CB018CAB9DABAEABBFAB20E030E040E885
:100530005FE36CA97DA98EA99FA90E94550E88230F
:100540002CF481E090E099AF88AF3FC020E03FEF0E
:100550004FE757E46CA97DA98EA99FA90E94700F4F
:1005600018164CF520E030E040E251E46A817B81CE
:100570008C819D810E94750FDC01CB01BC01CD01F6
:100580000E94CC0EDC01CB0199AF88AF0FC089E18E
:1005900090E09BAF8AAF8AAD9BAD0197F1F79BAF1F
:1005A0008AAF88AD99AD019799AF88AF88AD99AD05
:1005B000892B69F714C06CA97DA98EA99FA90E94F7
:1005C000CC0EDC01CB0199AF88AF88AD99AD9DAF62
:1005D0008CAF8CAD9DAD0197F1F79DAF8CAF28E34B
:1005E0004EAD5FADCE01805C9F4FFC016081CE01BE
:1005F0008F5B9F4FFC017081CE018E5B9F4FFC0192
:100600008081FE01ED5BFF4F90810E94330580E009
:1006100090E0A0EAB0E48E839F83A887B98720E0AA
:1006200030E04AE753E46E817F81888599850E9496
:10063000750FDC01CB018AA79BA7ACA7BDA720E063
:1006400030E040E85FE36AA57BA58CA59DA50E94EC
:10065000550E88232CF481E090E09FA78EA73FC021
:1006600020E03FEF4FE757E46AA57BA58CA59DA549
:100670000E94700F18164CF520E030E040E251E483
:100680006E817F81888599850E94750FDC01CB0181
:10069000BC01CD010E94CC0EDC01CB019FA78EA72F
:1006A0000FC089E190E099AB88AB88A999A901971F
:1006B000F1F799AB88AB8EA59FA501979FA78EA751
:1006C0008EA59FA5892B69F714C06AA57BA58CA56B
:1006D0009DA50E94CC0EDC01CB019FA78EA78EA505
:1006E0009FA59BAB8AAB8AA99BA90197F1F79BAB0E
:1006F0008AAB28E34EAD5FADCE01805C9F4FFC011D
:100700006081CE018F5B9F4FFC017081CE018E5BBB
:100710009F4FFC018081FE01ED5BFF4F90810E94A5
:10072000330580E090E0A6E1B3E48A879B87AC873D
:10073000BD872BEA3AEA4AEA5EE36A857B858C85C7
:100740009D850E94750FDC01CB018E879F87A88B4A
:10075000B98B20E030E040E85EE36A857B858C85DC
:100760009D850E94750FDC01CB018A8B9B8BAC8B26
:10077000BD8B20E030E040E85FE36E857F858889AF
:1007800099890E94550E88231CF481E08E8BB2C09B
:1007900020E03FEF4FE757E46A897B898C899D8988
:1007A0000E94700F18160CF07BC020E030E04AE782
:1007B00054E46A857B858C859D850E945A0EDC01F8
:1007C000CB018F8B988FA98FBA8F20E030E04AE75A
:1007D00053E46F89788D898D9A8D0E94750FDC01A5
:1007E000CB018B8F9C8FAD8FBE8F20E030E040E837
:1007F0005FE36B8D7C8D8D8D9E8D0E94550E8823C1
:100800002CF481E090E098A38F8F3FC020E03FEF71
:100810004FE757E46B8D7C8D8D8D9E8D0E94700F00
:1008200018164CF520E030E040E251E46F89788DF5
:10083000898D9A8D0E94750FDC01CB01BC01CD0121
:100840000E94CC0EDC01CB0198A38F8F0FC089E1F1
:1008500090E09AA389A389A19AA10197F1F79AA39D
:1008600089A38F8D98A1019798A38F8F8F8D98A1C1
:10087000892B69F73FC06B8D7C8D8D8D9E8D0E947D
:10088000CC0EDC01CB0198A38F8F8F8D98A19CA3F8
:100890008BA38BA19CA10197F1F79CA38BA32AC0EA
:1008A00020E030E04FE753E46E857F8588899989A1
:1008B0000E94700F1816ACF46A897B898C899D8917
:1008C0000E94CC0EDC01CB019EA38DA38DA19EA125
:1008D00098A78FA38FA198A50197F1F798A78FA349
:1008E0000FC06E857F85888999890E94CC0EDC01B6
:1008F000CB018E8B8E8989A789A58A95F1F789A767
:1009000028E34EAD5FADCE01805C9F4FFC0160815E
:10091000CE018F5B9F4FFC017081CE018E5B9F4F9C
:10092000FC018081FE01ED5BFF4F90810E94330549
:1009300021E04EAD5FADCE01805C9F4FFC01608138
:10094000CE018F5B9F4FFC017081CE018E5B9F4F6C
:10095000FC018081FE01ED5BFF4F90810E94330519
:1009600022E04EAD5FADCE01805C9F4FFC01608107
:10097000CE018F5B9F4FFC017081CE018E5B9F4F3C
:10098000FC018081FE01ED5BFF4F90810E943305E9
:1009900026E04EAD5FADCE01805C9F4FFC016081D3
:1009A000CE018F5B9F4FFC017081CE018E5B9F4F0C
:1009B000FC018081FE01ED5BFF4F90810E943305B9
:1009C0002CE04EAD5FADCE01805C9F4FFC0160819D
:1009D000CE018F5B9F4FFC017081CE018E5B9F4FDC
:1009E000FC018081FE01ED5BFF4F90810E94330589
:1009F00028E24EAD5FADCE01805C9F4FFC0160816F
:100A0000CE018F5B9F4FFC017081CE018E5B9F4FAB
:100A1000FC018081FE01ED5BFF4F90810E94330558
:100A200020E84EAD5FADCE01805C9F4FFC01608140
:100A3000CE018F5B9F4FFC017081CE018E5B9F4F7B
:100A4000FC018081FE01ED5BFF4F90810E94330528
:100A50000000CD5BDF4F0FB6F894DEBF0FBECDBFF9
:100A6000DF91CF910895CF93DF93CDB7DEB727976E
:100A70000FB6F894DEBF0FBECDBF49835A836B8398
:100A80007C838D839E832F83898160E00E94C500D3
:100A90008F8182958F70282F49815A816B817C814B
:100AA0008D819E810E94090749815A816B817C81D9
:100AB0008D819E810E9446072F8149815A816B81D9
:100AC0007C818D819E810E94090749815A816B81B9
:100AD0007C818D819E810E944607000027960FB67B
:100AE000F894DEBF0FBECDBFDF91CF910895CF93B5
:100AF000DF93CDB7DEB727970FB6F894DEBF0FBEF2
:100B0000CDBF49835A836B837C838D839E832F83E0
:100B1000898161E00E94C5008F8182958F70282FA6
:100B200049815A816B817C818D819E810E94090758
:100B300049815A816B817C818D819E810E9446070B
:100B40002F8149815A816B817C818D819E810E9498
:100B5000090749815A816B817C818D819E810E9428
:100B60004607000027960FB6F894DEBF0FBECDBF34
:100B7000DF91CF910895EF920F93CF93DF93CDB78D
:100B8000DEB729970FB6F894DEBF0FBECDBF4983FD
:100B90005A836B837C838D839E832F830887E986AA
:100BA00008852F8149815A816B817C818D819E814D
:100BB0000E945708298549815A816B817C818D81EA
:100BC0009E810E947705000029960FB6F894DEBF3B
:100BD0000FBECDBFDF91CF910F91EF900895CF93CE
:100BE000DF93CDB7DEB728970FB6F894DEBF0FBE00
:100BF000CDBF49835A836B837C838D839E833887E3
:100C00002F8312C08F8198859C012F5F3F4F3887BB
:100C10002F83FC018081282F49815A816B817C813F
:100C20008D819E810E9477058F819885FC0180814E
:100C3000882341F7000028960FB6F894DEBF0FBE58
:100C4000CDBFDF91CF910895EF92FF920F93CF9395
:100C5000DF93CDB7DEB72A970FB6F894DEBF0FBE8D
:100C6000CDBF49835A836B837C838D839E832F837F
:100C70000887FA86E98608852F8149815A816B8128
:100C80007C818D819E810E94570812C089859A853A
:100C90009C012F5F3F4F3A872987FC018081282FD5
:100CA00049815A816B817C818D819E810E9477056B
:100CB00089859A85FC018081882341F700002A9666
:100CC0000FB6F894DEBF0FBECDBFDF91CF910F916D
:100CD000FF90EF900895CF93DF9300D01F92CDB790
:100CE000DEB789837B836A838A819B8144E050E0FD
:100CF00060E070E00E94E20F8981882F90E0292F48
:100D00002F938F9386EA90E0892F8F9386EA90E065
:100D10008F938B818F938A818F930E94E90F0F901D
:100D20000F900F900F900F900F9000000F900F906A
:100D30000F90DF91CF910895CF93DF9300D000D033
:100D4000CDB7DEB79A8389837C836B838B819C814B
:100D500046E050E060E070E00E94E20F8A818F93ED
:100D600089818F9386EA90E0892F8F9386EA90E0BD
:100D70008F938C818F938B818F930E94E90F0F90BB
:100D80000F900F900F900F900F9000000F900F900A
:100D90000F900F90DF91CF910895CF93DF9300D004
:100DA00000D000D0CDB7DEB769837A838B839C8374
:100DB0005E834D838D819E814BE050E060E070E06A
:100DC0000E94E20F8C818F938B818F938A818F9306
:100DD00089818F9386EA90E0892F8F9386EA90E04D
:100DE0008F938E818F938D818F930E94E90F8DB7A2
:100DF0009EB708960FB6F894DEBF0FBECDBF0000B9
:100E000026960FB6F894DEBF0FBECDBFDF91CF910F
:100E10000895CF93DF93CDB7DEB727970FB6F89439
:100E2000DEBF0FBECDBF49835A836B837C838D8326
:100E30009E832F838F81982F91708B81692F0E94C1
:100E4000C5008F818695982F91708C81692F0E94A3
:100E5000C5008F8186958695982F91708D81692F19
:100E60000E94C5008F81869586958695982F9170F2
:100E70008E81692F0E94C500000027960FB6F89456
:100E8000DEBF0FBECDBFDF91CF910895CF93DF932B
:100E9000CDB7DEB7A6970FB6F894DEBF0FBECDBFB5
:100EA00049A35AA36BA37CA38DA39EA38AA161E04F
:100EB0000E94C50080E090E0A0EAB0E489839A83B4
:100EC000AB83BC832BEA3AEA4AEA5EE369817A8122
:100ED0008B819C810E94750FDC01CB018D839E83E9
:100EE000AF83B88720E030E040E85EE369817A8133
:100EF0008B819C810E94750FDC01CB0189879A87C9
:100F0000AB87BC8720E030E040E85FE36D817E8105
:100F10008F8198850E94550E88231CF481E08D876F
:100F2000B2C020E03FEF4FE757E469857A858B85B3
:100F30009C850E94700F18160CF07BC020E030E0FA
:100F40004AE754E469817A818B819C810E945A0E20
:100F5000DC01CB018E879F87A88BB98B20E030E026
:100F60004AE753E46E857F85888999890E94750FC9
:100F7000DC01CB018A8B9B8BAC8BBD8B20E030E0FE
:100F800040E85FE36A897B898C899D890E94550EC0
:100F900088232CF481E090E09F8B8E8B3FC020E073
:100FA0003FEF4FE757E46A897B898C899D890E94CE
:100FB000700F18164CF520E030E040E251E46E85E9
:100FC0007F85888999890E94750FDC01CB01BC015E
:100FD000CD010E94CC0EDC01CB019F8B8E8B0FC00C
:100FE00089E190E0998F888F888D998D0197F1F72D
:100FF000998F888F8E899F8901979F8B8E8B8E8981
:101000009F89892B69F73FC06A897B898C899D8973
:101010000E94CC0EDC01CB019F8B8E8B8E899F8929
:101020009B8F8A8F8A8D9B8D0197F1F79B8F8A8F7B
:101030002AC020E030E04FE753E46D817E818F814C
:1010400098850E94700F1816ACF469857A858B8597
:101050009C850E94CC0EDC01CB019D8F8C8F8C8DEA
:101060009D8D9F8F8E8F8E8D9F8D0197F1F79F8F16
:101070008E8F0FC06D817E818F8198850E94CC0EEE
:10108000DC01CB018D878D8588A388A18A95F1F736
:1010900088A38AA160E00E94C5000000A6960FB652
:1010A000F894DEBF0FBECDBFDF91CF9108950F93AF
:1010B000CF93DF93CDB7DEB728970FB6F894DEBF96
:1010C0000FBECDBF49835A836B837C838D839E8300
:1010D0002F8308878885815088878F81882F90E0AB
:1010E00082309105C1F0833091051CF4019739F0ED
:1010F00036C083309105D9F0049729F130C0888536
:101100008058282F49815A816B817C818D819E81F5
:101110000E94330524C088858054282F49815A8134
:101120006B817C818D819E810E94330518C08885EA
:101130008C56282F49815A816B817C818D819E81BB
:101140000E9433050CC088858C52282F49815A8112
:101150006B817C818D819E810E943305000000009F
:1011600028960FB6F894DEBF0FBECDBFDF91CF91AA
:101170000F910895CF93DF93CDB7DEB72A970FB6BF
:10118000F894DEBF0FBECDBF2B833C834D835E83BF
:101190006F83788789879A8719821A82198210C08B
:1011A0008981882F90E09E012D5F3F4F820F931F12
:1011B000FC01808161E00E94530089818F5F8983F7
:1011C0008981843068F31A8210C08A81882F90E068
:1011D0009E01295F3F4F820F931FFC01808160E0D9
:1011E0000E9453008A818F5F8A838A81843068F3EA
:1011F00000002A960FB6F894DEBF0FBECDBFDF9178
:10120000CF9108950F93CF93DF93CDB7DEB76B9750
:101210000FB6F894DEBF0FBECDBF2B8B3C8B4D8B32
:101220005E8B6F8B788F898F9A8F0B8F19821A82C2
:101230001B821C821982C0C01B8210C08B81882F28
:1012400090E09E012D5E3F4F820F931FFC01808135
:1012500060E00E94C5008B818F5F8B838B8184301F
:1012600068F38981882F90E09E012D5E3F4F820FA9
:10127000931FFC01808161E00E94C50080E090E046
:10128000A0E2B1E48D839E83AF83B88720E030E095
:101290004AE753E46D817E818F8198850E94750FA6
:1012A000DC01CB0189879A87AB87BC8720E030E0DF
:1012B00040E85FE369857A858B859C850E94550EA1
:1012C00088232CF481E090E09E878D873FC020E04A
:1012D0003FEF4FE757E469857A858B859C850E94AF
:1012E000700F18164CF520E030E040E251E46D81BB
:1012F0007E818F8198850E94750FDC01CB01BC0136
:10130000CD010E94CC0EDC01CB019E878D870FC0E2
:1013100089E190E0988B8F878F8598890197F1F705
:10132000988B8F878D859E8501979E878D878D856C
:101330009E85892B69F714C069857A858B859C8584
:101340000E94CC0EDC01CB019E878D878D859E850A
:101350009A8B898B89899A890197F1F79A8B898B66
:101360001A8224C08A81882F90E09E01295E3F4F17
:10137000820F931FFC0180810E946A018C838C8103
:10138000813089F48981282F30E08A81882F90E08C
:10139000220F331F220F331F820F931F8A579F4F35
:1013A000FC0180818B8F8A818F5F8A838A81843060
:1013B000C8F289818F5F89838981843008F43CCFAA
:1013C00000006B960FB6F894DEBF0FBECDBFDF9165
:1013D000CF910F910895CF93DF93CDB7DEB7000083
:1013E000DF91CF910895CF93DF93CDB7DEB70000A3
:1013F000DF91CF910895CF93DF93CDB7DEB7809182
:10140000980061E00E9453008091960061E00E9484
:1014100053008091970061E00E94530080919C00EE
:1014200061E00E94530080919A0061E00E945300A5
:1014300080919B0061E00E9453000000DF91CF91FA
:101440000895CF93DF931F92CDB7DEB7898389814B
:10145000882F90E082309105C1F08330910539F1F9
:10146000019709F047C09091990080919800692FE9
:101470000E94C5008091960061E00E94C5008091A5
:10148000970060E00E94C50035C090919D0080915A
:101490009C00692F0E94C50080919A0061E00E9423
:1014A000C50080919B0060E00E94C50023C0909120
:1014B000990080919800692F0E94C50090919D002D
:1014C00080919C00692F0E94C5008091960061E088
:1014D0000E94C5008091970060E00E94C500809145
:1014E0009A0061E00E94C50080919B0060E00E942C
:1014F000C500000000000F90DF91CF910895CF93B9
:10150000DF931F92CDB7DEB789838981882F90E062
:1015100082309105C1F08330910539F1019709F0CE
:1015200047C09091990080919800692F0E94C50052
:101530008091960060E00E94C5008091970061E074
:101540000E94C50035C090919D0080919C00692F3C
:101550000E94C50080919A0060E00E94C5008091C1
:101560009B0061E00E94C50023C09091990080918A
:101570009800692F0E94C50090919D0080919C0069
:10158000692F0E94C5008091960060E00E94C5000E
:101590008091970061E00E94C50080919A0060E010
:1015A0000E94C50080919B0061E00E94C500000080
:1015B00000000F90DF91CF910895CF93DF931F929A
:1015C000CDB7DEB789838981882F90E0823091057D
:1015D000C1F08330910539F1019709F047C090912E
:1015E000990080919800692F0E94C5008091960013
:1015F00060E00E94C5008091970060E00E94C500F5
:1016000035C090919D0080919C00692F0E94C5007B
:1016100080919A0060E00E94C50080919B0060E08C
:101620000E94C50023C09091990080919800692F75
:101630000E94C50090919D0080919C00692F0E949E
:10164000C5008091960060E00E94C50080919700DF
:1016500060E00E94C50080919A0060E00E94C50091
:1016600080919B0060E00E94C500000000000F9088
:10167000DF91CF910895CF93DF9300D000D0CDB705
:10168000DEB769837A838B839C83898161E00E94C2
:1016900053008A8161E00E9453008B8161E00E94C7
:1016A00053008C8161E00E94530000000F900F9066
:1016B0000F900F90DF91CF910895CF93DF9300D0DB
:1016C00000D01F92CDB7DEB769837A838B839C836A
:1016D0004D838D81882F90E0092E000CAA0BBB0B47
:1016E00040E050E029E030E0841B950B28173907D3
:1016F00008F4AFC0865D9F4FFC010C944F0E8981AA
:1017000060E00E94C5008A8160E00E94C5008B8174
:1017100060E00E94C5008C8160E00E94C5009AC014
:10172000898161E00E94C5008A8160E00E94C50055
:101730008B8160E00E94C5008C8160E00E94C50042
:1017400089C0898160E00E94C5008A8161E00E94B1
:10175000C5008B8160E00E94C5008C8160E00E9422
:10176000C50078C0898161E00E94C5008A8161E07E
:101770000E94C5008B8160E00E94C5008C8160E002
:101780000E94C50067C0898160E00E94C5008A810F
:1017900060E00E94C5008B8161E00E94C5008C81E1
:1017A00060E00E94C50056C0898161E00E94C500CA
:1017B0008A8160E00E94C5008B8161E00E94C500C3
:1017C0008C8160E00E94C50045C0898160E00E9474
:1017D000C5008A8161E00E94C5008B8161E00E94A2
:1017E000C5008C8160E00E94C50034C0898161E041
:1017F0000E94C5008A8161E00E94C5008B8161E082
:101800000E94C5008C8160E00E94C50023C08981D0
:1018100060E00E94C5008A8160E00E94C5008B8163
:1018200060E00E94C5008C8161E00E94C50012C08A
:10183000898161E00E94C5008A8160E00E94C50044
:101840008B8160E00E94C5008C8161E00E94C50030
:1018500001C0000000000F900F900F900F900F90AC
:10186000DF91CF910895CF93DF9300D000D0CDB713
:10187000DEB79A8389836B834C838C818130D1F46A
:101880008B81882F90E0009761F0019709F02FC0BD
:10189000898161E00E94C5008A8161E00E94C500E3
:1018A00026C0898160E00E94C5008A8160E00E94B4
:1018B000C5001DC08C818823D1F48B81882F90E0D6
:1018C000009761F0019709F012C0898160E00E94E1
:1018D000C5008A8160E00E94C50009C0898161E07D
:1018E0000E94C5008A8161E00E94C50000000000DE
:1018F0000F900F900F900F90DF91CF910895CF939D
:10190000DF9300D000D000D0CDB7DEB769837A83F3
:101910008B839C834D832E838E81813051F58D8105
:10192000882F90E00097A1F0019709F04FC08981BE
:1019300061E00E94C5008A8161E00E94C5008B8140
:1019400061E00E94C5008C8161E00E94C5003EC03C
:10195000898160E00E94C5008A8160E00E94C50024
:101960008B8160E00E94C5008C8160E00E94C50010
:101970002DC08E81882351F58D81882F90E00097AE
:10198000A1F0019709F022C0898160E00E94C500A2
:101990008A8160E00E94C5008B8160E00E94C500E2
:1019A0008C8160E00E94C50011C0898161E00E94C5
:1019B000C5008A8161E00E94C5008B8161E00E94C0
:1019C000C5008C8161E00E94C500000000002696E1
:1019D0000FB6F894DEBF0FBECDBFDF91CF91089553
:1019E0000F93CF93DF93CDB7DEB728970FB6F89458
:1019F000DEBF0FBECDBF49835A836B837C838D834B
:101A00009E832F83088788858130D1F58F81882F29
:101A100090E00097E1F0019709F06FC0898161E0E3
:101A20000E94C5008A8161E00E94C5008B8161E04F
:101A30000E94C5008C8161E00E94C5008D8161E03B
:101A40000E94C5008E8161E00E94C50056C0898158
:101A500060E00E94C5008A8160E00E94C5008B8121
:101A600060E00E94C5008C8160E00E94C5008D810D
:101A700060E00E94C5008E8160E00E94C5003DC00C
:101A800088858823D1F58F81882F90E00097E1F039
:101A9000019709F032C0898160E00E94C5008A8107
:101AA00060E00E94C5008B8160E00E94C5008C81CF
:101AB00060E00E94C5008D8160E00E94C5008E81BB
:101AC00060E00E94C50019C0898161E00E94C500E4
:101AD0008A8161E00E94C5008B8161E00E94C5009F
:101AE0008C8161E00E94C5008D8161E00E94C5008B
:101AF0008E8161E00E94C5000000000028960FB6AC
:101B0000F894DEBF0FBECDBFDF91CF910F91089546
:101B1000EF920F93CF93DF93CDB7DEB72A970FB62F
:101B2000F894DEBF0FBECDBF29833A834B835C831D
:101B30006D837E838F8398870987EA868A858130C3
:101B400009F04AC08985882F90E0009721F101971C
:101B500009F090C0898161E00E94C5008A8161E03E
:101B60000E94C5008B8161E00E94C5008C8161E00C
:101B70000E94C5008D8161E00E94C5008E8161E0F8
:101B80000E94C5008F8161E00E94C500888561E0E8
:101B90000E94C5006FC0898160E00E94C5008A81F3
:101BA00060E00E94C5008B8160E00E94C5008C81CE
:101BB00060E00E94C5008D8160E00E94C5008E81BA
:101BC00060E00E94C5008F8160E00E94C5008885AA
:101BD00060E00E94C5004EC08A85882309F04AC093
:101BE0008985882F90E0009721F1019709F042C084
:101BF000898160E00E94C5008A8160E00E94C50082
:101C00008B8160E00E94C5008C8160E00E94C5006D
:101C10008D8160E00E94C5008E8160E00E94C50059
:101C20008F8160E00E94C500888560E00E94C50049
:101C300021C0898161E00E94C5008A8161E00E9423
:101C4000C5008B8161E00E94C5008C8161E00E942B
:101C5000C5008D8161E00E94C5008E8161E00E9417
:101C6000C5008F8161E00E94C500888561E00E9407
:101C7000C500000000002A960FB6F894DEBF0FBE24
:101C8000CDBFDF91CF910F91EF900895CF93DF9368
:101C9000CDB7DEB70E94EB090E94F309FDCFEE0F2E
:101CA000FF1F0590F491E02D09940E94FB0E08F4AB
:101CB00081E008950E946E0E0C94360F0E942F0F43
:101CC00058F00E94280F40F029F45F3F29F00C944F
:101CD0001F0F51110C946A0F0C94250F0E94470F8F
:101CE00068F39923B1F3552391F3951B550BBB274B
:101CF000AA2762177307840738F09F5F5F4F220F90
:101D0000331F441FAA1FA9F335D00E2E3AF0E0E886
:101D100032D091505040E695001CCAF72BD0FE2FD0
:101D200029D0660F771F881FBB1F26173707480764
:101D3000AB07B0E809F0BB0B802DBF01FF2793581C
:101D40005F4F3AF09E3F510578F00C941F0F0C94B2
:101D50006A0F5F3FE4F3983ED4F3869577956795D5
:101D6000B795F7959F5FC9F7880F911D9695879551
:101D700097F90895E1E0660F771F881FBB1F621770
:101D800073078407BA0720F0621B730B840BBA0B2E
:101D9000EE1F88F7E09508950E944F0F88F09F5737
:101DA00098F0B92F9927B751B0F0E1F0660F771F7F
:101DB000881F991F1AF0BA95C9F714C0B13091F075
:101DC0000E94690FB1E008950C94690F672F782F76
:101DD0008827B85F39F0B93FCCF38695779567953A
:101DE000B395D9F73EF490958095709561957F4FA6
:101DF0008F4F9F4F0895990F0008550FAA0BE0E8E9
:101E0000FEEF16161706E807F907C0F012161306BC
:101E1000E407F50798F0621B730B840B950B39F4FC
:101E20000A2661F0232B242B252B21F408950A2662
:101E300009F4A140A6958FEF811D811D089597F9A2
:101E40009F6780E870E060E008959FEF80EC089560
:101E500000240A9416161706180609060895002489
:101E60000A9412161306140605060895092E039403
:101E7000000C11F4882352F0BB0F40F4BF2B11F477
:101E800060FF04C06F5F7F4F8F4F9F4F089557FDD6
:101E90009058440F551F59F05F3F71F04795880FD8
:101EA00097FB991F61F09F3F79F08795089512166F
:101EB00013061406551FF2CF4695F1DF08C016161B
:101EC00017061806991FF1CF8695710561050894CC
:101ED0000895E894BB2766277727CB0197F90895E3
:101EE0000E94FB0E08F48FEF08950E94880F0C9457
:101EF000360F0E94280F38F00E942F0F20F09523F4
:101F000011F00C941F0F0C94250F11240C946A0FE0
:101F10000E94470F70F3959FC1F3950F50E0551F36
:101F2000629FF001729FBB27F00DB11D639FAA272E
:101F3000F00DB11DAA1F649F6627B00DA11D661F7D
:101F4000829F2227B00DA11D621F739FB00DA11D9E
:101F5000621F839FA00D611D221F749F3327A00D58
:101F6000611D231F849F600D211D822F762F6A2FF4
:101F700011249F5750409AF0F1F088234AF0EE0F59
:101F8000FF1FBB1F661F771F881F91505040A9F786
:101F90009E3F510580F00C941F0F0C946A0F5F3F19
:101FA000E4F3983ED4F3869577956795B795F795C2
:101FB000E7959F5FC1F7FE2B880F911D969587953A
:101FC00097F90895DC0101C06D9341505040E0F74E
:101FD0000895AEE0B0E0EFEEFFE00C94AA120D8998
:101FE0001E8986E08C831A8309838FEF9FE79E8387
:101FF0008D83AE01475E5F4F6F89788DCE0101966C
:102000000E940B10EF81F885E00FF11F10822E96D1
:10201000E4E00C94C612ABE0B0E0E1E1F0E10C9436
:102020009C126C017B018A01FC011782168283815C
:1020300081FFCCC1CE0101963C01F6019381F701ED
:1020400093FD859193FF81917F01882309F4BAC1A3
:10205000853239F493FD859193FF81917F0185321B
:1020600029F4B60190E00E940212E7CF912C212CB6
:10207000312CFFE1F315D8F08B3279F038F480324F
:1020800079F08332A1F4232D20611DC08D3261F0DF
:10209000803369F4232D216016C0832D8260382E91
:1020A000E32DE4603E2E2AC0F32DF8601DC037FCFE
:1020B0002DC020ED280F2A3040F08E32B9F436FCC6
:1020C00081C1232D2064322E19C036FE06C08AE05D
:1020D000989E200D1124922E11C0EAE02E9E200D14
:1020E0001124222EF32DF0623F2E08C08C3621F4ED
:1020F000832D8068382E02C0883641F4F70193FDA5
:10210000859193FF81917F018111B3CF982F9F7D9E
:102110009554933028F40C5F1F4F9FE399830DC0B3
:10212000833631F0833771F0833509F059C021C00F
:10213000F801808189830E5F1F4F88248394912C3E
:10214000530113C02801F2E04F0E511CF801A0808A
:10215000B18036FE03C0692D70E002C06FEF7FEFE3
:10216000C5010E94F7114C018201F32DFF773F2E2C
:1021700016C0280122E0420E511CF801A080B18057
:1021800036FE03C0692D70E002C06FEF7FEFC5011E
:102190000E94EC114C01F32DF0683F2E820133FCBC
:1021A0001BC0822D90E088169906B0F4B60180E23B
:1021B00090E00E9402122A94F4CFF50137FC859139
:1021C00037FE81915F01B60190E00E94021221105A
:1021D0002A9421E0821A91088114910471F7E8C0D1
:1021E000843611F0893641F5F80137FE07C0608169
:1021F0007181828193810C5F1F4F08C06081718162
:10220000072E000C880B990B0E5F1F4FF32DFF76E6
:102210003F2E97FF09C090958095709561957F4FEF
:102220008F4F9F4FF0683F2E2AE030E0A3010E94BD
:102230003E12882E861845C0853731F4232D2F7E17
:10224000B22E2AE030E025C0932D997FB92E8F362B
:10225000C1F018F4883579F0B5C0803719F08837A7
:1022600021F0B0C0E92FE061BE2EB4FE0DC0FB2D01
:10227000F460BF2E09C034FE0AC0292F2660B22E9A
:1022800006C028E030E005C020E130E002C020E1D7
:1022900032E0F801B7FE07C06081718182819381CD
:1022A0000C5F1F4F06C06081718180E090E00E5F7F
:1022B0001F4FA3010E943E12882E8618FB2DFF7728
:1022C0003F2E36FE0DC0232D2E7FA22E891458F4EA
:1022D00034FE0BC032FC09C0832D8E7EA82E05C0B3
:1022E000B82CA32C03C0B82C01C0B92CA4FE0FC07D
:1022F000FE01E80DF11D8081803321F49A2D997E35
:10230000A92E09C0A2FE06C0B394B39404C08A2DBE
:10231000867809F0B394A3FC11C0A0FE06C0B214E5
:1023200088F4280C922C9B180EC0B21460F4B601ED
:1023300080E290E00E940212B394F7CFB21418F436
:102340002B1802C0982C212CA4FE10C0B60180E3EB
:1023500090E00E940212A2FE17C0A1FC03C088E711
:1023600090E002C088E590E0B6010CC08A2D867826
:1023700059F0A1FE02C08BE201C080E2A7FC8DE211
:10238000B60190E00E940212891438F4B60180E38D
:1023900090E00E9402129A94F7CF8A94F301E80D1C
:1023A000F11D8081B60190E00E9402128110F5CFEC
:1023B000222009F442CEB60180E290E00E9402128F
:1023C0002A94F6CFF6018681978102C08FEF9FEFA6
:1023D0002B96E2E10C94B812FC010590615070401C
:1023E0000110D8F7809590958E0F9F1F0895FC01DE
:1023F0006150704001900110D8F7809590958E0F34
:102400009F1F08950F931F93CF93DF93FB012381A9
:1024100021FD03C08FEF9FEF2CC022FF16C0468125
:102420005781248135814217530744F4A081B1813B
:102430009D012F5F3F4F318320838C93268137810D
:102440002F5F3F4F3783268314C08B01EC01FB01C4
:102450000084F185E02D0995892BE1F6D8011696C7
:102460008D919C911797019617969C938E93169732
:10247000CE01DF91CF911F910F910895FA01AA2704
:10248000283051F1203181F1E8946F936E7F6E5FB7
:102490007F4F8F4F9F4FAF4FB1E03ED0B4E03CD065
:1024A000670F781F891F9A1FA11D680F791F8A1F48
:1024B000911DA11D6A0F711D811D911DA11D20D0AF
:1024C00009F468943F912AE0269F11243019305D69
:1024D0003193DEF6CF010895462F4770405D41935A
:1024E000B3E00FD0C9F7F6CF462F4F70405D4A33A7
:1024F00018F0495D31FD4052419302D0A9F7EACF6F
:10250000B4E0A6959795879577956795BA95C9F79D
:1025100000976105710508959B01AC010A2E069490
:102520005795479537952795BA95C9F7620F731F49
:10253000841F951FA01D08952F923F924F925F9286
:102540006F927F928F929F92AF92BF92CF92DF92C3
:10255000EF92FF920F931F93CF93DF93CDB7DEB728
:10256000CA1BDB0B0FB6F894DEBF0FBECDBF0994BC
:102570002A88398848885F846E847D848C849B8413
:10258000AA84B984C884DF80EE80FD800C811B8121
:10259000AA81B981CE0FD11D0FB6F894DEBF0FBE50
:0A25A000CDBFED010895F894FFCFC0
:1025AA003A003700340031003B0038003500320071
:1025BA003900360033003000060708090A0B00010B
:1025CA000203040506073738392F34353678313295
:1025DA00332D23303D2B08090C010A0B0D01000194
:0A25EA00020304050607256900003E
:00000001FF
