:100000000C942A000C943F000C943F000C943F0089
:100010000C943F000C943F000C943F000C943F0064
:100020000C943F000C943F000C943F000C943F0054
:100030000C943F000C943F000C943F000C943F0044
:100040000C943F000C943F000C943F000C943F0034
:100050000C943F0011241FBECFE5D4E0DEBFCDBF1E
:1000600010E0A0E6B0E0E8E6FAE002C005900D92EC
:10007000A837B107D9F70E942C020C9432050C94D2
:100080000000CF93DF9300D0CDB7DEB789836A83BA
:100090008A81882F90E0009789F1019709F05DC06F
:1000A0008981869586958695882F90E0880F991F7F
:1000B000805A9F4FFC018081918129812695269548
:1000C0002695222F30E0220F331F205A3F4FF9018F
:1000D00020813181F9012081622F2981222F30E096
:1000E000A9014770552721E030E002C0220F331FDD
:1000F0004A95E2F7262BFC0120832FC08981869543
:1001000086958695882F90E0880F991F805A9F4F7B
:10011000FC01808191812981269526952695222FA3
:1001200030E0220F331F205A3F4FF90120813181E7
:10013000F9012081622F2981222F30E0A901477027
:10014000552721E030E002C0220F331F4A95E2F725
:1001500020952623FC012083000000000F900F90C3
:10016000DF91CF910895CF93DF9300D0CDB7DEB765
:1001700089836A838A81882F90E08130910539F0E4
:100180008230910509F460C0892B79F18BC0898197
:10019000869586958695882F90E0880F991F8859B7
:1001A0009F4FFC0180819181298126952695269576
:1001B000222F30E0220F331F28593F4FF9012081B1
:1001C0003181F9012081622F2981222F30E0A9019C
:1001D0004770552721E030E002C0220F331F4A95B7
:1001E000E2F7262BFC0120835DC0898186958695E8
:1001F0008695882F90E0880F991F88599F4FFC01A2
:10020000808191812981269526952695222F30E09F
:10021000220F331F28593F4FF90120813181F90105
:100220002081622F2981222F30E0A90147705527B4
:1002300021E030E002C0220F331F4A95E2F72095FB
:100240002623FC0120832EC089818695869586957C
:10025000882F90E0880F991F88599F4FFC0180815B
:1002600091812981269526952695222F30E0220F0F
:10027000331F28593F4FF90120813181F901208135
:10028000622F2981222F30E0A9014770552721E0F4
:1002900030E002C0220F331F4A95E2F72627FC0107
:1002A0002083000000000F900F90DF91CF91089500
:1002B000CF93DF9300D0CDB7DEB78A8319828A81CE
:1002C000869586958695882F90E0880F991F80598E
:1002D0009F4FFC0180819181FC018081882F90E0FB
:1002E0002A81222F30E02770332702C09595879509
:1002F0002A95E2F78170898389810F900F90DF91B1
:10030000CF910895CF93DF9300D0CDB7DEB7898327
:100310006A838981882F90E0880F991F805A9F4FA8
:10032000FC01808191812A81FC01208300000F90D3
:100330000F90DF91CF910895CF93DF9300D0CDB789
:10034000DEB789836A838981882F90E0880F991F9F
:1003500088599F4FFC01808191812A81FC01208373
:1003600000000F900F90DF91CF910895CF93DF930E
:1003700000D0CDB7DEB78A8319828A81882F90E0BA
:10038000880F991F80599F4FFC0180819181FC014A
:100390008081898389810F900F90DF91CF9108959B
:1003A000CF93DF9300D01F92CDB7DEB789836A83E6
:1003B0004B836FEF89810E94820160E08A810E94F5
:1003C000410060E08B810E9441008A810E945801B7
:1003D000882321F46FEF89810E949C018B810E9408
:1003E0005801882321F460E089810E949C0100006B
:1003F0000F900F900F90DF91CF910895CF93DF93DF
:1004000000D01F92CDB7DEB789836A834B8361E04A
:1004100089810E94410060E08A810E94410060E081
:100420008B810E9441008A810E945801882321F417
:1004300061E089810E94B3008B810E94580188236A
:1004400021F460E089810E949C0100000F900F90D0
:100450000F90DF91CF910895CF93DF93CDB7DEB7A3
:10046000E8970FB6F894DEBF0FBECDBF6FEF83E005
:100470000E9482016FEF81E00E94820160E883E0C8
:100480000E949C0180E090E0AAEFB3E489839A8304
:10049000AB83BC8320E030E04AE753E469817A8192
:1004A0008B819C810E949D04DC01CB018FA798ABBE
:1004B000A9ABBAAB20E030E040E85FE36FA578A9D4
:1004C00089A99AA90E94170488232CF481E090E05E
:1004D0009CAB8BAB3FC020E03FEF4FE757E46FA5ED
:1004E00078A989A99AA90E94980418164CF520E0C9
:1004F00030E040E251E469817A818B819C810E94E5
:100500009D04DC01CB01BC01CD010E941C04DC0177
:10051000CB019CAB8BAB0FC089E190E09EAB8DAB68
:100520008DA99EA90197F1F79EAB8DAB8BA99CA9D4
:1005300001979CAB8BAB8BA99CA9892B69F714C045
:100540006FA578A989A99AA90E941C04DC01CB0196
:100550009CAB8BAB8BA99CA998AF8FAB8FA998ADA7
:100560000197F1F798AF8FAB60E881E00E949C01A2
:1005700080E090E0AAEFB3E48D839E83AF83B887D9
:1005800020E030E04AE753E46D817E818F819885D9
:100590000E949D04DC01CB018DA39EA3AFA3B8A74D
:1005A00020E030E040E85FE36DA17EA18FA198A537
:1005B0000E94170488232CF481E090E09AA789A771
:1005C0003FC020E03FEF4FE757E46DA17EA18FA130
:1005D00098A50E94980418164CF520E030E040E2FF
:1005E00051E46D817E818F8198850E949D04DC019C
:1005F000CB01BC01CD010E941C04DC01CB019AA7F8
:1006000089A70FC089E190E09CA78BA78BA59CA52B
:100610000197F1F79CA78BA789A59AA501979AA79F
:1006200089A789A59AA5892B69F714C06DA17EA118
:100630008FA198A50E941C04DC01CB019AA789A771
:1006400089A59AA59EA78DA78DA59EA50197F1F7CF
:100650009EA78DA76FE783E00E949C0180E090E059
:10066000AAEFB3E489879A87AB87BC8720E030E0A4
:100670004AE753E469857A858B859C850E949D04B1
:10068000DC01CB018B8F9C8FAD8FBE8F20E030E0E3
:1006900040E85FE36B8D7C8D8D8D9E8D0E941704ED
:1006A00088232CF481E090E098A38F8F3FC020E056
:1006B0003FEF4FE757E46B8D7C8D8D8D9E8D0E94B3
:1006C000980418164CF520E030E040E251E46985CA
:1006D0007A858B859C850E949D04DC01CB01BC0141
:1006E000CD010E941C04DC01CB0198A38F8F0FC0A9
:1006F00089E190E09AA389A389A19AA10197F1F7D2
:100700009AA389A38F8D98A1019798A38F8F8F8D1E
:1007100098A1892B69F714C06B8D7C8D8D8D9E8D72
:100720000E941C04DC01CB0198A38F8F8F8D98A1B0
:100730009CA38BA38BA19CA10197F1F79CA38BA3F6
:100740006FE781E00E949C0180E090E0AAEFB3E4B3
:100750008D879E87AF87B88B20E030E04AE753E46F
:100760006D857E858F8598890E949D04DC01CB0173
:10077000898B9A8BAB8BBC8B20E030E040E85FE349
:1007800069897A898B899C890E94170488232CF4B3
:1007900081E090E09E8B8D8B3FC020E03FEF4FE7E4
:1007A00057E469897A898B899C890E949804181674
:1007B0004CF520E030E040E251E46D857E858F8588
:1007C00098890E949D04DC01CB01BC01CD010E94EF
:1007D0001C04DC01CB019E8B8D8B0FC089E190E066
:1007E000988F8F8B8F89988D0197F1F7988F8F8BCA
:1007F0008D899E8901979E8B8D8B8D899E89892BF2
:1008000069F714C069897A898B899C890E941C04C4
:10081000DC01CB019E8B8D8B8D899E899A8F898F70
:10082000898D9A8D0197F1F79A8F898F27CE0E9433
:100830004B0408F481E008950E94770488F09F57E4
:1008400098F0B92F9927B751B0F0E1F0660F771FF4
:10085000881F991F1AF0BA95C9F714C0B13091F0EA
:100860000E949104B1E008950C949104672F782FB1
:100870008827B85F39F0B93FCCF3869577956795AF
:10088000B395D9F73EF490958095709561957F4F1B
:100890008F4F9F4F0895990F0008550FAA0BE0E85E
:1008A000FEEF16161706E807F907C0F01216130632
:1008B000E407F50798F0621B730B840B950B39F472
:1008C0000A2661F0232B242B252B21F408950A26D8
:1008D00009F4A140A6958FEF811D811D089557FD54
:1008E0009058440F551F59F05F3F71F04795880F9E
:1008F00097FB991F61F09F3F79F087950895121635
:1009000013061406551FF2CF4695F1DF08C01616E0
:1009100017061806991FF1CF869571056105089491
:100920000895E894BB2766277727CB0197F90895A8
:100930000E944B0408F48FEF08950E94B0040C94B9
:1009400021050E94130538F00E941A0520F0952316
:1009500011F00C940A050C94100511240C949204C7
:100960000E946F0470F3959FC1F3950F50E0551FDF
:10097000629FF001729FBB27F00DB11D639FAA27F4
:10098000F00DB11DAA1F649F6627B00DA11D661F43
:10099000829F2227B00DA11D621F739FB00DA11D64
:1009A000621F839FA00D611D221F749F3327A00D1E
:1009B000611D231F849F600D211D822F762F6A2FBA
:1009C00011249F5750409AF0F1F088234AF0EE0F1F
:1009D000FF1FBB1F661F771F881F91505040A9F74C
:1009E0009E3F510580F00C940A050C9492045F3FE1
:1009F000E4F3983ED4F3869577956795B795F79588
:100A0000E7959F5FC1F7FE2B880F911D96958795FF
:100A100097F9089597F99F6780E870E060E008957E
:100A20009FEF80EC089500240A9416161706180606
:100A30000906089500240A941216130614060506E2
:100A40000895092E0394000C11F4882352F0BB0F73
:100A500040F4BF2B11F460FF04C06F5F7F4F8F4FD6
:080A60009F4F0895F894FFCFA9
:100A68003A003700340031003B00380035003200CE
:080A78003900360033003000A4
:00000001FF
